:100000000C9401030C9429030C9429030C942903E8
:100010000C9429030C9429030C9429030C942903B0
:100020000C9429030C9429030C9429030C942903A0
:100030000C9429030C9429030C9429030C94290390
:100040000C948F0A0C9429030C9478090C9452098F
:100050000C9429030C9429030C9429030C94290370
:100060000C9429030C94290305A84CCDB2D44EB9A5
:100070003836A9020C50B9918688083CA6AAAA2A4B
:10008000BE000000803F01020408102040800102F1
:1000900004081020010204081020000000002500C0
:1000A00028002B00040404040404040402020202D5
:1000B000020203030303030300000000FFFFFFFF2E
:1000C00033020000410500000000E8030000FFFFCC
:1000D000FFFF21024502000000000000E8030000CD
:1000E000FFFFFFFF0F020000000045020000456E09
:1000F000746572696E6720632053746174650000D3
:10010000000000FFFFFFFF7F020000A802000000C8
:100110000000000000FFFFFFFF6802000000009DDC
:1001200002000000000000FFFFFFFF5102920200EA
:100130000087020000456E746572696E6720622058
:1001400053746174650000000000FFFFFFFFC502EB
:1001500000000000D702000000000000FFFFFFFFCA
:10016000B302D702000000000000456E746572699A
:100170006E6720612053746174650000000000FF09
:10018000FFFFFF520400006E0500000000000000A9
:1001900000FFFFFFFF3B0400006E050000000000B1
:1001A000000000FFFFFFFF240400006E05000000B8
:1001B0000000000000FFFFFFFF0D0400006E0500BF
:1001C00000000000000000FFFFFFFFF60300006ECC
:1001D0000500000000E8030000FFFFFFFFA304414B
:1001E00005000000000000B80B0000FFFFFFFFE368
:1001F000024105000000000000456E746572696EE2
:100200006720392053746174650000000000FA0013
:1002100000007905630500006E050000FA0000008B
:10022000FFFFFFFF790500006E0500000000FA00E7
:100230000000FFFFFFFFCD04F1043503FC040000C4
:10024000BE0A0000FFFFFFFF2D03F1044D05FC0473
:100250000000540B0000FFFFFFFF2503F1044D05D4
:10026000FC040000EA0B0000FFFFFFFF1D03F10488
:100270004D05FC040000800C0000FFFFFFFF15038C
:10028000F1044D05FC040000160D0000FFFFFFFF08
:100290000D03F1044D05FC040000AC0D0000FFFF50
:1002A000FFFF0503F1044D05FC040000420E0000B1
:1002B000FFFFFFFFFD02F1044D05FC040000D80E16
:1002C0000000FFFFFFFFF502F1044D05FC040000F4
:1002D000456E746572696E67203920537461746568
:1002E0000000000000FFFFFFFF7905F1040000009F
:1002F00000000000000000FFFFFFFF4003000000BF
:100300000041050000456E746572696E67203820F3
:1003100053746174650000000000FFFFFFFF8D0350
:10032000000041050000000000000000FFFFFFFF8B
:100330007B030000000041050000D0070000FFFF24
:10034000FFFF69030000410500000000D007000026
:10035000FFFFFFFF57030000000041050000456E4E
:10036000746572696E67203720537461746500008C
:10037000000000FFFFFFFF7905000000006E050090
:100380000000000000FFFFFFFFCD036E0500004DE1
:1003900005000000000000FFFFFFFFB6036E050030
:1003A000004D05000000000000FFFFFFFF9F036EEF
:1003B0000500004D050000456E746572696E67208A
:1003C000362053746174650000000000881300003B
:1003D000DF0400000000FC040000E8030000B80B8C
:1003E0000000DF04F104000000000000A00F000086
:1003F000B80B0000CD04F1040000000000008813D9
:100400000000B80B0000CD0400000000FC04000058
:10041000456E746572696E6720352053746174652A
:10042000000000000088130000520400006E050068
:1004300000000000000000881300003B0400006E74
:1004400005000000000000000088130000240400E4
:10045000006E050000000000000000881300000D81
:100460000400006E0500000000000000008813007A
:1004700000F60300006E0500000000E8030000FF26
:10048000FFFFFFE4030000740400006904456E747C
:100490006572696E672034205374617465000000D2
:1004A0000000FFFFFFFFA304C1043505B5040000F1
:1004B000D0070000FFFFFFFF91044105000000008E
:1004C0000000D0070000FFFFFFFF7F044105000090
:1004D00000000000456E746572696E67203320531A
:1004E000746174650000000000B80B0000DF04F1C7
:1004F000040000FC040000B80B000070170000CDE1
:1005000004F1040000FC040000456E746572696E1D
:100510006720322053746174650000000000FFFF03
:10052000FFFF79050000000013051305F40100002A
:10053000E803000079050000000007050000CA0874
:100540000000E80300007905000000000705000036
:10055000A00F0000E8030000790500000000070577
:100560000000456E746572696E67203120537461B6
:1005700074650000000000FFFFFFFF1E0500000083
:100580000000006E05456E746572696E67205570D7
:100590002053746174650000000000FFFFFFFF79C5
:1005A000050000000000006E05456E746572696EFE
:1005B00067204F6E2053746174650000000000FFD7
:1005C000FFFFFF79050000000000005805456E742C
:1005D0006572696E67204F666620537461746500AA
:1005E00000000000240027002A000000000800028C
:1005F0000100000304070000000000000000D90A09
:100600006F1311241FBECFEFD8E0DEBFCDBF11E0C6
:10061000A0E0B1E0E6E8FBE302C005900D92A2374E
:10062000B107D9F725E0A2E7B1E001C01D92AE3DC8
:10063000B207E1F712E0C0E0D3E004C02197FE0169
:100640000E949319CF3FD107C9F70E947F130C94E2
:10065000B61D0C9400008F929F92AF92BF92CF92E2
:10066000DF92EF92FF92CF93C82F61E00E94AA0918
:100670000E943D0A4B015C0184E6C82ED12CE12C7E
:10068000F12C0E943D0ADC01CB0188199909AA09C5
:10069000BB09883E9340A105B10558F021E0C21A7C
:1006A000D108E108F10888EE880E83E0981EA11CAD
:1006B000B11CC114D104E104F10419F760E08C2FDE
:1006C000CF91FF90EF90DF90CF90BF90AF909F9031
:1006D0008F900C94AA09CF92DF92EF92FF920F9322
:1006E0001F93CF93DF936C017A018B01C0E0D0E0C0
:1006F000CE15DF0589F0D8016D918D01D601ED9100
:10070000FC910190F081E02DC6010995892B11F42F
:100710007E0102C02196ECCFC701DF91CF911F91DE
:100720000F91FF90EF90DF90CF9008950F931F935C
:10073000CF93DF938C01C0E0D0E0F801EC0FFD1FF8
:100740006491662371F0E0917201F0917301019060
:10075000F081E02D82E791E00995892B11F0219637
:10076000ECCF42E050E06FE671E082E791E00E945A
:100770006B038C0F9D1FDF91CF911F910F910895F7
:100780008F929F92AF92BF92CF92DF92EF92FF92A1
:100790001F93CF93DF93EC01162F69017A0120E0BC
:1007A00030E0A901C701B6010E94B81B181644F534
:1007B0008090800590908105A0908205B09083057F
:1007C00020E030E0A901C501B4010E94B81B181651
:1007D0000CF042C060918705709188058091890571
:1007E00090918A050E94C71AA50194010E941F1AC0
:1007F00020E030E040E05FE30E94B81B181664F18F
:10080000D0937E05C0937D0510937F05C09280052F
:10081000D0928105E0928205F092830510928705BF
:10082000109288051092890510928A050E94620A2A
:1008300060938B0570938C0580938D0590938E0546
:10084000DF91CF911F91FF90EF90DF90CF90BF90FD
:10085000AF909F908F90089580917D0590917E0537
:10086000909385058093840580917F05809386050C
:1008700080918B0590918C05A0918D05B0918E058E
:1008800080938F0590939005A0939105B093920566
:10089000B7CF2F923F924F925F926F927F928F923B
:1008A0009F92AF92BF92CF92DF92EF92FF920F93FF
:1008B0001F93CF93DF93CDB7DEB767970FB6F8944A
:1008C000DEBF0FBECDBF382E4F8B28013901870107
:1008D000BC8AAB8A9E8A8D8A7B01212C8F8928163F
:1008E00009F491C042E150E0B701CE0101960E94A7
:1008F000AD1D89819A81AB81BC81481659066A0673
:100900007B0608F47BC053014201881A990AAA0A9F
:10091000BB0A8D819E81AF81B88588169906AA068B
:10092000BB0608F06BC089859A85009761F0DC01F1
:10093000ED91FC910190F081E02D232DB501A401F2
:1009400009954B015C018114B8E29B06BBE6AB063E
:10095000BEEEBB0608F052C08B859C85009781F0E7
:10096000DC01ED91FC910190F081E02DB501A40135
:100970000995F80120813181820F931F9183808333
:100980008D859E85009789F0DC01ED91FC910190A9
:10099000F081E02DB501A4010995EB89FC89208146
:1009A0003181820F931F918380838F85988900976F
:1009B00081F0DC01ED91FC910190F081E02DB50119
:1009C000A4010995F60120813181820F931F918343
:1009D000808389899A89009789F0DC01ED91FC91E7
:1009E0000190F081E02DB501A4010995ED89FE8902
:1009F00020813181820F931F918380832394F2E1C0
:100A0000EF0EF11C6BCF67960FB6F894DEBF0FBEEA
:100A1000CDBFDF91CF911F910F91FF90EF90DF90AD
:100A2000CF90BF90AF909F908F907F906F905F908E
:100A30004F903F902F9008950E94A81D82E791E06B
:100A40000E944A0521E0892B09F420E0822F0895B5
:100A5000FC01918D828D981761F0828DDF01A80FC6
:100A6000B11D5D968C91928D9F5F9F73928F90E0E8
:100A700008958FEF9FEF0895FC01918D828D981757
:100A800031F0828DE80FF11D858D90E008958FEF94
:100A90009FEF0895FC01918D228D892F90E0805C5D
:100AA0009F4F821B91098F7399270895FC01848DB4
:100AB000DF01A80FB11DA35ABF4F2C91848D90E088
:100AC00001968F739927848FA689B7892C93A08963
:100AD000B1898C9180648C93938D848D981306C01A
:100AE0000288F389E02D80818F7D80830895EF92C5
:100AF000FF920F931F93CF93DF93EC0181E0888FD8
:100B00009B8D8C8D981305C0E889F989808185FDBE
:100B100024C0F62E0B8D10E00F5F1F4F0F731127AF
:100B2000E02E8C8DE8120CC00FB607FCFACFE889D6
:100B3000F989808185FFF5CFCE010E945605F1CF5E
:100B40008B8DFE01E80FF11DE35AFF4FF0820B8FF2
:100B5000EA89FB898081806207C0EE89FF89608312
:100B6000E889F98980818064808381E090E0DF9169
:100B7000CF911F910F91FF90EF900895CF93DF9346
:100B8000EC01888D8823C9F0EA89FB89808185FD85
:100B900005C0A889B9898C9186FD0FC00FB607FCE6
:100BA000F5CF808185FFF2CFA889B9898C9185FF27
:100BB000EDCFCE010E945605E7CFDF91CF9108958A
:100BC00080E090E0892B29F00E941E0581110C9491
:100BD00000000895CB01BA0108958F929F92AF92C1
:100BE000BF92CF92DF92EF92FF92CF93DF935C019F
:100BF000FC0191858681D281C381992329F0682FD8
:100C000070E06D1B710904C06C2F70E0681B7109E6
:100C1000072E000C880B990B0E94C91A6B017C01EE
:100C2000F50162857385848595850E94C71A4B01FD
:100C30005C018C2F90E001968D1B9109BC01990FEE
:100C4000880B990B0E94C91A9B01AC01C701B60120
:100C50000E941F1A9B01AC01C501B4010E94BD1B7B
:100C60000E94981ADF91CF91FF90EF90DF90CF9084
:100C7000BF90AF909F908F900895FC01868108955A
:100C800008952F923F924F925F926F927F928F9230
:100C90009F92AF92BF92CF92DF92EF92FF920F930B
:100CA0001F93CF93DF9300D000D000D0CDB7DEB735
:100CB0001C018B01FC01E680F780B7010F2C000CB2
:100CC000880B990B4D835E830E94C91A69837A83CE
:100CD0008B839C83F101608571856E197F09072ED6
:100CE000000C880B990B0E94C91A2B013C01F101E1
:100CF0008285C280D380E480F5804D815E81882327
:100D0000D1F046015701880C991CAA1CBB1CBA01E2
:100D1000C801A50194010E945219C616D706E8061B
:100D2000F90690F4A5019401261B370B480B590BCB
:100D3000CA01B90109C0BA01C801C616D706E8063A
:100D4000F90610F4C701B6010E94C71A6B017C01B5
:100D5000F10162817381848195810E94C71A9B0190
:100D6000AC01C701B6010E941F1A9B01AC01C3016F
:100D7000B2010E94BD1B9B01AC0169817A818B810C
:100D80009C810E94A9190E94911ACB0126960FB648
:100D9000F894DEBF0FBECDBFDF91CF911F910F91B1
:100DA000FF90EF90DF90CF90BF90AF909F908F908B
:100DB0007F906F905F904F903F902F900895FC012F
:100DC0008085918508958F929F92AF92BF92CF9226
:100DD000DF92EF92FF92CF93DF935C01FC0191854C
:100DE0008781D481C581992329F0682F70E06D1B1C
:100DF000710904C06C2F70E0681B7109072E000C8C
:100E0000880B990B0E94C91A6B017C01F501628560
:100E10007385848595850E94C71A4B015C018C2FD0
:100E200090E001968D1B9109BC01990F880B990BDD
:100E30000E94C91A9B01AC01C701B6010E941F1A8A
:100E40009B01AC01C501B4010E94BD1B0E94981A10
:100E5000DF91CF91FF90EF90DF90CF90BF90AF9058
:100E60009F908F900895FC0187810895DC01E62F03
:100E7000372F822F6AE00E94321916968C931697AC
:100E800017969C93179712962C911297821790F0B1
:100E900013962C911397281768F014968C91149739
:100EA000981740F015968C91891720F0BA018E2F73
:100EB000932F08956FEF7FEF8FEF9FEF08958F923D
:100EC0009F92AF92BF92CF92DF92EF92FF92CF9319
:100ED000DF93EC010E9436076B017C016F3F7F4F6F
:100EE0008F4F9F4F41F18885E881F9818823D1F0A8
:100EF0008E849F84A888B9888A859B85AC85BD85AA
:100F0000880E991EAA1EBB1E0280F381E02DCE0121
:100F10000995A50194012C193D094E095F09690144
:100F20007A0105C00280F381E02DCE010995C61A31
:100F3000D70AE80AF90AC701B601DF91CF91FF90FD
:100F4000EF90DF90CF90BF90AF909F908F900895DB
:100F50008F929F92AF92BF92CF92DF92EF92FF92C9
:100F60001F93CF93DF93EC010E9436076F3F2FEF63
:100F700072078207920721F46FEF7FEFCB0172C0F7
:100F80008F849888A988BA88A50194010E94521973
:100F90006B017C018E85882341F0D501C4018C1939
:100FA0009D09AE09BF096C017D01288539854A85F7
:100FB0005B85C701B6010E945219B22E6D8570E0A3
:100FC000822F90E02C85821B91090196860F971F36
:100FD0000E943E19182FE881F9810280F381E02DEB
:100FE000CE0109956D850E943219B11628F091172E
:100FF00018F2B91630F4C0CFB91618F4911708F4E6
:10100000BBCF8F849888A988BA88C80CD91CEA1CE1
:10101000FB1C288539854A855B85A92FB0E00E9495
:101020007419A7019601261B370B480B590BCA01EF
:10103000B901A50194010E945219CB88DC88ED8882
:10104000FE886C157D058E059F0560F0CC0CDD1CBF
:10105000EE1CFF1CA7019601261B370B480B590BF2
:10106000CA01B901DF91CF911F91FF90EF90DF90FE
:10107000CF90BF90AF909F908F9008956F927F9286
:101080008F929F92AF92BF92CF92DF92EF92FF9298
:101090000F931F93CF93DF9300D000D0CDB7DEB76F
:1010A0003C01E62F372FDC011A968C911A97129685
:1010B000CD90DD90ED90FC9015978823D9F04601F6
:1010C0005701880C991CAA1CBB1CBA018E2F932FA8
:1010D000A50194010E945219C616D706E806F90622
:1010E00098F4A5019401261B370B480B590BCA0134
:1010F000B9010AC0BA018E2F932FC616D706E8068B
:10110000F90610F4C701B601D3011B962C911B9769
:10111000213029F518960D911C9119970E94C71A34
:101120006B017C01F30162817381848195810E944E
:10113000C71A9B01AC01C701B6010E941F1A2BED13
:101140003FE049EC5FE30E94BD1B0E941A1A9B011D
:10115000AC01D30116968D919C91179725C0223032
:10116000A1F5F301068117810E94C71A6B017C016A
:10117000D30112966D917D918D919C9115970E944E
:10118000C71A9B01AC01C701B6010E941F1A2BEDC3
:101190003FE049EC5FE30E94BD1B0E942A1C9B01BB
:1011A000AC01F30180859185801B910BBC01990FE7
:1011B000880B990B29833A834B835C830E94C91A5D
:1011C00029813A814B815C8144C0233009F057C0AA
:1011D000D30116960D911C9117970E94C71A2BEDFB
:1011E0003FE049E450E40E94BD1B6B017C01F30128
:1011F00062817381848195810E94C71A9B01AC0131
:10120000C701B6010E941F1A0E941A1A6B017C01C5
:10121000D30118968D919C911997F801E81BF90B51
:10122000CF01F7FD019695958795BC01990F880B25
:10123000990B0E94C91A4B015C0120E030E040E8A4
:101240005FE3C701B6010E94A8199B01AC01C5016B
:10125000B4010E94BD1B6B017C01B801110F880B0A
:10126000990B0E94C91A9B01AC01C701B6010E94EB
:10127000A9190E94911A262F972F822F00C00F9034
:101280000F900F900F90DF91CF911F910F91FF90D2
:10129000EF90DF90CF90BF90AF909F908F907F9016
:1012A0006F9008951F920F920FB60F9211242F93F3
:1012B0003F934F935F936F937F938F939F93AF93DE
:1012C000BF93EF93FF9382E791E00E945605FF9151
:1012D000EF91BF91AF919F918F917F916F915F91AE
:1012E0004F913F912F910F900FBE0F901F90189527
:1012F0001F920F920FB60F9211242F938F939F93EB
:10130000EF93FF93E0918201F09183018081E0915E
:101310008801F091890182FD12C0908180918B013A
:101320008F5F8F7320918C01821751F0E0918B01B8
:10133000F0E0EE58FE4F958F80938B0101C08081C5
:10134000FF91EF919F918F912F910F900FBE0F9072
:101350001F90189590E0FC01E651FA4F3491FC0182
:10136000EA57FF4F2491FC01EC55FF4FE491EE2327
:1013700009F43BC0332339F1333091F038F4313084
:10138000A9F0323001F584B58F7D12C0373091F06D
:101390003830A1F03430B9F4809180008F7D03C0E3
:1013A000809180008F77809380000DC084B58F7707
:1013B00084BD09C08091B0008F7703C08091B000D8
:1013C0008F7D8093B000F0E0EE0FFF1FE656FF4FD9
:1013D000A591B4918FB7F894EC91611103C0209559
:1013E0002E2301C02E2B2C938FBF0895262FFC0196
:1013F0008281882311F061E001C060E0822F0C94AB
:10140000AA09CF93DF9390E0FC01EA57FF4F2491A4
:10141000FC01EC55FF4F8491882361F190E0880F27
:10142000991FFC01E052FA4FC591D491FC01E65698
:10143000FF4FA591B491611109C09FB7F8948881BD
:10144000209582238883EC912E230BC0623061F4B7
:101450009FB7F8943881822F809583238883EC91FD
:101460002E2B2C939FBF06C08FB7F894E8812E2BAC
:1014700028838FBFDF91CF9108953FB7F894809173
:10148000D6059091D705A091D805B091D90526B57C
:10149000A89B05C02F3F19F00196A11DB11D3FBFAC
:1014A000BA2FA92F982F8827820F911DA11DB11D3A
:1014B000BC01CD0143E0660F771F881F991F4A9535
:1014C000D1F708952FB7F8946091D2057091D305A4
:1014D0008091D4059091D5052FBF08950F931F9348
:1014E000CF938C01C62F0E94620AF80122813381BA
:1014F000448155810E945219F80106811781208587
:101500003185061717072807390710F061E001C079
:1015100060E08C2FCF911F910F910C94AA091F921C
:101520000F920FB60F9211242F933F938F939F9397
:10153000AF93BF938091D2059091D305A091D4052C
:10154000B091D5053091D10526E0230F2D3720F439
:101550000296A11DB11D05C029E8230F0396A11D08
:10156000B11D2093D1058093D2059093D305A0930C
:10157000D405B093D5058091D6059091D705A0915B
:10158000D805B091D9050196A11DB11D8093D6054E
:101590009093D705A093D805B093D905BF91AF918B
:1015A0009F918F913F912F910F900FBE0F901F90A1
:1015B00018952F923F924F925F926F927F928F92E7
:1015C0009F92AF92BF92CF92DF92EF92FF920F93D2
:1015D0001F93CF93DF93109275011092740188EEE0
:1015E00093E0A0E0B0E08093760190937701A09320
:1015F0007801B09379018CE091E09093730180932E
:10160000720185EC90E090937F0180937E0184ECE1
:1016100090E0909381018093800180EC90E0909322
:1016200083018093820181EC90E090938501809307
:10163000840182EC90E0909387018093860186EC90
:1016400090E0909389018093880110928B01109211
:101650008C0110928D0110928E011092AE051092A5
:10166000B4051092BB051092BC051092BD051092F6
:10167000BE0583E08093BA051092B70581E08093A0
:10168000B80592E09093B9058093AD0580EF90E0A6
:101690009093B2058093B1050E947B1C9093B60590
:1016A0008093B505009761F020EFFC0111922A9517
:1016B000E9F78CE390E09093B0058093AF0508C004
:1016C0001092B2051092B1051092B0051092AF05BC
:1016D00086E08093B3058091AE05882341F061E0F8
:1016E00086E00E94010A60E086E00E94AA09EAEA18
:1016F000F0E0E491F0E0EE0FFF1FE656FF4F85911A
:1017000094919093C0058093BF05ECE8F0E0E491DC
:10171000E093C10526E631E03093AB052093AA059E
:1017200081E08093AC053093A8052093A705109223
:10173000A9052AE531E030939E0520939D0594EF9D
:10174000492E55245394612C712C40929F05509240
:10175000A0056092A1057092A2054AEF642E712C3B
:10176000812C912C6092A3057092A4058092A5050E
:101770009092A605309394052093930548EC50E091
:1017800060E070E04093950550939605609397054F
:101790007093980554E6852E912CA12CB12C809243
:1017A000990590929A05A0929B05B0929C052DEA0E
:1017B00035E030937C0520937B0524E531E03093C0
:1017C0007A05209379054EE451E050936F054093DC
:1017D0006E051092750510927405CC24CA94D12C14
:1017E000D0927705C092760510927005109271051F
:1017F000109272051092730510927805509364054B
:101800004093630510926A051092690578E7E72E08
:10181000F12CF0926C05E0926B0510926505109228
:101820006605109267051092680510926D05509339
:1018300059054093580510925F0510925E0510926D
:1018400061051092600510925A0510925B05109286
:101850005C0510925D051092620550934E05409311
:101860004D0501E01FEF10935405009353051093AD
:1018700056050093550510924F0510925005109291
:10188000510510925205109257051092480510927A
:101890004705D0924A05C0924905EEEE4E2EE2E091
:1018A0005E2E612C712C409243055092440560924B
:1018B00045057092460510924B05F8E46F2EF1E055
:1018C0007F2E709242056092410580934C051092E4
:1018D0003C0510923B0510923E0510923D05AEEE80
:1018E000CA2EA2E0DA2EE12CF12CC0923705D0925C
:1018F0003805E0923905F0923A0510923F05709252
:10190000360560923505809340051092200595E0DC
:10191000909321051092220529E020932305B0E43D
:101920002B2EB1E03B2E30921F0520921E05CCE3FA
:10193000CC2ED12CE12CF12CC0922605D09227057B
:10194000E0922805F092290533E030932A05B6E0AD
:10195000B0932B0510922C05D8E6CD2EDD24D39420
:10196000E12CF12CC0922D05D0922E05E0922F058E
:10197000F09230051AE5C12ED12CE12CF12CC09249
:101980003105D0923205E0923305F0923405509340
:1019900014054093130510921A0510921905EAE0F8
:1019A000F0E0F0931C05E0931B05109215051092D2
:1019B0001605109217051092180510921D05109229
:1019C0000E0510920D05EE24EA94F12CF09210050C
:1019D000E0920F054AEF50E060E070E040930905A7
:1019E00050930A0560930B0570930C0580931105C5
:1019F0007092080560920705309312051092030556
:101A000010920205F0920505E092040548EE442E7E
:101A100043E0542E612C712C4092FE045092FF043E
:101A200060920005709201051092060504E311E032
:101A30001093FD040093FC041092F8041092F70434
:101A400058E7652E712C7092FA046092F90468EEE2
:101A5000C62E63E0D62EE12CF12CC092F304D09276
:101A6000F404E092F504F092F6041092FB04109353
:101A7000F2040093F1041092E1049093E2041092B6
:101A8000E3042093E404CCE2D1E0D093E004C093DB
:101A9000DF041092E7041092ED041092EE0410920D
:101AA000EF041092F0048093E80470EDC72E77E005
:101AB000D72EE12CF12CC092E904D092EA04E092F6
:101AC000EB04F092EC041092CF049093D0041092A7
:101AD000D1042093D204D093CE04C093CD0480933C
:101AE000D50448EE53E060E070E04093DB0450938F
:101AF000DC046093DD047093DE048093D604C0920E
:101B0000D704D092D804E092D904F092DA0410926B
:101B1000C8041092C7047092CA046092C904AEEE61
:101B20004A2EA2E05A2E612C712C4092C30450928E
:101B3000C4046092C5047092C6041092CB0448E4B9
:101B4000642E41E0742E7092C2046092C1048093AE
:101B5000CC041092BC041092BB0442E350E05093BA
:101B6000BE044093BD044EEE52E060E070E040934E
:101B7000B7045093B8046093B9047093BA041092F8
:101B8000BF047092B6046092B5048093C0041092B2
:101B9000A5049093A60444E04093A7044093A804AE
:101BA000D093A404C093A3041092AB041092B10488
:101BB0001092B2041092B3041092B4048093AC0457
:101BC000C092AD04D092AE04E092AF04F092B004A3
:101BD0001092930490939404109295044093960469
:101BE0001092990410929F041092A0041092A104E4
:101BF0001092A20410929A04C0929B04D0929C046A
:101C0000E0929D04F0929E0464E271E0709392046D
:101C10006093910410928104909382044093830412
:101C2000209384041092870410928D0410928E04E5
:101C300010928F041092900480938804C0928904BB
:101C4000D0928A04E0928B04F0928C04709380040A
:101C500060937F0410927B0410927A0468EC70E029
:101C600070937D0460937C0450EA452E5FE0552E0E
:101C7000612C712C40927604509277046092780423
:101C80007092790410927E0410937504009374048A
:101C90001092700410926F04F0937204E093710438
:101CA00040926B0450926C0460926D0470926E04CA
:101CB0001092730410936A04009369041092540400
:101CC0009093550490935604909357043092530484
:101CD0002092520480925A0490925B04A0925C0479
:101CE000B0925D0480935E0457E050935F0480934C
:101CF00060046CEB462E62E0562E612C712C4092F3
:101D0000610450926204609263047092640472E30E
:101D1000472E512C612C712C409265045092660420
:101D2000609267047092680410923D0490933E04A0
:101D300030933F043093400430923C0420923B04A3
:101D40008092430490924404A0924504B0924604C9
:101D5000809347046DE06093480480934904F4E164
:101D60004F2EF5E05F2E612C712C40924A04509268
:101D70004B0460924C0470924D04A2E34A2E512C05
:101D8000612C712C40924E0450924F04609250048A
:101D900070925104109226049093270440932804D3
:101DA00040932904309225042092240480922C042C
:101DB00090922D04A0922E04B0922F0480933004B0
:101DC00063E160933104809332046CE6462E67E051
:101DD000562E612C712C4092330450923404609240
:101DE00035047092360472E3472E512C612C712C0D
:101DF00040923704509238046092390470923A0449
:101E000010920F0490931004809311048093120495
:101E100030920E0420920D048092150490921604C4
:101E2000A0921704B0921804809319046BE0609399
:101E30001A0480931B04FCE44F2EF4E05F2E612C07
:101E4000712C40921C0450921D0460921E047092EA
:101E50001F04A2E34A2E512C612C712C40922004C5
:101E60005092210460922204709223041092F8038D
:101E70009093F9035093FA035093FB033092F703C6
:101E80002092F6038092FE039092FF03A09200043A
:101E9000B09201048093020461E160930304809393
:101EA000040464EA862E66E0962EA12CB12C809262
:101EB000050490920604A0920704B0920804409290
:101EC000090450920A0460920B0470920C04109260
:101ED000E6039093E7031092E8032093E903D0937D
:101EE000E503C093E4031092EC031092F203109206
:101EF000F3031092F4031092F5038093ED0370EA5C
:101F0000672E7FE0772E812C912C6092EE037092E9
:101F1000EF038092F0039092F1031092CF0380932D
:101F2000D0031092D1032093D203FAEF8F2E912C7D
:101F3000A12CB12C8092D5039092D603A092D70306
:101F4000B092D803A2E0A093D9039093DA03109241
:101F5000DB0362EE862E64E0962EA12CB12C8092DB
:101F6000DC039092DD03A092DE03B092DF037AEFF0
:101F7000472E512C612C712C4092E0035092E103CA
:101F80006092E2037092E3036CE171E07093CE0320
:101F90006093CD03A093B8033093B9031092BA03B2
:101FA0002093BB034092BE035092BF036092C003D4
:101FB0007092C103A093C2039093C3038093C403A0
:101FC0008092C5039092C603A092C703B092C80343
:101FD0004092C9035092CA036092CB037092CC0323
:101FE0007093B7036093B6034093A1039093A20349
:101FF0001092A3032093A4034092A7035092A80336
:102000006092A9037092AA03A093AB039093AC03D0
:102010001092AD038092AE039092AF03A092B003F2
:10202000B092B1034092B2035092B3036092B403F2
:102030007092B5037093A00360939F0310928F0377
:102040009093900310929103A0939203D0938E03E8
:10205000C0938D031092950310929B0310929C03E2
:1020600010929D0310929E0380939603F4EC8F2EA2
:10207000F9E09F2EA12CB12C8092970390929803A7
:10208000A0929903B0929A0310927D0390937E03DD
:1020900050937F0320938003D0937C03C0937B03F2
:1020A000109283031092890310928A0310928B037B
:1020B00010928C0310928403809285039092860381
:1020C000A0928703B092880310926B0390936C03E5
:1020D000A0936D0320936E03109271031092770307
:1020E000109278031092790310927A03809372030E
:1020F000F8E88F2EF3E19F2EA12CB12C8092730370
:1021000090927403A0927503B0927603F4E26F2E5E
:10211000F1E07F2E70926A03609269031092590376
:1021200090935A0310925B0350935C0310925F03E9
:102130001092650310926603109267031092680371
:10214000109260038092610390926203A0926303F5
:10215000B092640370925803609257031092420346
:10216000909343031092440320934503F6E98F2E86
:10217000912CA12CB12C8092480390924903A092FB
:102180004A03B0924B0390934C03E0934D0310929B
:102190004E03ECED4E2EE5E05E2E612C712C40924C
:1021A0004F03509250036092510370925203F7E72D
:1021B0004F2E55245394612C712C4092530350920E
:1021C00054036092550370925603709341036093D9
:1021D000400310923C0310923B03662463947724DF
:1021E0007A9470923E0360923D0378EE472E73E03E
:1021F000572E612C712C4092370350923803609215
:10220000390370923A0310923F0310933603009300
:1022100035036AE371E070932E0360932D03A0935E
:102220002F03A09330034093310340933203709304
:102230002603609325033093270330932803B0933C
:102240002903B0932A0370931E0360931D03909398
:102250001F03909320039093210390932203709384
:10226000160360931503A0931703A0931803E8E0E7
:10227000E0931903E0931A0370930E0360930D0328
:1022800090930F0390931003A0931103A093120354
:10229000709306036093050340930703409308037C
:1022A0004093090340930A037093FE026093FD027A
:1022B0004093FF02409300035093010350930203A5
:1022C0007093F6026093F5023093F7023093F802B0
:1022D0003093F9023093FA023093E5029093E602CC
:1022E0001092E7022093E802D093E402C093E30245
:1022F0001092EB021092F1021092F2021092F3028D
:102300001092F4021092EC02C092ED02D092EE0212
:10231000E092EF02F092F0021092DE021092DD02E3
:1023200066246A94712C7092E0026092DF02C0927F
:10233000D902D092DA02E092DB02F092DC028093C2
:10234000E102E8E4F1E0F093D802E093D7023093A1
:10235000E2021092C7029093C8021092C902209321
:10236000CA02D093C602C093C5021092CD02109249
:10237000D3021092D4021092D5021092D60280930A
:10238000CE02C092CF02D092D002E092D102F0925F
:10239000D2021092B5029093B6021092B702209327
:1023A000B8021092BB021092C1021092C2021092A7
:1023B000C3021092C4028093BC02C092BD02D092AC
:1023C000BE02E092BF02F092C002F4E24F2EF1E0B2
:1023D0005F2E5092B4024092B302E4E1F0E0F09339
:1023E000AF02E093AE02B8E76B2E712C7092B1028F
:1023F0006092B00254EFC52EDD24D394E12CF12C71
:10240000C092AA02D092AB02E092AC02F092AD026E
:102410008093B2021093A9020093A8021092A40222
:102420001092A302E4E6F0E0F093A602E093A50286
:10243000ECE2CE2EDD24D394E12CF12CC0929F024D
:10244000D092A002E092A102F092A2021092A70202
:1024500010939E0200939D0210929902109298028E
:1024600070929B0260929A02C0929402D09295025E
:10247000E0929602F092970210929C0210939302BF
:102480000093920210928E0210928D02EAEFF0E019
:10249000F0939002E0938F02C0928902D0928A0258
:1024A000E0928B02F0928C021092910210938802BB
:1024B000009387027093800260937F0210928102E2
:1024C00010928202109283022093840280936A0207
:1024D00090936B0210926C0220936D02309269020D
:1024E000209268028092700290927102A092720211
:1024F000B0927302A0937402309375021092760228
:10250000F2ECCF2EDD24D394E12CF12CC092770293
:10251000D0927802E0927902F0927A0280927B0265
:1025200090927C02A0927D02B0927E028093530230
:102530003093540210925502209356023092520268
:10254000209251021AEFE12EF12C00E010E0E0920F
:102550005902F0925A0200935B0210935C0230938E
:102560005D0240935E0210925F0248EE53E060E02D
:1025700070E0409360025093610260936202709336
:10258000630217E7412E55245394612C712C40921D
:102590006402509265026092660270926702109225
:1025A0004C0210924B0266246A94712C70924E0277
:1025B00060924D0240934702509348026093490253
:1025C00070934A0210924F0248E4842E41E0942E08
:1025D000909246028092450280935002A093350269
:1025E00030933602109237022093380210923B0249
:1025F0001092410210924202109243021092440241
:1026000080933C025EEEA52E52E0B52EC12CD12C5B
:10261000A0923D02B0923E02C0923F02D092400290
:1026200064E2C62E61E0D62ED0923402C09233020C
:102630001092230230932402109225022093260246
:10264000D0932202C09321021092290210922F02ED
:1026500010923002109231021092320280932A02BC
:1026600048EB5BE060E070E040932B0250932C025B
:1026700060932D0270932E02A09311029093120288
:102680001092130220931402D0931002C0930F02F1
:102690001092170210921D0210921E0210921F0239
:1026A00010922002109218024093190250931A02BD
:1026B00060931B0270931C02DF91CF911F910F91C9
:1026C000FF90EF90DF90CF90BF90AF909F908F9052
:1026D0007F906F905F904F903F902F9008958091E2
:1026E000B5059091B605009711F00E94101D8091DC
:1026F000B30587FD03C060E00C94010A0895CF93F1
:10270000DF93CDB7DEB7A5970FB6F894DEBF0FBE47
:10271000CDBF789484B5826084BD84B5816084BD6A
:1027200085B5826085BD85B5816085BD80916E006F
:10273000816080936E0010928100809181008260A0
:1027400080938100809181008160809381008091DD
:1027500080008160809380008091B10084608093CC
:10276000B1008091B00081608093B00080917A00C8
:10277000846080937A0080917A00826080937A00EE
:1027800080917A008E7F80937A0080917A008068B1
:1027900080937A001092C100E0918201F091830150
:1027A00082E08083E0917E01F0917F011082E091D0
:1027B0008001F091810187E6808310928A01E09187
:1027C0008601F091870186E08083E0918401F09199
:1027D0008501808180618083E0918401F091850191
:1027E000808188608083E0918401F09185018081FF
:1027F00080688083E0918401F091850180818F7DE4
:10280000808308E611E057E0F52EF00E61E0D80174
:102810008D918D010E94010AF012F8CF8091B305CD
:1028200087FD08C061E00E94010A60E08091B30565
:102830000E94AA0981E08093AE058091010188235E
:10284000C1F081E10E942B0380E10E942B038FE005
:102850000E942B038EE00E942B0389E00E942B0331
:1028600085E00E942B0383E00E942B03109201015C
:10287000F6C482E791E00E944A05892B09F450C111
:1028800082E791E00E9428058093D005E091000145
:10289000EE3F29F58433E9F04CF48233B1F0BCF417
:1028A000813309F03DC1109200013AC1823699F09E
:1028B0002CF4813609F034C184E030C1833669F0EC
:1028C000833709F02DC187E029C181E027C182E06B
:1028D00025C183E023C185E021C186E01FC1E73027
:1028E00068F5863609F15CF4823609F016C1F0E02D
:1028F000EE0FFF1FEE53FA4F8DE995E01CC08E36A8
:1029000059F0833709F009C1F0E0EE0FFF1FEE53D5
:10291000FA4F83E995E00FC0F0E0EE0FFF1FEE5392
:10292000FA4F8AEA95E007C0F0E0EE0FFF1FEE5382
:10293000FA4F87EA95E091838083EFC0E73009F092
:10294000ECC0873309F4B8C04CF5833309F490C068
:10295000A4F4813309F474C00CF07EC0803309F014
:10296000DCC089EF91E00E94960320E030E04AE766
:1029700053E467E08BE791E0CEC0853309F484C06F
:102980000CF08EC08DE894E00E94960320E030E0C9
:102990004AE753E466E081E294E0BDC0823609F480
:1029A000AFC0A4F4893309F49FC00CF491C0813600
:1029B00009F0B3C08AE691E00E94960320E030E07F
:1029C0004AE753E462E086E491E0A5C0863601F16F
:1029D0007CF4833609F0A1C08EEE90E00E9496034D
:1029E00020E030E04AE753E463E088EB90E093C0F6
:1029F0008E36D1F0853709F090C085E895E00E94C9
:102A0000960320E030E0A90161E083E795E083C010
:102A10008DEC95E00E94960320E030E046E954E416
:102A200061E08BEB95E077C089EA95E00E94960320
:102A300020E030E046E954E461E087E995E06BC0CE
:102A400082E695E00E94960320E030E04AE753E4F6
:102A500064E08AE195E05FC089E095E00E9496031A
:102A600020E030E04AE753E462E085EE94E053C0B2
:102A700084ED94E00E94960320E030E04AE753E4BE
:102A800063E08EE994E047C080E194E00E94960301
:102A900020E030E04AE753E464E088EC93E03BC098
:102AA00087EB93E00E94960320E030E04AE753E48E
:102AB00064E08FE693E02FC08EE593E00E949603DA
:102AC00020E030E04AE753E464E086E193E023C08D
:102AD00085E093E00E94960320E030E04AE753E46B
:102AE00062E081EE92E017C080ED92E00E949603D2
:102AF00020E030E04AE753E46BE08AE092E00BC06C
:102B000085E391E00E94960320E030E04AE753E439
:102B100063E08FEF90E00E94C0038EEF809300018E
:102B200002EC15E088E6E82E81E0F82EF8018191AC
:102B300091918F01009749F0DC01ED91FC9101909A
:102B4000F081E02DD7016C910995BFEFEB1AFB0ADC
:102B5000E5E0003D1E0751F70E94620A00918B05D7
:102B600010918C0520918D0530918E054B015C01F3
:102B7000801A910AA20AB30A80928705909288056A
:102B8000A0928905B0928A054090800550908105F9
:102B9000609082057090830520E030E0A901C301B8
:102BA000B2010E94B81B18165CF4C501B4010E9462
:102BB000C71AA30192010E941F1A2B013C0106C0F3
:102BC000412C512C00E8602E0FE3702EA3019201DE
:102BD00060E070E080E89FE30E94A8196A8F7B8F15
:102BE0008C8F9D8F8091840590918505892BF9F0BC
:102BF00020E030E040E85FE3C301B2010E94151A13
:102C000087FF15C00E94620A00918F051091900500
:102C100020919105309192056B017C01C01AD10A77
:102C2000E20AF30ACAA2DBA2ECA2FDA208C010923B
:102C30008505109284051AA21BA21CA21DA21F8E3C
:102C40001E8E19A218A2212C312C1A8A198A188AD0
:102C50001F861E861D861C861B8600918705109187
:102C600088052091890530918A0560917D057091D4
:102C70007E05CE010B964C01DE011D965D01FE0125
:102C80003F966F0106967C0140917F05822D0E9440
:102C9000490420E030E040E85FE3C301B2010E9454
:102CA000151A87FFBBC01A86198618861F821E82D6
:102CB0001D821C821B8260918405709185056115BF
:102CC0007105A1F0DE0113964D01FE0135965F01FD
:102CD000CE0107966C0116967D010AA11BA12CA1BD
:102CE0003DA140918605822D0E94490469897A8917
:102CF000072E000C880B990B0E94C91AA3019201A0
:102D00000E94BD1B4B015C0189859A85BC01990F0E
:102D1000880B990B0E94C91A2A8D3B8D4C8D5D8DB5
:102D20000E94BD1B9B01AC01C501B4010E94A91901
:102D30000E94911A7A8B698B6F857889072E000C17
:102D4000880B990B0E94C91AA30192010E94BD1B16
:102D50004B015C018F819885BC01990F880B990B01
:102D60000E94C91A2A8D3B8D4C8D5D8D0E94BD1B22
:102D70009B01AC01C501B4010E94A9190E94911ADE
:102D8000788B6F876D857E85072E000C880B990BDD
:102D90000E94C91AA30192010E94BD1B4B015C0154
:102DA0008D819E81BC01990F880B990B0E94C91AD5
:102DB0002A8D3B8D4C8D5D8D0E94BD1B9B01AC010E
:102DC000C501B4010E94A9190E94911A7E876D87DE
:102DD0006B857C85072E000C880B990B0E94C91A05
:102DE000A30192010E94BD1B4B015C018B819C8160
:102DF000BC01990F880B990B0E94C91A2A8D3B8D33
:102E00004C8D5D8D0E94BD1B9B01AC01C501B401C1
:102E10000E94A9190E94911A7C876B878B859C85DB
:102E200097FD08C08F3F910519F014F08FEF90E0E7
:102E3000582F01C050E08D859E8597FD07C08F3FBC
:102E4000910529F024F08FEF90E001C080E02F85FC
:102E5000388937FD08C02F3F310519F014F02FEFE6
:102E600030E0422F01C040E029893A8937FD07C090
:102E70002F3F310529F024F02FEF30E001C020E092
:102E8000E0917B05F0917C056281738126163706FF
:102E900008F051C090E0A0E0B0E0B52B942BA22B3D
:102EA0008D0122273327D02E892E9A2EAB2EBB24BC
:102EB000E82CF82E4781442361F0049F90011124EF
:102EC000D32E849E40011124E92C849F900111246B
:102ED000F32E5585628520853185561305C068A17E
:102EE00079A1260F371F18C06E8D7F8D260F371FD3
:102EF0008B2F9927AA27BB27B901650F711D442382
:102F000049F050E0489F8001499F100D589F100DD7
:102F10001124812FDB018C938285D901A80FB11D6B
:102F2000DC928385D901A80FB11DEC928485F9014B
:102F3000E80FF11DF082BFEF2B1A3B0AE8A1F9A1BF
:102F40003396F9A3E8A36E8D7F8D6C5F7F4F7F8FE3
:102F50006E8F603F710509F078CE60907B057090B0
:102F60007C05D30118968D919C911997892B09F4B2
:102F700076C10E943D0AF3010685178520893189B3
:102F8000DC01CB01801B910BA20BB30BC297A105F7
:102F9000B10578F3F894848195819A838983A0851B
:102FA000B1858D010F5F1F4F8C91898F8081A28920
:102FB000B389882309F419C11B8AAB32B10509F022
:102FC00058C09BB18489982B988F9BB18095892399
:102FD0008F8B8F898C8B898D87FF02C0888D8C8B1E
:102FE000588D6F89498D3C892B8989819A81D801B7
:102FF0005BB9262F3BB900C046FD252F6BB900C039
:103000005BB9362F2BB900C045FD352F6BB900C019
:103010005BB9262F3BB900C044FD252F6BB900C01A
:103020005BB9362F2BB900C043FD352F6BB900C0FB
:103030005BB9262F3BB900C042FD252F6BB900C0FC
:103040005BB9362F2BB900C041FD352F6BB900C0DD
:103050005BB9262F3BB900C040FD252F6BB9019706
:103060005BB9362F2BB94D9147FD352F6BB901F662
:10307000B8C0A532B10509F059C095B1F3018489F2
:10308000982B988F95B1809589238F8B8F898C8B06
:10309000898D87FF02C0888D8C8B588D6F89498DF3
:1030A0003C892B8989819A81D80155B9262F35B958
:1030B00000C046FD252F65B900C055B9362F25B98A
:1030C00000C045FD352F65B900C055B9262F35B96B
:1030D00000C044FD252F65B900C055B9362F25B96C
:1030E00000C043FD352F65B900C055B9262F35B94D
:1030F00000C042FD252F65B900C055B9362F25B94E
:1031000000C041FD352F65B900C055B9262F35B92E
:1031100000C040FD252F65B9019755B9362F25B957
:103120004D9147FD352F65B901F65BC0989709F0C1
:103130008CC098B1F3018489982B988F98B18095B1
:1031400089238F8B8F898C8B898D87FF02C0888D17
:103150008C8B588D6F89498D3C892B8989819A8107
:10316000D80158B9262F38B900C046FD252F68B9B7
:1031700000C058B9362F28B900C045FD352F68B9B1
:1031800000C058B9262F38B900C044FD252F68B9B2
:1031900000C058B9362F28B900C043FD352F68B993
:1031A00000C058B9262F38B900C042FD252F68B994
:1031B00000C058B9362F28B900C041FD352F68B975
:1031C00000C058B9262F38B900C040FD252F68B976
:1031D000019758B9362F28B94D9147FD352F68B959
:1031E00001F6498F3C8B2B8B2EC09C91F301848977
:1031F000982B988F9C91809589238F8B8F898E8BAC
:1032000088E08D8B588D6F89498D3D892E89898104
:103210009A81F8015C9347FD252F2C93262F3A9530
:1032200031F0441F6C9300C000C000C0F3CF6C931A
:10323000000038E04191019769F7F301B38BA28B4D
:10324000498F3D8B2E8B9A83898378940E943D0A07
:10325000D3011E966D937D938D939C9351970E94FD
:10326000E005EBCA991B79E004C0991F961708F096
:10327000961B881F7A95C9F78095089597FB072EAE
:1032800016F4009407D077FD09D00E947F1907FC3F
:1032900005D03EF4909581959F4F08957095619566
:1032A0007F4F0895A1E21A2EAA1BBB1BFD010DC082
:1032B000AA1FBB1FEE1FFF1FA217B307E407F507E6
:1032C00020F0A21BB30BE40BF50B661F771F881FC2
:1032D000991F1A9469F760957095809590959B0158
:1032E000AC01BD01CF0108950E949919A59F900DD1
:1032F000B49F900DA49F800D911D11240895AA1BC9
:10330000BB1B51E107C0AA1FBB1FA617B70710F0D0
:10331000A61BB70B881F991F5A95A9F78095909502
:10332000BC01CD010895EE0FFF1F0590F491E02D33
:103330000994A29FB001B39FC001A39F700D811D8E
:103340001124911DB29F700D811D1124911D0895AE
:103350005058BB27AA270E94C0190C946A1B0E94D0
:10336000311B38F00E94381B20F039F49F3F19F4CC
:1033700026F40C942E1B0EF4E095E7FB0C94281B0E
:10338000E92F0E948F1B58F3BA176207730784074F
:10339000950720F079F4A6F50C94B11B0EF4E09596
:1033A0000B2EBA2FA02D0B01B90190010C01CA01FF
:1033B000A0011124FF27591B99F0593F50F4503EAA
:1033C00068F11A16F040A22F232F342F4427585F9C
:1033D000F3CF469537952795A795F0405395C9F7B4
:1033E0007EF41F16BA0B620B730B840BBAF091506C
:1033F000A1F0FF0FBB1F661F771F881FC2F70EC00B
:10340000BA0F621F731F841F48F4879577956795DD
:10341000B795F7959E3F08F0B0CF9395880F08F0C9
:103420009927EE0F9795879508950E94041B08F43D
:1034300081E008950E94411BE3950C947B1B0E9440
:10344000331A0C946A1B0E94381B58F00E94311BDF
:1034500040F029F45F3F29F00C94281B51110C9483
:10346000B21B0C942E1B0E948F1B68F39923B1F39F
:10347000552391F3951B550BBB27AA27621773079A
:10348000840738F09F5F5F4F220F331F441FAA1F2E
:10349000A9F335D00E2E3AF0E0E832D091505040EA
:1034A000E695001CCAF72BD0FE2F29D0660F771F98
:1034B000881FBB1F261737074807AB07B0E809F07E
:1034C000BB0B802DBF01FF2793585F4F3AF09E3F03
:1034D000510578F00C94281B0C94B21B5F3FE4F369
:1034E000983ED4F3869577956795B795F7959F5F46
:1034F000C9F7880F911D9695879597F90895E1E092
:10350000660F771F881FBB1F621773078407BA07F0
:1035100020F0621B730B840BBA0BEE1F88F7E0954B
:1035200008950E94981A6894B1110C94B21B0895E2
:103530000E94971B88F09F5798F0B92F9927B75191
:10354000B0F0E1F0660F771F881F991F1AF0BA9547
:10355000C9F714C0B13091F00E94B11BB1E00895D9
:103560000C94B11B672F782F8827B85F39F0B93FCB
:10357000CCF3869577956795B395D9F73EF49095FA
:103580008095709561957F4F8F4F9F4F0895E89478
:1035900009C097FB3EF490958095709561957F4F9B
:1035A0008F4F9F4F9923A9F0F92F96E9BB27939549
:1035B000F695879577956795B795F111F8CFFAF459
:1035C000BB0F11F460FF1BC06F5F7F4F8F4F9F4F8A
:1035D00016C0882311F096E911C0772321F09EE8E8
:1035E000872F762F05C0662371F096E8862F70E04E
:1035F00060E02AF09A95660F771F881FDAF7880F28
:103600009695879597F90895990F0008550FAA0B7D
:10361000E0E8FEEF16161706E807F907C0F01216E5
:103620001306E407F50798F0621B730B840B950BE8
:1036300039F40A2661F0232B242B252B21F408953D
:103640000A2609F4A140A6958FEF811D811D0895DA
:1036500097F99F6780E870E060E008959FEF80EC45
:10366000089500240A9416161706180609060895E8
:1036700000240A94121613061406050608950C94E5
:103680002E1B0E94971BD8F3E894E0E0BB279F57BE
:10369000F0F02AED3FE049EC06C0EE0FBB0F661FCD
:1036A000771F881F28F0B23A62077307840728F053
:1036B000B25A620B730B840BE3959A9572F78038BC
:1036C00030F49A95BB0F661F771F881FD2F790487A
:1036D0000C94341C092E0394000C11F4882352F02E
:1036E000BB0F40F4BF2B11F460FF04C06F5F7F4F2E
:1036F0008F4F9F4F0895EF93E0FF07C0A2EA2AED96
:103700003FE049EC5FEB0E94C0190E946A1B0F90DA
:10371000039401FC9058E8E6F0E00C94401C57FD3F
:103720009058440F551F59F05F3F71F04795880F2F
:1037300097FB991F61F09F3F79F0879508951216C6
:1037400013061406551FF2CF4695F1DF08C0161672
:1037500017061806991FF1CF869571056105089423
:103760000895E894BB2766277727CB0197F908953A
:103770000E94041B08F48FEF08950E94D01B0C9444
:103780006A1B0E94311B38F00E94381B20F09523E1
:1037900011F00C94281B0C942E1B11240C94B21BBA
:1037A0000E948F1B70F3959FC1F3950F50E0551F3A
:1037B000629FF001729FBB27F00DB11D639FAA2786
:1037C000F00DB11DAA1F649F6627B00DA11D661FD5
:1037D000829F2227B00DA11D621F739FB00DA11DF6
:1037E000621F839FA00D611D221F749F3327A00DB0
:1037F000611D231F849F600D211D822F762F6A2F4C
:1038000011249F5750409AF0F1F088234AF0EE0FB0
:10381000FF1FBB1F661F771F881F91505040A9F7DD
:103820009E3F510580F00C94281B0C94B21B5F3F07
:10383000E4F3983ED4F3869577956795B795F79519
:10384000E7959F5FC1F7FE2B880F911D9695879591
:1038500097F908959F930E94411B0F9007FCEE5F1C
:103860000C947B1B9F3F31F0915020F48795779506
:103870006795B795880F911D9695879597F9089547
:103880009F938F937F936F93FF93EF939B01AC0173
:103890000E94BD1BEF91FF910E94541C2F913F91FC
:1038A0004F915F910C94BD1BDF93CF931F930F93A8
:1038B000FF92EF92DF927B018C01689406C0DA2EB2
:1038C000EF010E94D01BFE01E894A591259135914E
:1038D00045915591A6F3EF010E94C019FE01970191
:1038E000A801DA9469F7DF90EF90FF900F911F9194
:1038F000CF91DF910895CF93DF938230910510F43B
:1039000082E090E0E091DC05F091DD0520E030E020
:10391000C0E0D0E0309711F140815181481759073C
:10392000C0F04817590761F482819381209719F0FC
:103930009B838A832BC09093DD058093DC0526C092
:103940002115310519F04217530718F49A01BE01E9
:10395000DF01EF010280F381E02DDCCF211531057D
:1039600009F1281B390B2430310590F412968D9102
:103970009C9113976115710521F0FB01938382835C
:1039800004C09093DD058093DC05FD01329644C0B0
:10399000FD01E20FF31F81939193225031092D9382
:1039A0003C933AC02091DA053091DB05232B41F49A
:1039B00020910401309105013093DB052093DA0555
:1039C00020910201309103012115310541F42DB7F9
:1039D0003EB74091060150910701241B350BE09141
:1039E000DA05F091DB05E217F307A0F42E1B3F0B7D
:1039F0002817390778F0AC014E5F5F4F2417350761
:103A000048F04E0F5F1F5093DB054093DA0581931A
:103A1000919302C0E0E0F0E0CF01DF91CF910895F3
:103A20000F931F93CF93DF93009709F48CC0FC0191
:103A30003297138212820091DC051091DD05011589
:103A4000110581F420813181820F931F2091DA05C5
:103A50003091DB052817390779F5F093DB05E09302
:103A6000DA0571C0D80140E050E0AE17BF0750F44E
:103A700012962D913C911397AD012115310509F155
:103A8000D901F3CF9D01DA013383228360817181F3
:103A9000860F971F8217930769F4EC0128813981FB
:103AA000260F371F2E5F3F4F318320838A819B81F2
:103AB00093838283452B29F4F093DD05E093DC05A5
:103AC00042C01396FC93EE931297ED0149915991E0
:103AD0009E01240F351FE217F30771F48081918155
:103AE000840F951F029611969C938E9382819381E9
:103AF00013969C938E931297E0E0F0E0D801129613
:103B00008D919C911397009719F0F8018C01F6CFD5
:103B10008D919C9198012E5F3F4F820F931F2091B2
:103B2000DA053091DB052817390769F4309729F455
:103B30001092DD051092DC0502C0138212821093F0
:103B4000DB050093DA05DF91CF911F910F91089566
:103B500081E090E0F8940C94B61DFB01DC0102C0FA
:103B600005900D9241505040D8F7089513E0C0E001
:103B7000D3E004C0FE010E9493192196C130D10701
:063B8000C9F7F894FFCF25
:103B8600FE010000DE0580000000000077056B03E3
:103B96004A0528053C05BE0500000000A8073307B6
:103BA600000000005F07E306000000005F07ED0568
:103BB600000000004106000000003607000000007B
:103BC600A8073D06000000003E0800000000DF06D2
:103BD60000000000EA05000000006E0A0000000078
:103BE600400600000000F60911100F0E0905030D2E
:023BF6000A00C3
:107800000C94343C0C94513C0C94513C0C94513CE1
:107810000C94513C0C94513C0C94513C0C94513CB4
:107820000C94513C0C94513C0C94513C0C94513CA4
:107830000C94513C0C94513C0C94513C0C94513C94
:107840000C94513C0C94513C0C94513C0C94513C84
:107850000C94513C0C94513C0C94513C0C94513C74
:107860000C94513C0C94513C11241FBECFEFD8E036
:10787000DEBFCDBF11E0A0E0B1E0EAE8FFE702C063
:1078800005900D92A230B107D9F712E0A2E0B1E065
:1078900001C01D92AD30B107E1F70E942D3D0C945F
:1078A000C33F0C94003C982F95959595959595958B
:1078B000905D8F708A307CF0282F295A8091C0000B
:1078C00085FFFCCF9093C6008091C00085FFFCCF60
:1078D0002093C6000895282F205DF0CF982F809127
:1078E000C00085FFFCCF9093C6000895EF92FF92F1
:1078F0000F931F93EE24FF2487018091C00087FD22
:1079000017C00894E11CF11C011D111D81E2E8164D
:1079100081EAF80687E0080780E0180770F3E09135
:107920000401F091050109958091C00087FFE9CF1E
:107930008091C6001F910F91FF90EF9008950E94D3
:10794000763C982F8091C00085FFFCCF9093C600B5
:1079500091362CF490330CF09053892F089597555D
:10796000892F08951F930E949F3C182F0E949F3CCF
:107970001295107F810F1F9108951F93182F882350
:1079800021F00E94763C1150E1F71F9108951F935A
:10799000182F0E94763C803249F0809103018F5F5E
:1079A000809303018530C1F01F9108958091C0003C
:1079B00085FFFCCF84E18093C6008091C00085FFE5
:1079C000FCCF1093C6008091C00085FFFCCF80E102
:1079D0008093C6001F910895E0910401F091050184
:1079E00009951F9108950E94763C803241F0809164
:1079F00003018F5F80930301853081F008958091AA
:107A0000C00085FFFCCF84E18093C6008091C00058
:107A100085FFFCCF80E18093C6000895E0910401CA
:107A2000F09105010995089548EC50E08823A1F0F4
:107A30002D9A28EE33E0FA013197F1F721503040CA
:107A4000D1F72D9828EE33E0FA013197F1F7215064
:107A50003040D1F7815061F708953F924F925F9285
:107A60006F927F928F929F92AF92BF92CF92DF924E
:107A7000EF92FF920F931F93CF93DF93000082E06A
:107A80008093C00080E18093C4001092C50088E11B
:107A90008093C10086E08093C2005098589A259A3E
:107AA00081E00E94143D24E1F22E9EE1E92E85E959
:107AB000D82E0FE0C02E10E1B12EAA24A394B1E479
:107AC0009B2EA6E58A2EF2E57F2EE0E26E2E79E46B
:107AD000572E63E5462E50E5352E0E94763C8033C6
:107AE000B1F18133B9F1803409F46FC0813409F404
:107AF00076C0823409F485C0853409F488C08035A5
:107B000031F1823521F1813511F1853509F485C0D6
:107B1000863509F48DC0843609F496C0843709F49B
:107B200003C1853709F472C1863709F466C08091B4
:107B300003018F5F80930301853079F6E0910401A2
:107B4000F091050109950E94763C803351F60E9420
:107B5000F33CC3CF0E94763C803249F78091C0004D
:107B600085FFFCCFF092C6008091C00085FFFCCF5E
:107B70009092C6008091C00085FFFCCF8092C60025
:107B80008091C00085FFFCCF7092C6008091C0003C
:107B900085FFFCCF6092C6008091C00085FFFCCFBE
:107BA0005092C6008091C00085FFFCCF4092C60075
:107BB0008091C00085FFFCCF3092C6008091C0004C
:107BC00085FFFCCFB092C60088CF0E94763C8638F5
:107BD00008F4BDCF0E94763C0E94F33C7ECF0E9409
:107BE000763C803809F49CC0813809F40BC1823896
:107BF00009F430C1883909F48FC080E00E94C73C85
:107C00006CCF84E10E94BD3C0E94F33C66CF85E0CE
:107C10000E94BD3C0E94F33C60CF0E94763C809362
:107C200006010E94763C809307010E94F33C55CFE9
:107C30000E94763C803309F411C183E00E94BD3C70
:107C400080E00E94C73C49CF0E94763C80930902A5
:107C50000E94763C8093080280910C028E7F809374
:107C60000C020E94763C853409F409C18091080217
:107C700090910902892B89F000E010E00E94763C87
:107C8000F801E85FFE4F80830F5F1F4F809108026D
:107C9000909109020817190788F30E94763C8032F8
:107CA00009F045CF80910C0280FFF5C0609106017C
:107CB00070910701660F771F7093070160930601AB
:107CC000A0910802B09109021097C9F0E8E0F1E034
:107CD0009B01AD014E0F5F1FF999FECF32BD21BD53
:107CE000819180BDFA9AF99A2F5F3F4FE417F5070B
:107CF00099F76A0F7B1F70930701609306018091CB
:107D0000C00085FFFCCFF092C6008091C00085FFC7
:107D1000FCCFB092C600E1CE83E00E94C73CDDCE2E
:107D200082E00E94C73CD9CE0E94763C8093090233
:107D30000E94763C80930802809106019091070191
:107D4000880F991F90930701809306010E94763C4B
:107D5000853409F49AC080910C028E7F80930C02C6
:107D60000E94763C803209F0B8CE8091C00085FF39
:107D7000FCCFF092C600A0910802B09109021097C2
:107D8000C1F180910C02082F0170182F1695117007
:107D9000E0910601F0910701AF014F5F5F4FBA011B
:107DA00020E030E00023B1F4112339F49491809164
:107DB000C00085FFFCCF9093C6002F5F3F4FCB01E3
:107DC0000196FA012A173B0780F4BC014F5F5F4F11
:107DD000002351F3F999FECFF2BDE1BDF89A90B5B9
:107DE0008091C00085FFFCCFE6CF709307016093C0
:107DF00006018091C00085FDE5CE8091C00085FF21
:107E0000F8CFE0CE81E00E94C73C67CE0E94763C6E
:107E1000803209F08CCE8091C00085FFFCCFF092BB
:107E2000C6008091C00085FFFCCFE092C600809123
:107E3000C00085FFFCCFD092C6008091C00085FFB6
:107E4000FCCFC092C6008091C00085FFFCCFB092ED
:107E5000C60043CE80E10E94C73C3FCE0E94763CE4
:107E60000E94763C182F0E94763C112309F483C0AF
:107E7000113009F484C08FE00E94C73C2ECE80915F
:107E80000C02816080930C02F1CE80910C02816023
:107E900080930C0265CF809107018823880F880B9F
:107EA0008A2180930B028091060190910701880F2F
:107EB000991F90930701809306018091080280FF2B
:107EC00009C08091080290910902019690930902DD
:107ED00080930802F894F999FECF1127E0910601EA
:107EE000F0910701C8E0D1E0809108029091090269
:107EF000103091F40091570001700130D9F303E084
:107F000000935700E8950091570001700130D9F3B4
:107F100001E100935700E8950990199000915700EE
:107F200001700130D9F301E000935700E8951395F3
:107F3000103498F011270091570001700130D9F3E7
:107F400005E000935700E89500915700017001305B
:107F5000D9F301E100935700E8953296029709F0B2
:107F6000C7CF103011F00296E5CF11248091C000E8
:107F700085FFC5CEC8CE8EE10E94C73CAECD85E957
:0A7F80000E94C73CAACDF894FFCF81
:027F8A00800075
:040000030000780081
:00000001FF