:100000000C946D000C9495000C9495000C94950044
:100010000C9495000C9495000C9495000C9495000C
:100020000C9495000C9495000C9495000C949500FC
:100030000C9495000C9495000C9495000C949500EC
:100040000C941E050C9495000C94A7070C94810742
:100050000C9495000C9495000C9495000C949500CC
:100060000C9495000C94950005A84CCDB2D44EB9D3
:100070003836A9020C50B9918688083CA6AAAA2A4B
:10008000BE000000803F00000000240027002A007E
:100090000000000800020100000304070000000047
:1000A0000000000001020408102040800102040842
:1000B0001020010204081020000000002500280084
:1000C0002B000404040404040404020202020202D9
:1000D000030303030303E907D90711241FBECFEF6E
:1000E000D8E0DEBFCDBF13E0A0E0B1E0E2ECFDE27E
:1000F00002C005900D92A233B107D9F726E0A2E322
:10010000B3E001C01D92AE34B207E1F710E0CCE6D7
:10011000D0E004C02197FE010E94B412CB36D10773
:10012000C9F70E94310D0C94D4160C940000FC0108
:10013000918D828D981761F0828DDF01A80FB11D1E
:100140005D968C91928D9F5F9F73928F90E0089542
:100150008FEF9FEF0895FC01918D828D981731F0FC
:10016000828DE80FF11D858D90E008958FEF9FEF50
:100170000895FC01918D228D892F90E0805C9F4F26
:10018000821B91098F739927089580E090E0892B55
:1001900029F00E940E0781110C9400000895CB01F4
:1001A000BA0108958F929F92AF92BF92CF92DF9241
:1001B000EF92FF920F931F93CF93DF935C01FC01AB
:1001C00087856285738502811381C481D5818823E7
:1001D00019F0601B710B04C0CE01861B970BBC018C
:1001E000072E000C880B990B0E94F5136B017C0104
:1001F000F50160897189828993890E94F3134B010B
:100200005C012196C01BD10BBE01DD0F880B990B41
:100210000E94F5139B01AC01C701B6010E944B136C
:100220009B01AC01C501B4010E94E4140E94C413F7
:10023000DF91CF911F910F91FF90EF90DF90CF90C2
:10024000BF90AF909F908F900895FC018285938519
:10025000089508958F929F92AF92BF92CF92DF92AE
:10026000EF92FF92CF93DF93EC01E62F372F8A8531
:10027000CA80DB80EC80FD808823D9F046015701DD
:10028000880C991CAA1CBB1CBA018E2F932FA501A8
:1002900094010E947612C616D706E806F90698F46D
:1002A000A5019401261B370B480B590BCA01B90154
:1002B0000AC0BA018E2F932FC616D706E806F90694
:1002C00010F4C701B6012B85222341F0A701960146
:1002D000261B370B480B590BCA01B901DF91CF918F
:1002E000FF90EF90DF90CF90BF90AF909F908F9056
:1002F00008954F925F926F927F928F929F92AF92EA
:10030000BF92CF92DF92EF92FF920F931F93CF9302
:10031000DF93EC010E942A014B015C010E811F81D9
:10032000B801012E000C880B990B0E94F5136B018C
:100330007C0148855985401B510BBA01550F880B2C
:10034000990B0E94F5132B013C01C501B4010E94D9
:10035000F3134B015C016A817B818C819D810E943A
:10036000F3139B01AC01C501B4010E944B139B0127
:10037000AC01C301B2010E94E4149B01AC01C701AE
:10038000B6010E94D5120E94BD13072E000C880BE7
:10039000990BDF91CF911F910F91FF90EF90DF901C
:1003A000CF90BF90AF909F908F907F906F905F9015
:1003B0004F900895FC0160857185072E000C880B15
:1003C000990B08958F929F92AF92BF92CF92DF9236
:1003D000EF92FF920F931F93CF93DF935C01FC0189
:1003E00087856485758506811781C085D1858823B9
:1003F00019F0601B710B04C0CE01861B970BBC016A
:10040000072E000C880B990B0E94F5136B017C01E1
:10041000F50160897189828993890E94F3134B01E8
:100420005C012196C01BD10BBE01DD0F880B990B1F
:100430000E94F5139B01AC01C701B6010E944B134A
:100440009B01AC01C501B4010E94E4140E94C413D5
:10045000DF91CF911F910F91FF90EF90DF90CF90A0
:10046000BF90AF909F908F9008951F93CF93DF938D
:10047000EC01152FF62FE72FC9016AE070E00E940A
:1004800062127B876A879D878C872A813B816217EE
:100490007307A4F02C813D81261737077CF02E814D
:1004A0003F818217930754F028853985281739072B
:1004B0002CF0642F712F8F2F9E2F04C06FEF7FEFD2
:1004C0008FEF9FEFDF91CF911F9108958F929F92B1
:1004D000AF92BF92CF92DF92EF92FF92CF93DF93D2
:1004E000EC010E9435026B017C018FEFC816D80623
:1004F000E806F80621F18E85E881F9818823B1F0BC
:1005000088889988AA88BB880280F381E02DCE0173
:100510000995861A970AA80AB90AD501C4018C1947
:100520009D09AE09BF096C017D0109C00280F381FC
:10053000E02DCE010995C61AD70AE80AF90AC701C3
:10054000B601DF91CF91FF90EF90DF90CF90BF90F9
:10055000AF909F908F9008958F929F92AF92BF928D
:10056000CF92DF92EF92FF920F931F93CF93DF937F
:10057000EC010E9435026F3F2FEF7207820792074E
:1005800021F46FEF7FEFCB0179C08F88988CA98C15
:10059000BA8CA50194010E9476126B017C018E89B0
:1005A000882341F0D501C4018C199D09AE09BF090A
:1005B0006C017D012E853F8548895989C701B601A7
:1005C0000E94761289016C897D898A899B89281B02
:1005D000390B2F5F3F4FC901860F971F0E94621290
:1005E0005C01E881F9810280F381E02DCE0109955B
:1005F0006C897D890E9462120A151B0544F08A15D8
:100600009B050CF4BECF0817190744F4BACF08179E
:10061000190724F48A159B050CF4B3CF8F88988CA6
:10062000A98CBA8CC80CD91CEA1CFB1C2E853F85F2
:1006300048895989DC010E949812A7019601261B5E
:10064000370B480B590BCA01B901A50194010E944F
:1006500076120B8D1C8D2D8D3E8D601771078207D4
:10066000930760F0000F111F221F331F68017901EB
:10067000C61AD70AE80AF90AC701B601DF91CF9175
:100680001F910F91FF90EF90DF90CF90BF90AF90B0
:100690009F908F9008958F929F92AF92BF92CF922A
:1006A000DF92EF92FF920F931F93CF93DF9300D0CF
:1006B00000D0CDB7DEB75C010E942A01F501248588
:1006C000213009F5008511850E94F3136B017C012F
:1006D000F50162817381848195810E94F3139B01EE
:1006E000AC01C701B6010E944B132BED3FE049EC72
:1006F0005FE30E94E4140E9446139B01AC01F501E4
:100700008681978123C0223091F5F50106811781FA
:100710000E94F3136B017C01F50162817381848176
:1007200095810E94F3139B01AC01C701B6010E94A1
:100730004B132BED3FE049EC5FE30E94E4140E9471
:1007400051159B01AC01F50180859185801B910BB2
:10075000BC01990F880B990B29833A834B835C83E7
:100760000E94F51329813A814B815C8140C023307E
:1007700009F050C0F501068117810E94F3132BED9B
:100780003FE049E450E40E94E4146B017C01F50170
:1007900062817381848195810E94F3139B01AC0176
:1007A000C701B6010E944B130E9446136B017C01E6
:1007B000F501808591859801281B390BC90137FD0A
:1007C000019695958795BC01990F880B990B0E940E
:1007D000F5134B015C0120E030E040E85FE3C70126
:1007E000B6010E94D4129B01AC01C501B4010E9464
:1007F000E4146B017C01B801110F880B990B0E9466
:10080000F5139B01AC01C701B6010E94D5120E94ED
:10081000C41300C00F900F900F900F90DF91CF91F5
:100820001F910F91FF90EF90DF90CF90BF90AF900E
:100830009F908F900895FC01848DDF01A80FB11D5A
:10084000A35ABF4F2C91848D90E001968F73992706
:10085000848FA689B7892C93A089B1898C918064F3
:100860008C93938D848D981306C00288F389E02DB4
:1008700080818F7D8083089590E0FC01E057FF4FD9
:100880003491FC01EC55FF4F2491FC01EE53FF4FD6
:10089000E491EE2309F43BC0332339F1333091F076
:1008A00038F43130A9F0323001F584B58F7D12C0B3
:1008B000373091F03830A1F03430B9F480918000B5
:1008C0008F7D03C0809180008F77809380000DC062
:1008D00084B58F7784BD09C08091B0008F7703C045
:1008E0008091B0008F7D8093B000F0E0EE0FFF1F8D
:1008F000E854FF4FA591B4918FB7F894EC91611132
:1009000003C020952E2301C02E2B2C938FBF08955A
:10091000262FFC018281882311F061E001C060E094
:10092000822F0C943C040F931F93CF938C01C62FFE
:100930002FB7F8946091350670913606809137068E
:10094000909138062FBFF80122813381448155816F
:100950000E947612F80106811781208531850617DD
:1009600017072807390710F061E001C060E08C2FFD
:10097000CF911F910F910C943C04CF93DF9390E0A3
:10098000FC01EC55FF4F2491FC01EE53FF4F849185
:10099000882361F190E0880F991FFC01EA57FF4F0F
:1009A000C591D491FC01E854FF4FA591B491611118
:1009B00009C09FB7F8948881209582238883EC91A1
:1009C0002E230BC0623061F49FB7F8943881822FD8
:1009D000809583238883EC912E2B2C939FBF06C098
:1009E0008FB7F894E8812E2B28838FBFDF91CF91AA
:1009F00008953FB7F8948091330390913403A09108
:100A00003503B091360326B5A89B05C02F3F19F0DA
:100A10000196A11DB11D3FBFBA2FA92F982F88277E
:100A2000820F911DA11DB11DBC01CD0143E0660FD8
:100A3000771F881F991F4A95D1F708951F920F922B
:100A40000FB60F9211242F933F938F939F93AF93E1
:100A5000BF938091350690913606A0913706B091EC
:100A600038063091320326E0230F2D3720F402960A
:100A7000A11DB11D05C029E8230F0396A11DB11DBD
:100A8000209332038093350690933606A093370661
:100A9000B09338068091330390913403A0913503CD
:100AA000B09136030196A11DB11D8093330390933D
:100AB0003403A0933503B0933603BF91AF919F9158
:100AC0008F913F912F910F900FBE0F901F9018950F
:100AD0002F923F924F925F926F927F928F929F924E
:100AE000AF92BF92CF92DF92EF92FF920F931F933C
:100AF000CF93DF93CDB7DEB760970FB6F894DEBF24
:100B00000FBECDBF9C838B837E876D875E834D83B5
:100B100038872F831A870987FC86EB86612C712C16
:100B200000E010E0AB81BC8116968C9190E0081734
:100B300019070CF0CBC0AB81BC811B96CD90DD902A
:100B4000ED90FC901E9714968D919C911597FC0149
:100B5000E60DF71D408151816281738124803580CB
:100B60004680578080859185A284B384248535850D
:100B70003A83298386849784A089B189B88BAF870B
:100B8000C416D506E606F70608F49AC0C41AD50AB4
:100B9000E60AF70AC214D304E404F50408F090C08E
:100BA000009769F0DC01ED91FC910190F081E02D5E
:100BB0002D853E85B701A60109956B017C01C11405
:100BC000B8E2DB06BBE6EB06BEEEFB0608F078C03B
:100BD000A114B104D1F0D501ED91FC910190F08107
:100BE000E02DB701A601C5010995ED81FE812081A7
:100BF0003181032E000C440B550BDC01CB01820F1D
:100C0000931FA41FB51F9183808329813A812115E9
:100C10003105D1F0D901ED91FC910190F081E02DE9
:100C2000B701A601C9010995E985FA8520813181BD
:100C3000032E000C440B550BDC01CB01820F931FDC
:100C4000A41FB51F9183808381149104D1F0D40136
:100C5000ED91FC910190F081E02DB701A601C40156
:100C60000995EF81F885208131814901330FAA0868
:100C7000BB08DC01CB01880D991DAA1DBB1D91830A
:100C800080832F85388921153105D1F0D901ED9167
:100C9000FC910190F081E02DB701A601C9010995F1
:100CA000EB85FC85208131816901330FEE08FF0857
:100CB000DC01CB018C0D9D1DAE1DBF1D918380837A
:100CC0000F5F1F4FF2E16F0E711C2CCF60960FB6B5
:100CD000F894DEBF0FBECDBFDF91CF911F910F9172
:100CE000FF90EF90DF90CF90BF90AF909F908F904C
:100CF0007F906F905F904F903F902F9008958F92CC
:100D00009F92AF92BF92CF92DF92EF92FF92CF93DA
:100D1000C82F61E00E943C040E94F9044B015C0171
:100D200084E6C82ED12CE12CF12C0E94F904DC01C0
:100D3000CB0188199909AA09BB09883E9340A105EE
:100D4000B10558F021E0C21AD108E108F10888EE97
:100D5000880E83E0981EA11CB11CC114D104E104CB
:100D6000F10419F760E08C2FCF91FF90EF90DF90A6
:100D7000CF90BF90AF909F908F900C943C04CF93F6
:100D8000DF93009779F0FC0101900020E9F731979B
:100D9000AF01481B590BBC0187E393E00E94E106B9
:100DA000EC0102C0C0E0D0E042E050E063EB72E052
:100DB00087E393E00E94E1068C0F9D1FDF91CF91A6
:100DC0000895CF92DF92EF92FF920F931F93CF93EC
:100DD000DF936C017A018B01C0E0D0E0CE15DF0516
:100DE00089F0D8016D918D01D601ED91FC910190B2
:100DF000F081E02DC6010995892B11F47E0102C016
:100E00002196ECCFC701DF91CF911F910F91FF90F9
:100E1000EF90DF90CF9008950E94CF1687E393E084
:100E20000E94B90021E0892B09F420E0822F089567
:100E3000EF92FF920F931F93CF93DF93EC0181E02A
:100E4000888F9B8D8C8D981305C0E889F9898081E6
:100E500085FD24C0F62E0B8D10E00F5F1F4F0F7322
:100E60001127E02E8C8DE8120CC00FB607FCFACFCC
:100E7000E889F989808185FFF5CFCE010E941B04A6
:100E8000F1CF8B8DFE01E80FF11DE35AFF4FF08289
:100E90000B8FEA89FB898081806207C0EE89FF8918
:100EA0006083E889F98980818064808381E090E0B3
:100EB000DF91CF911F910F91FF90EF900895CF9305
:100EC000DF93EC01888D8823C9F0EA89FB89808152
:100ED00085FD05C0A889B9898C9186FD0FC00FB624
:100EE00007FCF5CF808185FFF2CFA889B9898C9165
:100EF00085FFEDCFCE010E941B04E7CFDF91CF919C
:100F000008951F920F920FB60F9211242F933F93C3
:100F10004F935F936F937F938F939F93AF93BF9301
:100F2000EF93FF9387E393E00E941B04FF91EF91FF
:100F3000BF91AF919F918F917F916F915F914F91F1
:100F40003F912F910F900FBE0F901F9018951F92F9
:100F50000F920FB60F9211242F938F939F93EF93BD
:100F6000FF93E0914703F09148038081E0914D03A6
:100F7000F0914E0382FD12C09081809150038F5FEB
:100F80008F7320915103821751F0E0915003F0E0EC
:100F9000E95CFC4F958F8093500301C08081FF91E5
:100FA000EF919F918F912F910F900FBE0F901F90F7
:100FB00018958091280690912906009711F00E94BB
:100FC00037168091260687FD03C060E00C94BD04AF
:100FD00008952F923F924F925F926F927F928F92DD
:100FE0009F92AF92BF92CF92DF92EF92FF920F93B8
:100FF0001F93CF93DF9310923A031092390388EE38
:1010000093E0A0E0B0E080933B0390933C03A09377
:101010003D03B0933E0381E592E0909338038093C3
:10102000370385EC90E0909344038093430384EC72
:1010300090E0909346038093450380EC90E090937A
:1010400048038093470381EC90E090934A03809398
:10105000490382EC90E090934C0380934B0386EC21
:1010600090E090934E0380934D03109250031092A2
:1010700051031092520310925303109221061092C2
:10108000270610922E0610922F061092300610920C
:10109000310683E080932D0610922A0681E080932A
:1010A0002B0692E090932C068093200680EF90E030
:1010B00090932506809324060E94A21590932906FA
:1010C00080932806009761F020EFFC0111922A9589
:1010D000E9F78CE390E0909323068093220608C002
:1010E00010922506109224061092230610922206D2
:1010F00086E08093260680912106882341F061E0F6
:1011000086E00E94BD0460E086E00E943C04E8ECBA
:10111000F0E0E491F0E0EE0FFF1FE854FF4F8591FF
:10112000949120E236E09093330680933206EAEA07
:10113000F0E0E491E093340643EA52E050931E0657
:1011400040931D0681E080931F0650931B06409339
:101150001A0610921C0647E952E05093110640937C
:10116000100664EFC62EDD24D394E12CF12CC0923E
:101170001206D0921306E0921406F09215067AEF4A
:10118000C72ED12CE12CF12CC0921606D092170656
:10119000E0921806F092190650930706409306064F
:1011A00048EC50E060E070E0409308065093090678
:1011B00060930A0670930B0644E650E060E070E02E
:1011C00040930C0650930D0660930E0670930F0625
:1011D00041E952E05093050640930406ABE8B2E0C3
:1011E000B093F905A093F8051092FF051092FE0543
:1011F0004FEF50E050930106409300061092FA051D
:101200001092FB051092FC051092FD05109202064B
:101210003093EC052093EB058093EF0562E372E0D9
:101220007093EE056093ED05B093DE05A093DD05A8
:101230001092E4051092E3051092E6051092E50580
:101240001092DF051092E0051092E1051092E20580
:101250001092E7053093D1052093D0058093D405F3
:1012600060E272E07093D3056093D2051092B205EC
:101270001092B105E5E0F0E0F093B405E093B3051A
:101280001092B6051092B50569E070E07093B8054C
:101290006093B705C3E8D2E0D093B005C093AF0523
:1012A000CCE38C2E912CA12CB12C8092BD05909278
:1012B000BE05A092BF05B092C005C3E0D0E0D093B8
:1012C000C205C093C105C6E0D0E0D093C405C09369
:1012D000C3051092C505D8E68D2E99249394A12CB0
:1012E000B12C8092C6059092C705A092C805B09215
:1012F000C9051AE5812E912CA12CB12C8092CA052A
:101300009092CB05A092CC05B092CD053093A30569
:101310002093A2058093A605CEE0D2E0D093A50548
:10132000C093A405B0939505A093940510929B05D6
:1013300010929A05A4E1B0E0B0939D05A0939C059E
:1013400010929605109297051092980510929905A3
:1013500010929E0510928E0510928D055093900567
:1013600040938F05C0928905D0928A05E0928B0543
:10137000F0928C0580939105A7E7B2E0B0938805C1
:10138000A093870593E09093930530937B0520937A
:101390007A0594E090937E05C6ECD1E0D0937D056C
:1013A000C0937C05109273051092720550937505D9
:1013B0004093740504ECC02E09E0D02EE12CF12CF2
:1013C000C0926E05D0926F05E0927005F0927105A3
:1013D00010927605C1E7D2E0D0936D05C0936C05FD
:1013E000109267051092660504E610E010936905F7
:1013F00000936805C0926205D0926305E09264058F
:10140000F092650510926A05D0936105C09360055E
:1014100010924F0510924E05F0935105E093500540
:101420001092530510925205709355056093540520
:10143000C9E6D2E0D0934D05C0934C0510925A05F1
:1014400080935B0598EBC92E9BE0D92EE12CF12C03
:10145000C0925C05D0925D05E0925E05F0925F055A
:1014600010923B0510923A05F0933D05E0933C0540
:1014700010923F0510923E05709341056093400520
:10148000D0933905C093380580934605809347056E
:10149000C0924805D0924905E0924A05F0924B056A
:1014A00030932C0520932B0592E090932F0522EA90
:1014B00031E030932E0520932D05109223051092D4
:1014C000220550932505409324054EEE52E060E03E
:1014D00070E040931E0550931F05609320057093A4
:1014E000210510922605B0931D05A0931C0520919F
:1014F0002705222319F09093280502C08093280520
:10150000109216051092150588E790E09093180543
:10151000809317058EEE92E0A0E0B0E08093110575
:1015200090931205A0931305B0931405109219051A
:1015300087E792E09093100580930F0580911A053C
:10154000882311F082E001C081E080931B05109296
:1015500009051092080510920B0510920A058EEEEF
:1015600092E0A0E0B0E08093040590930505A0937D
:101570000605B093070510920C0587E792E090935B
:1015800003058093020580910D05882311F082E008
:1015900001C081E080930E051092FC041092FB04C0
:1015A00082E390E09093FE048093FD048EEE92E03F
:1015B000A0E0B0E08093F7049093F804A093F904BE
:1015C000B093FA041092FF0487E792E09093F60438
:1015D0008093F50480910005882311F082E001C01A
:1015E00081E0809301051092E4041092E30485E009
:1015F00090E09093E6048093E50424E030E030939B
:10160000E8042093E7043093EA042093E90449E6D0
:10161000242E42E0342E3092E2042092E104109213
:10162000EF04A1E0A093F00450EDC52E57E0D52EB5
:10163000E12CF12CC092F104D092F204E092F30478
:10164000F092F4041092D0041092CF049093D2043C
:101650008093D1041092D4041092D3043093D60412
:101660002093D5041092DB041092DC04C092DD04B8
:10167000D092DE04E092DF04F092E00421E632E052
:101680003093CE042093CD041092BC041092BB047E
:101690009093BE048093BD0444E050E05093C00496
:1016A0004093BF0409E010E01093C2040093C1040A
:1016B0001092C704A093C804C092C904D092CA046F
:1016C000E092CB04F092CC043093BA042093B90496
:1016D00060E276E07093AD046093AC0423E0209365
:1016E000B0042CE631E03093AF042093AE041092A6
:1016F000A5041092A40428EC30E03093A7042093B2
:10170000A60460EA462E6FE0562E612C712C4092A2
:10171000A0045092A1046092A2047092A3041092BB
:10172000A80421E732E030939F0420939E04109296
:101730009904109298046AE070E070939B0460939F
:101740009A04409294045092950460929604709288
:10175000970410929C043093930420939204109267
:101760007604109275049093780480937704909394
:101770007A048093790490937C0480937B04E3E85B
:10178000F2E0F0937404E093730474E6872E912CD6
:10179000A12CB12C8092810490928204A0928304A7
:1017A000B092840421E030E03093860420938504D5
:1017B000C7E0D0E0D0938804C0938704A093890445
:1017C000BCEBCB2EB2E0DB2EE12CF12CC0928A04D4
:1017D000D0928B04E0928C04F0928D0442E3C42EEC
:1017E000D12CE12CF12CC0928E04D0928F04E09287
:1017F0009004F09291041092570410925604909322
:1018000059048093580463E070E070935B04609324
:101810005A0470935D0460935C04F0935504E09364
:1018200054048092620490926304A0926404B09283
:10183000650430936704209366046DE070E0709354
:10184000690460936804A0936A0444E155E060E091
:1018500070E040936B0450936C0460936D0470933C
:101860006E04C0926F04D0927004E0927104F09202
:101870007204109238041092370490933A048093C3
:10188000390464E070E070933C0460933B0470930F
:101890003E0460933D04F0933604E0933504809257
:1018A000430490924404A0924504B09246043093BD
:1018B00048042093470443E150E050934A04409386
:1018C0004904A0934B044CE657E060E070E040937D
:1018D0004C0450934D0460934E0470934F04C09297
:1018E0005004D0925104E0925204F09253041092AA
:1018F00019041092180490931B0480931A043093D7
:101900001D0420931C0430931F0420931E04F093A5
:101910001704E09316048092240490922504A09268
:101920002604B092270430932904209328044BE026
:1019300050E050932B0440932A04A0932C044CE4D1
:1019400054E060E070E040932D0450932E046093C7
:101950002F0470933004C0923104D0923204E0928C
:101960003304F09234041092FA031092F903909326
:10197000FC038093FB03D093FE03C093FD03D0933D
:101980000004C093FF03F093F803E093F703809201
:10199000050490920604A0920704B09208043093C4
:1019A0000A042093090421E130E030930C042093D1
:1019B0000B04A0930D0444EA56E060E070E040930D
:1019C0000E0450930F046093100470931104C0929E
:1019D0001204D0921304E0921404F09215041092B1
:1019E000E6031092E5039093E8038093E7031092D7
:1019F000EA031092E9031093EC030093EB03309297
:101A0000E4032092E3031092F103A093F2034092C7
:101A1000F3035092F4036092F5037092F60380E2B0
:101A200096E09093D7038093D60386E08093DA0301
:101A300080E091E09093D9038093D803DF91CF9118
:101A40001F910F91FF90EF90DF90CF90BF90AF90DC
:101A50009F908F907F906F905F904F903F902F90CE
:101A60000895CF93DF93CDB7DEB7A5970FB6F8945F
:101A7000DEBF0FBECDBF789484B5826084BD84B5CF
:101A8000816084BD85B5826085BD85B5816085BD79
:101A900080916E00816080936E0010928100809131
:101AA00081008260809381008091810081608093B9
:101AB0008100809180008160809380008091B100DE
:101AC00084608093B1008091B00081608093B00009
:101AD00080917A00846080937A0080917A0082609D
:101AE00080937A0080917A008E7F80937A00809133
:101AF0007A00806880937A001092C100E0914703D9
:101B0000F091480382E08083E0914303F091440325
:101B10001082E0914503F091460387E6808310929E
:101B20004F03E0914B03F0914C0386E08083E091FA
:101B30004903F0914A03808180618083E0914903E9
:101B4000F0914A03808188608083E0914903F0919D
:101B50004A03808180688083E0914903F0914A03C1
:101B600080818F7D808305EA12E0D8018C910E5F21
:101B70001F4F61E00E94BD04B2E0033B1B07A9F7C1
:101B80008091260687FD08C061E00E94BD0460E0E8
:101B9000809126060E943C0481E08093210680917A
:101BA00046028823F9F081E190E00E947F0680E1FF
:101BB00090E00E947F068FE090E00E947F068EE01A
:101BC00090E00E947F0689E090E00E947F0685E019
:101BD00090E00E947F0683E090E00E947F061092D2
:101BE00046026DC487E393E00E94B900892B09F493
:101BF000D5C087E393E00E94970080934906209127
:101C00004402309145022F3FEFEF3E0771F58433D8
:101C100019F15CF48233D1F0E4F4813309F0BEC0F1
:101C20001092450210924402B9C08236C1F034F4D9
:101C3000813609F0B3C084E090E0ACC0833691F007
:101C4000833709F0ABC087E090E0A4C081E090E06A
:101C5000A1C082E090E09EC083E090E09BC085E060
:101C600090E098C086E090E095C0273031056CF593
:101C7000863609F15CF4823609F08AC0220F331FE0
:101C8000F901E55CF94F80E196E01CC08E3659F011
:101C9000833709F07DC0220F331FF901E55CF94F4E
:101CA00086E096E00FC0220F331FF901E55CF94F83
:101CB0008DE196E007C0220F331FF901E55CF94F73
:101CC0008AE196E09183808363C02730310509F073
:101CD0005FC00091390610913A068433B1F164F483
:101CE000823329F15CF58133D1F58DEE92E00E94CB
:101CF000BF0688E795E02FC08E3659F0853781F012
:101D0000863669F586EB92E00E94BF068EEC95E080
:101D100022C089EC92E00E94BF0689EE95E01BC0CC
:101D20008BED92E00E94BF0680EA95E014C08EEF32
:101D300092E00E94BF0689E295E00DC08FE093E03B
:101D40000E94BF068AEA94E006C080E293E00E9407
:101D5000BF0684ED93E090933A0680933906E091B4
:101D60003906F0913A06118300831386148615868E
:101D700016862FB7F8948091350690913606A0917B
:101D80003706B09138062FBF87839087A187B28727
:101D90008FEF9FEF90934502809344020BE316E090
:101DA00075EAE72E72E0F72ED8018D919D918D0195
:101DB000009751F0DC01ED91FC91D7016D917C9180
:101DC0000190F081E02D0995B2E0EB0EF11CE6E008
:101DD00009341E0749F72090390630903A0621143D
:101DE000310409F46CC32FB7F894809135069091B3
:101DF0003606A0913706B09138062FBFF101078152
:101E0000108521853285BC01CD01601B710B820BD1
:101E1000930B63877487858796870E94F31320E06E
:101E200030E84BE354E40E944B134B015C019B01EF
:101E3000AC0160E070E080E89FE30E94D4122B01C7
:101E40003C01F101008111810115110511F120E022
:101E500030E040E85FE3C501B4010E94411387FF11
:101E600018C02FB7F8948091350690913606A0914E
:101E70003706B09138062FBFF8014781508561853C
:101E80007285841B950BA60BB70B83879487A58758
:101E9000B6871F8E1E8E19A218A2C12CD12C1A8AA9
:101EA000198A188A1F861E861D861C861B869E011F
:101EB000255F3F4F79018E01035F1F4F2C5F3F4F1E
:101EC000AE014F5E5F4FB601C1010E94680520E080
:101ED00030E040E85FE3C501B4010E94411387FF91
:101EE000BBC01A86198618861F821E821D821C821C
:101EF0001B82D1018D919C91009771F0FE01339668
:101F00007F01085011099E01295F3F4FAE01475FD5
:101F10005F4FB6010E94680569897A89072E000C17
:101F2000880B990B0E94F513A50194010E94E414FB
:101F30006A8F7B8F8C8F9D8F69857A85072E000C29
:101F4000880B990B0E94F513A30192010E94E414DF
:101F50009B01AC016A8D7B8D8C8D9D8D0E94D5126D
:101F60000E94BD137A8B698B6F857889072E000CD0
:101F7000880B990B0E94F513A50194010E94E414AB
:101F80006A8F7B8F8C8F9D8F6F817885072E000CD9
:101F9000880B990B0E94F513A30192010E94E4148F
:101FA0009B01AC016A8D7B8D8C8D9D8D0E94D5121D
:101FB0000E94BD13788B6F876D857E85072E000C80
:101FC000880B990B0E94F513A50194010E94E4145B
:101FD0006A8F7B8F8C8F9D8F6D817E81072E000C89
:101FE000880B990B0E94F513A30192010E94E4143F
:101FF0009B01AC016A8D7B8D8C8D9D8D0E94D512CD
:102000000E94BD137E876D876B857C85072E000C33
:10201000880B990B0E94F513A50194010E94E4140A
:102020006A8F7B8F8C8F9D8F6B817C81072E000C3C
:10203000880B990B0E94F513A30192010E94E414EE
:102040009B01AC016A8D7B8D8C8D9D8D0E94D5127C
:102050000E94BD137C876B872B853C8537FD07C0AD
:102060002F3F310529F024F02FEF30E001C020E0B0
:10207000ED84FE84F7FC09C0C7018F3F910519F07C
:1020800014F08FEF90E0E82E01C0E12C8F85988945
:1020900097FD08C08F3F910519F014F08FEF90E085
:1020A000982F01C090E049895A8957FD08C04F3FD9
:1020B000510519F014F04FEF50E0842F01C080E07B
:1020C000D1011296ED91FC91139742815381C41670
:1020D000D50608F058C04E2D50E060E070E0722B3D
:1020E000592B7A018B01082BC801AA27BB278A8F9D
:1020F0005527412F302F2F2D2AA33BA34CA35DA39F
:102100007AA16E2D2781222361F0829FC0011124C4
:102110009A8F729FC0011124792FE29EC001112471
:10212000692F3585428580859185341305C048A186
:1021300059A1840F951F17C0AE8DBF8D8A0F9B1FAD
:10214000E12EFF2400271127DC01A30FB11D22235C
:1021500049F030E02E9DA0012F9D500D3E9D500D69
:102160001124E52EEC922285DC01A20FB11D2A8DEF
:102170002C932385DC01A20FB11D7C932485FC01E7
:10218000E20FF11D60833FEFC31AD30A48A159A1A2
:102190004D5F5F4F59A348A38E8D9F8D04969F8FEF
:1021A0008E8F9CE3C916D10409F079CED101129625
:1021B0000D911C911397F80180859185892B09F465
:1021C0007EC10E94F904D8011E96CD90DD90ED905D
:1021D000FC905197DC01CB018C199D09AE09BF0918
:1021E000C297A105B10568F3F894F801848195813F
:1021F0009A838983A085B1857D01FFEFEF1AFF0ADD
:102200008C91898FD8018C9152960D90BC91A02D04
:10221000882309F41AC11B8AAB32B10509F059C0F1
:102220009BB1F8018489982B988F9BB18095892365
:102230008F8B8F898C8B898D87FF02C0888D8C8BCB
:10224000588D6F89498D3C892B8989819A81D70165
:102250005BB9262F3BB900C046FD252F6BB900C0E6
:102260005BB9362F2BB900C045FD352F6BB900C0C7
:102270005BB9262F3BB900C044FD252F6BB900C0C8
:102280005BB9362F2BB900C043FD352F6BB900C0A9
:102290005BB9262F3BB900C042FD252F6BB900C0AA
:1022A0005BB9362F2BB900C041FD352F6BB900C08B
:1022B0005BB9262F3BB900C040FD252F6BB90197B4
:1022C0005BB9362F2BB94D9147FD352F6BB901F610
:1022D000B8C0A532B10509F059C095B1F80184899B
:1022E000982B988F95B1809589238F8B8F898C8BB4
:1022F000898D87FF02C0888D8C8B588D6F89498DA1
:102300003C892B8989819A81D70155B9262F35B906
:1023100000C046FD252F65B900C055B9362F25B937
:1023200000C045FD352F65B900C055B9262F35B918
:1023300000C044FD252F65B900C055B9362F25B919
:1023400000C043FD352F65B900C055B9262F35B9FA
:1023500000C042FD252F65B900C055B9362F25B9FB
:1023600000C041FD352F65B900C055B9262F35B9DC
:1023700000C040FD252F65B9019755B9362F25B905
:102380004D9147FD352F65B901F65BC0989709F06F
:102390008CC098B1F8018489982B988F98B180955A
:1023A00089238F8B8F898C8B898D87FF02C0888DC5
:1023B0008C8B588D6F89498D3C892B8989819A81B5
:1023C000D70158B9262F38B900C046FD252F68B966
:1023D00000C058B9362F28B900C045FD352F68B95F
:1023E00000C058B9262F38B900C044FD252F68B960
:1023F00000C058B9362F28B900C043FD352F68B941
:1024000000C058B9262F38B900C042FD252F68B941
:1024100000C058B9362F28B900C041FD352F68B922
:1024200000C058B9262F38B900C040FD252F68B923
:10243000019758B9362F28B94D9147FD352F68B906
:1024400001F6498F3C8B2B8B2EC09C91F80184891F
:10245000982B988F9C91809589238F8B8F898E8B59
:1024600088E08D8B588D6F89498D3D892E898981B2
:102470009A81F7015C9347FD252F2C93262F3A95DF
:1024800031F0441F6C9300C000C000C0F3CF6C93C8
:10249000000038E04191019769F7F801B38BA28BF6
:1024A000498F3D8B2E8B9A83898378940E94F904FF
:1024B000D8011E966D937D938D939C9351970E94A6
:1024C000C5006DCB97FB072E16F4009407D077FD5F
:1024D00009D00E94A01207FC05D03EF4909581958A
:1024E0009F4F0895709561957F4F0895A1E21A2E30
:1024F000AA1BBB1BFD010DC0AA1FBB1FEE1FFF1FA8
:10250000A217B307E407F50720F0A21BB30BE40BF7
:10251000F50B661F771F881F991F1A9469F760953E
:102520007095809590959B01AC01BD01CF010895F8
:10253000B7FF0C94BA120E94BA12821B930B089533
:10254000AA1BBB1B51E107C0AA1FBB1FA617B707D9
:1025500010F0A61BB70B881F991F5A95A9F78095F5
:102560009095BC01CD010895EE0FFF1F0590F491E9
:10257000E02D09940E94C512A59F900DB49F900D67
:10258000A49F800D911D11240895A29FB001B39FB7
:10259000C001A39F700D811D1124911DB29F700D6C
:1025A000811D1124911D08955058BB27AA270E9410
:1025B000EC120C9496140E945D1438F00E9464147E
:1025C00020F039F49F3F19F426F40C945A140EF4B9
:1025D000E095E7FB0C945414E92F0E94BB1458F3C8
:1025E000BA17620773078407950720F079F4A6F5F8
:1025F0000C94DD140EF4E0950B2EBA2FA02D0B01D8
:10260000B90190010C01CA01A0011124FF27591B37
:1026100099F0593F50F4503E68F11A16F040A22F3D
:10262000232F342F4427585FF3CF469537952795AE
:10263000A795F0405395C9F77EF41F16BA0B620BAD
:10264000730B840BBAF09150A1F0FF0FBB1F661FF4
:10265000771F881FC2F70EC0BA0F621F731F841F37
:1026600048F4879577956795B795F7959E3F08F05D
:10267000B0CF9395880F08F09927EE0F979587951F
:1026800008950E94301408F481E008950E946D14AA
:10269000E3950C94A7140E945F130C9496140E9467
:1026A000641458F00E945D1440F029F45F3F29F053
:1026B0000C94541451110C94DE140C945A140E946E
:1026C000BB1468F39923B1F3552391F3951B550B74
:1026D000BB27AA2762177307840738F09F5F5F4FF5
:1026E000220F331F441FAA1FA9F335D00E2E3AF034
:1026F000E0E832D091505040E695001CCAF72BD04C
:10270000FE2F29D0660F771F881FBB1F261737079C
:102710004807AB07B0E809F0BB0B802DBF01FF27CE
:1027200093585F4F3AF09E3F510578F00C94541443
:102730000C94DE145F3FE4F3983ED4F386957795CE
:102740006795B795F7959F5FC9F7880F911D969587
:10275000879597F90895E1E0660F771F881FBB1FE3
:10276000621773078407BA0720F0621B730B840B90
:10277000BA0BEE1F88F7E09508950E94C413689481
:10278000B1110C94DE1408950E94C31488F09F5771
:1027900098F0B92F9927B751B0F0E1F0660F771F85
:1027A000881F991F1AF0BA95C9F714C0B13091F07B
:1027B0000E94DD14B1E008950C94DD14672F782F8A
:1027C0008827B85F39F0B93FCCF386957795679540
:1027D000B395D9F73EF490958095709561957F4FAC
:1027E0008F4F9F4F0895E89409C097FB3EF4909552
:1027F0008095709561957F4F8F4F9F4F9923A9F0DA
:10280000F92F96E9BB279395F69587957795679568
:10281000B795F111F8CFFAF4BB0F11F460FF1BC0AC
:102820006F5F7F4F8F4F9F4F16C0882311F096E93F
:1028300011C0772321F09EE8872F762F05C06623ED
:1028400071F096E8862F70E060E02AF09A95660FA6
:10285000771F881FDAF7880F9695879597F908955F
:10286000990F0008550FAA0BE0E8FEEF16161706A1
:10287000E807F907C0F012161306E407F50798F009
:10288000621B730B840B950B39F40A2661F0232B22
:10289000242B252B21F408950A2609F4A140A6959E
:1028A0008FEF811D811D089597F99F6780E870E083
:1028B00060E008959FEF80EC089500240A941616B6
:1028C000170618060906089500240A94121613061E
:1028D0001406050608950C945A140E94C314D8F3E4
:1028E000E894E0E0BB279F57F0F02AED3FE049EC89
:1028F00006C0EE0FBB0F661F771F881F28F0B23A85
:1029000062077307840728F0B25A620B730B840BBB
:10291000E3959A9572F7803830F49A95BB0F661F4D
:10292000771F881FD2F790480C945B15092E0394EB
:10293000000C11F4882352F0BB0F40F4BF2B11F4AC
:1029400060FF04C06F5F7F4F8F4F9F4F0895EF93DD
:10295000E0FF07C0A2EA2AED3FE049EC5FEB0E94EE
:10296000EC120E9496140F90039401FC9058E8E634
:10297000F0E00C94671557FD9058440F551F59F01F
:102980005F3F71F04795880F97FB991F61F09F3F5C
:1029900079F087950895121613061406551FF2CF85
:1029A0004695F1DF08C0161617061806991FF1CFD5
:1029B00086957105610508940895E894BB276627FC
:1029C0007727CB0197F908950E94F7140C94961479
:1029D0000E945D1438F00E94641420F0952311F0D9
:1029E0000C9454140C945A1411240C94DE140E9468
:1029F000BB1470F3959FC1F3950F50E0551F629F74
:102A0000F001729FBB27F00DB11D639FAA27F00D47
:102A1000B11DAA1F649F6627B00DA11D661F829F6E
:102A20002227B00DA11D621F739FB00DA11D621F53
:102A3000839FA00D611D221F749F3327A00D611D70
:102A4000231F849F600D211D822F762F6A2F112452
:102A50009F5750409AF0F1F088234AF0EE0FFF1F85
:102A6000BB1F661F771F881F91505040A9F79E3FDC
:102A7000510580F00C9454140C94DE145F3FE4F381
:102A8000983ED4F3869577956795B795F795E79532
:102A90009F5FC1F7FE2B880F911D9695879597F93B
:102AA00008959F930E946D140F9007FCEE5F0C94A5
:102AB000A7149F3F31F0915020F487957795679543
:102AC000B795880F911D9695879597F908959F93CF
:102AD0008F937F936F93FF93EF939B01AC010E94C1
:102AE000E414EF91FF910E947B152F913F914F913C
:102AF0005F910C94E414DF93CF931F930F93FF9295
:102B0000EF92DF927B018C01689406C0DA2EEF0110
:102B10000E94F714FE01E894A59125913591459105
:102B20005591A6F3EF010E94EC12FE019701A80156
:102B3000DA9469F7DF90EF90FF900F911F91CF919A
:102B4000DF910895CF93DF938230910510F482E0F6
:102B500090E0E0914C06F0914D0620E030E0C0E0BE
:102B6000D0E0309711F14081518148175907C0F0EA
:102B70004817590761F482819381209719F09B834C
:102B80008A832BC090934D0680934C0626C0211556
:102B9000310519F04217530718F49A01BE01DF01FD
:102BA000EF010280F381E02DDCCF2115310509F121
:102BB000281B390B2430310590F412968D919C918D
:102BC00013976115710521F0FB019383828304C083
:102BD00090934D0680934C06FD01329644C0FD0152
:102BE000E20FF31F81939193225031092D933C936F
:102BF0003AC020914A0630914B06232B41F4209194
:102C0000490230914A0230934B0620934A062091A4
:102C10004702309148022115310541F42DB73EB7E6
:102C200040914B0250914C02241B350BE0914A0617
:102C3000F0914B06E217F307A0F42E1B3F0B281769
:102C4000390778F0AC014E5F5F4F2417350748F025
:102C50004E0F5F1F50934B0640934A06819391930A
:102C600002C0E0E0F0E0CF01DF91CF9108950F9333
:102C70001F93CF93DF93009709F48CC0FC01329728
:102C80001382128200914C0610914D060115110518
:102C900081F420813181820F931F20914A06309167
:102CA0004B062817390779F5F0934B06E0934A064F
:102CB00071C0D80140E050E0AE17BF0750F4129643
:102CC0002D913C911397AD012115310509F1D901E1
:102CD000F3CF9D01DA013383228360817181860FF6
:102CE000971F8217930769F4EC0128813981260F19
:102CF000371F2E5F3F4F318320838A819B819383CF
:102D00008283452B29F4F0934D06E0934C0642C094
:102D10001396FC93EE931297ED01499159919E0100
:102D2000240F351FE217F30771F480819181840F1E
:102D3000951F029611969C938E9382819381139690
:102D40009C938E931297E0E0F0E0D80112968D915B
:102D50009C911397009719F0F8018C01F6CF8D9193
:102D60009C9198012E5F3F4F820F931F20914A063E
:102D700030914B062817390769F4309729F41092DF
:102D80004D0610924C0602C01382128210934B061D
:102D900000934A06DF91CF911F910F91089581E032
:102DA00090E0F8940C94D41610E0CCE6D0E004C087
:102DB000FE010E94B4122196CD36D107C9F7F894CE
:022DC000FFCF43
:102DC200000000008813000073040000F8050000F2
:102DD2000000000000008813000054040000F80501
:102DE200000000000000000088130000350400000D
:102DF200F80500000000000000008813000016041F
:102E02000000F80500000000000000008813000028
:102E1200F7030000F80500000000E8030000FFFFD0
:102E2200FFFFE30300009E04000092040000000084
:102E3200FFFFFFFFE1040F050205F5040000D007C4
:102E42000000FFFFFFFFCD041C0500000000000092
:102E5200D0070000FFFFFFFFB9041C0500000000BF
:102E6200000000000000AC0D00004C0560050000F1
:102E72006C050000A00F0000B80B000038056005CB
:102E820000006C05000000000000FFFFFFFF0406C9
:102E92000000000094059405F4010000E80300001E
:102EA20004060000000087050000CA080000E803CD
:102EB200000004060000000087050000A00F0000CB
:102EC200E80300000406000000008705000000007F
:102ED2000000FFFFFFFFAF05000000000000F80543
:102EE20000000000FFFFFFFF0406000000000000DA
:102EF200DD0500000000FFFFFFFF040600000000E8
:102F02000000F805FFFF0100004E068000000000EF
:102F1200001807E106B9009700AB005F0700000048
:102F2200006602E201000000006602D2000000001A
:102F3200007901000000004B030000000035020090
:102F4200000000AC02250100000000DA01000000D0
:102F520000CF0000000000930400000000290100DF
:102F62000000008804110010000F000E0009000587
:102F72000003000D0A00456E746572696E67204F8A
:102F8200666620537461746500456E746572696E7D
:102F920067204F6E20537461746500456E746572CC
:102FA200696E6720557020537461746500456E74B4
:102FB2006572696E67203120537461746500456ED5
:102FC200746572696E6720322053746174650045BE
:102FD2006E746572696E6720332053746174650084
:102FE200456E746572696E6720342053746174652E
:022FF2000000DD
:107800000C94343C0C94513C0C94513C0C94513CE1
:107810000C94513C0C94513C0C94513C0C94513CB4
:107820000C94513C0C94513C0C94513C0C94513CA4
:107830000C94513C0C94513C0C94513C0C94513C94
:107840000C94513C0C94513C0C94513C0C94513C84
:107850000C94513C0C94513C0C94513C0C94513C74
:107860000C94513C0C94513C11241FBECFEFD8E036
:10787000DEBFCDBF11E0A0E0B1E0EAE8FFE702C063
:1078800005900D92A230B107D9F712E0A2E0B1E065
:1078900001C01D92AD30B107E1F70E942D3D0C945F
:1078A000C33F0C94003C982F95959595959595958B
:1078B000905D8F708A307CF0282F295A8091C0000B
:1078C00085FFFCCF9093C6008091C00085FFFCCF60
:1078D0002093C6000895282F205DF0CF982F809127
:1078E000C00085FFFCCF9093C6000895EF92FF92F1
:1078F0000F931F93EE24FF2487018091C00087FD22
:1079000017C00894E11CF11C011D111D81E2E8164D
:1079100081EAF80687E0080780E0180770F3E09135
:107920000401F091050109958091C00087FFE9CF1E
:107930008091C6001F910F91FF90EF9008950E94D3
:10794000763C982F8091C00085FFFCCF9093C600B5
:1079500091362CF490330CF09053892F089597555D
:10796000892F08951F930E949F3C182F0E949F3CCF
:107970001295107F810F1F9108951F93182F882350
:1079800021F00E94763C1150E1F71F9108951F935A
:10799000182F0E94763C803249F0809103018F5F5E
:1079A000809303018530C1F01F9108958091C0003C
:1079B00085FFFCCF84E18093C6008091C00085FFE5
:1079C000FCCF1093C6008091C00085FFFCCF80E102
:1079D0008093C6001F910895E0910401F091050184
:1079E00009951F9108950E94763C803241F0809164
:1079F00003018F5F80930301853081F008958091AA
:107A0000C00085FFFCCF84E18093C6008091C00058
:107A100085FFFCCF80E18093C6000895E0910401CA
:107A2000F09105010995089548EC50E08823A1F0F4
:107A30002D9A28EE33E0FA013197F1F721503040CA
:107A4000D1F72D9828EE33E0FA013197F1F7215064
:107A50003040D1F7815061F708953F924F925F9285
:107A60006F927F928F929F92AF92BF92CF92DF924E
:107A7000EF92FF920F931F93CF93DF93000082E06A
:107A80008093C00080E18093C4001092C50088E11B
:107A90008093C10086E08093C2005098589A259A3E
:107AA00081E00E94143D24E1F22E9EE1E92E85E959
:107AB000D82E0FE0C02E10E1B12EAA24A394B1E479
:107AC0009B2EA6E58A2EF2E57F2EE0E26E2E79E46B
:107AD000572E63E5462E50E5352E0E94763C8033C6
:107AE000B1F18133B9F1803409F46FC0813409F404
:107AF00076C0823409F485C0853409F488C08035A5
:107B000031F1823521F1813511F1853509F485C0D6
:107B1000863509F48DC0843609F496C0843709F49B
:107B200003C1853709F472C1863709F466C08091B4
:107B300003018F5F80930301853079F6E0910401A2
:107B4000F091050109950E94763C803351F60E9420
:107B5000F33CC3CF0E94763C803249F78091C0004D
:107B600085FFFCCFF092C6008091C00085FFFCCF5E
:107B70009092C6008091C00085FFFCCF8092C60025
:107B80008091C00085FFFCCF7092C6008091C0003C
:107B900085FFFCCF6092C6008091C00085FFFCCFBE
:107BA0005092C6008091C00085FFFCCF4092C60075
:107BB0008091C00085FFFCCF3092C6008091C0004C
:107BC00085FFFCCFB092C60088CF0E94763C8638F5
:107BD00008F4BDCF0E94763C0E94F33C7ECF0E9409
:107BE000763C803809F49CC0813809F40BC1823896
:107BF00009F430C1883909F48FC080E00E94C73C85
:107C00006CCF84E10E94BD3C0E94F33C66CF85E0CE
:107C10000E94BD3C0E94F33C60CF0E94763C809362
:107C200006010E94763C809307010E94F33C55CFE9
:107C30000E94763C803309F411C183E00E94BD3C70
:107C400080E00E94C73C49CF0E94763C80930902A5
:107C50000E94763C8093080280910C028E7F809374
:107C60000C020E94763C853409F409C18091080217
:107C700090910902892B89F000E010E00E94763C87
:107C8000F801E85FFE4F80830F5F1F4F809108026D
:107C9000909109020817190788F30E94763C8032F8
:107CA00009F045CF80910C0280FFF5C0609106017C
:107CB00070910701660F771F7093070160930601AB
:107CC000A0910802B09109021097C9F0E8E0F1E034
:107CD0009B01AD014E0F5F1FF999FECF32BD21BD53
:107CE000819180BDFA9AF99A2F5F3F4FE417F5070B
:107CF00099F76A0F7B1F70930701609306018091CB
:107D0000C00085FFFCCFF092C6008091C00085FFC7
:107D1000FCCFB092C600E1CE83E00E94C73CDDCE2E
:107D200082E00E94C73CD9CE0E94763C8093090233
:107D30000E94763C80930802809106019091070191
:107D4000880F991F90930701809306010E94763C4B
:107D5000853409F49AC080910C028E7F80930C02C6
:107D60000E94763C803209F0B8CE8091C00085FF39
:107D7000FCCFF092C600A0910802B09109021097C2
:107D8000C1F180910C02082F0170182F1695117007
:107D9000E0910601F0910701AF014F5F5F4FBA011B
:107DA00020E030E00023B1F4112339F49491809164
:107DB000C00085FFFCCF9093C6002F5F3F4FCB01E3
:107DC0000196FA012A173B0780F4BC014F5F5F4F11
:107DD000002351F3F999FECFF2BDE1BDF89A90B5B9
:107DE0008091C00085FFFCCFE6CF709307016093C0
:107DF00006018091C00085FDE5CE8091C00085FF21
:107E0000F8CFE0CE81E00E94C73C67CE0E94763C6E
:107E1000803209F08CCE8091C00085FFFCCFF092BB
:107E2000C6008091C00085FFFCCFE092C600809123
:107E3000C00085FFFCCFD092C6008091C00085FFB6
:107E4000FCCFC092C6008091C00085FFFCCFB092ED
:107E5000C60043CE80E10E94C73C3FCE0E94763CE4
:107E60000E94763C182F0E94763C112309F483C0AF
:107E7000113009F484C08FE00E94C73C2ECE80915F
:107E80000C02816080930C02F1CE80910C02816023
:107E900080930C0265CF809107018823880F880B9F
:107EA0008A2180930B028091060190910701880F2F
:107EB000991F90930701809306018091080280FF2B
:107EC00009C08091080290910902019690930902DD
:107ED00080930802F894F999FECF1127E0910601EA
:107EE000F0910701C8E0D1E0809108029091090269
:107EF000103091F40091570001700130D9F303E084
:107F000000935700E8950091570001700130D9F3B4
:107F100001E100935700E8950990199000915700EE
:107F200001700130D9F301E000935700E8951395F3
:107F3000103498F011270091570001700130D9F3E7
:107F400005E000935700E89500915700017001305B
:107F5000D9F301E100935700E8953296029709F0B2
:107F6000C7CF103011F00296E5CF11248091C000E8
:107F700085FFC5CEC8CE8EE10E94C73CAECD85E957
:0A7F80000E94C73CAACDF894FFCF81
:027F8A00800075
:040000030000780081
:00000001FF