:100000000C946D000C9495000C9495000C94950044
:100010000C9495000C9495000C9495000C9495000C
:100020000C9495000C9495000C9495000C949500FC
:100030000C9495000C9495000C9495000C949500EC
:100040000C94A3070C9495000C942E030C940803B5
:100050000C9495000C9495000C9495000C949500CC
:100060000C9495000C94950005A84CCDB2D44EB9D3
:100070003836A9020C50B9918688083CA6AAAA2A4B
:10008000BE000000803F01020408102040800102F1
:1000900004081020010204081020000000002500C0
:1000A00028002B00040404040404040402020202D5
:1000B00002020303030303030000000024002700DF
:1000C0002A000000000800020100000304070000ED
:1000D0000000000000006B0DF51111241FBECFEFD2
:1000E000D8E0DEBFCDBF13E0A0E0B1E0EAE1FDE281
:1000F00002C005900D92A637B107D9F726E0A6E712
:10010000B3E001C01D92A330B207E1F710E0CCE6E6
:10011000D0E004C02197FE010E946612CB36D107C1
:10012000C9F70E942D080C9480160C9400002F92A1
:100130003F924F925F926F927F928F929F92AF9277
:10014000BF92CF92DF92EF92FF920F931F93CF93C4
:10015000DF93CDB7DEB761970FB6F894DEBF0FBE61
:10016000CDBF8C874D8718012901FD82EC82DF828B
:10017000CE82B986A8869B868A867B0119823981C0
:100180004D85341709F4B2C0D7018D909D90AD9084
:10019000BC90139714962D913D914D915C911797BA
:1001A0002E873F87488B598B18968D919C91199774
:1001B0001A960D911C911B971C96ED91FC911D9721
:1001C000FB83EA831E96CD90DC901F9750966D902E
:1001D0007C905197281439044A045B0408F47FC0CA
:1001E000A2019101281939094A095B0949015A01FB
:1001F0002E853F854889598982169306A406B5063F
:1002000008F06DC0009761F0DC01ED91FC91019068
:10021000F081E02D2C85B501A40109954B015C010D
:100220008114B8E29B06BBE6AB06BEEEBB0608F047
:1002300056C00115110591F0D801ED91FC91019086
:10024000F081E02DB501A401C8010995EC81FD8183
:1002500020813181820F931F918380832A813B818A
:100260002115310591F0D901ED91FC910190F081BA
:10027000E02DB501A401C9010995E885F985208122
:100280003181820F931F91838083C114D10491F037
:10029000D601ED91FC910190F081E02DB501A40112
:1002A000C6010995EE81FF8120813181820F931F64
:1002B000918380836114710491F0D301ED91FC91DD
:1002C0000190F081E02DB501A401C3010995EA85F3
:1002D000FB8520813181820F931F91838083398137
:1002E0003F5F398342E1E40EF11C49CF61960FB6BE
:1002F000F894DEBF0FBECDBFDF91CF911F910F915C
:10030000FF90EF90DF90CF90BF90AF909F908F9035
:100310007F906F905F904F903F902F900895CF9275
:10032000DF92EF92FF920F931F93CF93DF936C01B5
:100330007A018B01C0E0D0E0CE15DF0589F0D8014D
:100340006D918D01D601ED91FC910190F081E02D30
:10035000C6010995892B11F47E0102C02196ECCFCC
:10036000C701DF91CF911F910F91FF90EF90DF9028
:10037000CF900895FC01918D828D981761F0828D48
:10038000DF01A80FB11D5D968C91928D9F5F9F73C9
:10039000928F90E008958FEF9FEF0895FC01918D6B
:1003A000828D981731F0828DE80FF11D858D90E0D8
:1003B00008958FEF9FEF0895FC01918D228D892F75
:1003C00090E0805C9F4F821B91098F73992708955D
:1003D00085E893E00E94DC0121E0892B09F420E00C
:1003E000822F08958F929F92AF92BF92CF92DF9209
:1003F000EF92FF921F93CF93DF93EC01162F6901C9
:100400007A0120E030E0A901C701B6010E948B14F7
:10041000181644F58090B4059090B505A090B605E7
:10042000B090B70520E030E0A901C501B4010E94F9
:100430008B1418160CF042C06091BB057091BC057E
:100440008091BD059091BE050E949A13A50194016B
:100450000E94F21220E030E040E05FE30E948B1443
:10046000181664F1D093B205C093B1051093B3058B
:10047000C092B405D092B505E092B605F092B705EA
:100480001092BB051092BC051092BD051092BE05DE
:100490000E9476076093BF057093C0058093C105E5
:1004A0009093C205DF91CF911F91FF90EF90DF9065
:1004B000CF90BF90AF909F908F9008958091B1059D
:1004C0009091B2059093B9058093B8058091B305DA
:1004D0008093BA058091BF059091C005A091C10598
:1004E000B091C2058093C3059093C405A093C50540
:1004F000B093C605B7CFCF93DF93009779F0FC0197
:1005000001900020E9F73197AF01481B590BBC015E
:1005100085E893E00E948F01EC0102C0C0E0D0E0CA
:1005200042E050E067EE72E085E893E00E948F01C0
:100530008C0F9D1FDF91CF9108950E947B16EF9243
:10054000FF920F931F93CF93DF93EC0181E0888F8D
:100550009B8D8C8D981305C0E889F989808185FD74
:1005600024C0F62E0B8D10E00F5F1F4F0F73112765
:10057000E02E8C8DE8120CC00FB607FCFACFE8898C
:10058000F989808185FFF5CFCE010E949D06F1CFCC
:100590008B8DFE01E80FF11DE35AFF4FF0820B8FA8
:1005A000EA89FB898081806207C0EE89FF896083C8
:1005B000E889F98980818064808381E090E0DF911F
:1005C000CF911F910F91FF90EF900895CF93DF93FC
:1005D000EC01888D8823C9F0EA89FB89808185FD3B
:1005E00005C0A889B9898C9186FD0FC00FB607FC9C
:1005F000F5CF808185FFF2CFA889B9898C9185FFDD
:10060000EDCFCE010E949D06E7CFDF91CF910895F7
:100610001F920F920FB60F9211242F933F934F9377
:100620005F936F937F938F939F93AF93BF93EF935A
:10063000FF9385E893E00E949D06FF91EF91BF91A3
:10064000AF919F918F917F916F915F914F913F916A
:100650002F910F900FBE0F901F9018951F920F9221
:100660000FB60F9211242F938F939F93EF93FF93C5
:10067000E0919503F09196038081E0919B03F091C6
:100680009C0382FD12C0908180919E038F5F8F73C7
:1006900020919F03821751F0E0919E03F0E0EB5709
:1006A000FC4F958F80939E0301C08081FF91EF9155
:1006B0009F918F912F910F900FBE0F901F901895C3
:1006C00080E090E0892B29F00E94E80181110C94D0
:1006D00000000895CB01BA0108958F929F92AF92C6
:1006E000BF92CF92DF92EF92FF92CF93DF935C01A4
:1006F000FC0191858681D281C381992329F0682FDD
:1007000070E06D1B710904C06C2F70E0681B7109EB
:10071000072E000C880B990B0E949C136B017C0127
:10072000F50162857385848595850E949A134B0136
:100730005C018C2F90E001968D1B9109BC01990FF3
:10074000880B990B0E949C139B01AC01C701B60159
:100750000E94F2129B01AC01C501B4010E949014E9
:100760000E946B13DF91CF91FF90EF90DF90CF90BD
:10077000BF90AF909F908F900895FC01868108955F
:1007800008958F929F92AF92BF92CF92DF92EF9295
:10079000FF92CF93DF93EC01E62F372F8A85CA8033
:1007A000DB80EC80FD808823D9F046015701880C5E
:1007B000991CAA1CBB1CBA018E2F932FA501940172
:1007C0000E942512C616D706E806F90698F4A50178
:1007D0009401261B370B480B590BCA01B9010AC0FB
:1007E000BA018E2F932FC616D706E806F90610F425
:1007F000C701B6012B85222341F0A7019601261BD4
:10080000370B480B590BCA01B901DF91CF91FF900B
:10081000EF90DF90CF90BF90AF909F908F90089512
:100820004F925F926F927F928F929F92AF92BF9200
:10083000CF92DF92EF92FF920F931F93CF93DF93AC
:10084000EC010E811F810E94C1034B015C01B801C4
:10085000012E000C880B990B0E949C136B017C01EC
:1008600048855985401B510BBA01550F880B990BD0
:100870000E949C132B013C01C501B4010E949A13F4
:100880004B015C016A817B818C819D810E949A135E
:100890009B01AC01C501B4010E94F2129B01AC01A5
:1008A000C301B2010E9490149B01AC01C701B601C3
:1008B0000E947C120E946413CB01DF91CF911F91A3
:1008C0000F91FF90EF90DF90CF90BF90AF909F90EF
:1008D0008F907F906F905F904F900895FC0180857E
:1008E000918508958F929F92AF92BF92CF92DF929F
:1008F000EF92FF92CF93DF935C01FC01918587819A
:10090000D481C581992329F0682F70E06D1B71098E
:1009100004C06C2F70E0681B7109072E000C880B57
:10092000990B0E949C136B017C01F5016285738514
:10093000848595850E949A134B015C018C2F90E071
:1009400001968D1B9109BC01990F880B990B0E9490
:100950009C139B01AC01C701B6010E94F2129B01DE
:10096000AC01C501B4010E9490140E946B13DF9189
:10097000CF91FF90EF90DF90CF90BF90AF909F907E
:100980008F900895DC01E62F372F822F6AE00E94B6
:10099000051216968C93169717969C931797129696
:1009A0002C911297821790F013962C911397281779
:1009B00068F014968C911497981740F015968C91C6
:1009C000891720F0BA018E2F932F08956FEF7FEFD4
:1009D0008FEF9FEF08958F929F92AF92BF92CF9229
:1009E000DF92EF92FF92CF93DF93EC010E94C2045B
:1009F0006B017C016F3F7F4F8F4F9F4F41F1888587
:100A0000E881F9818823D1F08E849F84A888B988F1
:100A10008A859B85AC85BD85880E991EAA1EBB1E46
:100A20000280F381E02DCE010995A50194012C19D6
:100A30003D094E095F0969017A0105C00280F38111
:100A4000E02DCE010995C61AD70AE80AF90AC701AE
:100A5000B601DF91CF91FF90EF90DF90CF90BF90E4
:100A6000AF909F908F9008958F929F92AF92BF9278
:100A7000CF92DF92EF92FF921F93CF93DF93EC011F
:100A80000E94C2046F3F2FEF72078207920721F482
:100A90006FEF7FEFCB0172C08F849888A988BA88E6
:100AA000A50194010E9425126B017C018E8588238B
:100AB00041F0D501C4018C199D09AE09BF096C0133
:100AC0007D01288539854A855B85C701B6010E946D
:100AD0002512B22E6D8570E0822F90E02C85821B4E
:100AE00091090196860F971F0E941112182FE88115
:100AF000F9810280F381E02DCE0109956D850E9478
:100B00000512B11628F0911718F2B91630F4C0CFBB
:100B1000B91618F4911708F4BBCF8F849888A98868
:100B2000BA88C80CD91CEA1CFB1C288539854A8563
:100B30005B85A92FB0E00E944712A7019601261BF2
:100B4000370B480B590BCA01B901A50194010E944A
:100B50002512CB88DC88ED88FE886C157D058E0516
:100B60009F0560F0CC0CDD1CEE1CFF1CA70196015C
:100B7000261B370B480B590BCA01B901DF91CF91E6
:100B80001F91FF90EF90DF90CF90BF90AF909F901C
:100B90008F9008958F929F92AF92BF92CF92DF92E3
:100BA000EF92FF920F931F93CF93DF9300D000D06B
:100BB000CDB7DEB75C010E94C103F5012485213069
:100BC00009F5008511850E949A136B017C01F501DE
:100BD00062817381848195810E949A139B01AC018B
:100BE000C701B6010E94F2122BED3FE049EC5FE332
:100BF0000E9490140E94ED129B01AC01F5018681C8
:100C0000978123C0223091F5F501068117810E945A
:100C10009A136B017C01F501628173818481958156
:100C20000E949A139B01AC01C701B6010E94F21207
:100C30002BED3FE049EC5FE30E9490140E94FD140D
:100C40009B01AC01F50180859185801B910BBC0156
:100C5000990F880B990B29833A834B835C830E94FD
:100C60009C1329813A814B815C8140C0233009F07B
:100C700053C0F501068117810E949A132BED3FE0C6
:100C800049E450E40E9490146B017C01F5016281FB
:100C90007381848195810E949A139B01AC01C701E5
:100CA000B6010E94F2120E94ED126B017C01F50167
:100CB000808591859801281B390BC90137FD019664
:100CC00095958795BC01990F880B990B0E949C13F1
:100CD0004B015C0120E030E040E85FE3C701B60172
:100CE0000E947B129B01AC01C501B4010E949014CB
:100CF0006B017C01B801110F880B990B0E949C13AA
:100D00009B01AC01C701B6010E947C120E946413D2
:100D1000262F972F822F00C00F900F900F900F90CB
:100D2000DF91CF911F910F91FF90EF90DF90CF90C7
:100D3000BF90AF909F908F900895FC01848DDF014C
:100D4000A80FB11DA35ABF4F2C91848D90E001963E
:100D50008F739927848FA689B7892C93A089B1892D
:100D60008C9180648C93938D848D981306C0028837
:100D7000F389E02D80818F7D8083089590E0FC01D0
:100D8000EE53FF4F3491FC01EA57FF4F2491FC01D1
:100D9000EC55FF4FE491EE2309F43BC0332339F1C6
:100DA000333091F038F43130A9F0323001F584B5A8
:100DB0008F7D12C0373091F03830A1F03430B9F463
:100DC000809180008F7D03C0809180008F77809319
:100DD00080000DC084B58F7784BD09C08091B000BC
:100DE0008F7703C08091B0008F7D8093B000F0E0DA
:100DF000EE0FFF1FE656FF4FA591B4918FB7F89401
:100E0000EC91611103C020952E2301C02E2B2C9351
:100E10008FBF0895262FFC018281882311F061E0A5
:100E200001C060E0822F0C94BE06CF93DF9390E068
:100E3000FC01EA57FF4F2491FC01EC55FF4F8491D0
:100E4000882361F190E0880F991FFC01E854FF4F5F
:100E5000C591D491FC01E656FF4FA591B491611163
:100E600009C09FB7F8948881209582238883EC91EC
:100E70002E230BC0623061F49FB7F8943881822F23
:100E8000809583238883EC912E2B2C939FBF06C0E3
:100E90008FB7F894E8812E2B28838FBFDF91CF91F5
:100EA00008953FB7F8948091FB059091FC05A091BF
:100EB000FD05B091FE0526B5A89B05C02F3F19F092
:100EC0000196A11DB11D3FBFBA2FA92F982F8827CA
:100ED000820F911DA11DB11DBC01CD0143E0660F24
:100EE000771F881F991F4A95D1F708952FB7F89457
:100EF0006091F7057091F8058091F9059091FA05D8
:100F00002FBF08950F931F93CF938C01C62F0E947C
:100F10007607F80122813381448155810E94251290
:100F2000F8010681178120853185061717072807E4
:100F3000390710F061E001C060E08C2FCF911F9164
:100F40000F910C94BE061F920F920FB60F921124B0
:100F50002F933F938F939F93AF93BF938091F70508
:100F60009091F805A091F905B091FA053091F60538
:100F700026E0230F2D3720F40296A11DB11D05C0D8
:100F800029E8230F0396A11DB11D2093F605809338
:100F9000F7059093F805A093F905B093FA058091B1
:100FA000FB059091FC05A091FD05B091FE05019611
:100FB000A11DB11D8093FB059093FC05A093FD0539
:100FC000B093FE05BF91AF919F918F913F912F916B
:100FD0000F900FBE0F901F9018958F929F92AF9217
:100FE000BF92CF92DF92EF92FF92CF93C82F61E032
:100FF0000E94BE060E9451074B015C0184E6C82E88
:10100000D12CE12CF12C0E945107DC01CB01881975
:101010009909AA09BB09883E9340A105B10558F07A
:1010200021E0C21AD108E108F10888EE880E83E0B9
:10103000981EA11CB11CC114D104E104F10419F7DC
:1010400060E08C2FCF91FF90EF90DF90CF90BF901A
:10105000AF909F908F900C94BE06CF93DF93CDB747
:10106000DEB7A5970FB6F894DEBF0FBECDBF78945C
:1010700084B5826084BD84B5816084BD85B582609D
:1010800085BD85B5816085BD80916E00816080934E
:101090006E001092810080918100826080938100B7
:1010A00080918100816080938100809180008160C7
:1010B000809380008091B10084608093B100809122
:1010C000B00081608093B00080917A00846080934A
:1010D0007A0080917A00826080937A0080917A0011
:1010E0008E7F80937A0080917A00806880937A0066
:1010F0001092C100E0919503F091960382E0808305
:10110000E0919103F09192031082E0919303F091AA
:10111000940387E6808310929D03E0919903F091F8
:101120009A0386E08083E0919703F0919803808191
:1011300080618083E0919703F091980380818860BB
:101140008083E0919703F091980380818068808389
:10115000E0919703F091980380818F7D808304E96B
:1011600012E057E0F52EF00E61E0D8018D918D016F
:101170000E941507F012F8CF8091E70587FD08C09F
:1011800061E00E94150760E08091E7050E94BE06BD
:1011900081E08093E20580918D028823C1F081E196
:1011A0000E94ED0780E10E94ED078FE00E94ED07AD
:1011B0008EE00E94ED0789E00E94ED0785E00E9425
:1011C000ED0783E00E94ED0710928D0281C485E84F
:1011D00093E00E94DC01892B09F4DBC085E893E0F1
:1011E0000E94BA0180938403E0918C02EE3F29F5BE
:1011F0008433E9F04CF48233B1F0BCF4813309F06C
:10120000C8C010928C02C5C0823699F02CF4813689
:1012100009F0BFC084E0BBC0833669F0833709F0B2
:10122000B8C087E0B4C081E0B2C082E0B0C083E063
:10123000AEC085E0ACC086E0AAC0E73068F586366F
:1012400009F15CF4823609F0A1C0F0E0EE0FFF1F57
:10125000EA58FC4F81ED95E01CC08E3659F083377B
:1012600009F094C0F0E0EE0FFF1FEA58FC4F87EC46
:1012700095E00FC0F0E0EE0FFF1FEA58FC4F8EED37
:1012800095E007C0F0E0EE0FFF1FEA58FC4F8BED32
:1012900095E0918380837AC0E73009F077C084338A
:1012A00009F467C0A4F4823309F44BC00CF055C0B4
:1012B000813309F06BC081E293E00E947B0220E061
:1012C00030E84BE354E464E08EE092E05DC08636A3
:1012D00001F17CF4853309F059C085E693E00E9462
:1012E0007B0220E030E84BE354E464E080E091E0EE
:1012F0004BC08E36D1F0853709F048C08FE093E0BF
:101300000E947B0220E030E0A90161E086E592E0E6
:101310003BC08AEE92E00E947B0220E030E046E98A
:1013200054E461E08AE792E02FC08DEF92E00E94E2
:101330007B0220E030E046E954E461E088E692E098
:1013400023C082E393E00E947B0220E030E84BE37D
:1013500054E462E08AEE91E017C083E493E00E94D7
:101360007B0220E030E84BE354E463E084EB91E05F
:101370000BC084E593E00E947B0220E030E84BE361
:1013800054E466E088E491E00E94F2018EEF8093DD
:101390008C0206E713E084E9E82E82E0F82EF801DB
:1013A000819191918F01009749F0DC01ED91FC91C1
:1013B0000190F081E02DD7016C910995BFEFEB1AF8
:1013C000FB0AE3E004381E0751F70E9476070091FC
:1013D000BF051091C0052091C1053091C2054B0198
:1013E0005C01801A910AA20AB30A8092BB0590920E
:1013F000BC05A092BD05B092BE054090B4055090CA
:10140000B5056090B6057090B70520E030E0A90101
:10141000C301B2010E948B1418165CF4C501B4011B
:101420000E949A13A30192010E94F2122B013C0127
:1014300006C0412C512C00E8602E0FE3702EA30152
:10144000920160E070E080E89FE30E947B126A8F67
:101450007B8F8C8F9D8F8091B8059091B905892BDA
:10146000F9F020E030E040E85FE3C301B2010E9400
:10147000E81287FF15C00E9476070091C3051091FE
:10148000C4052091C5053091C6056B017C01C01AC9
:10149000D10AE20AF30ACAA2DBA2ECA2FDA208C0AA
:1014A0001092B9051092B8051AA21BA21CA21DA287
:1014B0001F8E1E8E19A218A2212C312C1A8A198A6D
:1014C000188A1F861E861D861C861B860091BB05FA
:1014D0001091BC052091BD053091BE056091B1050C
:1014E0007091B205CE010B964C01DE011D965D0197
:1014F000FE013F966F0106967C014091B305822D57
:101500000E94970020E030E040E85FE3C301B201B1
:101510000E94E81287FFBBC01A86198618861F82B0
:101520001E821D821C821B826091B8057091B905D4
:1015300061157105A1F0DE0113964D01FE0135968E
:101540005F01CE0107966C0116967D010AA11BA1D1
:101550002CA13DA14091BA05822D0E949700698976
:101560007A89072E000C880B990B0E949C13A3010B
:1015700092010E9490144B015C0189859A85BC01FF
:10158000990F880B990B0E949C132A8D3B8D4C8DD3
:101590005D8D0E9490149B01AC01C501B4010E94B5
:1015A0007C120E9464137A8B698B6F857889072E71
:1015B000000C880B990B0E949C13A30192010E94BE
:1015C00090144B015C018F819885BC01990F880BA9
:1015D000990B0E949C132A8D3B8D4C8D5D8D0E9432
:1015E00090149B01AC01C501B4010E947C120E94C1
:1015F0006413788B6F876D857E85072E000C880BB2
:10160000990B0E949C13A30192010E9490144B011C
:101610005C018D819E81BC01990F880B990B0E9402
:101620009C132A8D3B8D4C8D5D8D0E9490149B01E7
:10163000AC01C501B4010E947C120E9464137E8734
:101640006D876B857C85072E000C880B990B0E949B
:101650009C13A30192010E9490144B015C018B81A9
:101660009C81BC01990F880B990B0E949C132A8DB9
:101670003B8D4C8D5D8D0E9490149B01AC01C5018A
:10168000B4010E947C120E9464137C876B878B8557
:101690009C8597FD08C08F3F910519F014F08FEFDE
:1016A00090E0582F01C050E08D859E8597FD07C0C2
:1016B0008F3F910529F024F08FEF90E001C080E08A
:1016C0002F85388937FD08C02F3F310519F014F0F8
:1016D0002FEF30E0422F01C040E029893A8937FDE1
:1016E00007C02F3F310529F024F02FEF30E001C073
:1016F00020E0E091AF05F091B0056281738126167C
:10170000370608F051C090E0A0E0B0E0B52B942B74
:10171000A22B8D0122273327D02E892E9A2EAB2E75
:10172000BB24E82CF82E4781442361F0049F9001EC
:101730001124D32E849E40011124E92C849F900112
:101740001124F32E5585628520853185561305C0F9
:1017500068A179A1260F371F18C06E8D7F8D260FC7
:10176000371F8B2F9927AA27BB27B901650F711D3A
:10177000442349F050E0489F8001499F100D589F35
:10178000100D1124812FDB018C938285D901A80FC4
:10179000B11DDC928385D901A80FB11DEC9284851F
:1017A000F901E80FF11DF082BFEF2B1A3B0AE8A107
:1017B000F9A13396F9A3E8A36E8D7F8D6C5F7F4FFF
:1017C0007F8F6E8F603F710509F078CE6090AF0516
:1017D0007090B005D30118968D919C911997892B23
:1017E00009F476C10E945107F30106851785208907
:1017F0003189DC01CB01801B910BA20BB30BC2978B
:10180000A105B10578F3F894848195819A83898341
:10181000A085B1858D010F5F1F4F8C91898F8081CD
:10182000A289B389882309F419C11B8AAB32B10597
:1018300009F058C09BB18489982B988F9BB18095F3
:1018400089238F8B8F898C8B898D87FF02C0888D30
:101850008C8B588D6F89498D3C892B8989819A8120
:10186000D8015BB9262F3BB900C046FD252F6BB9C7
:1018700000C05BB9362F2BB900C045FD352F6BB9C1
:1018800000C05BB9262F3BB900C044FD252F6BB9C2
:1018900000C05BB9362F2BB900C043FD352F6BB9A3
:1018A00000C05BB9262F3BB900C042FD252F6BB9A4
:1018B00000C05BB9362F2BB900C041FD352F6BB985
:1018C00000C05BB9262F3BB900C040FD252F6BB986
:1018D00001975BB9362F2BB94D9147FD352F6BB969
:1018E00001F6B8C0A532B10509F059C095B1F301B0
:1018F0008489982B988F95B1809589238F8B8F89B8
:101900008C8B898D87FF02C0888D8C8B588D6F8959
:10191000498D3C892B8989819A81D80155B9262F17
:1019200035B900C046FD252F65B900C055B9362F21
:1019300025B900C045FD352F65B900C055B9262F22
:1019400035B900C044FD252F65B900C055B9362F03
:1019500025B900C043FD352F65B900C055B9262F04
:1019600035B900C042FD252F65B900C055B9362FE5
:1019700025B900C041FD352F65B900C055B9262FE6
:1019800035B900C040FD252F65B9019755B9362FEF
:1019900025B94D9147FD352F65B901F65BC0989784
:1019A00009F08CC098B1F3018489982B988F98B175
:1019B000809589238F8B8F898C8B898D87FF02C0BF
:1019C000888D8C8B588D6F89498D3C892B898981B5
:1019D0009A81D80158B9262F38B900C046FD252F65
:1019E00068B900C058B9362F28B900C045FD352F59
:1019F00068B900C058B9262F38B900C044FD252F5A
:101A000068B900C058B9362F28B900C043FD352F3A
:101A100068B900C058B9262F38B900C042FD252F3B
:101A200068B900C058B9362F28B900C041FD352F1C
:101A300068B900C058B9262F38B900C040FD252F1D
:101A400068B9019758B9362F28B94D9147FD352F00
:101A500068B901F6498F3C8B2B8B2EC09C91F3010A
:101A60008489982B988F9C91809589238F8B8F895F
:101A70008E8B88E08D8B588D6F89498D3D892E899D
:101A800089819A81F8015C9347FD252F2C93262F9D
:101A90003A9531F0441F6C9300C000C000C0F3CFF2
:101AA0006C93000038E04191019769F7F301B38B23
:101AB000A28B498F3D8B2E8B9A83898378940E94C9
:101AC0005107D3011E966D937D938D939C935197EF
:101AD0000E94600360CB4F925F926F927F928F92D1
:101AE0009F92AF92BF92CF92DF92EF92FF920F93AD
:101AF0001F93CF93DF93109288031092870388EE91
:101B000093E0A0E0B0E08093890390938A03A093D0
:101B10008B03B0938C038FE992E0909386038093BC
:101B2000850385EC90E0909392038093910384EC7D
:101B300090E0909394038093930380EC90E09093D3
:101B400096038093950381EC90E0909398038093A3
:101B5000970382EC90E090939A038093990386EC2C
:101B600090E090939C0380939B0310929E031092AD
:101B70009F031092A0031092A1031092E20510920D
:101B8000E8051092EF051092F0051092F105109201
:101B9000F20583E08093EE051092EB0581E08093DF
:101BA000EC0592E09093ED058093E10580EF90E0E5
:101BB0009093E6058093E5050E944E159093EA0503
:101BC0008093E905009761F020EFFC0111922A95BE
:101BD000E9F78CE390E09093E4058093E30508C077
:101BE0001092E6051092E5051092E4051092E305C7
:101BF00086E08093E7058091E205882341F061E06B
:101C000086E00E94150760E086E00E94BE06EAEAD0
:101C1000F0E0E491F0E0EE0FFF1FE656FF4F8591F4
:101C200094919093F4058093F305ECE8F0E0E4914F
:101C3000E093F50525EE32E03093DF052093DE05D5
:101C400081E08093E0053093DC052093DB05109262
:101C5000DD052FED32E03093D2052093D10544EF1E
:101C600051E060E070E04093D3055093D405609359
:101C7000D5057093D6054AEFC42ED12CE12CF12C5A
:101C8000C092D705D092D805E092D905F092DA0536
:101C90003093C8052093C70548EC50E060E070E041
:101CA0004093C9055093CA056093CB057093CC054A
:101CB00044E650E060E070E04093CD055093CE05DF
:101CC0006093CF057093D00521EE35E03093B005D9
:101CD0002093AF0529ED32E03093AE052093AD059A
:101CE00043ED52E05093A2054093A1051092A80540
:101CF0001092A7052FEF30E03093AA052093A90595
:101D00001092A3051092A4051092A5051092A605A5
:101D10001092AB05509396054093950510929C0543
:101D200010929B0510929E0510929D0510929705AA
:101D3000109298051092990510929A0510929F059D
:101D400010928005E5E0E09381051092820599E00C
:101D5000909383056BEC72E070937F0560937E0532
:101D60006CE3862E912CA12CB12C8092860590924A
:101D70008705A0928805B092890563E060938A0583
:101D800076E070938B0510928C0578E6872E992467
:101D90009394A12CB12C80928D0590928E05A092E7
:101DA0008F05B0929005FAE58F2E912CA12CB12CC5
:101DB0008092910590929205A0929305B09294051D
:101DC000509373054093720510927905109278052F
:101DD0004AE050E050937B0540937A0510927405D9
:101DE00010927505109276051092770510927C0579
:101DF00010926C0510926B0530936E0520936D0563
:101E0000C0926705D0926805E0926905F0926A0574
:101E100080936F05A5ECB2E0B0936605A0936505CD
:101E2000609371051092600510925F053093620512
:101E30002093610548EE53E060E070E040935B055D
:101E400050935C0560935D0570935E051092630589
:101E5000CFEBD2E0D0935A05C093590510925405A8
:101E60001092530508E710E01093560500935505AE
:101E700040934F0550935005609351057093520560
:101E800010925705D0934E05C0934D0510923D0515
:101E9000E0933E0510923F0590934005C7EBD2E0DA
:101EA000D0933C05C0933B05109243051092490521
:101EB00010924A0510924B0510924C0580934405F0
:101EC00010EDC12E17E0D12EE12CF12CC09245056A
:101ED000D0924605E0924705F092480510922B05F6
:101EE000E0932C0510922D0590932E05D0932A0592
:101EF000C0932905809331054093370550933805E9
:101F00006093390570933A0580933205C09233058A
:101F1000D0923405E0923505F092360510922305F3
:101F20001092220530932505209324054EEE52E0B1
:101F300060E070E040931E0550931F0560932005FC
:101F40007093210510922605B0931D05A0931C05E2
:101F500090912705911182E0809328051092160533
:101F60001092150588E790E0909318058093170567
:101F70008EEE92E0A0E0B0E0809311059093120500
:101F8000A0931305B09314051092190585EC92E007
:101F90009093100580930F0580911A05882311F006
:101FA00082E001C081E080931B0510920905109228
:101FB000080510920B0510920A058EEE92E0A0E043
:101FC000B0E08093040590930505A0930605B093B7
:101FD000070510920C0585EC92E090930305809321
:101FE000020580910D05882311F082E001C081E097
:101FF00080930E051092FC041092FB0482E390E0A3
:102000009093FE048093FD048EEE92E0A0E0B0E099
:102010008093F7049093F804A093F904B093FA0422
:102020001092FF0485EC92E09093F6048093F504FF
:1020300080910005882311F082E001C081E0809347
:1020400001051092E50495E09093E60424E02093C6
:10205000E7042093E804A7EBB2E0B093E404A09374
:10206000E3041092EB041092F1041092F204109227
:10207000F3041092F40481E08093EC0440ED57E007
:1020800060E070E04093ED045093EE046093EF0441
:102090007093F0041092D3049093D4041092D5045A
:1020A0002093D6041092D9041092DF041092E00419
:1020B0001092E1041092E2041092DA044093DB04DF
:1020C0005093DC046093DD047093DE04EFEAF2E0E9
:1020D000F093D204E093D1041092C1049093C2040F
:1020E0002093C304C9E0C093C4041092C7041092A3
:1020F000CD041092CE041092CF041092D00480939D
:10210000C8044093C9045093CA046093CB047093ED
:10211000CC04F093C004E093BF041092BA04109270
:10212000B90448EC50E05093BC044093BB0430EA3F
:10213000832E3FE0932EA12CB12C8092B504909277
:10214000B604A092B704B092B8041092BD044FEB4D
:1021500052E05093B4044093B3041092AE04109232
:10216000AD046AE070E07093B0046093AF048092B5
:10217000A9049092AA04A092AB04B092AC0410926D
:10218000B1045093A8044093A70410929204909332
:1021900093049093940490939504EBECF2E0F09305
:1021A0009104E093900444E6C42ED12CE12CF12C50
:1021B000C0929804D0929904E0929A04F0929B0401
:1021C00080939C0437E030939D0480939E044CEBF5
:1021D00052E060E070E040939F045093A00460934D
:1021E000A1047093A20442E350E060E070E04093E9
:1021F000A3045093A4046093A5047093A6041092C2
:102200007B0490937C04D3E0D0937D04D0937E0430
:10221000F0937A04E0937904C0928104D09282040E
:10222000E0928304F092840480938504DDE0D093EF
:10223000860480938704D4E14D2ED5E05D2E612C79
:10224000712C409288045092890460928A047092A2
:102250008B0440938C0450938D0460938E04709390
:102260008F04109264049093650420936604209375
:102270006704F0936304E0936204C0926A04D0920E
:102280006B04E0926C04F0926D0480936E0423E181
:1022900020936F04809370041CE6412E17E0512EAA
:1022A000612C712C409271045092720460927304FC
:1022B000709274044093750450937604609377048D
:1022C0007093780410924D0490934E0480934F04C1
:1022D00080935004F0934C04E0934B04C092530459
:1022E000D0925404E0925504F0925604809357041F
:1022F0002BE020935804809359040CE4402E04E012
:10230000502E612C712C40925A0450925B046092C2
:102310005C0470925D0440935E0450935F0460938C
:1023200060047093610410923604909337043093E4
:10233000380430933904F0933504E0933404C092A8
:102340003C04D0923D04E0923E04F0923F0480931E
:10235000400421E1209341048093420424EAC22EE8
:1023600026E0D22EE12CF12CC0924304D0924404FA
:10237000E0924504F0924604409347045093480489
:102380006093490470934A041092240490932504A6
:1023900010922604C0932704B0932304A093220430
:1023A00010922A04109230041092310410923204D8
:1023B0001092330480932B0480922C0490922D046D
:1023C000A0922E04B0922F04DF91CF911F910F9114
:1023D000FF90EF90DF90CF90BF90AF909F908F9045
:1023E0007F906F905F904F9008958091E905909154
:1023F000EA05009711F00E94E3158091E70587FD3B
:1024000003C060E00C9415070895991B79E004C09F
:10241000991F961708F0961B881F7A95C9F7809523
:10242000089597FB072E16F4009407D077FD09D086
:102430000E94521207FC05D03EF4909581959F4F63
:102440000895709561957F4F0895A1E21A2EAA1BF9
:10245000BB1BFD010DC0AA1FBB1FEE1FFF1FA21754
:10246000B307E407F50720F0A21BB30BE40BF50B51
:10247000661F771F881F991F1A9469F760957095DA
:10248000809590959B01AC01BD01CF0108950E94FC
:102490006C12A59F900DB49F900DA49F800D911D6F
:1024A00011240895AA1BBB1B51E107C0AA1FBB1F23
:1024B000A617B70710F0A61BB70B881F991F5A95D0
:1024C000A9F780959095BC01CD010895EE0FFF1FEF
:1024D0000590F491E02D0994A29FB001B39FC00133
:1024E000A39F700D811D1124911DB29F700D811D40
:1024F0001124911D08955058BB27AA270E949312BA
:102500000C943D140E94041438F00E940B1420F027
:1025100039F49F3F19F426F40C9401140EF4E0955D
:10252000E7FB0C94FB13E92F0E94621458F3BA17CF
:10253000620773078407950720F079F4A6F50C94D9
:1025400084140EF4E0950B2EBA2FA02D0B01B901C7
:1025500090010C01CA01A0011124FF27591B99F019
:10256000593F50F4503E68F11A16F040A22F232F25
:10257000342F4427585FF3CF469537952795A79575
:10258000F0405395C9F77EF41F16BA0B620B730B1C
:10259000840BBAF09150A1F0FF0FBB1F661F771F8D
:1025A000881FC2F70EC0BA0F621F731F841F48F442
:1025B000879577956795B795F7959E3F08F0B0CFCB
:1025C0009395880F08F09927EE0F979587950895B2
:1025D0000E94D71308F481E008950E941414E39533
:1025E0000C944E140E9406130C943D140E940B147C
:1025F00058F00E94041440F029F45F3F29F00C9435
:10260000FB1351110C9485140C9401140E94621454
:1026100068F39923B1F3552391F3951B550BBB2711
:10262000AA2762177307840738F09F5F5F4F220F56
:10263000331F441FAA1FA9F335D00E2E3AF0E0E84D
:1026400032D091505040E695001CCAF72BD0FE2F97
:1026500029D0660F771F881FBB1F2617370748072B
:10266000AB07B0E809F0BB0B802DBF01FF279358E3
:102670005F4F3AF09E3F510578F00C94FB130C9499
:1026800085145F3FE4F3983ED4F38695779567957C
:10269000B795F7959F5FC9F7880F911D9695879518
:1026A00097F90895E1E0660F771F881FBB1F621737
:1026B00073078407BA0720F0621B730B840BBA0BF5
:1026C000EE1F88F7E09508950E946B136894B1118E
:1026D0000C94851408950E946A1488F09F5798F00E
:1026E000B92F9927B751B0F0E1F0660F771F881F17
:1026F000991F1AF0BA95C9F714C0B13091F00E9431
:102700008414B1E008950C948414672F782F8827DF
:10271000B85F39F0B93FCCF3869577956795B39557
:10272000D9F73EF490958095709561957F4F8F4FC6
:102730009F4F0895E89409C097FB3EF490958095CB
:10274000709561957F4F8F4F9F4F9923A9F0F92F77
:1027500096E9BB279395F695879577956795B795F5
:10276000F111F8CFFAF4BB0F11F460FF1BC06F5FDB
:102770007F4F8F4F9F4F16C0882311F096E911C0ED
:10278000772321F09EE8872F762F05C0662371F00E
:1027900096E8862F70E060E02AF09A95660F771F22
:1027A000881FDAF7880F9695879597F90895990FFE
:1027B0000008550FAA0BE0E8FEEF16161706E8070B
:1027C000F907C0F012161306E407F50798F0621B2C
:1027D000730B840B950B39F40A2661F0232B242B01
:1027E000252B21F408950A2609F4A140A6958FEF20
:1027F000811D811D089597F99F6780E870E060E072
:1028000008959FEF80EC089500240A941616170689
:1028100018060906089500240A94121613061406D1
:10282000050608950C9401140E946A14D8F3E894E4
:10283000E0E0BB279F57F0F02AED3FE049EC06C0EF
:10284000EE0FBB0F661F771F881F28F0B23A620792
:102850007307840728F0B25A620B730B840BE3955D
:102860009A9572F7803830F49A95BB0F661F771FE0
:10287000881FD2F790480C940715092E0394000C7A
:1028800011F4882352F0BB0F40F4BF2B11F460FF0A
:1028900004C06F5F7F4F8F4F9F4F0895EF93E0FF0E
:1028A00007C0A2EA2AED3FE049EC5FEB0E949312D9
:1028B0000E943D140F90039401FC9058E8E6F0E06C
:1028C0000C94131557FD9058440F551F59F05F3F56
:1028D00071F04795880F97FB991F61F09F3F79F042
:1028E00087950895121613061406551FF2CF4695C4
:1028F000F1DF08C0161617061806991FF1CF869546
:102900007105610508940895E894BB276627772729
:10291000CB0197F908950E94D71308F48FEF08951B
:102920000E94A3140C943D140E94041438F00E94D9
:102930000B1420F0952311F00C94FB130C9401144C
:1029400011240C9485140E94621470F3959FC1F3B6
:10295000950F50E0551F629FF001729FBB27F00D4D
:10296000B11D639FAA27F00DB11DAA1F649F6627A2
:10297000B00DA11D661F829F2227B00DA11D621FF1
:10298000739FB00DA11D621F839FA00D611D221FAB
:10299000749F3327A00D611D231F849F600D211D8F
:1029A000822F762F6A2F11249F5750409AF0F1F012
:1029B00088234AF0EE0FFF1FBB1F661F771F881F7B
:1029C00091505040A9F79E3F510580F00C94FB13A5
:1029D0000C9485145F3FE4F3983ED4F38695779585
:1029E0006795B795F795E7959F5FC1F7FE2B880F21
:1029F000911D9695879597F908959F930E941414B9
:102A00000F9007FCEE5F0C944E149F3F31F09150F5
:102A100020F4879577956795B795880F911D9695C2
:102A2000879597F908959F938F937F936F93FF9363
:102A3000EF939B01AC010E949014EF91FF910E94D3
:102A400027152F913F914F915F910C949014DF9334
:102A5000CF931F930F93FF92EF92DF927B018C0134
:102A6000689406C0DA2EEF010E94A314FE01E894D8
:102A7000A5912591359145915591A6F3EF010E94BD
:102A80009312FE019701A801DA9469F7DF90EF90A5
:102A9000FF900F911F91CF91DF910895CF93DF9316
:102AA0008230910510F482E090E0E0910106F0910F
:102AB000020620E030E0C0E0D0E0309711F1408124
:102AC000518148175907C0F04817590761F48281AE
:102AD0009381209719F09B838A832BC090930206E1
:102AE0008093010626C02115310519F042175307BE
:102AF00018F49A01BE01DF01EF010280F381E02D9D
:102B0000DCCF2115310509F1281B390B24303105A3
:102B100090F412968D919C9113976115710521F097
:102B2000FB019383828304C0909302068093010685
:102B3000FD01329644C0FD01E20FF31F8193919392
:102B4000225031092D933C933AC02091FF053091DA
:102B50000006232B41F42091900230919102309392
:102B600000062093FF0520918E0230918F022115DF
:102B7000310541F42DB73EB7409192025091930236
:102B8000241B350BE091FF05F0910006E217F307D7
:102B9000A0F42E1B3F0B2817390778F0AC014E5FCD
:102BA0005F4F2417350748F04E0F5F1F5093000604
:102BB0004093FF058193919302C0E0E0F0E0CF01E4
:102BC000DF91CF9108950F931F93CF93DF930097D9
:102BD00009F48CC0FC013297138212820091010625
:102BE000109102060115110581F420813181820FB7
:102BF000931F2091FF05309100062817390779F5BA
:102C0000F0930006E093FF0571C0D80140E050E06A
:102C1000AE17BF0750F412962D913C911397AD015A
:102C20002115310509F1D901F3CF9D01DA01338373
:102C3000228360817181860F971F8217930769F441
:102C4000EC0128813981260F371F2E5F3F4F3183DA
:102C500020838A819B8193838283452B29F4F0937F
:102C60000206E093010642C01396FC93EE9312977E
:102C7000ED01499159919E01240F351FE217F30789
:102C800071F480819181840F951F029611969C9317
:102C90008E938281938113969C938E931297E0E09A
:102CA000F0E0D80112968D919C911397009719F03E
:102CB000F8018C01F6CF8D919C9198012E5F3F4FCA
:102CC000820F931F2091FF053091000628173907C6
:102CD00069F4309729F4109202061092010602C09E
:102CE00013821282109300060093FF05DF91CF91AB
:102CF0001F910F91089581E090E0F8940C94801654
:102D000010E0CCE6D0E004C0FE010E9466122196DD
:0A2D1000CD36D107C9F7F894FFCFC4
:102D1A0000000000881300003B0500000000590570
:102D2A000000E8030000B80B00003B054D05000059
:102D3A0000000000A00F0000B80B000029054D0597
:102D4A0000000000000088130000B80B00002905ED
:102D5A000000000059050000000000008813000070
:102D6A0090040000A1050000000000000000881384
:102D7A00000079040000A105000000000000000026
:102D8A008813000062040000A10500000000000092
:102D9A000000881300004B040000A1050000000099
:102DAA00000000008813000034040000A1050000A0
:102DBA000000E8030000FFFFFFFF22040000B30445
:102DCA000000A70400000000FFFFFFFFE3040F0557
:102DDA000205F5040000D0070000FFFFFFFFD10441
:102DEA001C05000000000000D0070000FFFFFFFFE5
:102DFA00BF041C0500000000000000000000B80B22
:102E0A0000003B054D05000059050000B80B000005
:102E1A007017000029054D05000059050000000043
:102E2A000000FFFFFFFFAD050000000072057205FC
:102E3A00F4010000E8030000AD050000000065058C
:102E4A000000CA080000E8030000AD050000000009
:102E5A0065050000A00F0000E8030000AD050000B2
:102E6A0000006505000000000000FFFFFFFF7E056F
:102E7A00000000000000A10500000000FFFFFFFFA6
:102E8A00AD05000000000000A10500000000FFFFE2
:102E9A00FFFFAD050000000000009505FE010000DF
:102EAA000306800011100F0E090503000000009FA1
:102EBA00028F01DC01BA01CE01E60200000000EB3C
:102ECA0004720400000000EB046D0300000000100F
:102EDA000400000000CA05000000003405BD03001C
:102EEA000000006E04000000006A03000000008277
:102EFA0007000000000A070D0A00456E7465726932
:102F0A006E67204F666620537461746500456E745F
:102F1A006572696E67204F6E20537461746500454F
:102F2A006E746572696E672055702053746174659A
:102F3A0000456E746572696E67203120537461743E
:102F4A006500456E746572696E672032205374613C
:102F5A00746500456E746572696E67203320537418
:102F6A0061746500456E746572696E67203420531A
:102F7A007461746500456E746572696E67203520E8
:062F8A0053746174650040
:107800000C94343C0C94513C0C94513C0C94513CE1
:107810000C94513C0C94513C0C94513C0C94513CB4
:107820000C94513C0C94513C0C94513C0C94513CA4
:107830000C94513C0C94513C0C94513C0C94513C94
:107840000C94513C0C94513C0C94513C0C94513C84
:107850000C94513C0C94513C0C94513C0C94513C74
:107860000C94513C0C94513C11241FBECFEFD8E036
:10787000DEBFCDBF11E0A0E0B1E0EAE8FFE702C063
:1078800005900D92A230B107D9F712E0A2E0B1E065
:1078900001C01D92AD30B107E1F70E942D3D0C945F
:1078A000C33F0C94003C982F95959595959595958B
:1078B000905D8F708A307CF0282F295A8091C0000B
:1078C00085FFFCCF9093C6008091C00085FFFCCF60
:1078D0002093C6000895282F205DF0CF982F809127
:1078E000C00085FFFCCF9093C6000895EF92FF92F1
:1078F0000F931F93EE24FF2487018091C00087FD22
:1079000017C00894E11CF11C011D111D81E2E8164D
:1079100081EAF80687E0080780E0180770F3E09135
:107920000401F091050109958091C00087FFE9CF1E
:107930008091C6001F910F91FF90EF9008950E94D3
:10794000763C982F8091C00085FFFCCF9093C600B5
:1079500091362CF490330CF09053892F089597555D
:10796000892F08951F930E949F3C182F0E949F3CCF
:107970001295107F810F1F9108951F93182F882350
:1079800021F00E94763C1150E1F71F9108951F935A
:10799000182F0E94763C803249F0809103018F5F5E
:1079A000809303018530C1F01F9108958091C0003C
:1079B00085FFFCCF84E18093C6008091C00085FFE5
:1079C000FCCF1093C6008091C00085FFFCCF80E102
:1079D0008093C6001F910895E0910401F091050184
:1079E00009951F9108950E94763C803241F0809164
:1079F00003018F5F80930301853081F008958091AA
:107A0000C00085FFFCCF84E18093C6008091C00058
:107A100085FFFCCF80E18093C6000895E0910401CA
:107A2000F09105010995089548EC50E08823A1F0F4
:107A30002D9A28EE33E0FA013197F1F721503040CA
:107A4000D1F72D9828EE33E0FA013197F1F7215064
:107A50003040D1F7815061F708953F924F925F9285
:107A60006F927F928F929F92AF92BF92CF92DF924E
:107A7000EF92FF920F931F93CF93DF93000082E06A
:107A80008093C00080E18093C4001092C50088E11B
:107A90008093C10086E08093C2005098589A259A3E
:107AA00081E00E94143D24E1F22E9EE1E92E85E959
:107AB000D82E0FE0C02E10E1B12EAA24A394B1E479
:107AC0009B2EA6E58A2EF2E57F2EE0E26E2E79E46B
:107AD000572E63E5462E50E5352E0E94763C8033C6
:107AE000B1F18133B9F1803409F46FC0813409F404
:107AF00076C0823409F485C0853409F488C08035A5
:107B000031F1823521F1813511F1853509F485C0D6
:107B1000863509F48DC0843609F496C0843709F49B
:107B200003C1853709F472C1863709F466C08091B4
:107B300003018F5F80930301853079F6E0910401A2
:107B4000F091050109950E94763C803351F60E9420
:107B5000F33CC3CF0E94763C803249F78091C0004D
:107B600085FFFCCFF092C6008091C00085FFFCCF5E
:107B70009092C6008091C00085FFFCCF8092C60025
:107B80008091C00085FFFCCF7092C6008091C0003C
:107B900085FFFCCF6092C6008091C00085FFFCCFBE
:107BA0005092C6008091C00085FFFCCF4092C60075
:107BB0008091C00085FFFCCF3092C6008091C0004C
:107BC00085FFFCCFB092C60088CF0E94763C8638F5
:107BD00008F4BDCF0E94763C0E94F33C7ECF0E9409
:107BE000763C803809F49CC0813809F40BC1823896
:107BF00009F430C1883909F48FC080E00E94C73C85
:107C00006CCF84E10E94BD3C0E94F33C66CF85E0CE
:107C10000E94BD3C0E94F33C60CF0E94763C809362
:107C200006010E94763C809307010E94F33C55CFE9
:107C30000E94763C803309F411C183E00E94BD3C70
:107C400080E00E94C73C49CF0E94763C80930902A5
:107C50000E94763C8093080280910C028E7F809374
:107C60000C020E94763C853409F409C18091080217
:107C700090910902892B89F000E010E00E94763C87
:107C8000F801E85FFE4F80830F5F1F4F809108026D
:107C9000909109020817190788F30E94763C8032F8
:107CA00009F045CF80910C0280FFF5C0609106017C
:107CB00070910701660F771F7093070160930601AB
:107CC000A0910802B09109021097C9F0E8E0F1E034
:107CD0009B01AD014E0F5F1FF999FECF32BD21BD53
:107CE000819180BDFA9AF99A2F5F3F4FE417F5070B
:107CF00099F76A0F7B1F70930701609306018091CB
:107D0000C00085FFFCCFF092C6008091C00085FFC7
:107D1000FCCFB092C600E1CE83E00E94C73CDDCE2E
:107D200082E00E94C73CD9CE0E94763C8093090233
:107D30000E94763C80930802809106019091070191
:107D4000880F991F90930701809306010E94763C4B
:107D5000853409F49AC080910C028E7F80930C02C6
:107D60000E94763C803209F0B8CE8091C00085FF39
:107D7000FCCFF092C600A0910802B09109021097C2
:107D8000C1F180910C02082F0170182F1695117007
:107D9000E0910601F0910701AF014F5F5F4FBA011B
:107DA00020E030E00023B1F4112339F49491809164
:107DB000C00085FFFCCF9093C6002F5F3F4FCB01E3
:107DC0000196FA012A173B0780F4BC014F5F5F4F11
:107DD000002351F3F999FECFF2BDE1BDF89A90B5B9
:107DE0008091C00085FFFCCFE6CF709307016093C0
:107DF00006018091C00085FDE5CE8091C00085FF21
:107E0000F8CFE0CE81E00E94C73C67CE0E94763C6E
:107E1000803209F08CCE8091C00085FFFCCFF092BB
:107E2000C6008091C00085FFFCCFE092C600809123
:107E3000C00085FFFCCFD092C6008091C00085FFB6
:107E4000FCCFC092C6008091C00085FFFCCFB092ED
:107E5000C60043CE80E10E94C73C3FCE0E94763CE4
:107E60000E94763C182F0E94763C112309F483C0AF
:107E7000113009F484C08FE00E94C73C2ECE80915F
:107E80000C02816080930C02F1CE80910C02816023
:107E900080930C0265CF809107018823880F880B9F
:107EA0008A2180930B028091060190910701880F2F
:107EB000991F90930701809306018091080280FF2B
:107EC00009C08091080290910902019690930902DD
:107ED00080930802F894F999FECF1127E0910601EA
:107EE000F0910701C8E0D1E0809108029091090269
:107EF000103091F40091570001700130D9F303E084
:107F000000935700E8950091570001700130D9F3B4
:107F100001E100935700E8950990199000915700EE
:107F200001700130D9F301E000935700E8951395F3
:107F3000103498F011270091570001700130D9F3E7
:107F400005E000935700E89500915700017001305B
:107F5000D9F301E100935700E8953296029709F0B2
:107F6000C7CF103011F00296E5CF11248091C000E8
:107F700085FFC5CEC8CE8EE10E94C73CAECD85E957
:0A7F80000E94C73CAACDF894FFCF81
:027F8A00800075
:040000030000780081
:00000001FF