:100000000C9425040C944D040C944D040C944D0454
:100010000C944D040C944D040C944D040C944D041C
:100020000C944D040C944D040C944D040C944D040C
:100030000C944D040C944D040C944D040C944D04FC
:100040000C94C00B0C944D040C94ED060C94C70654
:100050000C944D040C944D040C944D040C944D04DC
:100060000C944D040C944D04680C200C280C300C9E
:10007000380C400C480C500C580C600C05A84CCDAA
:10008000B2D44EB93836A9020C50B9918688083CD2
:10009000A6AAAA2ABE000000803F01020408102080
:1000A0004080010204081020010204081020000012
:1000B0000000250028002B000404040404040404A8
:1000C000020202020202030303030303476F7420C8
:1000D00069646C652076616C2066726F6D20656561
:1000E00070726F6D200000000000240027002A00BD
:1000F00000000008000201000003040700000000E7
:100100000000000000000000FFFFFFFF5102F004AC
:100110000000000000009A020000FFFFFFFF5102F4
:100120000000F0040000000035050000FFFFFFFFA5
:10013000510200000000F0040000456E7465726911
:100140006E6720652053746174650000000000FF35
:10015000FFFFFF67040000F505000000000000003D
:1001600000FFFFFFFF50040000F505000000000045
:10017000000000FFFFFFFF39040000F5050000004C
:100180000000000000FFFFFFFF22040000F5050053
:1001900000000000000000FFFFFFFF0B040000F55F
:1001A0000500000000D0070000FFFFFFFF00064C25
:1001B00005570541050000B80B0000FFFFFFFF5E7B
:1001C000028305000078050000456E746572696E53
:1001D0006720642053746174650000000000FFFF15
:1001E000FFFFAC02F004000000000000EE0200007F
:1001F000FFFFFFFF9F0200000000F0040000DC058D
:100200000000FFFFFFFF92020000F004000000006A
:10021000456E746572696E672063205374617465FE
:100220000000000000FFFFFFFFE7020000FB0400EA
:1002300000000000000000FFFFFFFFD002000000F0
:1002400000BE05000000000000FFFFFFFFB902BE76
:10025000050000B3050000456E746572696E672085
:10026000622053746174650000000000FFFFFFFF0F
:10027000FC0200000000E504000000000000FFFF99
:10028000FFFFEF02E504000000000000456E74650A
:1002900072696E672061205374617465000000000C
:1002A00000FFFFFFFF67040000F5050000000000ED
:1002B000000000FFFFFFFF50040000F505000000F4
:1002C0000000000000FFFFFFFF39040000F50500FB
:1002D00000000000000000FFFFFFFF22040000F507
:1002E000050000000000000000FFFFFFFF0B0400FE
:1002F00000F50500000000E8030000FFFFFFFF9885
:10030000048305000000000000B80B0000FFFFFFA1
:10031000FF09038305000000000000456E7465724C
:10032000696E672039205374617465000000000015
:10033000FA0000000006EA050000F5050000FA00DA
:100340000000FFFFFFFF00060000F50500000000B1
:10035000FA000000FFFFFFFFA5046D0578056205A8
:100360000000BE0A0000FFFFFFFF4E036D05D4052D
:1003700062051305540B0000FFFFFFFF46036D05E8
:10038000D40562051305EA0B0000FFFFFFFF3E03E3
:100390006D05D40562051305800C0000FFFFFFFF0B
:1003A00036036D05D40562051305160D0000FFFF29
:1003B000FFFF2E036D05D40562051305AC0D00008B
:1003C000FFFFFFFF26036D05D40562051305420EEE
:1003D0000000FFFFFFFF1E036D05D4056205130536
:1003E000D80E0000FFFFFFFF16036D05D405620560
:1003F0001305456E746572696E6720392053746108
:1004000074650000000000FFFFFFFF0006EA050022
:1004100000F505000000000000FFFFFFFF840362FD
:100420000500007805000090010000FFFFFFFF6D50
:1004300003620500007805000020030000FFFFFFB5
:10044000FF56036205000078050000456E74657272
:10045000696E6720382053746174650000000000E5
:10046000FFFFFFFFC2030000830500000000000043
:100470000000FFFFFFFFB503000000008305000040
:10048000D0070000FFFFFFFFA80300008305000066
:100490000000D0070000FFFFFFFF9B0300000000EB
:1004A00083050000456E746572696E6720372053BE
:1004B000746174650000000000FFFFFFFFF103831B
:1004C00005000000000000F4010000FFFFFFFFE452
:1004D000038305000000000000E8030000FFFFFFA9
:1004E000FFD7038305000000000000CA080000E8F1
:1004F000030000CF031F05000007050000A00F0048
:1005000000E8030000CF031F0500000705000045B9
:100510006E746572696E672036205374617465006D
:100520000000000088130000B6040000000062050F
:100530000000E8030000B80B0000B6046D050000E1
:1005400000000000A00F0000B80B0000A5046D051E
:1005500000000000000088130000B80B0000A50494
:100560000000000062050000456E746572696E67E8
:10057000203520537461746500000000008813006A
:100580000067040000F5050000000000000000887E
:1005900013000050040000F50500000000000000FA
:1005A000008813000039040000F505000000000079
:1005B0000000008813000022040000F50500000080
:1005C0000000000000881300000B040000F5050087
:1005D000000000E8030000FFFFFFFFFE0300002B08
:1005E0000500003605456E746572696E672034201B
:1005F00053746174650000000000FFFFFFFF980462
:100600008F05A7059B050000D0070000FFFFFFFF37
:100610008B048305000000000000D0070000FFFFEE
:10062000FFFF7E048305000000000000456E746536
:1006300072696E6720332053746174650000000096
:1006400000B80B0000B6046D05000062050000B89C
:100650000B000070170000A5046D05000062050086
:1006600000456E746572696E672032205374617440
:10067000650000000000FFFFFFFF00060000000013
:10068000C905C905F4010000E803000000060000E8
:10069000000007050000CA080000E803000000068B
:1006A0000000000007050000A00F0000E8030000A4
:1006B00000060000000007050000456E74657269C1
:1006C0006E6720312053746174650000000000FFE4
:1006D000FFFFFFC304000000000000F505456E7435
:1006E0006572696E672055702053746174650000EF
:1006F000000000FFFFFFFF0006000000000000DF19
:1007000005456E746572696E67204F666620537486
:100710006174650053657474696E672049646C6523
:1007200020746F200000000000FFFFFFFF000600A4
:100730000000000000C90500000000FFFFFFFF00EF
:10074000060000EA05EA05C90500000000FFFFFFFA
:10075000FF0006EA05EA050000C90500000000FFE9
:10076000FFFFFF0006EA050000EA05C905000000DA
:1007700000FFFFFFFF000600000000EA05C90500BA
:10078000000000FFFFFFFF00060000EA050000C9AF
:100790000500000000FFFFFFFF0006EA0500000063
:1007A00000C90500000000FFFFFFFF000600000079
:1007B000000000C90500000000FFFFFFFF3A0262D1
:1007C00005000000000000EE020000FFFFFFFF2315
:1007D00002000062050000000000000000FFFFFFB3
:1007E000FF000600000000DA04000000000000FF27
:1007F000FFFFFF0006000000000000C90500000028
:1008000000FFFFFFFF0006DA04000000000000D533
:10081000140000FFFFFFFF00060000DA04000000E4
:1008200000AA290000FFFFFFFF000600000000DA19
:1008300004000000000000FFFFFFFF0006000000B2
:10084000000000F50500450ED51711241FBECFEF9F
:10085000D8E0DEBFCDBF11E0A0E0B1E0E2E7F2E416
:1008600002C005900D92A638B107D9F726E0A6E898
:10087000B1E001C01D92AB37B207E1F714E0C4E26A
:10088000D4E004C02197FE010E94D41CC332D107DA
:10089000C9F70E94E5170C942C210C940000CF920C
:1008A000DF92EF92FF920F931F93CF93DF936C0130
:1008B0007A018B01C0E0D0E0CE15DF0589F0D801C8
:1008C0006D918D01D601ED91FC910190F081E02DAB
:1008D000C6010995892B11F47E0102C02196ECCF47
:1008E000C701DF91CF911F910F91FF90EF90DF90A3
:1008F000CF900895FC01918D828D981761F0828DC3
:10090000DF01A80FB11D5D968C91928D9F5F9F7343
:10091000928F90E008958FEF9FEF0895FC01918DE5
:10092000828D981731F0828DE80FF11D858D90E052
:1009300008958FEF9FEF0895FC01918D228D892FEF
:1009400090E0805C9F4F821B91098F7399270895D7
:1009500086E891E00E949C0421E0892B09F420E0C4
:10096000822F08952F923F924F925F926F927F92C3
:100970008F929F92AF92BF92CF92DF92EF92FF92AF
:100980000F931F93CF93DF93CDB7DEB767970FB663
:10099000F894DEBF0FBECDBF382E4F8B2801390132
:1009A0008701BC8AAB8A9E8A8D8A7B01212C8F8924
:1009B000281609F491C042E150E0B701CE0101963A
:1009C0000E940D2189819A81AB81BC81481659060C
:1009D0006A067B0608F47BC053014201881A990A13
:1009E000AA0ABB0A8D819E81AF81B88588169906B7
:1009F000AA06BB0608F06BC089859A85009761F04E
:100A0000DC01ED91FC910190F081E02D232DB501E9
:100A1000A40109954B015C018114B8E29B06BBE679
:100A2000AB06BEEEBB0608F052C08B859C850097D6
:100A300081F0DC01ED91FC910190F081E02DB50198
:100A4000A4010995F80120813181820F931F9183C0
:100A500080838D859E85009789F0DC01ED91FC9166
:100A60000190F081E02DB501A4010995EB89FC8985
:100A700020813181820F931F918380838F85988994
:100A8000009781F0DC01ED91FC910190F081E02D67
:100A9000B501A4010995F60120813181820F931FD0
:100AA0009183808389899A89009789F0DC01ED918F
:100AB000FC910190F081E02DB501A4010995ED892B
:100AC000FE8920813181820F931F9183808323943B
:100AD000F2E1EF0EF11C6BCF67960FB6F894DEBF14
:100AE0000FBECDBFDF91CF911F910F91FF90EF907F
:100AF000DF90CF90BF90AF909F908F907F906F903E
:100B00005F904F903F902F9008950E940821EF92A0
:100B1000FF920F931F93CF93DF93EC0181E0888FB7
:100B20009B8D8C8D981305C0E889F989808185FD9E
:100B300024C0F62E0B8D10E00F5F1F4F0F7311278F
:100B4000E02E8C8DE8120CC00FB607FCFACFE889B6
:100B5000F989808185FFF5CFCE010E94AC0AF1CFE3
:100B60008B8DFE01E80FF11DE35AFF4FF0820B8FD2
:100B7000EA89FB898081806207C0EE89FF896083F2
:100B8000E889F98980818064808381E090E0DF9149
:100B9000CF911F910F91FF90EF900895CF93DF9326
:100BA000EC01888D8823C9F0EA89FB89808185FD65
:100BB00005C0A889B9898C9186FD0FC00FB607FCC6
:100BC000F5CF808185FFF2CFA889B9898C9185FF07
:100BD000EDCFCE010E94AC0AE7CFDF91CF9108950F
:100BE000CF93DF93E0918601F09187010190F0812E
:100BF000E02D682F86E891E00995EC0142E050E095
:100C000062E871E086E891E00E944F048C0F9D1F1E
:100C1000DF91CF9108950F931F93CF93DF938C01B2
:100C2000C0E0D0E0F801EC0FFD1F6491662371F085
:100C3000E0918601F09187010190F081E02D86E836
:100C400091E00995892B11F02196ECCFCE01DF912F
:100C5000CF911F910F9108958F929F92AF92BF9263
:100C6000CF92DF92EF92FF921F93CF93DF93EC012D
:100C7000162F69017A0120E030E0A901C701B60111
:100C80000E94181F181644F58090070690900806D9
:100C9000A0900906B0900A0620E030E0A901C50145
:100CA000B4010E94181F18160CF042C060910E0685
:100CB00070910F0680911006909111060E94271ED8
:100CC000A50194010E947F1D20E030E040E05FE339
:100CD0000E94181F181664F1D0930506C0930406ED
:100CE00010930606C0920706D0920806E092090605
:100CF000F0920A0610920E0610920F06109210063D
:100D0000109211060E94850B6093120670931306D1
:100D10008093140690931506DF91CF911F91FF9059
:100D2000EF90DF90CF90BF90AF909F908F900895FD
:100D3000809104069091050690930C0680930B0613
:100D40008091060680930D068091120690911306FD
:100D5000A0911406B091150680931606909317067D
:100D6000A0931806B0931906B7CFCF93DF930E94D4
:100D70000B06EC0142E050E062E871E086E891E0A9
:100D80000E944F048C0F9D1FDF91CF9108951F92F9
:100D90000F920FB60F9211242F933F934F935F93AF
:100DA0006F937F938F939F93AF93BF93EF93FF9333
:100DB00086E891E00E94AC0AFF91EF91BF91AF915C
:100DC0009F918F917F916F915F914F913F912F9163
:100DD0000F900FBE0F901F9018951F920F920FB695
:100DE0000F9211242F938F939F93EF93FF93E09192
:100DF0009601F09197018081E0919C01F0919D0115
:100E000082FD12C0908180919F018F5F8F7320912E
:100E1000A001821751F0E0919F01F0E0EA57FE4FE8
:100E2000958F80939F0101C08081FF91EF919F91E9
:100E30008F912F910F900FBE0F901F90189580E00B
:100E400090E0892B29F00E94A80481110C940000E5
:100E50000895CB01BA0108958F929F92AF92BF92ED
:100E6000CF92DF92EF92FF92CF93DF935C01FC0170
:100E700090858681D281C381992329F0682F70E003
:100E80006D1B710904C06C2F70E0681B7109072E7F
:100E9000000C880B990B0E94291E6B017C01F50147
:100EA00061857285838594850E94271E4B015C01B4
:100EB0008C2F90E001968D1B9109BC01990F880B36
:100EC000990B0E94291E9B01AC01C701B6010E942B
:100ED0007F1D9B01AC01C501B4010E941D1F0E9432
:100EE000F81DDF91CF91FF90EF90DF90CF90BF90F2
:100EF000AF909F908F900895FC018681089508958A
:100F00002F923F924F925F926F927F928F929F9219
:100F1000AF92BF92CF92DF92EF92FF920F931F9307
:100F2000CF93DF9300D000D000D0CDB7DEB71C0147
:100F30008B01FC01E680F780B7010F2C000C880BB9
:100F4000990B4D835E830E94291E69837A838B836C
:100F50009C83F101608571856E197F09072E000C55
:100F6000880B990B0E94291E2B013C01F1018285FF
:100F7000C280D380E480F5804D815E818823D1F0EA
:100F800046015701880C991CAA1CBB1CBA01C80158
:100F9000A50194010E94B21CC616D706E806F90600
:100FA00090F4A5019401261B370B480B590BCA017D
:100FB000B90109C0BA01C801C616D706E806F90684
:100FC00010F4C701B6010E94271E6B017C01F101DC
:100FD00062817381848195810E94271E9B01AC01EF
:100FE000C701B6010E947F1D9B01AC01C301B20184
:100FF0000E941D1F9B01AC0169817A818B819C81BC
:101000000E94091D0E94F11DCB0126960FB6F8948F
:10101000DEBF0FBECDBFDF91CF911F910F91FF902B
:10102000EF90DF90CF90BF90AF909F908F907F9088
:101030006F905F904F903F902F900895FC018085B6
:10104000918508958F929F92AF92BF92CF92DF9237
:10105000EF92FF92CF93DF935C01FC019085878133
:10106000D481C581992329F0682F70E06D1B710927
:1010700004C06C2F70E0681B7109072E000C880BF0
:10108000990B0E94291E6B017C01F5016185728517
:10109000838594850E94271E4B015C018C2F90E074
:1010A00001968D1B9109BC01990F880B990B0E9429
:1010B000291E9B01AC01C701B6010E947F1D9B0147
:1010C000AC01C501B4010E941D1F0E94F81DDF91F3
:1010D000CF91FF90EF90DF90CF90BF90AF909F9017
:1010E0008F900895FC0187810895DC01E62F372F4A
:1010F000822F6AE00E94921C16968C931697179680
:101100009C93179712962C911297821790F0139632
:101110002C911397281768F014968C9114979817B0
:1011200040F015968C91891720F0BA018E2F932FDD
:1011300008956FEF7FEF8FEF9FEF08958F929F924B
:10114000AF92BF92CF92DF92EF92FF92CF93DF9355
:10115000EC010E9475084B015C018FEF8816980620
:10116000A806B806E9F0CD84DE84EF84F888898586
:101170009A85AB85BC85C80ED91EEA1EFB1EE88188
:10118000F9810280F381E02DCE010995C818D908B4
:10119000EA08FB0846015701861A970AA80AB90A05
:1011A000C501B401DF91CF91FF90EF90DF90CF9018
:1011B000BF90AF909F908F900895CF92DF92EF9263
:1011C000FF92CF93DF93EC010E9475086B017C01C5
:1011D0008FEFC816D806E806F80659F0E881F981BD
:1011E0000280F381E02DCE010995C61AD70AE80ADC
:1011F000F90AC701B601DF91CF91FF90EF90DF9020
:10120000CF9008958F929F92AF92BF92CF92DF922C
:10121000EF92FF921F93CF93DF93EC010E9475082A
:101220006F3F2FEF72078207920721F46FEF7FEF76
:10123000CB0172C08F849888A988BA88A5019401CF
:101240000E94B21C6B017C018E85882341F0D50180
:10125000C4018C199D09AE09BF096C017D01288567
:1012600039854A855B85C701B6010E94B21CB22E42
:101270006D8570E0822F90E02C85821B910901968C
:10128000860F971F0E949E1C182FE881F98102800B
:10129000F381E02DCE0109956D850E94921CB11657
:1012A00028F0911718F2B91630F4C0CFB91618F417
:1012B000911708F4BBCF8F849888A988BA88C80C86
:1012C000D91CEA1CFB1C288539854A855B85A92F1A
:1012D000B0E00E94DA1CA7019601261B370B480BD1
:1012E000590BCA01B901A50194010E94B21CCB8817
:1012F000DC88ED88FE886C157D058E059F0560F005
:10130000CC0CDD1CEE1CFF1CA7019601261B370B25
:10131000480B590BCA01B901DF91CF911F91FF9082
:10132000EF90DF90CF90BF90AF909F908F900895F7
:101330006F927F928F929F92AF92BF92CF92DF92E5
:10134000EF92FF920F931F93CF93DF9300D000D0C3
:10135000CDB7DEB73C01E62F372FDC011A968C9112
:101360001A971296CD90DD90ED90FC9015978823FA
:10137000D9F046015701880C991CAA1CBB1CBA0164
:101380008E2F932FA50194010E94B21CC616D7067A
:10139000E806F90698F4A5019401261B370B480BC3
:1013A000590BCA01B9010AC0BA018E2F932FC61674
:1013B000D706E806F90610F4C701B601D3011B965B
:1013C0002C911B97213029F518960D911C91199796
:1013D0000E94271E6B017C01F3016281738184816D
:1013E00095810E94271E9B01AC01C701B6010E9496
:1013F0007F1D2BED3FE049EC5FE30E941D1F0E9423
:101400007A1D9B01AC01D30116968D919C91179783
:1014100025C02230A1F5F301068117810E94271E05
:101420006B017C01D30112966D917D918D919C9100
:1014300015970E94271E9B01AC01C701B6010E94AF
:101440007F1D2BED3FE049EC5FE30E941D1F0E94D2
:101450008A1F9B01AC01F30180859185801B910B54
:10146000BC01990F880B990B29833A834B835C83CA
:101470000E94291E29813A814B815C8144C023301E
:1014800009F057C0D30116960D911C9117970E9431
:10149000271E2BED3FE049E450E40E941D1F6B0125
:1014A0007C01F30162817381848195810E94271EF2
:1014B0009B01AC01C701B6010E947F1D0E947A1DED
:1014C0006B017C01D30118968D919C911997F801BD
:1014D000E81BF90BCF01F7FD019695958795BC01A7
:1014E000990F880B990B0E94291E4B015C0120E08B
:1014F00030E040E85FE3C701B6010E94081D9B0190
:10150000AC01C501B4010E941D1F6B017C01B80133
:10151000110F880B990B0E94291E9B01AC01C7017A
:10152000B6010E94091D0E94F11D262F972F822FC0
:1015300000C00F900F900F900F90DF91CF911F91EF
:101540000F91FF90EF90DF90CF90BF90AF909F9062
:101550008F907F906F900895FC01848DDF01A80F1C
:10156000B11DA35ABF4F2C91848D90E001968F73CB
:101570009927848FA689B7892C93A089B1898C91EA
:1015800080648C93938D848D981306C00288F389B0
:10159000E02D80818F7D8083089590E0FC01E051F3
:1015A000FF4F3491FC01E656FF4F2491FC01E854B3
:1015B000FF4FE491EE2309F43BC0332339F133307C
:1015C00091F038F43130A9F0323001F584B58F7DD7
:1015D00012C0373091F03830A1F03430B9F4809136
:1015E00080008F7D03C0809180008F778093800082
:1015F0000DC084B58F7784BD09C08091B0008F770E
:1016000003C08091B0008F7D8093B000F0E0EE0FBA
:10161000FF1FE255FF4FA591B4918FB7F894EC915D
:10162000611103C020952E2301C02E2B2C938FBF58
:101630000895262FFC018281882311F061E001C00A
:1016400060E0822F0C94CD0ACF93DF9390E0FC01F1
:10165000E656FF4F2491FC01E854FF4F8491882304
:1016600061F190E0880F991FFC01EA51FF4FC5918D
:10167000D491FC01E255FF4FA591B491611109C0CD
:101680009FB7F8948881209582238883EC912E233C
:101690000BC0623061F49FB7F8943881822F809537
:1016A00083238883EC912E2B2C939FBF06C08FB78A
:1016B000F894E8812E2B28838FBFDF91CF91089576
:1016C0003FB7F8948091730690917406A0917506C7
:1016D000B091760626B5A89B05C02F3F19F001965C
:1016E000A11DB11D3FBFBA2FA92F982F8827820FA8
:1016F000911DA11DB11DBC01CD0143E0660F771FF7
:10170000881F991F4A95D1F708952FB7F8946091D3
:101710006F067091700680917106909172062FBFCE
:101720000895CF92DF92EF92FF921F93CF93DF93B2
:10173000EC01162F0E94850BCA84DB84EC84FD84A7
:101740006C0D7D1D8E1D9F1D2A813B814C815D810D
:101750000E94B21CCE80DF80E884F984C616D706CA
:10176000E806F90610F061E001C060E0812FDF912A
:10177000CF911F91FF90EF90DF90CF900C94CD0A06
:101780001F920F920FB60F9211242F933F938F93B6
:101790009F93AF93BF9380916F0690917006A09135
:1017A0007106B091720630916E0626E0230F2D3738
:1017B00020F40296A11DB11D05C029E8230F039650
:1017C000A11DB11D20936E0680936F069093700645
:1017D000A0937106B093720680917306909174067F
:1017E000A0917506B09176060196A11DB11D80935A
:1017F000730690937406A0937506B0937606BF9116
:10180000AF919F918F913F912F910F900FBE0F90AD
:101810001F901895BC01E09100018E2FEE0F990BDF
:10182000AA0BBB0BFC01F097072E000C880B990B41
:10183000EA30F10508F04CC0EC5CFF4F0C94D41C6E
:101840000E94291E9B01AC0164E08BEE97E047C02B
:101850000E94291E9B01AC0164E083EA97E03FC02F
:101860000E94291E9B01AC0161E081E997E037C02D
:101870000E94291E9B01AC0161E08FE797E02FC019
:101880000E94291E9B01AC0161E08DE697E027C014
:101890000E94291E9B01AC0161E08BE597E01FC00F
:1018A0000E94291E9B01AC0161E089E497E017C00A
:1018B0000E94291E9B01AC0161E087E397E00FC005
:1018C0000E94291E9B01AC0161E085E297E007C000
:1018D0000E94291E9B01AC0161E083E398E00C9417
:1018E0002C061F93CF93DF931F92CDB7DEB7E09105
:1018F0000101E730B8F5863619F16CF4823641F112
:10190000833609F07AC1F0E0EE0FFF1FE15AF94F7C
:1019100088E296E024C08E3659F0833709F06DC115
:10192000F0E0EE0FFF1FE15AF94F8AE196E017C091
:10193000F0E0EE0FFF1FE15AF94F87E496E00FC089
:10194000F0E0EE0FFF1FE15AF94F84E496E007C084
:10195000F0E0EE0FFF1FE15AF94F86E396E0918326
:1019600080834BC1182FE73009F005C1883309F493
:10197000C4C07CF5833309F490C0A4F4813309F426
:1019800074C00CF07EC0803309F037C18BE193E066
:101990000E94B50620E030E04AE753E467E08DE9B5
:1019A00092E0E6C0853309F490C00CF482C086331F
:1019B00009F497C0873309F020C184EA94E00E94BB
:1019C000B50620E030E04AE753E464E08CE594E0BB
:1019D000CFC0843609F4B5C02CF5813609F499C01E
:1019E0007CF4893309F009C182EF93E00E94B506C7
:1019F00020E030E04AE753E46BE08CE293E0B8C0CB
:101A0000823609F492C0833609F0F7C080E192E093
:101A10000E94B50620E030E04AE753E463E08AED37
:101A200091E0A6C0863691F00CF497C08E36D1F0C6
:101A3000853709F0E2C08DED96E00E94B50620E002
:101A400030E0A90161E08BEC96E092C081E097E084
:101A50000E94B50620E030E046E954E461E08FEEF4
:101A600096E086C080EB94E0C6C08AEB96E00E94C8
:101A7000B50620E030E04AE753E464E082E796E010
:101A800077C081E696E00E94B50620E030E04AE7A4
:101A900053E462E08DE396E06BC08CE296E00E9436
:101AA000B50620E030E04AE753E463E086EF95E0D6
:101AB0005FC085EE95E00E94B50620E030E04AE781
:101AC00053E466E089E795E053C088E695E00E941C
:101AD000B50620E030E04AE753E464E080E295E0B8
:101AE00047C08FE095E00E94B50620E030E04AE76D
:101AF00053E465E085EB94E03BC08BE494E00E9406
:101B0000B50620E030E04AE753E464E083E094E087
:101B10002FC08CE892E00E94B50620E030E04AE752
:101B200053E462E088E692E023C087E592E00E94F9
:101B3000B50620E030E04AE753E463E081E292E05A
:101B400017C089EC91E00E94B50620E030E04AE73A
:101B500053E467E08BE491E00BC08AE391E00E94DC
:101B6000B50620E030E04AE753E463E084E091E02A
:101B70000E942C0642C0E83009F03FC08D3239F493
:101B800020910001E8E7F1E080E090E005C08B32B1
:101B9000B9F38093000118C03191321731F00196EA
:101BA0008A309105C9F780E090E01D3211F4099662
:101BB00001C00B966AE070E00E949E1CFC01E85890
:101BC000FE4F8081809300016091000180E090E0F1
:101BD00069830E9416216981681721F080E090E0F6
:101BE0000E941E2184E197E00E940B06812F0E9433
:101BF000F0058AEF90E00E940A0C8EEF80930101BD
:101C00000F90DF91CF911F9108958F929F92AF9285
:101C1000BF92CF92DF92EF92FF92CF93C82F61E0F5
:101C20000E94CD0A0E94600B4B015C0184E6C82E25
:101C3000D12CE12CF12C0E94600BDC01CB01881926
:101C40009909AA09BB09883E9340A105B10558F03E
:101C500021E0C21AD108E108F10888EE880E83E07D
:101C6000981EA11CB11CC114D104E104F10419F7A0
:101C700060E08C2FCF91FF90EF90DF90CF90BF90DE
:101C8000AF909F908F900C94CD0A2F923F924F92DD
:101C90005F926F927F928F929F92AF92BF92CF92FC
:101CA000DF92EF92FF920F931F93CF93DF931092E7
:101CB00089011092880188EE93E0A0E0B0E0809363
:101CC0008A0190938B01A0938C01B0938D018DE0DC
:101CD00091E0909387018093860185EC90E090934A
:101CE00093018093920184EC90E09093950180930E
:101CF000940180EC90E0909397018093960181ECA1
:101D000090E0909399018093980182EC90E09093F9
:101D10009B0180939A0186EC90E090939D018093C3
:101D20009C0110929F011092A0011092A1011092AB
:101D3000A20110924B061092510610925806109272
:101D4000590610925A0610925B0683E0809357065C
:101D50001092540681E08093550692E090935606C7
:101D600080934A0680EF90E090934F0680934E0652
:101D70000E94DB1F9093530680935206009761F0F8
:101D800020EFDC011D922A95E9F78CE390E0909317
:101D90004D0680934C0608C010924F0610924E06D6
:101DA00010924D0610924C0686E08093500680916A
:101DB0004B06882341F061E086E00E94240B60E03E
:101DC00086E00E94CD0AEEEBF0E0E491F0E0EE0F49
:101DD000FF1FE255FF4F8591949190935D0680938C
:101DE0005C06E0EAF0E0E491E0935E0627E631E08D
:101DF000309348062093470681E08093490630934C
:101E0000450620934406109246062BE531E03093B8
:101E100037062093360694EFC92EDD24D394E12CA7
:101E2000F12CC0923806D0923906E0923A06F09230
:101E30003B064AEF842E912CA12CB12C80923C06BB
:101E400090923D06A0923E06B0923F061092400648
:101E500010924106109242061092430630932906D2
:101E600020932806C0922A06D0922B06E0922C06D8
:101E7000F0922D0680922E0690922F06A0923006A8
:101E8000B09231068092320690923306A0923406C8
:101E9000B092350630931B0620931A0648EC50E0AA
:101EA00060E070E040931C0650931D0660931E0690
:101EB00070931F0604E610E020E030E00093200657
:101EC00010932106209322063093230610922406B5
:101ED0001092250610922606109227062AE436E074
:101EE000309303062093020625E531E03093010686
:101EF000209300064FE451E05093F6054093F5051A
:101F00001092FC051092FB056FEF70E07093FE05D8
:101F10006093FD051092F7051092F8051092F905EF
:101F20001092FA051092FF055093EB054093EA05D5
:101F30001092F1051092F005A8E7B0E0B093F30518
:101F4000A093F2051092EC051092ED051092EE05AB
:101F50001092EF051092F4055093E0054093DF05D1
:101F60001092E6051092E5051092E8051092E7053B
:101F70001092E1051092E2051092E3051092E4053B
:101F80001092E9055093D5054093D40521E03FEF29
:101F90003093DB052093DA053093DD052093DC05D3
:101FA0001092D6051092D7051092D8051092D90537
:101FB0001092DE055093CA054093C9051092D005D2
:101FC0001092CF050AE010E01093D2050093D105DE
:101FD0001092CB051092CC051092CD051092CE0533
:101FE0001092D3051092C5051092C405B093C70591
:101FF000A093C6055CE2852E99249394A12CB12C64
:102000008092C0059092C105A092C205B092C3050E
:102010001092C80549E451E05093BF054093BE05B6
:102020001092BA051092B9057093BC056093BB0578
:102030008092B5059092B605A092B705B092B8050A
:102040001092BD055093B4054093B3051092AE05B0
:102050001092AD051092B0051092AF05EEEE4E2E27
:10206000E2E05E2E612C712C4092A9055092AA05E7
:102070006092AB057092AC051092B105E3E4F1E01B
:10208000F093A805E093A7058093B2051092A205EE
:102090001092A105C2E3D0E0D093A405C093A3059C
:1020A00040929D0550929E0560929F057092A005FA
:1020B0001092A505F0939C05E0939B058093A605DF
:1020C0001092960510929505B0939805A0939705E8
:1020D00040929105509292056092930570929405FA
:1020E00010929905F0939005E0938F0580939A05DF
:1020F00010928A051092890570938C0560938B0568
:1021000040928505509286056092870570928805F9
:1021100010928D05F0938405E093830580938E05DE
:1021200010927F0510927E053093810520938005E3
:10213000C8EE8C2EC3E09C2EA12CB12C80927A0587
:1021400090927B05A0927C05B0927D05109282054D
:102150005093790540937805109274051092730599
:10216000B0937605A093750580926F0590927005E7
:10217000A0927105B09272051092770550936E058A
:1021800040936D05109269051092680570936B0578
:1021900060936A058092640590926505A092660539
:1021A000B092670510926C055093630540936205E9
:1021B00010925E0510925D053093600520935F05D7
:1021C000D8EB8D2EDBE09D2EA12CB12C80925905F1
:1021D00090925A05A0925B05B0925C051092610541
:1021E000509358054093570510925305109252058D
:1021F000B0935505A093540580924E0590924F05DB
:10220000A0925005B09251051092560550934D057D
:1022100040934C05109248051092470570934A056B
:10222000609349058092430590924405A09245052C
:10223000B092460510924B055093420540934105DC
:1022400010923D0510923C0510933F0500933E050A
:1022500010EA812E1FE0912EA12CB12C809238051E
:1022600090923905A0923A05B0923B051092400534
:102270005093370540933605109232051092310580
:10228000C8ECD0E0D0933405C093330580922D057F
:1022900090922E05A0922F05B09230051092350530
:1022A00050932C0540932B0510922605109225057E
:1022B00030932805209327050AEF10E020E030E056
:1022C00000932105109322052093230530932405C4
:1022D00080932905F0932005E0931F0523E02093C8
:1022E0002A0510921A0510921905C8E2D0E0D09381
:1022F0001C05C0931B050AEF802E912CA12CB12C3C
:102300008092150590921605A0921705B0921805B7
:1023100080931D05F0931405E093130520931E058B
:1023200010920E0510920D057093100560930F0525
:102330008092090590920A05A0920B05B0920C05B7
:1023400080931105F0930805E0930705209312058B
:10235000C4E1D0E0D0930205C0930105B093040519
:10236000A0930305C092FD04D092FE04E092FF0406
:10237000F092000580930505F093FC04E093FB04C4
:10238000209306051092F7041092F6047093F90456
:102390006093F80498EEA92E93E0B92EC12CD12CAD
:1023A000A092F204B092F304C092F404D092F50427
:1023B0008093FA045093F1044093F0041092EC04DB
:1023C0001092EB047093EE046093ED0430EDC32E95
:1023D00037E0D32EE12CF12CC092E704D092E80430
:1023E000E092E904F092EA048093EF045093E6044B
:1023F0004093E5041092E1041092E0047093E3042A
:102400006093E20460E4862E6FE1962EA12CB12C3D
:102410008092DC049092DD04A092DE04B092DF048E
:102420008093E4045093DB044093DA041092C504D3
:1024300095E09093C6041092C70439E03093C80425
:102440000BE311E01093C4040093C3044CE350E089
:1024500060E070E04093CB045093CC046093CD04D3
:102460007093CE042093CF0456E05093D004109282
:10247000D10478E6872E99249394A12CB12C8092D4
:10248000D2049092D304A092D404B092D504EAE589
:102490008E2E912CA12CB12C8092D6049092D70430
:1024A000A092D804B092D9041092B8049093B904C1
:1024B0001092BA043093BB04FDE22F2EF1E03F2EC0
:1024C0003092B7042092B6048093BE04C092BF0439
:1024D000D092C004E092C104F092C2041092A7040A
:1024E0009093A8041092A9043093AA048093AD0499
:1024F000C092AE04D092AF04E092B004F092B10466
:102500006DE671E07093A6046093A504A8EE8A2E90
:10251000A3E09A2EA12CB12C8092B2049092B30425
:10252000A092B404B092B50410929A0490939B04C4
:1025300044E040939C0440939D043092990420927F
:1025400098048093A004C092A104D092A204E092C7
:10255000A304F092A40410928D0490938E04109220
:102560008F044093900410929304C0929404D092EC
:102570009504E0929604F0929704C5E2D1E0D093DE
:102580008C04C0938B041092800490938104409338
:1025900082043093830480938604C0928704D0928F
:1025A0008804E0928904F0928A04D0937F04C09357
:1025B0007E041092690490936A0490936B04909344
:1025C0006C041093680400936704B4E68B2E912C7E
:1025D000A12CB12C80926F0490927004A09271048F
:1025E000B092720480937304E7E0E09374048093E4
:1025F00075046CEB862E62E0962EA12CB12C809295
:10260000760490927704A0927804B092790472E3F1
:10261000872E912CA12CB12C80927A0490927B046D
:10262000A0927C04B0927D041092520490935304C3
:1026300020935404209355041093510400935004A4
:10264000F4E68F2E912CA12CB12C809258049092FC
:102650005904A0925A04B0925B0480935C04ADE0EC
:10266000A0935D0480935E04B4E18B2EB5E09B2EB5
:10267000A12CB12C80925F0490926004A09261041E
:10268000B092620462E3862E912CA12CB12C809230
:10269000630490926404A0926504B0926604109260
:1026A0003B0490933C0440933D0440933E041093BC
:1026B0003A040093390474E6872E912CA12CB12C96
:1026C0008092410490924204A0924304B092440448
:1026D0008093450463E16093460480934704FCE6DD
:1026E0008F2EF7E09F2EA12CB12C8092480490925F
:1026F0004904A0924A04B0924B04B2E38B2E912C71
:10270000A12CB12C80924C0490924D04A0924E04C6
:10271000B0924F04109224049093250480932604D1
:1027200080932704109323040093220464E6862EEA
:10273000912CA12CB12C80922A0490922B04A0926F
:102740002C04B0922D0480932E046BE060932F0430
:10275000809330047CE4872E74E0972EA12CB12C5A
:102760008092310490923204A0923304B0923404E7
:10277000F2E38F2E912CA12CB12C809235049092F3
:102780003604A0923704B092380410920D0490934E
:102790000E04E0930F04E093100410930C040093D4
:1027A0000B04B4E68B2E912CA12CB12C8092130437
:1027B00090921404A0921504B0921604809317040A
:1027C00061E1609318048093190464EA862E66E040
:1027D000962EA12CB12C80921A0490921B04A092E8
:1027E0001C04B0921D0472E3872E912CA12CB12CF5
:1027F00080921E0490921F04A0922004B0922104A3
:102800001092000490930104109202043093030488
:102810003092FF032092FE0380930604F0EA8F2E8D
:10282000FFE09F2EA12CB12C809207049092080407
:10283000A0920904B0920A041092F3038093F40367
:102840001092F5033093F6038093F9034092FA0354
:102850005092FB036092FC037092FD03D093F2034D
:10286000C093F103F2E0F093E6032093E7031092A4
:10287000E8033093E9031092EC034092ED03509289
:10288000EE036092EF037092F003D093E503C093E0
:10289000E4034093D9039093DA031092DB0330935F
:1028A000DC038093DF034092E0035092E1036092E7
:1028B000E2037092E303D093D803C093D70365E398
:1028C00071E07093D0036093CF038093D103409362
:1028D000D2032093D3035093D4031092C403909354
:1028E000C5031092C603F093C7033092C30320922E
:1028F000C2038093CA03B4EC8B2EB9E09B2EA12CAB
:10290000B12C8092CB039092CC03A092CD03B092D5
:10291000CE031092B7039093B803E093B9033093BA
:10292000BA033092B6032092B5031092BD03809291
:10293000BE039092BF03A092C003B092C103109255
:10294000AA039093AB03F093AC033093AD03809351
:10295000B003B8E88B2EB3E19B2EA12CB12C809252
:10296000B1039092B203A092B303B092B403D09398
:10297000A903C093A80310929D0390939E03109205
:102980009F03E093A0031092A3038092A40390926C
:10299000A503A092A603B092A703D0939C03C09373
:1029A0009B031092860390938703F09388032093F0
:1029B00089031093850300938403B4E68B2E912C36
:1029C000A12CB12C80928C0390928D03A0928E0347
:1029D000B0928F0350939003A093910310929203AF
:1029E000B4E18B2EB5E09B2EA12CB12C80929303E9
:1029F00090929403A0929503B0929603BCE28B2E22
:102A000099249394A12CB12C8092970390929803CF
:102A1000A0929903B0929A0310926F03909370035F
:102A2000409371039093720310936E0300936D03B0
:102A3000B4E68B2E912CA12CB12C80927503909230
:102A40007603A0927703B092780350937903A09312
:102A50007A0310927B03B4E18B2EB5E09B2EA12C60
:102A6000B12C80927C0390927D03A0927E03B09261
:102A70007F03BCE28B2E99249394A12CB12C8092DD
:102A8000800390928103A0928203B09283031092FC
:102A900058039093590350935A03E0935B031093A8
:102AA000570300935603B4E68B2E912CA12CB12C26
:102AB00080925E0390925F03A0926003B0926103E4
:102AC00050936203A093630310926403A4E18A2EDF
:102AD000A5E09A2EA12CB12C8092650390926603FA
:102AE000A0926703B0926803BCE28B2E9924939462
:102AF000A12CB12C8092690390926A03A0926B037F
:102B0000B0926C0370934F0360934E03F0935003A5
:102B1000F093510340935203409353037093470340
:102B200060934603209348032093490350934A033C
:102B300050934B0370933F0360933E039093400385
:102B40009093410390934203909343037093370310
:102B500060933603F0933803F0933903A8E0A09311
:102B60003A03A0933B0370932F0360932E0390933B
:102B7000300390933103F0933203F0933303709357
:102B8000270360932603409328034093290340932F
:102B90002A0340932B0370931F0360931E034093FB
:102BA000200340932103E0932203E09323037093D7
:102BB000170360931603209318032093190320939F
:102BC0001A0320931B0320930B0390930C03109282
:102BD0000D0330930E0330920A03209209031092E2
:102BE0001103C0921203D0921303E0921403F092E7
:102BF00015031092FE029093FF021092000330938F
:102C000001033092FD022092FC0280930403C092E3
:102C10000503D0920603E0920703F0920803109296
:102C2000F1029093F2021092F3023093F402809337
:102C3000F702C092F802D092F902E092FA02F09202
:102C4000FB02D093F002C093EF027093E80260930E
:102C5000E7021092E9021092EA021092EB0230931E
:102C6000EC028093D2029093D3021092D40230935C
:102C7000D5021093D1020093D00266E9862E912CE2
:102C8000A12CB12C8092D8029092D902A092DA02A3
:102C9000B092DB02F093DC022093DD021092DE02A0
:102CA00072EC872E99249394A12CB12C8092DF0290
:102CB0009092E002A092E102B092E202A6E98A2E8E
:102CC000912CA12CB12C8092E3029092E402A0926C
:102CD000E502B092E6028093BB022093BC02109200
:102CE000BD023093BE021093BA020093B902BAEF4C
:102CF0008B2E912CA12CB12C8092C1029092C202F9
:102D0000A092C302B092C4022093C5024093C602AF
:102D10001092C70268EE862E63E0962EA12CB12C8D
:102D20008092C8029092C902A092CA02B092CB02CD
:102D300077E7872E99249394A12CB12C8092CC0212
:102D40009092CD02A092CE02B092CF021092AE022B
:102D50008093AF021092B0023093B1028093B4021C
:102D60004092B5025092B6026092B7027092B802D9
:102D7000D093AD02C093AC02F093A1022093A202C3
:102D80001092A3023093A4021092A7024092A802CC
:102D90005092A9026092AA027092AB02D093A00254
:102DA000C0939F02409394029093950210929602D2
:102DB0003093970280939A0240929B0250929C0219
:102DC00060929D0270929E02D0939302C0939202F1
:102DD000109287029093880210928902F0938A02DF
:102DE000309286022092850280938D0240928E025C
:102DF00050928F02609290027092910210927A0229
:102E000090937B0220937C0250937D023092790252
:102E100020927802109280024092810250928202A7
:102E2000609283027092840210926D0290936E02FF
:102E3000E0936F023093700230926C0220926B022A
:102E400080937302409274025092750260927602EF
:102E50007092770210926002809361021092620277
:102E60003093630230925F0220925E0210926602FB
:102E7000E8EE8E2EE3E09E2EA12CB12C809267020C
:102E800090926802A0926902B0926A021092530274
:102E90009093540210925502309356028093590237
:102EA000C0925A02D0925B02E0925C02F0925D0204
:102EB000D0935202C093510210923C0290933D0273
:102EC00010923E0230933F0280924202909243025F
:102ED000A0924402B09245022093460250934702CA
:102EE00010924802F0E78F2EF7E19F2EA12CB12C13
:102EF0008092490290924A02A0924B02B0924C02F8
:102F0000ACEDCA2EA5E0DA2EE12CF12CC0924D02D8
:102F1000D0924E02E0924F02F09250026DE171E0C9
:102F200070933B0260933A0210922502909326021E
:102F30001092270230932802109324020093230258
:102F400068EE73E080E090E060932B0270932C02B7
:102F500080932D0290932E0220932F0250933002E3
:102F6000109231028092320290923302A092340287
:102F7000B0923502C0923602D0923702E092380207
:102F8000F0923902DF91CF911F910F91FF90EF9056
:102F9000DF90CF90BF90AF909F908F907F906F9079
:102FA0005F904F903F902F9008958091520690919E
:102FB0005306009711F00E9470208091500687FD03
:102FC00003C060E00C94240B0895CF93DF93CDB73A
:102FD000DEB7A5970FB6F894DEBF0FBECDBF7894CD
:102FE00084B5826084BD84B5816084BD85B582600E
:102FF00085BD85B5816085BD80916E0081608093BF
:103000006E00109281008091810082608093810027
:103010008091810081608093810080918000816037
:10302000809380008091B10084608093B100809192
:10303000B00081608093B00080917A0084608093BA
:103040007A0080917A00826080937A0080917A0081
:103050008E7F80937A0080917A00806880937A00D6
:103060001092C100E0919601F091970182E0808377
:10307000E0919201F09193011082E0919401F0911E
:10308000950187E6808310929E01E0919A01F0916C
:103090009B0186E08083E0919801F0919901808105
:1030A00080618083E0919801F0919901808188602E
:1030B0008083E0919801F0919901808180688083FC
:1030C000E0919801F091990180818F7D808301E7E3
:1030D00011E097E0F92EF00E61E0D8018D918D019D
:1030E0000E94240BF012F8CF80E090E00E9416219D
:1030F000809300018CEC90E00E940B06809100010F
:103100000E94F0058091500687FD08C061E00E9492
:10311000240B60E0809150060E94CD0A81E08093EC
:103120004B0680910201882309F181E10E94050E7E
:1031300080E10E94050E8FE00E94050E8EE00E9445
:10314000050E89E00E94050E85E00E94050E83E0D1
:103150000E94050E109202011092010182E60E9467
:10316000710C80EB94E00E940A0CD9C386E891E0D0
:103170000E949C04892BA1F186E891E00E947A04C8
:1031800080936D06909101019E3F41F58136F1F0EB
:1031900074F48233A9F02CF4813311F510920101FB
:1031A0001FC0833379F08433D9F483E00CC08336B5
:1031B00089F074F0833781F08A3791F488E003C096
:1031C00081E001C082E0809301010AC084E0FBCF6E
:1031D00085E0F9CF86E0F7CF87E0F5CF0E94710C4C
:1031E0000FE516E081E7E82E81E0F82EF8018191E5
:1031F00091918F01009749F0DC01ED91FC910190D4
:10320000F081E02DD7016C910995BFEFEB1AFB0A15
:10321000E6E00D361E0751F70E94850B009112065D
:103220001091130620911406309115064B015C0194
:10323000801A910AA20AB30A80920E0690920F0693
:10324000A0921006B0921106409007065090080612
:103250006090090670900A0620E030E0A901C301E1
:10326000B2010E94181F18165CF4C501B4010E9437
:10327000271EA30192010E947F1D2B013C0106C065
:10328000412C512C00E8602E0FE3702EA301920117
:1032900060E070E080E89FE30E94081D6A8F7B8FEA
:1032A0008C8F9D8F80910B0690910C06892BF9F0E5
:1032B00020E030E040E85FE3C301B2010E94751DE9
:1032C00087FF15C00E94850B009116061091170606
:1032D00020911806309119066B017C01C01AD10AA1
:1032E000E20AF30ACAA2DBA2ECA2FDA208C0109275
:1032F0000C0610920B061AA21BA21CA21DA21F8E66
:103300001E8E19A218A2212C312C1A8A198A188A09
:103310001F861E861D861C861B8600910E06109138
:103320000F062091100630911106609104067091ED
:103330000506CE010B964C01DE011D965D01FE01D6
:103340003F966F0106967C0140910606822D0E94F1
:10335000B20420E030E040E85FE3C301B2010E9424
:10336000751D87FFBBC01A86198618861F821E82AC
:103370001D821C821B8260910B0670910C066115E8
:103380007105A1F0DE0113964D01FE0135965F0136
:10339000CE0107966C0116967D010AA11BA12CA1F6
:1033A0003DA140910D06822D0E94B20469897A895F
:1033B000072E000C880B990B0E94291EA301920175
:1033C0000E941D1F4B015C0189859A85BC01990FE4
:1033D000880B990B0E94291E2A8D3B8D4C8D5D8D8B
:1033E0000E941D1F9B01AC01C501B4010E94091D73
:1033F0000E94F11D7A8B698B6F857889072E000CEE
:10340000880B990B0E94291EA30192010E941D1F87
:103410004B015C018F819885BC01990F880B990B3A
:103420000E94291E2A8D3B8D4C8D5D8D0E941D1F93
:103430009B01AC01C501B4010E94091D0E94F11D50
:10344000788B6F876D857E85072E000C880B990B16
:103450000E94291EA30192010E941D1F4B015C01C5
:103460008D819E81BC01990F880B990B0E94291EAA
:103470002A8D3B8D4C8D5D8D0E941D1F9B01AC01E3
:10348000C501B4010E94091D0E94F11D7E876D8750
:103490006B857C85072E000C880B990B0E94291EDA
:1034A000A30192010E941D1F4B015C018B819C8135
:1034B000BC01990F880B990B0E94291E2A8D3B8D08
:1034C0004C8D5D8D0E941D1F9B01AC01C501B40197
:1034D0000E94091D0E94F11D7C876B878B859C854E
:1034E00097FD08C08F3F910519F014F08FEF90E021
:1034F000582F01C050E08D859E8597FD07C08F3FF6
:10350000910529F024F08FEF90E001C080E02F8535
:10351000388937FD08C02F3F310519F014F02FEF1F
:1035200030E0422F01C040E029893A8937FD07C0C9
:103530002F3F310529F024F02FEF30E001C020E0CB
:10354000E0910206F0910306628173812616370628
:1035500008F051C090E0A0E0B0E0B52B942BA22B76
:103560008D0122273327D02E892E9A2EAB2EBB24F5
:10357000E82CF82E4781442361F0049F9001112428
:10358000D32E849E40011124E92C849F90011124A4
:10359000F32E5585628520853185561305C068A1B7
:1035A00079A1260F371F18C06E8D7F8D260F371F0C
:1035B0008B2F9927AA27BB27B901650F711D4423BB
:1035C00049F050E0489F8001499F100D589F100D11
:1035D0001124812FDB018C938285D901A80FB11DA5
:1035E000DC928385D901A80FB11DEC928485F90185
:1035F000E80FF11DF082BFEF2B1A3B0AE8A1F9A1F9
:103600003396F9A3E8A36E8D7F8D6C5F7F4F7F8F1C
:103610006E8F603F710509F078CE60900206709061
:103620000306D30118968D919C911997892B09F463
:1036300076C10E94600BF3010685178520893189C8
:10364000DC01CB01801B910BA20BB30BC297A10530
:10365000B10578F3F894848195819A838983A08554
:10366000B1858D010F5F1F4F8C91898F8081A28959
:10367000B389882309F419C11B8AAB32B10509F05B
:1036800058C09BB18489982B988F9BB180958923D2
:103690008F8B8F898C8B898D87FF02C0888D8C8B57
:1036A000588D6F89498D3C892B8989819A81D801F0
:1036B0005BB9262F3BB900C046FD252F6BB900C072
:1036C0005BB9362F2BB900C045FD352F6BB900C053
:1036D0005BB9262F3BB900C044FD252F6BB900C054
:1036E0005BB9362F2BB900C043FD352F6BB900C035
:1036F0005BB9262F3BB900C042FD252F6BB900C036
:103700005BB9362F2BB900C041FD352F6BB900C016
:103710005BB9262F3BB900C040FD252F6BB901973F
:103720005BB9362F2BB94D9147FD352F6BB901F69B
:10373000B8C0A532B10509F059C095B1F30184892B
:10374000982B988F95B1809589238F8B8F898C8B3F
:10375000898D87FF02C0888D8C8B588D6F89498D2C
:103760003C892B8989819A81D80155B9262F35B991
:1037700000C046FD252F65B900C055B9362F25B9C3
:1037800000C045FD352F65B900C055B9262F35B9A4
:1037900000C044FD252F65B900C055B9362F25B9A5
:1037A00000C043FD352F65B900C055B9262F35B986
:1037B00000C042FD252F65B900C055B9362F25B987
:1037C00000C041FD352F65B900C055B9262F35B968
:1037D00000C040FD252F65B9019755B9362F25B991
:1037E0004D9147FD352F65B901F65BC0989709F0FB
:1037F0008CC098B1F3018489982B988F98B18095EB
:1038000089238F8B8F898C8B898D87FF02C0888D50
:103810008C8B588D6F89498D3C892B8989819A8140
:10382000D80158B9262F38B900C046FD252F68B9F0
:1038300000C058B9362F28B900C045FD352F68B9EA
:1038400000C058B9262F38B900C044FD252F68B9EB
:1038500000C058B9362F28B900C043FD352F68B9CC
:1038600000C058B9262F38B900C042FD252F68B9CD
:1038700000C058B9362F28B900C041FD352F68B9AE
:1038800000C058B9262F38B900C040FD252F68B9AF
:10389000019758B9362F28B94D9147FD352F68B992
:1038A00001F6498F3C8B2B8B2EC09C91F3018489B0
:1038B000982B988F9C91809589238F8B8F898E8BE5
:1038C00088E08D8B588D6F89498D3D892E8989813E
:1038D0009A81F8015C9347FD252F2C93262F3A956A
:1038E00031F0441F6C9300C000C000C0F3CF6C9354
:1038F000000038E04191019769F7F301B38BA28B87
:10390000498F3D8B2E8B9A83898378940E94600B1C
:10391000D3011E966D937D938D939C9351970E9436
:103920001F07FFCB991B79E004C0991F961708F079
:10393000961B881F7A95C9F78095089597FB072EE7
:1039400016F4009407D077FD09D00E94E51C07FC0F
:1039500005D03EF4909581959F4F0895709561959F
:103960007F4F0895A1E21A2EAA1BBB1BFD010DC0BB
:10397000AA1FBB1FEE1FFF1FA217B307E407F5071F
:1039800020F0A21BB30BE40BF50B661F771F881FFB
:10399000991F1A9469F760957095809590959B0191
:1039A000AC01BD01CF010895EE0FFF1F0590F4910A
:1039B000E02D09940E94F91CA59F900DB49F900DD5
:1039C000A49F800D911D11240895AA1BBB1B51E1DA
:1039D00007C0AA1FBB1FA617B70710F0A61BB70B7F
:1039E000881F991F5A95A9F780959095BC01CD0124
:1039F0000895A29FB001B39FC001A39F700D811DC8
:103A00001124911DB29F700D811D1124911D0895E7
:103A10005058BB27AA270E94201D0C94CA1E0E9442
:103A2000911E38F00E94981E20F039F49F3F19F43F
:103A300026F40C948E1E0EF4E095E7FB0C94881E81
:103A4000E92F0E94EF1E58F3BA1762077307840725
:103A5000950720F079F4A6F50C94111F0EF4E0956B
:103A60000B2EBA2FA02D0B01B90190010C01CA0138
:103A7000A0011124FF27591B99F0593F50F4503EE3
:103A800068F11A16F040A22F232F342F4427585FD5
:103A9000F3CF469537952795A795F0405395C9F7ED
:103AA0007EF41F16BA0B620B730B840BBAF09150A5
:103AB000A1F0FF0FBB1F661F771F881FC2F70EC044
:103AC000BA0F621F731F841F48F487957795679517
:103AD000B795F7959E3F08F0B0CF9395880F08F003
:103AE0009927EE0F9795879508950E94641E08F414
:103AF00081E008950E94A11EE3950C94DB1E0E94B4
:103B0000931D0C94CA1E0E94981E58F00E94911E8C
:103B100040F029F45F3F29F00C94881E51110C9459
:103B2000121F0C948E1E0E94EF1E68F39923B1F3AE
:103B3000552391F3951B550BBB27AA2762177307D3
:103B4000840738F09F5F5F4F220F331F441FAA1F67
:103B5000A9F335D00E2E3AF0E0E832D09150504023
:103B6000E695001CCAF72BD0FE2F29D0660F771FD1
:103B7000881FBB1F261737074807AB07B0E809F0B7
:103B8000BB0B802DBF01FF2793585F4F3AF09E3F3C
:103B9000510578F00C94881E0C94121F5F3FE4F3DB
:103BA000983ED4F3869577956795B795F7959F5F7F
:103BB000C9F7880F911D9695879597F90895E1E0CB
:103BC000660F771F881FBB1F621773078407BA072A
:103BD00020F0621B730B840BBA0BEE1F88F7E09585
:103BE00008950E94F81D6894B1110C94121F089555
:103BF0000E94F71E88F09F5798F0B92F9927B75168
:103C0000B0F0E1F0660F771F881F991F1AF0BA9580
:103C1000C9F714C0B13091F00E94111FB1E00895AE
:103C20000C94111F672F782F8827B85F39F0B93FA0
:103C3000CCF3869577956795B395D9F73EF4909533
:103C40008095709561957F4F8F4F9F4F0895E894B1
:103C500009C097FB3EF490958095709561957F4FD4
:103C60008F4F9F4F9923A9F0F92F96E9BB27939582
:103C7000F695879577956795B795F111F8CFFAF492
:103C8000BB0F11F460FF1BC06F5F7F4F8F4F9F4FC3
:103C900016C0882311F096E911C0772321F09EE821
:103CA000872F762F05C0662371F096E8862F70E087
:103CB00060E02AF09A95660F771F881FDAF7880F61
:103CC0009695879597F90895990F0008550FAA0BB7
:103CD000E0E8FEEF16161706E807F907C0F012161F
:103CE0001306E407F50798F0621B730B840B950B22
:103CF00039F40A2661F0232B242B252B21F4089577
:103D00000A2609F4A140A6958FEF811D811D089513
:103D100097F99F6780E870E060E008959FEF80EC7E
:103D2000089500240A941616170618060906089521
:103D300000240A94121613061406050608950C941E
:103D40008E1E0E94F71ED8F3E894E0E0BB279F5731
:103D5000F0F02AED3FE049EC06C0EE0FBB0F661F06
:103D6000771F881F28F0B23A62077307840728F08C
:103D7000B25A620B730B840BE3959A9572F78038F5
:103D800030F49A95BB0F661F771F881FD2F79048B3
:103D90000C94941F092E0394000C11F4882352F004
:103DA000BB0F40F4BF2B11F460FF04C06F5F7F4F67
:103DB0008F4F9F4F0895EF93E0FF07C0A2EA2AEDCF
:103DC0003FE049EC5FEB0E94201D0E94CA1E0F904D
:103DD000039401FC9058ECE7F0E00C94A01F57FD11
:103DE0009058440F551F59F05F3F71F04795880F69
:103DF00097FB991F61F09F3F79F087950895121600
:103E000013061406551FF2CF4695F1DF08C01616AB
:103E100017061806991FF1CF86957105610508945C
:103E20000895E894BB2766277727CB0197F9089573
:103E30000E94641E08F48FEF08950E94301F0C94B6
:103E4000CA1E0E94911E38F00E94981E20F09523F1
:103E500011F00C94881E0C948E1E11240C94121FC9
:103E60000E94EF1E70F3959FC1F3950F50E0551F10
:103E7000629FF001729FBB27F00DB11D639FAA27BF
:103E8000F00DB11DAA1F649F6627B00DA11D661F0E
:103E9000829F2227B00DA11D621F739FB00DA11D2F
:103EA000621F839FA00D611D221F749F3327A00DE9
:103EB000611D231F849F600D211D822F762F6A2F85
:103EC00011249F5750409AF0F1F088234AF0EE0FEA
:103ED000FF1FBB1F661F771F881F91505040A9F717
:103EE0009E3F510580F00C94881E0C94121F5F3F7A
:103EF000E4F3983ED4F3869577956795B795F79553
:103F0000E7959F5FC1F7FE2B880F911D96958795CA
:103F100097F908959F930E94A11E0F9007FCEE5FF2
:103F20000C94DB1E9F3F31F0915020F487957795DC
:103F30006795B795880F911D9695879597F9089580
:103F40009F938F937F936F93FF93EF939B01AC01AC
:103F50000E941D1FEF91FF910E94B41F2F913F916E
:103F60004F915F910C941D1FDF93CF931F930F937D
:103F7000FF92EF92DF927B018C01689406C0DA2EEB
:103F8000EF010E94301FFE01E894A5912591359123
:103F900045915591A6F3EF010E94201DFE01970166
:103FA000A801DA9469F7DF90EF90FF900F911F91CD
:103FB000CF91DF910895CF93DF938230910510F474
:103FC00082E090E0E0917906F0917A0620E030E01E
:103FD000C0E0D0E0309711F1408151814817590776
:103FE000C0F04817590761F482819381209719F036
:103FF0009B838A832BC090937A068093790626C090
:104000002115310519F04217530718F49A01BE0122
:10401000DF01EF010280F381E02DDCCF21153105B6
:1040200009F1281B390B2430310590F412968D913B
:104030009C9113976115710521F0FB019383828395
:1040400004C090937A0680937906FD01329644C0AD
:10405000FD01E20FF31F81939193225031092D93BB
:104060003C933AC02091770630917806232B41F497
:104070002091050130910601309378062093770650
:1040800020910301309104012115310541F42DB730
:104090003EB74091070150910801241B350BE09178
:1040A0007706F0917806E217F307A0F42E1B3F0B7A
:1040B0002817390778F0AC014E5F5F4F241735079A
:1040C00048F04E0F5F1F5093780640937706819318
:1040D000919302C0E0E0F0E0CF01DF91CF9108952D
:1040E0000F931F93CF93DF93009709F48CC0FC01CB
:1040F0003297138212820091790610917A06011587
:10410000110581F420813181820F931F2091770660
:10411000309178062817390779F5F0937806E093FF
:10412000770671C0D80140E050E0AE17BF0750F4E9
:1041300012962D913C911397AD012115310509F18E
:10414000D901F3CF9D01DA0133832283608171812C
:10415000860F971F8217930769F4EC012881398134
:10416000260F371F2E5F3F4F318320838A819B812B
:1041700093838283452B29F4F0937A06E0937906A2
:1041800042C01396FC93EE931297ED014991599119
:104190009E01240F351FE217F30771F4808191818E
:1041A000840F951F029611969C938E938281938122
:1041B00013969C938E931297E0E0F0E0D80112964C
:1041C0008D919C911397009719F0F8018C01F6CF0F
:1041D0008D919C9198012E5F3F4F820F931F2091EC
:1041E0007706309178062817390769F4309729F453
:1041F00010927A061092790602C0138212821093EE
:10420000780600937706DF91CF911F910F91089563
:1042100081E090E0F8940C942C21FB01DC0102C0B9
:1042200005900D9241505040D8F70895F999FECF6E
:1042300092BD81BDF89A992780B50895262FF999E6
:10424000FECF1FBA92BD81BD20BD0FB6F894FA9A79
:10425000F99A0FBE0196089514E0C4E2D4E004C0B8
:10426000FE010E94D41C2196C532D107C9F7F894EB
:02427000FFCF7E
:1042720030FE0100007B0680000000000087054F31
:10428200049C047A048E04CE050000000002097228
:104292000800000000DD08220800000000DD082CF4
:1042A200070000000075080000000002097C0700FA
:1042B2000000009809000000008007000000001EB6
:1042C2000800000000290700000000910B00000018
:1042D200007F0700000000190B000000009E082C60
:1042E2000711100F0E0905033039333435363738CC
:0642F20031320D0A00004C
:107800000C94343C0C94513C0C94513C0C94513CE1
:107810000C94513C0C94513C0C94513C0C94513CB4
:107820000C94513C0C94513C0C94513C0C94513CA4
:107830000C94513C0C94513C0C94513C0C94513C94
:107840000C94513C0C94513C0C94513C0C94513C84
:107850000C94513C0C94513C0C94513C0C94513C74
:107860000C94513C0C94513C11241FBECFEFD8E036
:10787000DEBFCDBF11E0A0E0B1E0EAE8FFE702C063
:1078800005900D92A230B107D9F712E0A2E0B1E065
:1078900001C01D92AD30B107E1F70E942D3D0C945F
:1078A000C33F0C94003C982F95959595959595958B
:1078B000905D8F708A307CF0282F295A8091C0000B
:1078C00085FFFCCF9093C6008091C00085FFFCCF60
:1078D0002093C6000895282F205DF0CF982F809127
:1078E000C00085FFFCCF9093C6000895EF92FF92F1
:1078F0000F931F93EE24FF2487018091C00087FD22
:1079000017C00894E11CF11C011D111D81E2E8164D
:1079100081EAF80687E0080780E0180770F3E09135
:107920000401F091050109958091C00087FFE9CF1E
:107930008091C6001F910F91FF90EF9008950E94D3
:10794000763C982F8091C00085FFFCCF9093C600B5
:1079500091362CF490330CF09053892F089597555D
:10796000892F08951F930E949F3C182F0E949F3CCF
:107970001295107F810F1F9108951F93182F882350
:1079800021F00E94763C1150E1F71F9108951F935A
:10799000182F0E94763C803249F0809103018F5F5E
:1079A000809303018530C1F01F9108958091C0003C
:1079B00085FFFCCF84E18093C6008091C00085FFE5
:1079C000FCCF1093C6008091C00085FFFCCF80E102
:1079D0008093C6001F910895E0910401F091050184
:1079E00009951F9108950E94763C803241F0809164
:1079F00003018F5F80930301853081F008958091AA
:107A0000C00085FFFCCF84E18093C6008091C00058
:107A100085FFFCCF80E18093C6000895E0910401CA
:107A2000F09105010995089548EC50E08823A1F0F4
:107A30002D9A28EE33E0FA013197F1F721503040CA
:107A4000D1F72D9828EE33E0FA013197F1F7215064
:107A50003040D1F7815061F708953F924F925F9285
:107A60006F927F928F929F92AF92BF92CF92DF924E
:107A7000EF92FF920F931F93CF93DF93000082E06A
:107A80008093C00080E18093C4001092C50088E11B
:107A90008093C10086E08093C2005098589A259A3E
:107AA00081E00E94143D24E1F22E9EE1E92E85E959
:107AB000D82E0FE0C02E10E1B12EAA24A394B1E479
:107AC0009B2EA6E58A2EF2E57F2EE0E26E2E79E46B
:107AD000572E63E5462E50E5352E0E94763C8033C6
:107AE000B1F18133B9F1803409F46FC0813409F404
:107AF00076C0823409F485C0853409F488C08035A5
:107B000031F1823521F1813511F1853509F485C0D6
:107B1000863509F48DC0843609F496C0843709F49B
:107B200003C1853709F472C1863709F466C08091B4
:107B300003018F5F80930301853079F6E0910401A2
:107B4000F091050109950E94763C803351F60E9420
:107B5000F33CC3CF0E94763C803249F78091C0004D
:107B600085FFFCCFF092C6008091C00085FFFCCF5E
:107B70009092C6008091C00085FFFCCF8092C60025
:107B80008091C00085FFFCCF7092C6008091C0003C
:107B900085FFFCCF6092C6008091C00085FFFCCFBE
:107BA0005092C6008091C00085FFFCCF4092C60075
:107BB0008091C00085FFFCCF3092C6008091C0004C
:107BC00085FFFCCFB092C60088CF0E94763C8638F5
:107BD00008F4BDCF0E94763C0E94F33C7ECF0E9409
:107BE000763C803809F49CC0813809F40BC1823896
:107BF00009F430C1883909F48FC080E00E94C73C85
:107C00006CCF84E10E94BD3C0E94F33C66CF85E0CE
:107C10000E94BD3C0E94F33C60CF0E94763C809362
:107C200006010E94763C809307010E94F33C55CFE9
:107C30000E94763C803309F411C183E00E94BD3C70
:107C400080E00E94C73C49CF0E94763C80930902A5
:107C50000E94763C8093080280910C028E7F809374
:107C60000C020E94763C853409F409C18091080217
:107C700090910902892B89F000E010E00E94763C87
:107C8000F801E85FFE4F80830F5F1F4F809108026D
:107C9000909109020817190788F30E94763C8032F8
:107CA00009F045CF80910C0280FFF5C0609106017C
:107CB00070910701660F771F7093070160930601AB
:107CC000A0910802B09109021097C9F0E8E0F1E034
:107CD0009B01AD014E0F5F1FF999FECF32BD21BD53
:107CE000819180BDFA9AF99A2F5F3F4FE417F5070B
:107CF00099F76A0F7B1F70930701609306018091CB
:107D0000C00085FFFCCFF092C6008091C00085FFC7
:107D1000FCCFB092C600E1CE83E00E94C73CDDCE2E
:107D200082E00E94C73CD9CE0E94763C8093090233
:107D30000E94763C80930802809106019091070191
:107D4000880F991F90930701809306010E94763C4B
:107D5000853409F49AC080910C028E7F80930C02C6
:107D60000E94763C803209F0B8CE8091C00085FF39
:107D7000FCCFF092C600A0910802B09109021097C2
:107D8000C1F180910C02082F0170182F1695117007
:107D9000E0910601F0910701AF014F5F5F4FBA011B
:107DA00020E030E00023B1F4112339F49491809164
:107DB000C00085FFFCCF9093C6002F5F3F4FCB01E3
:107DC0000196FA012A173B0780F4BC014F5F5F4F11
:107DD000002351F3F999FECFF2BDE1BDF89A90B5B9
:107DE0008091C00085FFFCCFE6CF709307016093C0
:107DF00006018091C00085FDE5CE8091C00085FF21
:107E0000F8CFE0CE81E00E94C73C67CE0E94763C6E
:107E1000803209F08CCE8091C00085FFFCCFF092BB
:107E2000C6008091C00085FFFCCFE092C600809123
:107E3000C00085FFFCCFD092C6008091C00085FFB6
:107E4000FCCFC092C6008091C00085FFFCCFB092ED
:107E5000C60043CE80E10E94C73C3FCE0E94763CE4
:107E60000E94763C182F0E94763C112309F483C0AF
:107E7000113009F484C08FE00E94C73C2ECE80915F
:107E80000C02816080930C02F1CE80910C02816023
:107E900080930C0265CF809107018823880F880B9F
:107EA0008A2180930B028091060190910701880F2F
:107EB000991F90930701809306018091080280FF2B
:107EC00009C08091080290910902019690930902DD
:107ED00080930802F894F999FECF1127E0910601EA
:107EE000F0910701C8E0D1E0809108029091090269
:107EF000103091F40091570001700130D9F303E084
:107F000000935700E8950091570001700130D9F3B4
:107F100001E100935700E8950990199000915700EE
:107F200001700130D9F301E000935700E8951395F3
:107F3000103498F011270091570001700130D9F3E7
:107F400005E000935700E89500915700017001305B
:107F5000D9F301E100935700E8953296029709F0B2
:107F6000C7CF103011F00296E5CF11248091C000E8
:107F700085FFC5CEC8CE8EE10E94C73CAECD85E957
:0A7F80000E94C73CAACDF894FFCF81
:027F8A00800075
:040000030000780081
:00000001FF