:100000000C94AB030C94D3030C94D3030C94D30340
:100010000C94D3030C94D3030C94D3030C94D30308
:100020000C94D3030C94D3030C94D3030C94D303F8
:100030000C94D3030C94D3030C94D3030C94D303E8
:100040000C94110B0C94D3030C94FA090C94D4095E
:100050000C94D3030C94D3030C94D3030C94D303C8
:100060000C94D3030C94D30305A84CCDB2D44EB951
:100070003836A9020C50B9918688083CA6AAAA2A4B
:10008000BE000000803F01020408102040800102F1
:1000900004081020010204081020000000002500C0
:1000A00028002B00040404040404040402020202D5
:1000B000020203030303030300000000FFFFFFFF2E
:1000C0000F02B3040000000000009A020000FFFFCE
:1000D000FFFF0F020000B304000000003505000020
:1000E000FFFFFFFF0F0200000000B3040000456E99
:1000F000746572696E6720652053746174650000D1
:10010000000000FFFFFFFF34040000B905000000FD
:100110000000000000FFFFFFFF1D040000B9050004
:1001200000000000000000FFFFFFFF06040000B910
:10013000050000000000000000FFFFFFFFEF0300CC
:1001400000B9050000000000000000FFFFFFFFD81D
:10015000030000B90500000000D0070000FFFFFF0A
:10016000FFC40510051B0505050000B80B0000FFC6
:10017000FFFFFF1C02470500003C050000456E74B0
:100180006572696E672064205374617465000000B5
:100190000000FFFFFFFF6A02B30400000000000040
:1001A000EE020000FFFFFFFF5D0200000000B3044D
:1001B0000000DC050000FFFFFFFF50020000B30459
:1001C00000000000456E746572696E6720632053FD
:1001D000746174650000000000FFFFFFFFA50200CE
:1001E00000BF040000000000000000FFFFFFFF8EC2
:1001F00002000000008205000000000000FFFFFF79
:10020000FF77028205000077050000456E74657275
:10021000696E6720622053746174650000000000FD
:10022000FFFFFFFFBA0200000000A704000000006B
:100230000000FFFFFFFFAD02A70400000000000068
:10024000456E746572696E672061205374617465D0
:100250000000000000FFFFFFFF34040000B90500AC
:1002600000000000000000FFFFFFFF1D040000B9B8
:10027000050000000000000000FFFFFFFF06040073
:1002800000B9050000000000000000FFFFFFFFEFC5
:10029000030000B9050000000000000000FFFFFFA0
:1002A000FFD8030000B90500000000E8030000FFCC
:1002B000FFFFFF65044705000000000000B80B00C9
:1002C00000FFFFFFFFC702470500000000000045D8
:1002D0006E746572696E67203920537461746500AD
:1002E00000000000FA000000C405AE050000B905DA
:1002F0000000FA000000FFFFFFFFC4050000B90581
:1003000000000000FA000000FFFFFFFF7204260556
:100310003C0526050000BE0A0000FFFFFFFF0C039E
:10032000310598052605D704540B0000FFFFFFFF99
:100330000403310598052605D704EA0B0000FFFFEA
:10034000FFFFFC02310598052605D704800C00004C
:10035000FFFFFFFFF402310598052605D704160DAF
:100360000000FFFFFFFFEC02310598052605D704CA
:10037000AC0D0000FFFFFFFFE402310598052605E4
:10038000D704420E0000FFFFFFFFDC023105980595
:100390002605D704D80E0000FFFFFFFFD402310569
:1003A00098052605D704456E746572696E67203915
:1003B0002053746174650000000000FFFFFFFF5BC5
:1003C000033105000000000000DC050000FFFFFF16
:1003D000FF53030000000047050000CA080000FFAB
:1003E000FFFFFF46033105000000000000A60E00DD
:1003F00000FFFFFFFF3E030000000047050000BEB6
:100400000A0000FFFFFFFF3103310500000000007C
:10041000009A100000FFFFFFFF29030000000047C3
:10042000050000B80B0000FFFFFFFF1C03310500B3
:10043000000000000094110000FFFFFFFF14030004
:1004400000000047050000456E746572696E672004
:10045000382053746174650000000000FFFFFFFF47
:100460008F03000047050000000000000000FFFFB0
:10047000FFFF82030000000047050000D0070000D6
:10048000FFFFFFFF75030000470500000000D007D5
:100490000000FFFFFFFF68030000000047050000A9
:1004A000456E746572696E67203720537461746598
:1004B0000000000000FFFFFFFFBE03470500000033
:1004C000000000F4010000FFFFFFFFB1034705003B
:1004D0000000000000E8030000FFFFFFFFA4034747
:1004E00005000000000000CA080000E80300009CAE
:1004F00003E3040000CB040000A00F0000E80300A9
:10050000009C03E3040000CB040000456E74657298
:10051000696E672036205374617465000000000026
:100520008813000083040000000026050000E80393
:100530000000B80B0000830431050000000000003B
:10054000A00F0000B80B000072043105000000008D
:10055000000088130000B80B0000720400000000C7
:1005600026050000456E746572696E67203520535C
:1005700074617465000000000088130000340400FA
:1005800000B9050000000000000000881300001DF5
:10059000040000B9050000000000000000881300FE
:1005A0000006040000B905000000000000000088FB
:1005B000130000EF030000B9050000000000000078
:1005C0000088130000D8030000B90500000000E80F
:1005D000030000FFFFFFFFCB030000EF040000FA61
:1005E00004456E746572696E6720342053746174BB
:1005F000650000000000FFFFFFFF650453056B0569
:100600005F050000D0070000FFFFFFFF580447050B
:10061000000000000000D0070000FFFFFFFF4B04B8
:100620004705000000000000456E746572696E6742
:1006300020332053746174650000000000B80B0083
:100640000083043105000026050000B80B0000708F
:1006500017000072043105000026050000456E7485
:100660006572696E67203220537461746500000002
:100670000000FFFFFFFFC405000000008D058D0591
:10068000F4010000E8030000C40500000000CB04F2
:100690000000CA080000E8030000C40500000000D4
:1006A000CB040000A00F0000E8030000C405000018
:1006B0000000CB040000456E746572696E672031DE
:1006C0002053746174650000000000FFFFFFFF907D
:1006D00004000000000000B905456E746572696E83
:1006E000672055702053746174650000000000FF9E
:1006F000FFFFFFC405000000000000B905456E744F
:100700006572696E67204F6E2053746174650000D6
:10071000000000FFFFFFFFC405000000000000A371
:1007200005456E746572696E67204F666620537466
:100730006174650000000000240027002A0000000A
:100740000008000201000003040700000000000090
:1007500000009B0B721411241FBECFEFD8E0DEBF48
:10076000CDBF11E0A0E0B1E0EEECFDE302C00590EA
:100770000D92A237B107D9F726E0A2E7B1E001C098
:100780001D92A932B207E1F713E0CAEAD3E004C030
:100790002197FE010E94B71AC93AD107C9F70E94F2
:1007A00082140C94DA1E0C940000CF92DF92EF9228
:1007B000FF920F931F93CF93DF936C017A018B010C
:1007C000C0E0D0E0CE15DF0589F0D8016D918D0134
:1007D000D601ED91FC910190F081E02DC6010995C3
:1007E000892B11F47E0102C02196ECCFC701DF9165
:1007F000CF911F910F91FF90EF90DF90CF900895D0
:100800000F931F93CF93DF938C01C0E0D0E0F801EA
:10081000EC0FFD1F6491662371F0E0917201F0917D
:1008200073010190F081E02D82E791E00995892B19
:1008300011F02196ECCF42E050E06FE671E082E7E4
:1008400091E00E94D5038C0F9D1FDF91CF911F91E6
:100850000F9108958F929F92AF92BF92CF92DF92A5
:10086000EF92FF921F93CF93DF93EC01162F690154
:100870007A0120E030E0A901C701B6010E94DC1C2A
:10088000181644F58090CB059090CC05A090CD052E
:10089000B090CE0520E030E0A901C501B4010E946E
:1008A000DC1C18160CF042C06091D2057091D30583
:1008B0008091D4059091D5050E94EB1BA501940170
:1008C0000E94431B20E030E040E05FE30E94DC1C1C
:1008D000181664F1D093C905C093C8051093CA05D2
:1008E000C092CB05D092CC05E092CD05F092CE051A
:1008F0001092D2051092D3051092D4051092D5050E
:100900000E94E40A6093D6057093D7058093D805BA
:100910009093D905DF91CF911F91FF90EF90DF90D9
:10092000CF90BF90AF909F908F9008958091C80511
:100930009091C9059093D0058093CF058091CA0509
:100940008093D1058091D6059091D705A091D805C7
:10095000B091D9058093DA059093DB05A093DC056F
:10096000B093DD05B7CF2F923F924F925F926F9277
:100970007F928F929F92AF92BF92CF92DF92EF922F
:10098000FF920F931F93CF93DF93CDB7DEB7679797
:100990000FB6F894DEBF0FBECDBF382E4F8B2801A7
:1009A00039018701BC8AAB8A9E8A8D8A7B01212C02
:1009B0008F89281609F491C042E150E0B701CE01B9
:1009C00001960E94D11E89819A81AB81BC81481613
:1009D00059066A067B0608F47BC053014201881A57
:1009E000990AAA0ABB0A8D819E81AF81B8858816B3
:1009F0009906AA06BB0608F06BC089859A85009700
:100A000061F0DC01ED91FC910190F081E02D232D4E
:100A1000B501A40109954B015C018114B8E29B0664
:100A2000BBE6AB06BEEEBB0608F052C08B859C85CC
:100A3000009781F0DC01ED91FC910190F081E02DB7
:100A4000B501A4010995F80120813181820F931F1E
:100A5000918380838D859E85009789F0DC01ED91DF
:100A6000FC910190F081E02DB501A4010995EB897D
:100A7000FC8920813181820F931F918380838F8530
:100A80009889009781F0DC01ED91FC910190F08153
:100A9000E02DB501A4010995F60120813181820F75
:100AA000931F9183808389899A89009789F0DC015B
:100AB000ED91FC910190F081E02DB501A401099523
:100AC000ED89FE8920813181820F931F918380837C
:100AD0002394F2E1EF0EF11C6BCF67960FB6F894FA
:100AE000DEBF0FBECDBFDF91CF911F910F91FF9061
:100AF000EF90DF90CF90BF90AF909F908F907F90BE
:100B00006F905F904F903F902F9008950E94CC1E61
:100B100082E791E00E94B40521E0892B09F420E0EE
:100B2000822F0895FC01918D828D981761F0828D3E
:100B3000DF01A80FB11D5D968C91928D9F5F9F7311
:100B4000928F90E008958FEF9FEF0895FC01918DB3
:100B5000828D981731F0828DE80FF11D858D90E020
:100B600008958FEF9FEF0895FC01918D228D892FBD
:100B700090E0805C9F4F821B91098F7399270895A5
:100B8000FC01848DDF01A80FB11DA35ABF4F2C912A
:100B9000848D90E001968F739927848FA689B789F9
:100BA0002C93A089B1898C9180648C93938D848DD2
:100BB000981306C00288F389E02D80818F7D8083A1
:100BC0000895EF92FF920F931F93CF93DF93EC0161
:100BD00081E0888F9B8D8C8D981305C0E889F989F9
:100BE000808185FD24C0F62E0B8D10E00F5F1F4F16
:100BF0000F731127E02E8C8DE8120CC00FB607FC86
:100C0000FACFE889F989808185FFF5CFCE010E946E
:100C1000C005F1CF8B8DFE01E80FF11DE35AFF4FA8
:100C2000F0820B8FEA89FB898081806207C0EE89A0
:100C3000FF896083E889F98980818064808381E00D
:100C400090E0DF91CF911F910F91FF90EF90089569
:100C5000CF93DF93EC01888D8823C9F0EA89FB8963
:100C6000808185FD05C0A889B9898C9186FD0FC05A
:100C70000FB607FCF5CF808185FFF2CFA889B9892F
:100C80008C9185FFEDCFCE010E94C005E7CFDF91AB
:100C9000CF91089580E090E0892B29F00E9488058B
:100CA00081110C9400000895CB01BA0108958F9230
:100CB0009F92AF92BF92CF92DF92EF92FF92CF932B
:100CC000DF935C01FC0190858681D281C3819923E9
:100CD00029F0682F70E06D1B710904C06C2F70E063
:100CE000681B7109072E000C880B990B0E94ED1BE5
:100CF0006B017C01F50161857285838594850E9475
:100D0000EB1B4B015C018C2F90E001968D1B910930
:100D1000BC01990F880B990B0E94ED1B9B01AC0144
:100D2000C701B6010E94431B9B01AC01C501B40180
:100D30000E94E11C0E94BC1BDF91CF91FF90EF90BD
:100D4000DF90CF90BF90AF909F908F900895FC015F
:100D50008681089508952F923F924F925F926F92ED
:100D60007F928F929F92AF92BF92CF92DF92EF923B
:100D7000FF920F931F93CF93DF9300D000D000D04A
:100D8000CDB7DEB71C018B01FC01E680F780B7010F
:100D90000F2C000C880B990B4D835E830E94ED1B7A
:100DA00069837A838B839C83F101608571856E19D9
:100DB0007F09072E000C880B990B0E94ED1B2B015D
:100DC0003C01F1018285C280D380E480F5804D81B1
:100DD0005E818823D1F046015701880C991CAA1C1A
:100DE000BB1CBA01C801A50194010E94761AC6165F
:100DF000D706E806F90690F4A5019401261B370BE7
:100E0000480B590BCA01B90109C0BA01C801C6167D
:100E1000D706E806F90610F4C701B6010E94EB1BDD
:100E20006B017C01F10162817381848195810E9453
:100E3000EB1B9B01AC01C701B6010E94431B9B0148
:100E4000AC01C301B2010E94E11C9B01AC016981AC
:100E50007A818B819C810E94CD1A0E94B51BCB01A7
:100E600026960FB6F894DEBF0FBECDBFDF91CF91AF
:100E70001F910F91FF90EF90DF90CF90BF90AF90B8
:100E80009F908F907F906F905F904F903F902F90AA
:100E90000895FC018085918508958F929F92AF926D
:100EA000BF92CF92DF92EF92FF92CF93DF935C01DC
:100EB000FC0190858781D481C581992329F0682F11
:100EC00070E06D1B710904C06C2F70E0681B710924
:100ED000072E000C880B990B0E94ED1B6B017C0107
:100EE000F50161857285838594850E94EB1B4B011A
:100EF0005C018C2F90E001968D1B9109BC01990F2C
:100F0000880B990B0E94ED1B9B01AC01C701B60138
:100F10000E94431B9B01AC01C501B4010E94E11C6E
:100F20000E94BC1BDF91CF91FF90EF90DF90CF909C
:100F3000BF90AF909F908F900895DC01E62F372FE0
:100F4000822F6AE00E94561A16968C93169717966F
:100F50009C93179712962C911297821790F01396E4
:100F60002C911397281768F014968C911497981762
:100F700040F015968C91891720F0BA018E2F932F8F
:100F800008956FEF7FEF8FEF9FEF08958F929F92FD
:100F9000AF92BF92CF92DF92EF92FF92CF93DF9307
:100FA000EC010E949D074B015C018FEF88169806AB
:100FB000A806B806E9F0CD84DE84EF84F888898538
:100FC0009A85AB85BC85C80ED91EEA1EFB1EE8813A
:100FD000F9810280F381E02DCE010995C818D90866
:100FE000EA08FB0846015701861A970AA80AB90AB7
:100FF000C501B401DF91CF91FF90EF90DF90CF90CA
:10100000BF90AF909F908F900895CF92DF92EF9214
:10101000FF92CF93DF93EC010E949D076B017C014F
:101020008FEFC816D806E806F80659F0E881F9816E
:101030000280F381E02DCE010995C61AD70AE80A8D
:10104000F90AC701B601DF91CF91FF90EF90DF90D1
:10105000CF9008958F929F92AF92BF92CF92DF92DE
:10106000EF92FF921F93CF93DF93EC010E949D07B5
:101070006F3F2FEF72078207920721F46FEF7FEF28
:10108000CB0172C08F849888A988BA88A501940181
:101090000E94761A6B017C018E85882341F0D50170
:1010A000C4018C199D09AE09BF096C017D01288519
:1010B00039854A855B85C701B6010E94761AB22E32
:1010C0006D8570E0822F90E02C85821B910901963E
:1010D000860F971F0E94621A182FE881F9810280FB
:1010E000F381E02DCE0109956D850E94561AB11647
:1010F00028F0911718F2B91630F4C0CFB91618F4C9
:10110000911708F4BBCF8F849888A988BA88C80C37
:10111000D91CEA1CFB1C288539854A855B85A92FCB
:10112000B0E00E94981AA7019601261B370B480BC6
:10113000590BCA01B901A50194010E94761ACB8806
:10114000DC88ED88FE886C157D058E059F0560F0B6
:10115000CC0CDD1CEE1CFF1CA7019601261B370BD7
:10116000480B590BCA01B901DF91CF911F91FF9034
:10117000EF90DF90CF90BF90AF909F908F900895A9
:101180006F927F928F929F92AF92BF92CF92DF9297
:10119000EF92FF920F931F93CF93DF9300D000D075
:1011A000CDB7DEB73C01E62F372FDC011A968C91C4
:1011B0001A971296CD90DD90ED90FC9015978823AC
:1011C000D9F046015701880C991CAA1CBB1CBA0116
:1011D0008E2F932FA50194010E94761AC616D7066A
:1011E000E806F90698F4A5019401261B370B480B75
:1011F000590BCA01B9010AC0BA018E2F932FC61626
:10120000D706E806F90610F4C701B601D3011B960C
:101210002C911B97213029F518960D911C91199747
:101220000E94EB1B6B017C01F3016281738184815D
:1012300095810E94EB1B9B01AC01C701B6010E9486
:10124000431B2BED3FE049EC5FE30E94E11C0E9451
:101250003E1B9B01AC01D30116968D919C91179773
:1012600025C02230A1F5F301068117810E94EB1BF6
:101270006B017C01D30112966D917D918D919C91B2
:1012800015970E94EB1B9B01AC01C701B6010E94A0
:10129000431B2BED3FE049EC5FE30E94E11C0E9401
:1012A0004E1D9B01AC01F30180859185801B910B44
:1012B000BC01990F880B990B29833A834B835C837C
:1012C0000E94ED1B29813A814B815C8144C023300F
:1012D00009F057C0D30116960D911C9117970E94E3
:1012E000EB1B2BED3FE049E450E40E94E11C6B0155
:1012F0007C01F30162817381848195810E94EB1BE3
:101300009B01AC01C701B6010E94431B0E943E1B1A
:101310006B017C01D30118968D919C911997F8016E
:10132000E81BF90BCF01F7FD019695958795BC0158
:10133000990F880B990B0E94ED1B4B015C0120E07B
:1013400030E040E85FE3C701B6010E94CC1A9B0180
:10135000AC01C501B4010E94E11C6B017C01B80124
:10136000110F880B990B0E94ED1B9B01AC01C7016B
:10137000B6010E94CD1A0E94B51B262F972F822FEF
:1013800000C00F900F900F900F90DF91CF911F91A1
:101390000F91FF90EF90DF90CF90BF90AF909F9014
:1013A0008F907F906F9008951F920F920FB60F92BB
:1013B00011242F933F934F935F936F937F938F935A
:1013C0009F93AF93BF93EF93FF9382E791E00E94C7
:1013D000C005FF91EF91BF91AF919F918F917F9148
:1013E0006F915F914F913F912F910F900FBE0F9092
:1013F0001F9018951F920F920FB60F9211242F93E2
:101400008F939F93EF93FF93E0918201F09183017B
:101410008081E0918801F091890182FD12C0908164
:1014200080918B018F5F8F7320918C01821751F017
:10143000E0918B01F0E0EE58FE4F958F80938B0189
:1014400001C08081FF91EF919F918F912F910F901B
:101450000FBE0F901F90189590E0FC01E25CF84FD2
:101460003491FC01EA57FF4F2491FC01EC55FF4FEA
:10147000E491EE2309F43BC0332339F1333091F08A
:1014800038F43130A9F0323001F584B58F7D12C0C7
:10149000373091F03830A1F03430B9F480918000C9
:1014A0008F7D03C0809180008F77809380000DC076
:1014B00084B58F7784BD09C08091B0008F7703C059
:1014C0008091B0008F7D8093B000F0E0EE0FFF1FA1
:1014D000E656FF4FA591B4918FB7F894EC91611146
:1014E00003C020952E2301C02E2B2C938FBF08956F
:1014F000262FFC018281882311F061E001C060E0A9
:10150000822F0C942C0ACF93DF9390E0FC01EA57D2
:10151000FF4F2491FC01EC55FF4F8491882361F12A
:1015200090E0880F991FFC01EC5CF84FC591D491B5
:10153000FC01E656FF4FA591B491611109C09FB718
:10154000F8948881209582238883EC912E230BC008
:10155000623061F49FB7F8943881822F809583239D
:101560008883EC912E2B2C939FBF06C08FB7F894E5
:10157000E8812E2B28838FBFDF91CF9108953FB74D
:10158000F8948091210690912206A0912306B091B3
:10159000240626B5A89B05C02F3F19F00196A11D72
:1015A000B11D3FBFBA2FA92F982F8827820F911DF9
:1015B000A11DB11DBC01CD0143E0660F771F881F3F
:1015C000991F4A95D1F708952FB7F89460911D0699
:1015D00070911E0680911F06909120062FBF0895DE
:1015E0000F931F93CF938C01C62F0E94E40AF8013A
:1015F00022813381448155810E94761AF801068147
:10160000178120853185061717072807390710F03D
:1016100061E001C060E08C2FCF911F910F910C947D
:101620002C0A1F920F920FB60F9211242F933F9303
:101630008F939F93AF93BF9380911D0690911E0649
:10164000A0911F06B091200630911C0626E0230FC2
:101650002D3720F40296A11DB11D05C029E8230FE6
:101660000396A11DB11D20931C0680931D06909327
:101670001E06A0931F06B09320068091210690912C
:101680002206A0912306B09124060196A11DB11D4A
:101690008093210690932206A0932306B0932406FC
:1016A000BF91AF919F918F913F912F910F900FBE5E
:1016B0000F901F9018958F929F92AF92BF92CF92EA
:1016C000DF92EF92FF92CF93C82F61E00E942C0A25
:1016D0000E94BF0A4B015C0184E6C82ED12CE12C8C
:1016E000F12C0E94BF0ADC01CB0188199909AA09D3
:1016F000BB09883E9340A105B10558F021E0C21A0C
:10170000D108E108F10888EE880E83E0981EA11C3C
:10171000B11CC114D104E104F10419F760E08C2F6D
:10172000CF91FF90EF90DF90CF90BF90AF909F90C0
:101730008F900C942C0A2F923F924F925F926F924F
:101740007F928F929F92AF92BF92CF92DF92EF9251
:10175000FF920F931F93CF93DF9310927501109216
:10176000740188EE93E0A0E0B0E08093760190935E
:101770007701A0937801B09379018CE091E0909388
:1017800073018093720185EC90E090937F018093C8
:101790007E0184EC90E0909381018093800180EC45
:1017A00090E0909383018093820181EC90E090938C
:1017B00085018093840182EC90E09093870180936F
:1017C000860186EC90E090938901809388011092C5
:1017D0008B0110928C0110928D0110928E0110924B
:1017E000F9051092FF051092060610920706109256
:1017F00008061092090683E08093050610920206FF
:1018000081E08093030692E0909304068093F805AC
:1018100080EF90E09093FD058093FC050E949F1D52
:101820009093010680930006009761F020EFFC0181
:1018300011922A95E9F78CE390E09093FB05809351
:10184000FA0508C01092FD051092FC051092FB05E8
:101850001092FA0586E08093FE058091F9058823B1
:1018600041F061E086E00E94830A60E086E00E9429
:101870002C0AEAEAF0E0E491F0E0EE0FFF1FE656F2
:10188000FF4F8591949190930B0680930A06ECE8A4
:10189000F0E0E491E0930C062EE531E03093F6059C
:1018A0002093F50581E08093F7053093F3052093AD
:1018B000F2051092F40522E531E03093E90520931A
:1018C000E80594EF892E99249394A12CB12C809251
:1018D000EA059092EB05A092EC05B092ED054AEF77
:1018E000442E512C612C712C4092EE055092EF0544
:1018F0006092F0057092F1053093DF052093DE05CC
:1019000048EC50E060E070E04093E0055093E10562
:101910006093E2057093E30554E6C52ED12CE12CCB
:10192000F12CC092E405D092E505E092E605F09234
:10193000E70528EF35E03093C7052093C6052CE472
:1019400031E03093C5052093C40526E431E030939F
:10195000BA052093B9051092C0051092BF05AFEFEC
:10196000B0E0B093C205A093C1051092BB051092E0
:10197000BC051092BD051092BE051092C3053093B0
:10198000AF052093AE051092B5051092B405C8E7D7
:10199000D0E0D093B705C093B6051092B005109271
:1019A000B1051092B2051092B3051092B8053093AC
:1019B000A4052093A3051092AA051092A9051092E0
:1019C000AC051092AB051092A5051092A6051092D9
:1019D000A7051092A8051092AD05309399052093A4
:1019E000980501E01FEF10939F0500939E0510934B
:1019F000A1050093A00510929A0510929B051092E4
:101A00009C0510929D051092A20530938E0520939F
:101A10008D0510929405109293056AE0E62EF12C44
:101A2000F0929605E092950510928F051092900520
:101A300010929105109292051092970510928905C7
:101A400010928805D0938B05C0938A054CE251E033
:101A500060E070E0409384055093850560938605AF
:101A60007093870510928C05E0E4F1E0F093830514
:101A7000E093820510927E0510927D05B09380055B
:101A8000A0937F054093790550937A0560937B0579
:101A900070937C0510928105F0937805E0937705AB
:101AA00010927205109271051092740510927305D0
:101AB0004EEE52E060E070E040936D0550936E058D
:101AC00060936F0570937005109275052AE331E0FD
:101AD00030936C0520936B05809376051092660514
:101AE0001092650592E3C92ED12CD0926805C09260
:101AF0006705409361055093620560936305709399
:101B00006405109269053093600520935F0580930A
:101B10006A0510925A0510925905D0935C05C0933E
:101B20005B05409355055093560560935705709398
:101B3000580510925D05309354052093530580930A
:101B40005E0510924E0510924D05B0935005A0937E
:101B50004F054093490550934A0560934B05709398
:101B60004C0510925105309348052093470580930A
:101B700052051092430510924205109345050093BB
:101B8000440598EE492E93E0592E612C712C409219
:101B90003E0550923F0560924005709241051092BB
:101BA0004605F0933D05E0933C05109238051092F0
:101BB0003705D0933A05C0933905409233055092CA
:101BC0003405609235057092360510923B05F0930E
:101BD0003205E093310510922D0510922C05B0933B
:101BE0002F05A0932E05409228055092290560925A
:101BF0002A0570922B0510923005F0932705E0938B
:101C000026051092220510922105109324050093B9
:101C1000230598EB492E9BE0592E612C712C4092A4
:101C20001D0550921E0560921F05709220051092AE
:101C30002505F0931C05E0931B05109217051092E3
:101C40001605D0931905C0931805409212055092BD
:101C50001305609214057092150510921A05F09301
:101C60001105E093100510920C0510920B05B0932E
:101C70000E05A0930D05409207055092080560924D
:101C8000090570920A0510920F05F0930605E0937E
:101C900005051092010510920005F0920305E092EF
:101CA000020590EAC92E9FE0D92EE12CF12CC092BA
:101CB000FC04D092FD04E092FE04F092FF04109226
:101CC0000405F093FB04E093FA041092F6041092DA
:101CD000F50498ECE92EF12CF092F804E092F70468
:101CE00090EA492E9FE0592E612C712C4092F1040C
:101CF0005092F2046092F3047092F4041092F9048A
:101D0000F093F004E093EF041092EA041092E904D7
:101D10001093EC040093EB04EAEFCE2ED12CE12CCF
:101D2000F12CC092E504D092E604E092E704F09230
:101D3000E8048093ED043093E4042093E30413E07B
:101D40001093EE041092DE041092DD04E8E2F0E05D
:101D5000F093E004E093DF04C092D904D092DA0457
:101D6000E092DB04F092DC048093E1043093D80429
:101D70002093D7041093E2041092D2041092D1045D
:101D8000B093D404A093D304C092CD04D092CE04D7
:101D9000E092CF04F092D0048093D5043093CC0429
:101DA0002093CB041093D604E4E1F0E0F093C60452
:101DB000E093C504D093C804C093C7048092C104C3
:101DC0009092C204A092C304B092C4048093C90448
:101DD0003093C0042093BF041093CA041092BA0435
:101DE0001092B904B093BC04A093BB04F8EE4F2E3C
:101DF000F3E05F2E612C712C4092B5045092B60432
:101E00006092B7047092B8048093BD043093B40418
:101E10002093B3041093BE041092AE041092AD044C
:101E2000B093B004A093AF04A0EDCA2EA7E0DA2EC1
:101E3000E12CF12CC092A904D092AA04E092AB0448
:101E4000F092AC048093B1043093A8042093A704CB
:101E50001093B2041092920495E090939304109220
:101E6000940439E030939504B2E36B2EB1E07B2EFD
:101E70007092910460929004CCE38C2E912CA12C52
:101E8000B12C8092980490929904A0929A04B092F6
:101E90009B0410939C04D6E0D0939D0410929E0462
:101EA00008E6802E99249394A12CB12C80929F0453
:101EB0009092A004A092A104B092A2042AE5822EDE
:101EC000912CA12CB12C8092A3049092A404A092F6
:101ED000A504B092A60410928504909386041092F3
:101EE000870430938804E4E22E2EE1E03E2E309207
:101EF00084042092830480938B04C0928C04D0923B
:101F00008D04E0928E04F0928F04109274049093EA
:101F10007504109276043093770480937A04C0920B
:101F20007B04D0927C04E0927D04F0927E04E4E68F
:101F3000F1E0F0937304E0937204F8EE8F2EF3E077
:101F40009F2EA12CB12C80927F0490928004A092AD
:101F50008104B0928204109267049093680424E094
:101F60002093690420936A043092660420926504E9
:101F700080936D04C0926E04D0926F04E09270045E
:101F8000F092710410925A0490935B0410925C04D6
:101F900020935D0410926004C0926104D0926204A8
:101FA000E0926304F0926404ACE1B1E0B0935904B0
:101FB000A093580410924D0490934E0420934F0424
:101FC0003093500480935304C0925404D09255042B
:101FD000E0925604F0925704B0934C04A0934B0443
:101FE00010923604909337049093380490933904F8
:101FF0007092350460923404C4E64C2E512C612C4E
:10200000712C40923C0450923D0460923E047092C8
:102010003F048093400407E000934104809342040E
:10202000ECEB8E2EE2E09E2EA12CB12C809243048C
:1020300090924404A0924504B0924604F2E38F2E9D
:10204000912CA12CB12C8092470490924804A0922C
:102050004904B0924A0410921F04909320041093F4
:10206000210410932204C2E36C2EC1E07C2E7092F6
:102070001E0460921D04E4E64E2E512C612C712C3E
:1020800040922504509226046092270470922804FE
:1020900080932904EDE0E0932A0480932B04F4E17B
:1020A0004F2EF5E05F2E612C712C40922C04509243
:1020B0002D0460922E0470922F048092300490922E
:1020C0003104A0923204B092330410920804909329
:1020D000090420930A0420930B04C2E36C2EC1E090
:1020E0007C2E7092070460920604E4E64E2E512C7A
:1020F000612C712C40920E0450920F0460921004D7
:102100007092110480931204E3E1E093130480932E
:102110001404FCE64F2EF7E05F2E612C712C4092E8
:10212000150450921604609217047092180480925D
:10213000190490921A04A0921B04B0921C041092ED
:10214000F1039093F2038093F3038093F403C2E3CB
:102150006C2EC1E07C2E7092F0036092EF03E4E6F7
:102160004E2E512C612C712C4092F7035092F803A3
:102170006092F9037092FA038093FB03EBE0E09323
:10218000FC038093FD03FCE44F2EF4E05F2E612CF2
:10219000712C4092FE035092FF03609200047092F3
:1021A00001048092020490920304A0920404B0926D
:1021B00005041092DA039093DB030093DC03009391
:1021C000DD03C2E36C2EC1E07C2E7092D9036092D5
:1021D000D803E4E64E2E512C612C712C4092E00382
:1021E0005092E1036092E2037092E3038093E40370
:1021F000E1E1E093E5038093E603F4EA4F2EF6E095
:102200005F2E612C712C4092E7035092E80360929C
:10221000E9037092EA038092EB039092EC03A092A0
:10222000ED03B092EE031092CD039093CE03109283
:10223000CF033093D0033092CC032092CB03809312
:10224000D303C0EA6C2ECFE07C2E812C912C6092BF
:10225000D4037092D5038092D6039092D703109244
:10226000C0038093C1031092C2033093C3038093D1
:10227000C6034093C7035093C8036093C903709388
:10228000CA03B093BF03A093BE03C2E0C093B303DD
:102290001093B4031092B5033093B6031092B903B0
:1022A0004093BA035093BB036093BC037093BD0388
:1022B000B093B203A093B1032093A6039093A70316
:1022C0001092A8033093A9038093AC034093AD030D
:1022D0005093AE036093AF037093B003B093A50324
:1022E000A093A403ECE2F1E0F0939D03E0939C0340
:1022F00080939E0320939F031093A003D093A10388
:10230000109291039093920310929303C0939403BD
:102310003092900320928F03809397030F2EF4EC5A
:102320008F2EF9E09F2EA12CB12CF02D80929803D6
:1023300090929903A0929A03B0929B031092840307
:102340009093850300938603309387033092830331
:102350002092820310928A0380928B0390928C03C6
:10236000A0928D03B0928E0310927703909378031E
:10237000C093790330937A0380937D030F2EF8E89E
:102380008F2EF3E19F2EA12CB12CF02D80927E0395
:1023900090927F03A0928003B0928103B093760362
:1023A000A093750310926A0390936B0310926C03D1
:1023B00000936D03109270038092710390927203E8
:1023C000A0927303B0927403B0936903A09368035F
:1023D00010925D03C0935E0320935F03209360031C
:1023E00030925C0320925B03809363030F2EF8EE20
:1023F0008F2EF3E09F2EA12CB12CF02D8092640340
:1024000090926503A0926603B0926703F093540321
:10241000E0935303C0935503C0935603209357038F
:10242000209358031092480310934903D0934A0312
:10243000D0934B03309247032092460380934E0380
:1024400080924F0390925003A0925103B092520396
:10245000F0933F03E0933E03109340031093410336
:10246000D0934203D093430310923303C0933403B9
:102470006894BB24B3F8B0923503B092360330921F
:10248000320320923103809339030F2EF8EE4F2E42
:10249000F3E05F2E612C712CF02D40923A035092A4
:1024A0003B0360923C0370923D03F0932A03E09358
:1024B0002903C0932B03C0932C03B0922D03B09239
:1024C0002E0310921E0320931F03C0932003C0937A
:1024D000210330921D0320921C0380932403409219
:1024E0002503509226036092270370922803F093ED
:1024F0001503E09314032093160320931703C0934E
:102500001803C0931903F0930D03E0930C03C093D9
:102510000E03C0930F032093100320931103F09335
:102520000503E09304031093060310930703D0936D
:102530000803D0930903F093FD02E093FC0290930B
:10254000FE029093FF029093000390930103F09397
:10255000F502E093F402C093F602C093F702B09242
:10256000F802B092F902F093ED02E093EC0290933E
:10257000EE029093EF02C093F002C093F102F09349
:10258000E502E093E4022093E6022093E702209321
:10259000E8022093E902F093DD02E093DC0220934D
:1025A000DE022093DF020093E0020093E102F09349
:1025B000D502E093D4021093D6021093D702109361
:1025C000D8021093D9021093C9029093CA021092B4
:1025D000CB023093CC023092C8022092C7021092F4
:1025E000CF02C092D002D092D102E092D202F092F9
:1025F000D3021092BC029093BD021092BE0230939F
:10260000BF023092BB022092BA028093C202C092F3
:10261000C302D092C402E092C502F092C6021092A8
:10262000AF029093B0021092B1023093B202809345
:10263000B502C092B602D092B702E092B802F09210
:10264000B902B093AE02A093AD02F093A602E0935C
:10265000A5021092A7021092A8021092A90230932C
:10266000AA0280939002909391021092920230936A
:102670009302E2E36E2EE1E07E2E70928F02609272
:102680008E02F6E98F2E912CA12CB12C809296020D
:1026900090929702A0929802B0929902C0939A02E7
:1026A00010939B0210929C02E2EC4E2E5524539400
:1026B000612C712C40929D0250929E0260929F026A
:1026C0007092A0028092A1029092A202A092A30214
:1026D000B092A4028093790210937A0210927B0246
:1026E00030937C02F2E38F2EF1E09F2E90927802DD
:1026F00080927702EAEF4E2E512C612C712C409281
:102700007F02509280026092810270928202109346
:1027100083022093840210928502F8EE6F2EF3E07C
:102720007F2E812C912C609286027092870280927B
:10273000880290928902E7E78E2E99249394A12C27
:10274000B12C80928A0290928B02A0928C02B0925D
:102750008D0210926C0280936D0210926E02309383
:102760006F028093720240937302509374026093DD
:10277000750270937602B0936B02A0936A02C093C5
:102780005F02109360021092610230936202109215
:1027900065024093660250936702609368027093EB
:1027A0006902B0935E02A0935D022093520290935F
:1027B0005302109254023093550280935802409372
:1027C000590250935A0260935B0270935C02B0937B
:1027D0005102A0935002109245029093460210922B
:1027E0004702C093480230924402209243028093F1
:1027F0004B0240934C0250934D0260934E027093F3
:102800004F02109238029093390210933A02D093FB
:102810003B02309237022092360210923E024093E1
:102820003F02509340026093410270934202109223
:102830002B0290932C0200932D0230932E023092A3
:102840002A0220922902809331024093320250934F
:102850003302609334027093350210921E0280930B
:102860001F02109220023093210230921D0220920A
:102870001C0210922402F8EE8F2EF3E09F2EA12C62
:10288000B12C8092250290922602A0922702B0924B
:1028900028021092110290931202109213023093A8
:1028A000140280931702C0921802D0921902E0928B
:1028B0001A02F0921B02B0931002A0930F02DF9154
:1028C000CF911F910F91FF90EF90DF90CF90BF902D
:1028D000AF909F908F907F906F905F904F903F90C0
:1028E0002F9008958091000690910106009711F0B5
:1028F0000E94341E8091FE0587FD03C060E00C94A9
:10290000830A0895CF93DF93CDB7DEB7A5970FB6AF
:10291000F894DEBF0FBECDBF789484B5826084BDCD
:1029200084B5816084BD85B5826085BD85B58160D3
:1029300085BD80916E00816080936E001092810051
:10294000809181008260809381008091810081600C
:1029500080938100809180008160809380008091CD
:10296000B10084608093B1008091B0008160809359
:10297000B00080917A00846080937A0080917A0020
:10298000826080937A0080917A008E7F80937A00B3
:1029900080917A00806880937A001092C100E09163
:1029A0008201F091830182E08083E0917E01F091C9
:1029B0007F011082E0918001F091810187E68083A0
:1029C00010928A01E0918601F091870186E0808370
:1029D000E0918401F0918501808180618083E091A4
:1029E0008401F0918501808188608083E091840179
:1029F000F0918501808180688083E0918401F0916D
:102A0000850180818F7D808308E611E057E0F52EF7
:102A1000F00E61E0D8018D918D010E94830AF012C1
:102A2000F8CF8091FE0587FD08C061E00E94830A0F
:102A300060E08091FE050E942C0A81E08093F905F8
:102A4000809101018823C1F081E10E945B0B80E14C
:102A50000E945B0B8FE00E945B0B8EE00E945B0B81
:102A600089E00E945B0B85E00E945B0B83E00E9483
:102A70005B0B1092010117C582E791E00E94B4053B
:102A8000892B09F471C182E791E00E94920580933D
:102A90001B06E0910001EE3F29F58433E9F04CF488
:102AA0008233B1F0BCF4813309F05EC110920001B1
:102AB0005BC1823699F02CF4813609F055C184E06F
:102AC00051C1833669F0833709F04EC187E04AC1AE
:102AD00081E048C182E046C183E044C185E042C153
:102AE00086E040C1E73068F5863609F15CF482364D
:102AF00009F037C1F0E0EE0FFF1FE35FF94F88EEFA
:102B000095E01CC08E3659F0833709F02AC1F0E0F9
:102B1000EE0FFF1FE35FF94F8EED95E00FC0F0E081
:102B2000EE0FFF1FE35FF94F85EF95E007C0F0E080
:102B3000EE0FFF1FE35FF94F82EF95E091838083F3
:102B400010C1E73009F00DC1883309F4CDC07CF520
:102B5000833309F499C0A4F4813309F47DC00CF0E7
:102B600087C0803309F0FDC08FEC92E00E94000422
:102B700020E030E04AE753E467E081E592E0EFC00F
:102B8000853309F499C00CF48BC0863309F4A0C0D6
:102B9000873309F0E6C080EA94E00E94000420E058
:102BA00030E04AE753E464E088E594E0D8C0843636
:102BB00009F4BEC02CF5813609F4A2C07CF4893337
:102BC00009F0CFC086EA93E00E94000420E030E0E4
:102BD0004AE753E46BE080EE92E0C1C0823609F42C
:102BE0009BC0833609F0BDC084EC91E00E940004D4
:102BF00020E030E04AE753E463E08EE891E0AFC0C4
:102C0000863691F00CF4A0C08E36D1F0853709F0ED
:102C1000A8C089ED96E00E94000420E030E0A90100
:102C200061E087EC96E09BC081E297E00E9400049F
:102C300020E030E046E954E461E08FE097E08FC0A7
:102C40008DEF96E00E94000420E030E046E954E475
:102C500061E08BEE96E083C086EB96E00E94000474
:102C600020E030E04AE753E464E08EE696E077C087
:102C70008DE596E00E94000420E030E04AE753E44E
:102C800062E089E396E06BC088E296E00E9400046F
:102C900020E030E04AE753E463E082EF95E05FC074
:102CA00081EE95E00E94000420E030E04AE753E422
:102CB00066E085E795E053C084E695E00E94000455
:102CC00020E030E04AE753E464E08CE195E047C05F
:102CD0008BE095E00E94000420E030E04AE753E4F6
:102CE00065E081EB94E03BC087E494E00E9400043F
:102CF00020E030E04AE753E468E087EB93E02FC040
:102D000080E492E00E94000420E030E04AE753E4CF
:102D100062E08CE192E023C08BE092E00E9400042C
:102D200020E030E04AE753E463E085ED91E017C02E
:102D30008DE791E00E94000420E030E04AE753E490
:102D400067E08FEF90E00BC08EEE90E00E940004F1
:102D500020E030E04AE753E463E088EB90E00E9433
:102D60002A048EEF809300010DE016E088E6E82E3D
:102D700081E0F82EF801819191918F01009749F03F
:102D8000DC01ED91FC910190F081E02DD7016C9177
:102D90000995BFEFEB1AFB0AE6E00B311E0751F76E
:102DA0000E94E40A0091D6051091D7052091D8051C
:102DB0003091D9054B015C01801A910AA20AB30A2D
:102DC0008092D2059092D305A092D405B092D505F9
:102DD0004090CB055090CC056090CD057090CE050D
:102DE00020E030E0A901C301B2010E94DC1C1816EA
:102DF0005CF4C501B4010E94EB1BA30192010E9487
:102E0000431B2B013C0106C0412C512C00E8602ED5
:102E10000FE3702EA301920160E070E080E89FE371
:102E20000E94CC1A6A8F7B8F8C8F9D8F8091CF05EB
:102E30009091D005892BF9F020E030E040E85FE385
:102E4000C301B2010E94391B87FF15C00E94E40A2A
:102E50000091DA051091DB052091DC053091DD054C
:102E60006B017C01C01AD10AE20AF30ACAA2DBA2F2
:102E7000ECA2FDA208C01092D0051092CF051AA2B4
:102E80001BA21CA21DA21F8E1E8E19A218A2212CED
:102E9000312C1A8A198A188A1F861E861D861C865E
:102EA0001B860091D2051091D3052091D405309155
:102EB000D5056091C8057091C905CE010B964C01EE
:102EC000DE011D965D01FE013F966F0106967C01B5
:102ED0004091CA05822D0E94B30420E030E040E812
:102EE0005FE3C301B2010E94391B87FFBBC01A8692
:102EF000198618861F821E821D821C821B82609189
:102F0000CF057091D00561157105A1F0DE01139612
:102F10004D01FE0135965F01CE0107966C011696B4
:102F20007D010AA11BA12CA13DA14091D105822DBB
:102F30000E94B30469897A89072E000C880B990BCB
:102F40000E94ED1BA30192010E94E11C4B015C0158
:102F500089859A85BC01990F880B990B0E94ED1BFE
:102F60002A8D3B8D4C8D5D8D0E94E11C9B01AC0137
:102F7000C501B4010E94CD1A0E94B51B7A8B698BE2
:102F80006F857889072E000C880B990B0E94ED1B2A
:102F9000A30192010E94E11C4B015C018F81988585
:102FA000BC01990F880B990B0E94ED1B2A8D3B8D5C
:102FB0004C8D5D8D0E94E11C9B01AC01C501B401EB
:102FC0000E94CD1A0E94B51B788B6F876D857E8518
:102FD000072E000C880B990B0E94ED1BA301920198
:102FE0000E94E11C4B015C018D819E81BC01990F07
:102FF000880B990B0E94ED1B2A8D3B8D4C8D5D8DAE
:103000000E94E11C9B01AC01C501B4010E94CD1AD4
:103010000E94B51B7E876D876B857C85072E000C13
:10302000880B990B0E94ED1BA30192010E94E11CE9
:103030004B015C018B819C81BC01990F880B990B22
:103040000E94ED1B2A8D3B8D4C8D5D8D0E94E11CF5
:103050009B01AC01C501B4010E94CD1A0E94B51BB1
:103060007C876B878B859C8597FD08C08F3F91057A
:1030700019F014F08FEF90E0582F01C050E08D85CB
:103080009E8597FD07C08F3F910529F024F08FEFB3
:1030900090E001C080E02F85388937FD08C02F3FC0
:1030A000310519F014F02FEF30E0422F01C040E05D
:1030B00029893A8937FD07C02F3F310529F024F0CF
:1030C0002FEF30E001C020E0E091C605F091C70588
:1030D000628173812616370608F051C090E0A0E0A7
:1030E000B0E0B52B942BA22B8D0122273327D02EB5
:1030F000892E9A2EAB2EBB24E82CF82E4781442330
:1031000061F0049F90011124D32E849E400111246C
:10311000E92C849F90011124F32E5585628520852A
:103120003185561305C068A179A1260F371F18C035
:103130006E8D7F8D260F371F8B2F9927AA27BB27D0
:10314000B901650F711D442349F050E0489F80018B
:10315000499F100D589F100D1124812FDB018C9376
:103160008285D901A80FB11DDC928385D901A80FF2
:10317000B11DEC928485F901E80FF11DF082BFEFDB
:103180002B1A3B0AE8A1F9A13396F9A3E8A36E8DA7
:103190007F8D6C5F7F4F7F8F6E8F603F710509F071
:1031A00078CE6090C6057090C705D30118968D91B2
:1031B0009C911997892B09F476C10E94BF0AF301EB
:1031C0000685178520893189DC01CB01801B910B95
:1031D000A20BB30BC297A105B10578F3F8948481D3
:1031E00095819A838983A085B1858D010F5F1F4FDB
:1031F0008C91898F8081A289B389882309F419C1B0
:103200001B8AAB32B10509F058C09BB18489982B59
:10321000988F9BB1809589238F8B8F898C8B898D1B
:1032200087FF02C0888D8C8B588D6F89498D3C89B2
:103230002B8989819A81D8015BB9262F3BB900C0BF
:1032400046FD252F6BB900C05BB9362F2BB900C0E6
:1032500045FD352F6BB900C05BB9262F3BB900C0C7
:1032600044FD252F6BB900C05BB9362F2BB900C0C8
:1032700043FD352F6BB900C05BB9262F3BB900C0A9
:1032800042FD252F6BB900C05BB9362F2BB900C0AA
:1032900041FD352F6BB900C05BB9262F3BB900C08B
:1032A00040FD252F6BB901975BB9362F2BB94D9196
:1032B00047FD352F6BB901F6B8C0A532B10509F04D
:1032C00059C095B1F3018489982B988F95B1809559
:1032D00089238F8B8F898C8B898D87FF02C0888D86
:1032E0008C8B588D6F89498D3C892B8989819A8176
:1032F000D80155B9262F35B900C046FD252F65B92F
:1033000000C055B9362F25B900C045FD352F65B928
:1033100000C055B9262F35B900C044FD252F65B929
:1033200000C055B9362F25B900C043FD352F65B90A
:1033300000C055B9262F35B900C042FD252F65B90B
:1033400000C055B9362F25B900C041FD352F65B9EC
:1033500000C055B9262F35B900C040FD252F65B9ED
:10336000019755B9362F25B94D9147FD352F65B9D0
:1033700001F65BC0989709F08CC098B1F30184897D
:10338000982B988F98B1809589238F8B8F898C8B00
:10339000898D87FF02C0888D8C8B588D6F89498DF0
:1033A0003C892B8989819A81D80158B9262F38B94F
:1033B00000C046FD252F68B900C058B9362F28B97E
:1033C00000C045FD352F68B900C058B9262F38B95F
:1033D00000C044FD252F68B900C058B9362F28B960
:1033E00000C043FD352F68B900C058B9262F38B941
:1033F00000C042FD252F68B900C058B9362F28B942
:1034000000C041FD352F68B900C058B9262F38B922
:1034100000C040FD252F68B9019758B9362F28B94B
:103420004D9147FD352F68B901F6498F3C8B2B8BA9
:103430002EC09C91F3018489982B988F9C91809544
:1034400089238F8B8F898E8B88E08D8B588D6F8928
:10345000498D3D892E8989819A81F8015C9347FDC8
:10346000252F2C93262F3A9531F0441F6C9300C0E2
:1034700000C000C0F3CF6C93000038E04191019789
:1034800069F7F301B38BA28B498F3D8B2E8B9A8307
:10349000898378940E94BF0AD3011E966D937D9311
:1034A0008D939C9351970E944A06CACA991B79E052
:1034B00004C0991F961708F0961B881F7A95C9F7C4
:1034C0008095089597FB072E16F4009407D077FD9A
:1034D00009D00E94A31A07FC05D03EF4909581956F
:1034E0009F4F0895709561957F4F0895A1E21A2E20
:1034F000AA1BBB1BFD010DC0AA1FBB1FEE1FFF1F98
:10350000A217B307E407F50720F0A21BB30BE40BE7
:10351000F50B661F771F881F991F1A9469F760952E
:103520007095809590959B01AC01BD01CF010895E8
:103530000E94BD1AA59F900DB49F900DA49F800D71
:10354000911D11240895AA1BBB1B51E107C0AA1F9E
:10355000BB1FA617B70710F0A61BB70B881F991F34
:103560005A95A9F780959095BC01CD010895EE0F6D
:10357000FF1F0590F491E02D0994A29FB001B39F25
:10358000C001A39F700D811D1124911DB29F700D6C
:10359000811D1124911D08955058BB27AA270E9410
:1035A000E41A0C948E1C0E94551C38F00E945C1C7E
:1035B00020F039F49F3F19F426F40C94521C0EF4B9
:1035C000E095E7FB0C944C1CE92F0E94B31C58F3C8
:1035D000BA17620773078407950720F079F4A6F5F8
:1035E0000C94D51C0EF4E0950B2EBA2FA02D0B01D8
:1035F000B90190010C01CA01A0011124FF27591B38
:1036000099F0593F50F4503E68F11A16F040A22F3D
:10361000232F342F4427585FF3CF469537952795AE
:10362000A795F0405395C9F77EF41F16BA0B620BAD
:10363000730B840BBAF09150A1F0FF0FBB1F661FF4
:10364000771F881FC2F70EC0BA0F621F731F841F37
:1036500048F4879577956795B795F7959E3F08F05D
:10366000B0CF9395880F08F09927EE0F979587951F
:1036700008950E94281C08F481E008950E94651CAA
:10368000E3950C949F1C0E94571B0C948E1C0E9467
:103690005C1C58F00E94551C40F029F45F3F29F053
:1036A0000C944C1C51110C94D61C0C94521C0E946E
:1036B000B31C68F39923B1F3552391F3951B550B74
:1036C000BB27AA2762177307840738F09F5F5F4FF5
:1036D000220F331F441FAA1FA9F335D00E2E3AF034
:1036E000E0E832D091505040E695001CCAF72BD04C
:1036F000FE2F29D0660F771F881FBB1F261737079D
:103700004807AB07B0E809F0BB0B802DBF01FF27CE
:1037100093585F4F3AF09E3F510578F00C944C1C43
:103720000C94D61C5F3FE4F3983ED4F386957795CE
:103730006795B795F7959F5FC9F7880F911D969587
:10374000879597F90895E1E0660F771F881FBB1FE3
:10375000621773078407BA0720F0621B730B840B90
:10376000BA0BEE1F88F7E09508950E94BC1B689481
:10377000B1110C94D61C08950E94BB1C88F09F5771
:1037800098F0B92F9927B751B0F0E1F0660F771F85
:10379000881F991F1AF0BA95C9F714C0B13091F07B
:1037A0000E94D51CB1E008950C94D51C672F782F8A
:1037B0008827B85F39F0B93FCCF386957795679540
:1037C000B395D9F73EF490958095709561957F4FAC
:1037D0008F4F9F4F0895E89409C097FB3EF4909552
:1037E0008095709561957F4F8F4F9F4F9923A9F0DA
:1037F000F92F96E9BB279395F69587957795679569
:10380000B795F111F8CFFAF4BB0F11F460FF1BC0AC
:103810006F5F7F4F8F4F9F4F16C0882311F096E93F
:1038200011C0772321F09EE8872F762F05C06623ED
:1038300071F096E8862F70E060E02AF09A95660FA6
:10384000771F881FDAF7880F9695879597F908955F
:10385000990F0008550FAA0BE0E8FEEF16161706A1
:10386000E807F907C0F012161306E407F50798F009
:10387000621B730B840B950B39F40A2661F0232B22
:10388000242B252B21F408950A2609F4A140A6959E
:103890008FEF811D811D089597F99F6780E870E083
:1038A00060E008959FEF80EC089500240A941616B6
:1038B000170618060906089500240A94121613061E
:1038C0001406050608950C94521C0E94BB1CD8F3E4
:1038D000E894E0E0BB279F57F0F02AED3FE049EC89
:1038E00006C0EE0FBB0F661F771F881F28F0B23A85
:1038F00062077307840728F0B25A620B730B840BBC
:10390000E3959A9572F7803830F49A95BB0F661F4D
:10391000771F881FD2F790480C94581D092E0394E6
:10392000000C11F4882352F0BB0F40F4BF2B11F4AC
:1039300060FF04C06F5F7F4F8F4F9F4F0895EF93DD
:10394000E0FF07C0A2EA2AED3FE049EC5FEB0E94EE
:10395000E41A0E948E1C0F90039401FC9058E8E634
:10396000F0E00C94641D57FD9058440F551F59F01A
:103970005F3F71F04795880F97FB991F61F09F3F5C
:1039800079F087950895121613061406551FF2CF85
:103990004695F1DF08C0161617061806991FF1CFD5
:1039A00086957105610508940895E894BB276627FC
:1039B0007727CB0197F908950E94281C08F48FEF10
:1039C00008950E94F41C0C948E1C0E94551C38F023
:1039D0000E945C1C20F0952311F00C944C1C0C945C
:1039E000521C11240C94D61C0E94B31C70F3959F9A
:1039F000C1F3950F50E0551F629FF001729FBB27E6
:103A0000F00DB11D639FAA27F00DB11DAA1F649F81
:103A10006627B00DA11D661F829F2227B00DA11D34
:103A2000621F739FB00DA11D621F839FA00D611DBA
:103A3000221F749F3327A00D611D231F849F600DDB
:103A4000211D822F762F6A2F11249F5750409AF004
:103A5000F1F088234AF0EE0FFF1FBB1F661F771F90
:103A6000881F91505040A9F79E3F510580F00C945B
:103A70004C1C0C94D61C5F3FE4F3983ED4F386951F
:103A800077956795B795F795E7959F5FC1F7FE2BFB
:103A9000880F911D9695879597F908959F930E9499
:103AA000651C0F9007FCEE5F0C949F1C9F3F31F04C
:103AB000915020F4879577956795B795880F911D5C
:103AC0009695879597F908959F938F937F936F931A
:103AD000FF93EF939B01AC010E94E11CEF91FF91DA
:103AE0000E94781D2F913F914F915F910C94E11CA2
:103AF000DF93CF931F930F93FF92EF92DF927B019F
:103B00008C01689406C0DA2EEF010E94F41CFE01BD
:103B1000E894A5912591359145915591A6F3EF0132
:103B20000E94E41AFE019701A801DA9469F7DF9078
:103B3000EF90FF900F911F91CF91DF910895CF9358
:103B4000DF938230910510F482E090E0E091270647
:103B5000F091280620E030E0C0E0D0E0309711F18D
:103B60004081518148175907C0F04817590761F43F
:103B700082819381209719F09B838A832BC0909335
:103B800028068093270626C02115310519F0421713
:103B9000530718F49A01BE01DF01EF010280F3819F
:103BA000E02DDCCF2115310509F1281B390B24301C
:103BB000310590F412968D919C91139761157105C2
:103BC00021F0FB019383828304C0909328068093A5
:103BD0002706FD01329644C0FD01E20FF31F8193D9
:103BE0009193225031092D933C933AC020912506A0
:103BF00030912606232B41F42091040130910501D8
:103C0000309326062093250620910201309103016E
:103C10002115310541F42DB73EB740910601509171
:103C20000701241B350BE0912506F0912606E217CB
:103C3000F307A0F42E1B3F0B2817390778F0AC01CF
:103C40004E5F5F4F2417350748F04E0F5F1F5093AC
:103C50002606409325068193919302C0E0E0F0E0B0
:103C6000CF01DF91CF9108950F931F93CF93DF93EF
:103C7000009709F48CC0FC013297138212820091E4
:103C80002706109128060115110581F42081318144
:103C9000820F931F20912506309126062817390799
:103CA00079F5F0932606E093250671C0D80140E02F
:103CB00050E0AE17BF0750F412962D913C91139728
:103CC000AD012115310509F1D901F3CF9D01DA01CB
:103CD0003383228360817181860F971F8217930738
:103CE00069F4EC0128813981260F371F2E5F3F4F81
:103CF000318320838A819B8193838283452B29F49E
:103D0000F0932806E093270642C01396FC93EE93A7
:103D10001297ED01499159919E01240F351FE21729
:103D2000F30771F480819181840F951F029611969B
:103D30009C938E938281938113969C938E9312977A
:103D4000E0E0F0E0D80112968D919C9113970097D6
:103D500019F0F8018C01F6CF8D919C9198012E5F9E
:103D60003F4F820F931F209125063091260628177A
:103D7000390769F4309729F4109228061092270623
:103D800002C0138212821093260600932506DF914B
:103D9000CF911F910F91089581E090E0F8940C94D9
:103DA000DA1EFB01DC0102C005900D92415050402B
:103DB000D8F7089513E0CAEAD3E004C0FE010E94D8
:0E3DC000B71A2196CB3AD107C9F7F894FFCF76
:103DCE00FE0100002906800000000000E105D50379
:103DDE00B4059205A60528060000000005084D074B
:103DEE000000000005085706000000009D070000B7
:103DFE0000002A08A70600000000C008000000000E
:103E0E00AB06000000004907000000005406000049
:103E1E000000F00A00000000AA0600000000780A68
:103E2E0000000000C607570611100F0E0905030DFE
:023E3E000A0078
:107800000C94343C0C94513C0C94513C0C94513CE1
:107810000C94513C0C94513C0C94513C0C94513CB4
:107820000C94513C0C94513C0C94513C0C94513CA4
:107830000C94513C0C94513C0C94513C0C94513C94
:107840000C94513C0C94513C0C94513C0C94513C84
:107850000C94513C0C94513C0C94513C0C94513C74
:107860000C94513C0C94513C11241FBECFEFD8E036
:10787000DEBFCDBF11E0A0E0B1E0EAE8FFE702C063
:1078800005900D92A230B107D9F712E0A2E0B1E065
:1078900001C01D92AD30B107E1F70E942D3D0C945F
:1078A000C33F0C94003C982F95959595959595958B
:1078B000905D8F708A307CF0282F295A8091C0000B
:1078C00085FFFCCF9093C6008091C00085FFFCCF60
:1078D0002093C6000895282F205DF0CF982F809127
:1078E000C00085FFFCCF9093C6000895EF92FF92F1
:1078F0000F931F93EE24FF2487018091C00087FD22
:1079000017C00894E11CF11C011D111D81E2E8164D
:1079100081EAF80687E0080780E0180770F3E09135
:107920000401F091050109958091C00087FFE9CF1E
:107930008091C6001F910F91FF90EF9008950E94D3
:10794000763C982F8091C00085FFFCCF9093C600B5
:1079500091362CF490330CF09053892F089597555D
:10796000892F08951F930E949F3C182F0E949F3CCF
:107970001295107F810F1F9108951F93182F882350
:1079800021F00E94763C1150E1F71F9108951F935A
:10799000182F0E94763C803249F0809103018F5F5E
:1079A000809303018530C1F01F9108958091C0003C
:1079B00085FFFCCF84E18093C6008091C00085FFE5
:1079C000FCCF1093C6008091C00085FFFCCF80E102
:1079D0008093C6001F910895E0910401F091050184
:1079E00009951F9108950E94763C803241F0809164
:1079F00003018F5F80930301853081F008958091AA
:107A0000C00085FFFCCF84E18093C6008091C00058
:107A100085FFFCCF80E18093C6000895E0910401CA
:107A2000F09105010995089548EC50E08823A1F0F4
:107A30002D9A28EE33E0FA013197F1F721503040CA
:107A4000D1F72D9828EE33E0FA013197F1F7215064
:107A50003040D1F7815061F708953F924F925F9285
:107A60006F927F928F929F92AF92BF92CF92DF924E
:107A7000EF92FF920F931F93CF93DF93000082E06A
:107A80008093C00080E18093C4001092C50088E11B
:107A90008093C10086E08093C2005098589A259A3E
:107AA00081E00E94143D24E1F22E9EE1E92E85E959
:107AB000D82E0FE0C02E10E1B12EAA24A394B1E479
:107AC0009B2EA6E58A2EF2E57F2EE0E26E2E79E46B
:107AD000572E63E5462E50E5352E0E94763C8033C6
:107AE000B1F18133B9F1803409F46FC0813409F404
:107AF00076C0823409F485C0853409F488C08035A5
:107B000031F1823521F1813511F1853509F485C0D6
:107B1000863509F48DC0843609F496C0843709F49B
:107B200003C1853709F472C1863709F466C08091B4
:107B300003018F5F80930301853079F6E0910401A2
:107B4000F091050109950E94763C803351F60E9420
:107B5000F33CC3CF0E94763C803249F78091C0004D
:107B600085FFFCCFF092C6008091C00085FFFCCF5E
:107B70009092C6008091C00085FFFCCF8092C60025
:107B80008091C00085FFFCCF7092C6008091C0003C
:107B900085FFFCCF6092C6008091C00085FFFCCFBE
:107BA0005092C6008091C00085FFFCCF4092C60075
:107BB0008091C00085FFFCCF3092C6008091C0004C
:107BC00085FFFCCFB092C60088CF0E94763C8638F5
:107BD00008F4BDCF0E94763C0E94F33C7ECF0E9409
:107BE000763C803809F49CC0813809F40BC1823896
:107BF00009F430C1883909F48FC080E00E94C73C85
:107C00006CCF84E10E94BD3C0E94F33C66CF85E0CE
:107C10000E94BD3C0E94F33C60CF0E94763C809362
:107C200006010E94763C809307010E94F33C55CFE9
:107C30000E94763C803309F411C183E00E94BD3C70
:107C400080E00E94C73C49CF0E94763C80930902A5
:107C50000E94763C8093080280910C028E7F809374
:107C60000C020E94763C853409F409C18091080217
:107C700090910902892B89F000E010E00E94763C87
:107C8000F801E85FFE4F80830F5F1F4F809108026D
:107C9000909109020817190788F30E94763C8032F8
:107CA00009F045CF80910C0280FFF5C0609106017C
:107CB00070910701660F771F7093070160930601AB
:107CC000A0910802B09109021097C9F0E8E0F1E034
:107CD0009B01AD014E0F5F1FF999FECF32BD21BD53
:107CE000819180BDFA9AF99A2F5F3F4FE417F5070B
:107CF00099F76A0F7B1F70930701609306018091CB
:107D0000C00085FFFCCFF092C6008091C00085FFC7
:107D1000FCCFB092C600E1CE83E00E94C73CDDCE2E
:107D200082E00E94C73CD9CE0E94763C8093090233
:107D30000E94763C80930802809106019091070191
:107D4000880F991F90930701809306010E94763C4B
:107D5000853409F49AC080910C028E7F80930C02C6
:107D60000E94763C803209F0B8CE8091C00085FF39
:107D7000FCCFF092C600A0910802B09109021097C2
:107D8000C1F180910C02082F0170182F1695117007
:107D9000E0910601F0910701AF014F5F5F4FBA011B
:107DA00020E030E00023B1F4112339F49491809164
:107DB000C00085FFFCCF9093C6002F5F3F4FCB01E3
:107DC0000196FA012A173B0780F4BC014F5F5F4F11
:107DD000002351F3F999FECFF2BDE1BDF89A90B5B9
:107DE0008091C00085FFFCCFE6CF709307016093C0
:107DF00006018091C00085FDE5CE8091C00085FF21
:107E0000F8CFE0CE81E00E94C73C67CE0E94763C6E
:107E1000803209F08CCE8091C00085FFFCCFF092BB
:107E2000C6008091C00085FFFCCFE092C600809123
:107E3000C00085FFFCCFD092C6008091C00085FFB6
:107E4000FCCFC092C6008091C00085FFFCCFB092ED
:107E5000C60043CE80E10E94C73C3FCE0E94763CE4
:107E60000E94763C182F0E94763C112309F483C0AF
:107E7000113009F484C08FE00E94C73C2ECE80915F
:107E80000C02816080930C02F1CE80910C02816023
:107E900080930C0265CF809107018823880F880B9F
:107EA0008A2180930B028091060190910701880F2F
:107EB000991F90930701809306018091080280FF2B
:107EC00009C08091080290910902019690930902DD
:107ED00080930802F894F999FECF1127E0910601EA
:107EE000F0910701C8E0D1E0809108029091090269
:107EF000103091F40091570001700130D9F303E084
:107F000000935700E8950091570001700130D9F3B4
:107F100001E100935700E8950990199000915700EE
:107F200001700130D9F301E000935700E8951395F3
:107F3000103498F011270091570001700130D9F3E7
:107F400005E000935700E89500915700017001305B
:107F5000D9F301E100935700E8953296029709F0B2
:107F6000C7CF103011F00296E5CF11248091C000E8
:107F700085FFC5CEC8CE8EE10E94C73CAECD85E957
:0A7F80000E94C73CAACDF894FFCF81
:027F8A00800075
:040000030000780081
:00000001FF