:100000000C945E000C9486000C9486000C94860080
:100010000C9486000C9486000C9486000C94860048
:100020000C9486000C9486000C9486000C94860038
:100030000C9486000C9486000C9486000C94860028
:100040000C947C040C9486000C944A040C942404B4
:100050000C9486000C9486000C9486000C94860008
:100060000C9486000C9486000000000024002700F9
:100070002A0000000008000201000003040700003D
:10008000000000000000010204081020408001026E
:1000900004081020010204081020000000002500C0
:1000A00028002B00040404040404040402020202D5
:1000B0000202030303030303C6040E0611241FBE3A
:1000C000CFEFD8E0DEBFCDBF11E0A0E0B1E0E6ECBD
:1000D000FEE002C005900D92A631B107D9F721E0EC
:1000E000A6E1B1E001C01D92A63DB207E1F710E024
:1000F000CDE5D0E004C02197FE010E941E06CC355C
:10010000D107C9F70E9465050C9456070C940000AE
:1001100090E0FC01EE58FF4F2491FC01EA57FF4F9D
:100120003491FC01EC55FF4FE491EE23B9F1222309
:1001300039F1233091F038F42130A9F0223001F563
:1001400084B58F7D12C0273091F02830A1F0243083
:10015000B9F4809180008F7D03C0809180008F77FB
:10016000809380000DC084B58F7784BD09C08091D5
:10017000B0008F7703C08091B0008F7D8093B00076
:10018000F0E0EE0FFF1FE656FF4FA591B4918FB739
:10019000F894EC9130953E233C938FBF0895CF9215
:1001A000DF92EF92FF920F931F93CF93DF936C0137
:1001B0007A018B01C0E0D0E0CE15DF0589F0D801CF
:1001C0006D918D01D601ED91FC910190F081E02DB2
:1001D000C6010995892B11F47E0102C02196ECCF4E
:1001E000C701DF91CF911F910F91FF90EF90DF90AA
:1001F000CF900895FC01918D828D981761F0828DCA
:10020000DF01A80FB11D5D968C91928D9F5F9F734A
:10021000928F90E008958FEF9FEF0895FC01918DEC
:10022000828D981731F0828DE80FF11D858D90E059
:1002300008958FEF9FEF0895FC01918D228D892FF6
:1002400090E0805C9F4F821B91098F7399270895DE
:1002500080E291E00E941C0121E0892B09F420E05A
:10026000822F0895FC01848DDF01A80FB11DA35AD0
:10027000BF4F2C91848D90E001968F739927848FC6
:10028000A689B7892C93A089B1898C9180648C93BD
:10029000938D848D981306C00288F389E02D8081A8
:1002A0008F7D80830895EF92FF920F931F93CF93DA
:1002B000DF93EC0181E0888F9B8D8C8D981305C0B6
:1002C000E889F989808185FD24C0F62E0B8D10E028
:1002D0000F5F1F4F0F731127E02E8C8DE8120CC09B
:1002E0000FB607FCFACFE889F989808185FFF5CF41
:1002F000CE010E943201F1CF8B8DFE01E80FF11D7E
:10030000E35AFF4FF0820B8FEA89FB89808180627C
:1003100007C0EE89FF896083E889F989808180645C
:10032000808381E090E0DF91CF911F910F91FF904A
:10033000EF900895CF93DF93EC01888D8823C9F067
:10034000EA89FB89808185FD05C0A889B9898C91DE
:1003500086FD0FC00FB607FCF5CF808185FFF2CF79
:10036000A889B9898C9185FFEDCFCE010E94320119
:10037000E7CFDF91CF91089580E090E0892B29F0BD
:100380000E94280181110C9400000895CF93DF93FF
:1003900090E0FC01EA57FF4F2491FC01EC55FF4F20
:1003A0008491882361F190E0880F991FFC01E8593E
:1003B000FF4FC591D491FC01E656FF4FA591B49132
:1003C000611109C09FB7F8948881209582238883A2
:1003D000EC912E230BC0623061F49FB7F894388102
:1003E000822F809583238883EC912E2B2C939FBFA3
:1003F00006C08FB7F894E8812E2B28838FBFDF913A
:10040000CF9108953FB7F89480911B0190911C0102
:10041000A0911D01B0911E0126B5A89B05C02F3FDC
:1004200019F00196A11DB11D3FBFBA2FA92F982F1A
:100430008827820F911DA11DB11DBC01CD0143E094
:10044000660F771F881F991F4A95D1F708950F935C
:100450001F93CF93DF93CDB7DEB729970FB6F894EC
:10046000DEBF0FBECDBF0E9402020091CB011091F2
:10047000CC012091CD013091CE01DC01CB01801B5C
:10048000910BA20BB30BC297A105B10560F3F894D1
:100490008091C1019091C2019A838983A091C50185
:1004A000B091C601FD0131968C9189878091BD0183
:1004B000A091CF01B091D001882309F417C11B820C
:1004C000AB32B10509F058C09BB18091D101982B96
:1004D00098879BB1809589238F838F818C838985B1
:1004E00087FF02C088858C8358856F8149853C8150
:1004F0002B8189819A815BB9262F3BB900C046FDCB
:10050000252F6BB900C05BB9362F2BB900C045FD54
:10051000352F6BB900C05BB9262F3BB900C044FD35
:10052000252F6BB900C05BB9362F2BB900C043FD36
:10053000352F6BB900C05BB9262F3BB900C042FD17
:10054000252F6BB900C05BB9362F2BB900C041FD18
:10055000352F6BB900C05BB9262F3BB900C040FDF9
:10056000252F6BB901975BB9362F2BB9419147FD08
:10057000352F6BB901F6B6C0A532B10509F058C0E8
:1005800095B18091D101982B988795B18095892359
:100590008F838F818C83898587FF02C088858C83B8
:1005A00058856F8149853C812B8189819A8155B914
:1005B000262F35B900C046FD252F65B900C055B9B5
:1005C000362F25B900C045FD352F65B900C055B996
:1005D000262F35B900C044FD252F65B900C055B997
:1005E000362F25B900C043FD352F65B900C055B978
:1005F000262F35B900C042FD252F65B900C055B979
:10060000362F25B900C041FD352F65B900C055B959
:10061000262F35B900C040FD252F65B9019755B982
:10062000362F25B9419147FD352F65B901F65AC0DE
:10063000989709F08BC098B18091D101982B988739
:1006400098B1809589238F838F818C83898587FFDB
:1006500002C088858C8358856F8149853C812B81B8
:1006600089819A8158B9262F38B900C046FD252FB7
:1006700068B900C058B9362F28B900C045FD352FDC
:1006800068B900C058B9262F38B900C044FD252FDD
:1006900068B900C058B9362F28B900C043FD352FBE
:1006A00068B900C058B9262F38B900C042FD252FBF
:1006B00068B900C058B9362F28B900C041FD352FA0
:1006C00068B900C058B9262F38B900C040FD252FA1
:1006D00068B9019758B9362F28B9419147FD352F90
:1006E00068B901F649873C832B832EC09C91809189
:1006F000D101982B98879C91809589238F838F8136
:100700008E8388E08D8358856F8149853D812E8158
:1007100089819A815C9347FD252F2C93262F3A954A
:1007200031F0441F6C9300C000C000C0F3CF6C9345
:10073000000038E04191019769F7B093D001A09390
:10074000CF0149873D832E839A83898378940E94C1
:1007500002026093CB017093CC018093CD01909302
:10076000CE0129960FB6F894DEBF0FBECDBFDF9144
:10077000CF911F910F910895BF92CF92DF92EF9288
:10078000FF920F931F93CF93DF9390E0B82EEC016D
:10079000E12CF12CC12CD12C00E010E08091BF01A4
:1007A0009091C0010817190708F042C09091C40148
:1007B0004091CA018091C7012091C5013091C601C5
:1007C000481303C02C0D3D1D10C02E0D3F1DF90117
:1007D000E40FF11D992339F09C9FA0019D9F500DBE
:1007E0001124952F01C09B2D90838091C701F901A1
:1007F000E80FF11D10828091C801F901E80FF11D89
:1008000010828091C901F901E80FF11D10828091D9
:10081000C5019091C601892B11F00E9427020F5F3C
:100820001F4F83E0C80ED11C84E0E80EF11CB6CF48
:10083000DF91CF911F910F91FF90EF90DF90CF90BC
:10084000BF9008950E9451071F920F920FB60F920A
:1008500011242F933F934F935F936F937F938F93C5
:100860009F93AF93BF93EF93FF9380E291E00E9439
:100870003201FF91EF91BF91AF919F918F917F9145
:100880006F915F914F913F912F910F900FBE0F90FD
:100890001F9018951F920F920FB60F9211242F934D
:1008A0008F939F93EF93FF93E0913001F09131018B
:1008B0008081E0913601F091370182FD12C0908174
:1008C000809139018F5F8F7320913A01821751F027
:1008D000E0913901F0E0E05EFE4F958F80933901A1
:1008E00001C08081FF91EF919F918F912F910F9087
:1008F0000FBE0F901F9018951F920F920FB60F9278
:1009000011242F933F938F939F93AF93BF93809125
:10091000170190911801A0911901B0911A0130911D
:10092000160126E0230F2D3720F40296A11DB11DDC
:1009300005C029E8230F0396A11DB11D20931601C0
:100940008093170190931801A0931901B0931A0195
:1009500080911B0190911C01A0911D01B0911E017D
:100960000196A11DB11D80931B0190931C01A093C2
:100970001D01B0931E01BF91AF919F918F913F9147
:100980002F910F900FBE0F901F901895109223017A
:100990001092220188EE93E0A0E0B0E08093240161
:1009A00090932501A0932601B09327018AE091E05E
:1009B000909321018093200185EC90E090932D018C
:1009C00080932C0184EC90E090932F0180932E0172
:1009D00080EC90E0909331018093300181EC90E0C5
:1009E000909333018093320182EC90E09093350133
:1009F0008093340186EC90E0909337018093360128
:100A00001092390110923A0110923B0110923C0170
:100A10001092BE011092C4011092CB011092CC0131
:100A20001092CD011092CE0183E08093CA01109202
:100A3000C70181E08093C80192E09093C90180933F
:100A4000BD0180EF90E09093C2018093C1010E94AC
:100A500024069093C6018093C501009761F020EFB2
:100A6000FC0111922A95E9F78CE390E09093C00184
:100A70008093BF0108C01092C2011092C101109270
:100A8000C0011092BF0186E08093C3018091BE0136
:100A9000882339F061E086E00E94C60186E00E946A
:100AA0008800EAEAF0E0E491F0E0EE0FFF1FE6567E
:100AB000FF4F859194919093D0018093CF01ECE802
:100AC000F0E0E491E093D1010895789484B58260D8
:100AD00084BD84B5816084BD85B5826085BD85B5E2
:100AE000816085BD80916E00816080936E00109260
:100AF00081008091810082608093810080918100DB
:100B0000816080938100809180008160809380006B
:100B10008091B10084608093B1008091B0008160C9
:100B20008093B00080917A00846080937A008091F5
:100B30007A00826080937A0080917A008E7F809321
:100B40007A0080917A00806880937A001092C100C8
:100B5000E0913001F091310182E08083E0912C013D
:100B6000F0912D011082E0912E01F0912F0187E686
:100B7000808310923801E0913401F091350186E0D4
:100B80008083E0913201F091330180818061808324
:100B9000E0913201F0913301808188608083E0919F
:100BA0003201F0913301808180688083E0913201CD
:100BB000F091330180818F7D808361E089E00E9424
:100BC000C6018091C30187FD07C061E00E94C60194
:100BD0008091C3010E94880081E08093BE018091D2
:100BE000C5019091C601892B11F00E94270280E275
:100BF00091E00E941C01892B71F080E291E00E943B
:100C0000FA0080931F01873711F48FEF02C08436FA
:100C100011F40E94BC030E94BC01E9CF8091C50180
:100C20009091C601009711F00E94B9068091C3010E
:100C300087FD03C060E00C94C6010895EE0FFF1F0E
:100C40000590F491E02D0994CF93DF9382309105C4
:100C500010F482E090E0E091D401F091D50120E021
:100C600030E0C0E0D0E0309711F140815181481769
:100C70005907C0F04817590761F482819381209782
:100C800019F09B838A832BC09093D5018093D40164
:100C900026C02115310519F04217530718F49A019F
:100CA000BE01DF01EF010280F381E02DDCCF2115D1
:100CB000310509F1281B390B2430310590F41296C7
:100CC0008D919C9113976115710521F0FB01938320
:100CD000828304C09093D5018093D401FD013296A4
:100CE00044C0FD01E20FF31F81939193225031091B
:100CF0002D933C933AC02091D2013091D301232B04
:100D000041F420910201309103013093D3012093EB
:100D1000D20120910001309101012115310541F4EA
:100D20002DB73EB74091040150910501241B350BAE
:100D3000E091D201F091D301E217F307A0F42E1B4A
:100D40003F0B2817390778F0AC014E5F5F4F24172F
:100D5000350748F04E0F5F1F5093D3014093D201E7
:100D60008193919302C0E0E0F0E0CF01DF91CF9159
:100D700008950F931F93CF93DF93009709F48CC0CE
:100D8000FC013297138212820091D4011091D50197
:100D90000115110581F420813181820F931F20916B
:100DA000D2013091D3012817390779F5F093D30197
:100DB000E093D20171C0D80140E050E0AE17BF0708
:100DC00050F412962D913C911397AD0121153105E8
:100DD00009F1D901F3CF9D01DA01338322836081C8
:100DE0007181860F971F8217930769F4EC012881A0
:100DF0003981260F371F2E5F3F4F318320838A8131
:100E00009B8193838283452B29F4F093D501E09352
:100E1000D40142C01396FC93EE931297ED014991D1
:100E200059919E01240F351FE217F30771F4808159
:100E30009181840F951F029611969C938E938281C7
:100E4000938113969C938E931297E0E0F0E0D80183
:100E500012968D919C911397009719F0F8018C01CF
:100E6000F6CF8D919C9198012E5F3F4F820F931F7B
:100E70002091D2013091D3012817390769F43097B6
:100E800029F41092D5011092D40102C0138212826B
:100E90001093D3010093D201DF91CF911F910F9155
:100EA000089581E090E0F8940C94560710E0CDE5A9
:100EB000D0E004C0FE010E941E062196CE35D10767
:060EC000C9F7F894FFCF12
:100EC6000000D6018000000000005301CF001C0185
:060ED600FA000E019A0172
:107800000C94343C0C94513C0C94513C0C94513CE1
:107810000C94513C0C94513C0C94513C0C94513CB4
:107820000C94513C0C94513C0C94513C0C94513CA4
:107830000C94513C0C94513C0C94513C0C94513C94
:107840000C94513C0C94513C0C94513C0C94513C84
:107850000C94513C0C94513C0C94513C0C94513C74
:107860000C94513C0C94513C11241FBECFEFD8E036
:10787000DEBFCDBF11E0A0E0B1E0EAE8FFE702C063
:1078800005900D92A230B107D9F712E0A2E0B1E065
:1078900001C01D92AD30B107E1F70E942D3D0C945F
:1078A000C33F0C94003C982F95959595959595958B
:1078B000905D8F708A307CF0282F295A8091C0000B
:1078C00085FFFCCF9093C6008091C00085FFFCCF60
:1078D0002093C6000895282F205DF0CF982F809127
:1078E000C00085FFFCCF9093C6000895EF92FF92F1
:1078F0000F931F93EE24FF2487018091C00087FD22
:1079000017C00894E11CF11C011D111D81E2E8164D
:1079100081EAF80687E0080780E0180770F3E09135
:107920000401F091050109958091C00087FFE9CF1E
:107930008091C6001F910F91FF90EF9008950E94D3
:10794000763C982F8091C00085FFFCCF9093C600B5
:1079500091362CF490330CF09053892F089597555D
:10796000892F08951F930E949F3C182F0E949F3CCF
:107970001295107F810F1F9108951F93182F882350
:1079800021F00E94763C1150E1F71F9108951F935A
:10799000182F0E94763C803249F0809103018F5F5E
:1079A000809303018530C1F01F9108958091C0003C
:1079B00085FFFCCF84E18093C6008091C00085FFE5
:1079C000FCCF1093C6008091C00085FFFCCF80E102
:1079D0008093C6001F910895E0910401F091050184
:1079E00009951F9108950E94763C803241F0809164
:1079F00003018F5F80930301853081F008958091AA
:107A0000C00085FFFCCF84E18093C6008091C00058
:107A100085FFFCCF80E18093C6000895E0910401CA
:107A2000F09105010995089548EC50E08823A1F0F4
:107A30002D9A28EE33E0FA013197F1F721503040CA
:107A4000D1F72D9828EE33E0FA013197F1F7215064
:107A50003040D1F7815061F708953F924F925F9285
:107A60006F927F928F929F92AF92BF92CF92DF924E
:107A7000EF92FF920F931F93CF93DF93000082E06A
:107A80008093C00080E18093C4001092C50088E11B
:107A90008093C10086E08093C2005098589A259A3E
:107AA00081E00E94143D24E1F22E9EE1E92E85E959
:107AB000D82E0FE0C02E10E1B12EAA24A394B1E479
:107AC0009B2EA6E58A2EF2E57F2EE0E26E2E79E46B
:107AD000572E63E5462E50E5352E0E94763C8033C6
:107AE000B1F18133B9F1803409F46FC0813409F404
:107AF00076C0823409F485C0853409F488C08035A5
:107B000031F1823521F1813511F1853509F485C0D6
:107B1000863509F48DC0843609F496C0843709F49B
:107B200003C1853709F472C1863709F466C08091B4
:107B300003018F5F80930301853079F6E0910401A2
:107B4000F091050109950E94763C803351F60E9420
:107B5000F33CC3CF0E94763C803249F78091C0004D
:107B600085FFFCCFF092C6008091C00085FFFCCF5E
:107B70009092C6008091C00085FFFCCF8092C60025
:107B80008091C00085FFFCCF7092C6008091C0003C
:107B900085FFFCCF6092C6008091C00085FFFCCFBE
:107BA0005092C6008091C00085FFFCCF4092C60075
:107BB0008091C00085FFFCCF3092C6008091C0004C
:107BC00085FFFCCFB092C60088CF0E94763C8638F5
:107BD00008F4BDCF0E94763C0E94F33C7ECF0E9409
:107BE000763C803809F49CC0813809F40BC1823896
:107BF00009F430C1883909F48FC080E00E94C73C85
:107C00006CCF84E10E94BD3C0E94F33C66CF85E0CE
:107C10000E94BD3C0E94F33C60CF0E94763C809362
:107C200006010E94763C809307010E94F33C55CFE9
:107C30000E94763C803309F411C183E00E94BD3C70
:107C400080E00E94C73C49CF0E94763C80930902A5
:107C50000E94763C8093080280910C028E7F809374
:107C60000C020E94763C853409F409C18091080217
:107C700090910902892B89F000E010E00E94763C87
:107C8000F801E85FFE4F80830F5F1F4F809108026D
:107C9000909109020817190788F30E94763C8032F8
:107CA00009F045CF80910C0280FFF5C0609106017C
:107CB00070910701660F771F7093070160930601AB
:107CC000A0910802B09109021097C9F0E8E0F1E034
:107CD0009B01AD014E0F5F1FF999FECF32BD21BD53
:107CE000819180BDFA9AF99A2F5F3F4FE417F5070B
:107CF00099F76A0F7B1F70930701609306018091CB
:107D0000C00085FFFCCFF092C6008091C00085FFC7
:107D1000FCCFB092C600E1CE83E00E94C73CDDCE2E
:107D200082E00E94C73CD9CE0E94763C8093090233
:107D30000E94763C80930802809106019091070191
:107D4000880F991F90930701809306010E94763C4B
:107D5000853409F49AC080910C028E7F80930C02C6
:107D60000E94763C803209F0B8CE8091C00085FF39
:107D7000FCCFF092C600A0910802B09109021097C2
:107D8000C1F180910C02082F0170182F1695117007
:107D9000E0910601F0910701AF014F5F5F4FBA011B
:107DA00020E030E00023B1F4112339F49491809164
:107DB000C00085FFFCCF9093C6002F5F3F4FCB01E3
:107DC0000196FA012A173B0780F4BC014F5F5F4F11
:107DD000002351F3F999FECFF2BDE1BDF89A90B5B9
:107DE0008091C00085FFFCCFE6CF709307016093C0
:107DF00006018091C00085FDE5CE8091C00085FF21
:107E0000F8CFE0CE81E00E94C73C67CE0E94763C6E
:107E1000803209F08CCE8091C00085FFFCCFF092BB
:107E2000C6008091C00085FFFCCFE092C600809123
:107E3000C00085FFFCCFD092C6008091C00085FFB6
:107E4000FCCFC092C6008091C00085FFFCCFB092ED
:107E5000C60043CE80E10E94C73C3FCE0E94763CE4
:107E60000E94763C182F0E94763C112309F483C0AF
:107E7000113009F484C08FE00E94C73C2ECE80915F
:107E80000C02816080930C02F1CE80910C02816023
:107E900080930C0265CF809107018823880F880B9F
:107EA0008A2180930B028091060190910701880F2F
:107EB000991F90930701809306018091080280FF2B
:107EC00009C08091080290910902019690930902DD
:107ED00080930802F894F999FECF1127E0910601EA
:107EE000F0910701C8E0D1E0809108029091090269
:107EF000103091F40091570001700130D9F303E084
:107F000000935700E8950091570001700130D9F3B4
:107F100001E100935700E8950990199000915700EE
:107F200001700130D9F301E000935700E8951395F3
:107F3000103498F011270091570001700130D9F3E7
:107F400005E000935700E89500915700017001305B
:107F5000D9F301E100935700E8953296029709F0B2
:107F6000C7CF103011F00296E5CF11248091C000E8
:107F700085FFC5CEC8CE8EE10E94C73CAECD85E957
:0A7F80000E94C73CAACDF894FFCF81
:027F8A00800075
:040000030000780081
:00000001FF
