:100000000C946D000C9495000C9495000C94950044
:100010000C9495000C9495000C9495000C9495000C
:100020000C9495000C9495000C9495000C949500FC
:100030000C9495000C9495000C9495000C949500EC
:100040000C9405050C9495000C9462070C943C07E5
:100050000C9495000C9495000C9495000C949500CC
:100060000C9495000C94950005A84CCDB2D44EB9D3
:100070003836A9020C50B9918688083CA6AAAA2A4B
:10008000BE000000803F00000000240027002A007E
:100090000000000800020100000304070000000047
:1000A0000000000001020408102040800102040842
:1000B0001020010204081020000000002500280084
:1000C0002B000404040404040404020202020202D9
:1000D000030303030303A407940711241FBECFEFF8
:1000E000D8E0DEBFCDBF13E0A0E0B1E0EAEBFCE278
:1000F00002C005900D92A238B107D9F726E0A2E818
:10010000B3E001C01D92A137B207E1F710E0CCE6E1
:10011000D0E004C02197FE010E943B12CB36D107EC
:10012000C9F70E94960C0C9450160C940000FC0128
:10013000918D828D981761F0828DDF01A80FB11D1E
:100140005D968C91928D9F5F9F73928F90E0089542
:100150008FEF9FEF0895FC01918D828D981731F0FC
:10016000828DE80FF11D858D90E008958FEF9FEF50
:100170000895FC01918D228D892F90E0805C9F4F26
:10018000821B91098F739927089580E090E0892B55
:1001900029F00E94C90681110C9400000895CB013A
:1001A000BA0108958F929F92AF92BF92CF92DF9241
:1001B000EF92FF92CF93DF935C01FC0191858681E2
:1001C000D281C381992329F0682F70E06D1B7109DA
:1001D00004C06C2F70E0681B7109072E000C880B9F
:1001E000990B0E9471136B017C01F5016285738587
:1001F000848595850E946F134B015C018C2F90E0E4
:1002000001968D1B9109BC01990F880B990B0E94D7
:1002100071139B01AC01C701B6010E94C7129B017B
:10022000AC01C501B4010E9460140E944013DF912B
:10023000CF91FF90EF90DF90CF90BF90AF909F90C5
:100240008F900895FC018681089508958F929F9262
:10025000AF92BF92CF92DF92EF92FF92CF93DF9354
:10026000EC01E62F372F8A85CA80DB80EC80FD8089
:100270008823D9F046015701880C991CAA1CBB1C85
:10028000BA018E2F932FA50194010E94FA11C61670
:10029000D706E806F90698F4A5019401261B370B4A
:1002A000480B590BCA01B9010AC0BA018E2F932F0E
:1002B000C616D706E806F90610F4C701B6012B8565
:1002C000222341F0A7019601261B370B480B590B3F
:1002D000CA01B901DF91CF91FF90EF90DF90CF90ED
:1002E000BF90AF909F908F9008954F925F926F92C2
:1002F0007F928F929F92AF92BF92CF92DF92EF92B6
:10030000FF920F931F93CF93DF93EC010E811F8118
:100310000E9426014B015C01B801012E000C880BE4
:10032000990B0E9471136B017C0148855985401B14
:10033000510BBA01550F880B990B0E9471132B01B9
:100340003C01C501B4010E946F134B015C016A813D
:100350007B818C819D810E946F139B01AC01C50143
:10036000B4010E94C7129B01AC01C301B2010E94FB
:1003700060149B01AC01C701B6010E9451120E949A
:100380003913CB01DF91CF911F910F91FF90EF9027
:10039000DF90CF90BF90AF909F908F907F906F90A5
:1003A0005F904F900895FC018085918508958F920C
:1003B0009F92AF92BF92CF92DF92EF92FF92CF9334
:1003C000DF935C01FC0191858781D481C5819923EC
:1003D00029F0682F70E06D1B710904C06C2F70E06C
:1003E000681B7109072E000C880B990B0E94711372
:1003F0006B017C01F50162857385848595850E947A
:100400006F134B015C018C2F90E001968D1B9109BD
:10041000BC01990F880B990B0E9471139B01AC01D1
:10042000C701B6010E94C7129B01AC01C501B4010E
:100430000E9460140E944013DF91CF91FF90EF90D3
:10044000DF90CF90BF90AF909F908F900895DC0188
:10045000E62F372F822F6AE00E94DA1116968C93CE
:10046000169717969C93179712962C9112978217AE
:1004700090F013962C911397281768F014968C918E
:100480001497981740F015968C91891720F0BA01AF
:100490008E2F932F08956FEF7FEF8FEF9FEF0895CB
:1004A0008F929F92AF92BF92CF92DF92EF92FF9284
:1004B000CF93DF93EC010E9427026B017C016F3F19
:1004C0007F4F8F4F9F4F41F18885E881F9818823C5
:1004D000D1F08E849F84A888B9888A859B85AC8555
:1004E000BD85880E991EAA1EBB1E0280F381E02DD9
:1004F000CE010995A50194012C193D094E095F090A
:1005000069017A0105C00280F381E02DCE010995D1
:10051000C61AD70AE80AF90AC701B601DF91CF91D6
:10052000FF90EF90DF90CF90BF90AF909F908F9013
:1005300008958F929F92AF92BF92CF92DF92EF92E7
:10054000FF921F93CF93DF93EC010E9427026F3F2E
:100550002FEF72078207920721F46FEF7FEFCB0135
:1005600072C08F849888A988BA88A50194010E94D6
:10057000FA116B017C018E85882341F0D501C401FD
:100580008C199D09AE09BF096C017D01288539854B
:100590004A855B85C701B6010E94FA11B22E6D85AE
:1005A00070E0822F90E02C85821B91090196860FC6
:1005B000971F0E94E611182FE881F9810280F381CC
:1005C000E02DCE0109956D850E94DA11B11628F053
:1005D000911718F2B91630F4C0CFB91618F4911764
:1005E00008F4BBCF8F849888A988BA88C80CD91C16
:1005F000EA1CFB1C288539854A855B85A92FB0E05C
:100600000E941C12A7019601261B370B480B590BA1
:10061000CA01B901A50194010E94FA11CB88DC88B6
:10062000ED88FE886C157D058E059F0560F0CC0C6D
:10063000DD1CEE1CFF1CA7019601261B370B480B87
:10064000590BCA01B901DF91CF911F91FF90EF9033
:10065000DF90CF90BF90AF909F908F9008958F9232
:100660009F92AF92BF92CF92DF92EF92FF920F9341
:100670001F93CF93DF9300D000D0CDB7DEB75C01DE
:100680000E942601F5012485213009F50085118598
:100690000E946F136B017C01F5016281738184817B
:1006A00095810E946F139B01AC01C701B6010E94A6
:1006B000C7122BED3FE049EC5FE30E9460140E94FB
:1006C000C2129B01AC01F5018681978123C02230C3
:1006D00091F5F501068117810E946F136B017C0172
:1006E000F50162817381848195810E946F139B0162
:1006F000AC01C701B6010E94C7122BED3FE049ECE7
:100700005FE30E9460140E94CD149B01AC01F501CF
:1007100080859185801B910BBC01990F880B990BEB
:1007200029833A834B835C830E94711329813A8128
:100730004B815C8140C0233009F053C0F501068134
:1007400017810E946F132BED3FE049E450E40E94B3
:1007500060146B017C01F501628173818481958154
:100760000E946F139B01AC01C701B6010E94C71222
:100770000E94C2126B017C01F50180859185980170
:10078000281B390BC90137FD019695958795BC014A
:10079000990F880B990B0E9471134B015C0120E0AB
:1007A00030E040E85FE3C701B6010E9450129B01B0
:1007B000AC01C501B4010E9460146B017C01B80159
:1007C000110F880B990B0E9471139B01AC01C7019B
:1007D000B6010E9451120E943913262F972F822FA3
:1007E00000C00F900F900F900F90DF91CF911F914D
:1007F0000F91FF90EF90DF90CF90BF90AF909F90C0
:100800008F900895FC01848DDF01A80FB11DA35ABC
:10081000BF4F2C91848D90E001968F739927848F20
:10082000A689B7892C93A089B1898C9180648C9317
:10083000938D848D981306C00288F389E02D808102
:100840008F7D8083089590E0FC01E057FF4F349145
:10085000FC01EC55FF4F2491FC01EE53FF4FE49156
:10086000EE2309F43BC0332339F1333091F038F4EF
:100870003130A9F0323001F584B58F7D12C03730A8
:1008800091F03830A1F03430B9F4809180008F7D40
:1008900003C0809180008F77809380000DC084B565
:1008A0008F7784BD09C08091B0008F7703C080919D
:1008B000B0008F7D8093B000F0E0EE0FFF1FE85492
:1008C000FF4FA591B4918FB7F894EC91611103C0DB
:1008D00020952E2301C02E2B2C938FBF0895262FF9
:1008E000FC018281882311F061E001C060E0822F69
:1008F0000C9423040F931F93CF938C01C62F2FB713
:10090000F894609158067091590680915A0690911A
:100910005B062FBFF80122813381448155810E94FB
:10092000FA11F8010681178120853185061717070E
:100930002807390710F061E001C060E08C2FCF91EB
:100940001F910F910C942304CF93DF9390E0FC014F
:10095000EC55FF4F2491FC01EE53FF4F8491882307
:1009600061F190E0880F991FFC01EA57FF4FC59194
:10097000D491FC01E854FF4FA591B491611109C0D5
:100980009FB7F8948881209582238883EC912E2349
:100990000BC0623061F49FB7F8943881822F809544
:1009A00083238883EC912E2B2C939FBF06C08FB797
:1009B000F894E8812E2B28838FBFDF91CF91089583
:1009C0003FB7F8948091830390918403A0918503AD
:1009D000B091860326B5A89B05C02F3F19F001965C
:1009E000A11DB11D3FBFBA2FA92F982F8827820FB5
:1009F000911DA11DB11DBC01CD0143E0660F771F04
:100A0000881F991F4A95D1F708951F920F920FB62C
:100A10000F9211242F933F938F939F93AF93BF9384
:100A20008091580690915906A0915A06B0915B06A4
:100A30003091820326E0230F2D3720F40296A11D6A
:100A4000B11D05C029E8230F0396A11DB11D2093F8
:100A500082038093580690935906A0935A06B09348
:100A60005B068091830390918403A0918503B091EC
:100A700086030196A11DB11D809383039093840387
:100A8000A0938503B0938603BF91AF919F918F91FF
:100A90003F912F910F900FBE0F901F9018952F929E
:100AA0003F924F925F926F927F928F929F92AF92FE
:100AB000BF92CF92DF92EF92FF920F931F93CF934B
:100AC000DF93CDB7DEB72C970FB6F894DEBF0FBE1D
:100AD000CDBF9A838983662E5C834B833E832D83AF
:100AE00018870F83FA86E986712CA981BA81169638
:100AF0008C91781608F0A5C0A981BA811796CD907F
:100B0000DD90ED90FC901A9714962D913C911597DD
:100B1000F901B2E17B9EE00DF11D1124408151816C
:100B200062817381248035804680578080859185DD
:100B300082849384A484B5840685178520893189AD
:100B40003C872B87C416D506E606F70608F477C05F
:100B5000C41AD50AE60AF70AC214D304E404F50459
:100B600008F06DC0009761F0DC01ED91FC910190FF
:100B7000F081E02D262DB701A60109956B017C01BE
:100B8000C114B8E2DB06BBE6EB06BEEEFB0608F0DE
:100B900056C08114910491F0D401ED91FC91019023
:100BA000F081E02DB701A601C4010995EB81FC811C
:100BB00020813181820F931F91838083A114B1041E
:100BC00091F0D501ED91FC910190F081E02DB701FC
:100BD000A601C5010995EF81F88520813181820F39
:100BE000931F918380830115110591F0D801ED9138
:100BF000FC910190F081E02DB701A601C801099593
:100C0000ED81FE8120813181820F931F918380834A
:100C10002B853C852115310591F0D901ED91FC9191
:100C20000190F081E02DB701A601C9010995E98580
:100C3000FA8520813181820F931F91838083739481
:100C400054CF2C960FB6F894DEBF0FBECDBFDF9108
:100C5000CF911F910F91FF90EF90DF90CF90BF90B9
:100C6000AF909F908F907F906F905F904F903F904C
:100C70002F9008958F929F92AF92BF92CF92DF9262
:100C8000EF92FF92CF93C82F61E00E9423040E944D
:100C9000E0044B015C0184E6C82ED12CE12CF12C40
:100CA0000E94E004DC01CB0188199909AA09BB095B
:100CB000883E9340A105B10558F021E0C21AD10841
:100CC000E108F10888EE880E83E0981EA11CB11C93
:100CD000C114D104E104F10419F760E08C2FCF9125
:100CE000FF90EF90DF90CF90BF90AF909F908F904C
:100CF0000C942304CF92DF92EF92FF920F931F93F5
:100D0000CF93DF936C017A018B01C0E0D0E0CE1568
:100D1000DF0589F0D8016D918D01D601ED91FC912F
:100D20000190F081E02DC6010995892B11F47E0117
:100D300002C02196ECCFC701DF91CF911F910F9197
:100D4000FF90EF90DF90CF900895CF93DF930097BF
:100D500079F0FC0101900020E9F73197AF01481BC1
:100D6000590BBC0187E893E00E947A06EC0102C0AF
:100D7000C0E0D0E042E050E063EF72E087E893E04B
:100D80000E947A068C0F9D1FDF91CF9108950E94DB
:100D90004B1687E893E00E94B90021E0892B09F403
:100DA00020E0822F0895EF92FF920F931F93CF932D
:100DB000DF93EC0181E0888F9B8D8C8D981305C0AB
:100DC000E889F989808185FD24C0F62E0B8D10E01D
:100DD0000F5F1F4F0F731127E02E8C8DE8120CC090
:100DE0000FB607FCFACFE889F989808185FFF5CF36
:100DF000CE010E940204F1CF8B8DFE01E80FF11DA0
:100E0000E35AFF4FF0820B8FEA89FB898081806271
:100E100007C0EE89FF896083E889F9898081806451
:100E2000808381E090E0DF91CF911F910F91FF903F
:100E3000EF900895CF93DF93EC01888D8823C9F05C
:100E4000EA89FB89808185FD05C0A889B9898C91D3
:100E500086FD0FC00FB607FCF5CF808185FFF2CF6E
:100E6000A889B9898C9185FFEDCFCE010E9402043B
:100E7000E7CFDF91CF9108951F920F920FB60F9297
:100E800011242F933F934F935F936F937F938F938F
:100E90009F93AF93BF93EF93FF9387E893E00E94F4
:100EA0000204FF91EF91BF91AF919F918F917F913C
:100EB0006F915F914F913F912F910F900FBE0F90C7
:100EC0001F9018951F920F920FB60F9211242F9317
:100ED0008F939F93EF93FF93E0919703F091980383
:100EE0008081E0919D03F0919E0382FD12C090816C
:100EF0008091A0038F5F8F732091A103821751F01F
:100F0000E091A003F0E0E957FC4F958F8093A00398
:100F100001C08081FF91EF919F918F912F910F9050
:100F20000FBE0F901F90189580914B0690914C0624
:100F3000009711F00E94B3158091490687FD03C008
:100F400060E00C94A40408954F925F926F927F9298
:100F50008F929F92AF92BF92CF92DF92EF92FF92C9
:100F60000F931F93CF93DF9310928A0310928903FC
:100F700088EE93E0A0E0B0E080938B0390938C0325
:100F8000A0938D03B0938E0388E992E09093880339
:100F90008093870385EC90E0909394038093930370
:100FA00084EC90E0909396038093950380EC90E01E
:100FB000909398038093970381EC90E090939A0329
:100FC0008093990382EC90E090939C0380939B0321
:100FD00086EC90E090939E0380939D031092A00373
:100FE0001092A1031092A2031092A3031092440640
:100FF00010924A0610925106109252061092530611
:101000001092540683E08093500610924D0681E0C2
:1010100080934E0692E090934F068093430680EFB4
:1010200090E090934806809347060E941E15909387
:101030004C0680934B06009761F020EFFC01119263
:101040002A95E9F78CE390E0909346068093450655
:1010500008C0109248061092470610924606109259
:10106000450686E08093490680914406882341F036
:1010700061E086E00E94A40460E086E00E94230410
:10108000E8ECF0E0E491F0E0EE0FFF1FE854FF4FD2
:101090008591949123E436E090935606809355060B
:1010A000EAEAF0E0E491E09357064AEE52E050930A
:1010B00041064093400681E08093420650933E06ED
:1010C00040933D0610923F064EED52E05093340699
:1010D0004093330664EFC62EDD24D394E12CF12C2B
:1010E000C0923506D0923606E0923706F092380666
:1010F0007AEFC72ED12CE12CF12CC0923906D09278
:101100003A06E0923B06F0923C0650932A06409342
:10111000290648EC50E060E070E040932B065093C5
:101120002C0660932D0670932E0644E650E060E096
:1011300070E040932F065093300660933106709311
:10114000320648ED52E05093280640932706E2ED20
:10115000F2E0F0931C06E0931B0610922206109218
:1011600021064FEF50E0509324064093230610923F
:101170001D0610921E0610921F0610922006109255
:10118000250630930F0620930E06809312066AE719
:1011900072E07093110660931006F0930106E093DD
:1011A0000006109207061092060610920906109289
:1011B000080610920206109203061092040610927E
:1011C000050610920A063093F4052093F3058093E8
:1011D000F70568E672E07093F6056093F5051092E6
:1011E000DC0565E06093DD051092DE0599E09093E3
:1011F000DF05AAECB2E0B093DB05A093DA05ACE31F
:101200008A2E912CA12CB12C8092E2059092E305BC
:10121000A092E405B092E50573E07093E605A6E0C0
:10122000A093E7051092E805B8E68B2E99249394D5
:10123000A12CB12C8092E9059092EA05A092EB05D1
:10124000B092EC05CAE58C2E912CA12CB12C809289
:10125000ED059092EE05A092EF05B092F005309367
:10126000CE052093CD058093D105A6E5B2E0B093DD
:10127000D005A093CF05F093C005E093BF05109271
:10128000C6051092C505EAE0F0E0F093C805E093CA
:10129000C7051092C1051092C2051092C3051092A5
:1012A000C4051092C9051092B9051092B805509363
:1012B000BB054093BA05C092B405D092B505E09243
:1012C000B605F092B7058093BC05EEEBF2E0F09323
:1012D000B305E093B2057093BE053093A605209345
:1012E000A50574E07093A905AEE0B2E0B093A8053F
:1012F000A093A70510929E0510929D055093A005FE
:1013000040939F05D8EECD2ED3E0DD2EE12CF12CBD
:10131000C0929905D0929A05E0929B05F0929C05A7
:101320001092A105A8EBB2E0B0939805A0939705A1
:101330001092920510929105C8E7D0E0D0939405E1
:10134000C0939305C0928D05D0928E05E0928F05D3
:10135000F092900510929505B0938C05A0938B05A3
:1013600010927B0560937C0510927D0590937E051D
:10137000A0EBB2E0B0937A05A093790510928105B5
:1013800010928705109288051092890510928A059F
:101390008093820510ED812E17E0912EA12CB12CA7
:1013A0008092830590928405A0928505B09286056F
:1013B0001092690560936A0510926B0590936C0515
:1013C000B0936805A093670580936F05C09275057B
:1013D000D0927605E0927705F092780580937005BB
:1013E0008092710590927205A0927305B092740577
:1013F00030935B0520935A0592E090935E052AEEA8
:1014000031E030935D0520935C05109252051092F7
:10141000510550935405409353054EEE52E060E061
:1014200070E040934D0550934E0560934F057093C7
:10143000500510925505F0934C05E0934B05209113
:101440005605222319F09093570502C08093570543
:10145000109245051092440588E790E09093470567
:10146000809346058EEE92E0A0E0B0E080934005C8
:1014700090934105A0934205B0934305109248050F
:101480008EEB92E090933F0580933E058091490555
:10149000882311F082E001C081E080934A05109218
:1014A00038051092370510923A05109239058EEEE4
:1014B00092E0A0E0B0E08093330590933405A093D0
:1014C0003505B093360510923B058EEB92E0909374
:1014D00032058093310580913C05882311F082E02C
:1014E00001C081E080933D0510922B0510922A05E2
:1014F00082E390E090932D0580932C058EEE92E090
:10150000A0E0B0E08093260590932705A0932805DE
:10151000B093290510922E058EEB92E0909325054D
:101520008093240580912F05882311F082E001C06B
:1015300081E0809330051092140595E09093150595
:1015400024E02093160520931705C0EBD2E0D0933A
:101550001305C093120510921A05109220051092DF
:101560002105109222051092230581E080931B052E
:1015700040ED57E060E070E040931C0550931D057E
:1015800060931E0570931F0510920205909303054A
:1015900010920405209305051092080510920E057F
:1015A00010920F0510921005109211051092090566
:1015B00040930A0550930B0560930C0570930D053D
:1015C000E8EAF2E0F0930105E09300051092F004E0
:1015D0009093F1042093F20419E01093F304109215
:1015E000F6041092FC041092FD041092FE04109276
:1015F000FF048093F7044093F8045093F904609338
:10160000FA047093FB04F093EF04E093EE04A3E478
:10161000B6E0B093E204A093E10403E00093E50494
:1016200044EB51E05093E4044093E3041092DA0455
:101630001092D90448EC50E05093DC044093DB0452
:1016400030EA832E3FE0932EA12CB12C8092D5045A
:101650009092D604A092D704B092D8041092DD04E0
:1016600048EB52E05093D4044093D3041092CE043C
:101670001092CD046AE070E07093D0046093CF04C0
:101680008092C9049092CA04A092CB04B092CC0478
:101690001092D1045093C8044093C7041092B2042E
:1016A0009093B3049093B4049093B504EAECF2E001
:1016B000F093B104E093B00444E6C42ED12CE12CA5
:1016C000F12CC092B804D092B904E092BA04F0921E
:1016D000BB048093BC0437E03093BD048093BE0408
:1016E0004CEB52E060E070E04093BF045093C004C4
:1016F0006093C1047093C20442E350E060E070E084
:101700004093C3045093C4046093C5047093C6040B
:1017100010929B0490939C0400939D0400939E045C
:10172000F0939A04E0939904C092A104D092A20489
:10173000E092A304F092A4048093A5040DE000932A
:10174000A6048093A70404E1402E05E0502E612CEE
:10175000712C4092A8045092A9046092AA0470923D
:10176000AB044093AC045093AD046093AE0470930B
:10177000AF041092840490938504209386042093F0
:101780008704F0938304E0938204C0928A04D09289
:101790008B04E0928C04F0928D0480938E0403E11C
:1017A00000938F04809390040CE6402E07E0502EA7
:1017B000612C712C40929104509292046092930497
:1017C0007092940440939504509396046093970408
:1017D0007093980410926D0490936E0480936F043C
:1017E00080937004F0936C04E0936B04C0927304D4
:1017F000D0927404E0927504F0927604809377049A
:101800000BE000937804809379040CE4402E04E00C
:10181000502E612C712C40927A0450927B0460927D
:101820007C0470927D0440937E0450937F04609307
:10183000800470938104109256049093570430935F
:10184000580430935904F0935504E0935404C09223
:101850005C04D0925D04E0925E04F0925F04809399
:10186000600431E1309361048093620434EAC32E52
:1018700036E0D32EE12CF12CC0926304D0926404A4
:10188000E0926504F0926604409367045093680404
:101890006093690470936A04109244049093450421
:1018A0001092460410934704D0934304C09342041B
:1018B00010924A0410925004109251041092520453
:1018C0001092530480934B0480924C0490924D04E8
:1018D000A0924E04B0924F04B0933604A093350406
:1018E00086E08093390488E491E0909338048093F3
:1018F0003704B0932704A093260420932A0480E0A1
:1019000091E09093290480932804DF91CF911F9157
:101910000F91FF90EF90DF90CF90BF90AF909F908E
:101920008F907F906F905F904F900895CF93DF934B
:10193000CDB7DEB7A1970FB6F894DEBF0FBECDBF0F
:10194000789484B5826084BD84B5816084BD85B59A
:10195000826085BD85B5816085BD80916E008160A6
:1019600080936E001092810080918100826080934C
:10197000810080918100816080938100809180004E
:101980008160809380008091B10084608093B10079
:101990008091B00081608093B00080917A00846073
:1019A00080937A0080917A00826080937A0080919F
:1019B0007A008E7F80937A0080917A00806880938D
:1019C0007A001092C100E0919703F091980382E0B1
:1019D0008083E0919303F09194031082E09195034A
:1019E000F091960387E6808310929F03E0919B031A
:1019F000F0919C0386E08083E0919903F0919A0333
:101A0000808180618083E0919903F0919A038081C5
:101A100088608083E0919903F0919A0380818068C7
:101A20008083E0919903F0919A0380818F7D808378
:101A30000CEE12E0E7E0FE2EF00E61E0D8018D9191
:101A40008D010E94A404F012F8CF8091490687FD11
:101A500008C061E00E94A40460E0809149060E94F1
:101A6000230481E08093440680918D028823C1F095
:101A700081E10E943A0680E10E943A068FE00E94CE
:101A80003A068EE00E943A0689E00E943A0685E016
:101A90000E943A0683E00E943A0610928D0283C4A7
:101AA00087E893E00E94B900892B09F4EFC087E82A
:101AB00093E00E94970080936C06E0918C02EE3FC9
:101AC00029F58433E9F04CF48233B1F0BCF481336E
:101AD00009F0DCC010928C02D9C0823699F02CF447
:101AE000813609F0D3C084E0CFC0833669F08337F4
:101AF00009F0CCC087E0C8C081E0C6C082E0C4C0A5
:101B000083E0C2C085E0C0C086E0BEC0E73068F5B3
:101B1000863609F15CF4823609F0B5C0F0E0EE0FCC
:101B2000FF1FE25AF94F83E396E01CC08E3659F04E
:101B3000833709F0A8C0F0E0EE0FFF1FE25AF94F1B
:101B400089E296E00FC0F0E0EE0FFF1FE25AF94F76
:101B500080E496E007C0F0E0EE0FFF1FE25AF94F75
:101B60008DE396E0918380838EC0E73009F08BC0CF
:101B7000C0905C06D0905D06843309F441C06CF4DB
:101B8000823381F1B4F5813309F044C08DE293E0F2
:101B90000E94A50683EA95E039C08636A9F04CF488
:101BA0008533C1F581E793E00E94A50684E294E0C5
:101BB0002DC08E3681F0853769F58BE193E00E9468
:101BC000A5068BEC95E022C086EF92E00E94A50668
:101BD00081EF95E01BC089E093E00E94A5068CE0B0
:101BE00096E014C08EE393E00E94A50688E595E098
:101BF0000DC08FE493E00E94A5068FED94E006C02F
:101C000080E693E00E94A50683E394E090935D064E
:101C100080935C0600915C0610915D06F601A08041
:101C2000B180A114B10409F4C1C3678170858185B5
:101C300092850E946F1320E030E84BE354E40E9449
:101C4000C71220E030E040E05FE30E94BD1287FF52
:101C5000ADC3F801B182A082D80117961D921D92E2
:101C60001D921C921A972FB7F89480915806909164
:101C70005906A0915A06B0915B062FBFF8018387E1
:101C80009487A587B6878EEF80938C020EE516E0C9
:101C90003CEEC32E32E0D32ED8018D919D918D0163
:101CA000009749F0DC01ED91FC910190F081E02D6D
:101CB000D6016C910995BFEFCB1ADB0AE6E00C3632
:101CC0001E0751F7C0905C06D0905D06C114D10488
:101CD00009F469C32FB7F89480915806909159067A
:101CE000A0915A06B0915B062FBFF60103851485BB
:101CF00025853685BC01CD01601B710B820B930BD2
:101D000067837087818792870E946F1320E030E895
:101D10004BE354E40E94C7124B015C019B01AC01F0
:101D200060E070E080E89FE30E9450122B013C01CC
:101D3000F601008111810115110511F120E030E05B
:101D400040E85FE3C501B4010E94BD1287FF18C0DF
:101D50002FB7F8948091580690915906A0915A0691
:101D6000B0915B062FBFF801438554856585768564
:101D7000841B950BA60BB70B87839087A187B2872F
:101D80001F8E1E8E19A218A2212C312C1A8A198A94
:101D9000188A1F861E861D861C861B868E01055F7F
:101DA0001F4F78010E5F1F4F9E01215F3F4FAE0115
:101DB0004F5E5F4F622DC6010E944F0520E030E06C
:101DC00040E85FE3C501B4010E94BD1287FFBBC0BC
:101DD0001A86198618861F821E821D821C821B820B
:101DE000D6018D919C91009771F0FE0133967F0191
:101DF000085011099E01295F3F4FAE01475F5F4FB9
:101E0000622D0E944F0569897A89072E000C880B84
:101E1000990B0E947113A50194010E9460146A8FAE
:101E20007B8F8C8F9D8F69857A85072E000C880BA0
:101E3000990B0E947113A30192010E9460149B01EF
:101E4000AC016A8D7B8D8C8D9D8D0E9451120E94FC
:101E500039137A8B698B6F857889072E000C880B74
:101E6000990B0E947113A50194010E9460146A8F5E
:101E70007B8F8C8F9D8F6F817885072E000C880B50
:101E8000990B0E947113A30192010E9460149B019F
:101E9000AC016A8D7B8D8C8D9D8D0E9451120E94AC
:101EA0003913788B6F876D857E85072E000C880B24
:101EB000990B0E947113A50194010E9460146A8F0E
:101EC0007B8F8C8F9D8F6D817E81072E000C880B00
:101ED000990B0E947113A30192010E9460149B014F
:101EE000AC016A8D7B8D8C8D9D8D0E9451120E945C
:101EF00039137E876D876B857C85072E000C880BD8
:101F0000990B0E947113A50194010E9460146A8FBD
:101F10007B8F8C8F9D8F6B817C81072E000C880BB3
:101F2000990B0E947113A30192010E9460149B01FE
:101F3000AC016A8D7B8D8C8D9D8D0E9451120E940B
:101F400039137C876B874B855C8557FD07C04F3FF6
:101F5000510529F024F04FEF50E001C040E08D859D
:101F60009E8597FD07C08F3F910529F024F08FEFE4
:101F700090E001C080E02F85388937FD08C02F3FF1
:101F8000310519F014F02FEF30E0322F01C030E0AE
:101F900069897A8977FD08C06F3F710519F014F0DF
:101FA0006FEF70E0262F01C020E0D6011296ED9170
:101FB000FC911397628173812616370608F058C08A
:101FC00090E0A0E0B0E0B42B932BA22B8D01222750
:101FD0003327E02E492F5A2F6B2F77274A8F5B8F9D
:101FE0006C8F7D8F6A8DF82E4781442361F0049FAA
:101FF00080011124E12E649F90011124632F849F9E
:1020000090011124F32E55851285208531855113B9
:1020100005C088A199A1280F391F1BC00E8D1F8DE7
:10202000200F311F8B2F9927AA27BB278901050F66
:10203000111D1B8F0A8F442349F050E0489F8001F7
:10204000499F100D589F100D1124812FAA8DBB8D13
:102050008C938285D901A80FB11DEC928385D9019B
:10206000A80FB11D6C938485F901E80FF11DF08272
:10207000BFEF2B1A3B0AE8A1F9A13396F9A3E8A315
:102080000E8D1F8D0C5F1F4F1F8F0E8F003F110590
:1020900009F07CCED60112960D911C911397F80190
:1020A00080859185892B09F47EC10E94E004D801C6
:1020B0001E968D909D90AD90BC905197DC01CB0108
:1020C00088199909AA09BB09C297A105B10568F346
:1020D000F894F801848195819A838983A085B185DC
:1020E0007D01FFEFEF1AFF0A8C91898FD8018C9147
:1020F00052960D90BC91A02D882309F41AC11B8A19
:10210000AB32B10509F059C09BB1F8018489982B15
:10211000988F9BB1809589238F8B8F898C8B898D2C
:1021200087FF02C0888D8C8B588D6F89498D3C89C3
:102130002B8989819A81D7015BB9262F3BB900C0D1
:1021400046FD252F6BB900C05BB9362F2BB900C0F7
:1021500045FD352F6BB900C05BB9262F3BB900C0D8
:1021600044FD252F6BB900C05BB9362F2BB900C0D9
:1021700043FD352F6BB900C05BB9262F3BB900C0BA
:1021800042FD252F6BB900C05BB9362F2BB900C0BB
:1021900041FD352F6BB900C05BB9262F3BB900C09C
:1021A00040FD252F6BB901975BB9362F2BB94D91A7
:1021B00047FD352F6BB901F6B8C0A532B10509F05E
:1021C00059C095B1F8018489982B988F95B1809565
:1021D00089238F8B8F898C8B898D87FF02C0888D97
:1021E0008C8B588D6F89498D3C892B8989819A8187
:1021F000D70155B9262F35B900C046FD252F65B941
:1022000000C055B9362F25B900C045FD352F65B939
:1022100000C055B9262F35B900C044FD252F65B93A
:1022200000C055B9362F25B900C043FD352F65B91B
:1022300000C055B9262F35B900C042FD252F65B91C
:1022400000C055B9362F25B900C041FD352F65B9FD
:1022500000C055B9262F35B900C040FD252F65B9FE
:10226000019755B9362F25B94D9147FD352F65B9E1
:1022700001F65BC0989709F08CC098B1F801848989
:10228000982B988F98B1809589238F8B8F898C8B11
:10229000898D87FF02C0888D8C8B588D6F89498D01
:1022A0003C892B8989819A81D70158B9262F38B961
:1022B00000C046FD252F68B900C058B9362F28B98F
:1022C00000C045FD352F68B900C058B9262F38B970
:1022D00000C044FD252F68B900C058B9362F28B971
:1022E00000C043FD352F68B900C058B9262F38B952
:1022F00000C042FD252F68B900C058B9362F28B953
:1023000000C041FD352F68B900C058B9262F38B933
:1023100000C040FD252F68B9019758B9362F28B95C
:102320004D9147FD352F68B901F6498F3C8B2B8BBA
:102330002EC09C91F8018489982B988F9C91809550
:1023400089238F8B8F898E8B88E08D8B588D6F8939
:10235000498D3D892E8989819A81F7015C9347FDDA
:10236000252F2C93262F3A9531F0441F6C9300C0F3
:1023700000C000C0F3CF6C93000038E0419101979A
:1023800069F7F801B38BA28B498F3D8B2E8B9A8313
:10239000898378940E94E004D8011E966D937D9302
:1023A0008D939C9351970E94C5005ECBD801CD922E
:1023B000DC9252CC991B79E004C0991F961708F063
:1023C000961B881F7A95C9F78095089597FB072E6D
:1023D00016F4009407D077FD09D00E94271207FC5D
:1023E00005D03EF4909581959F4F08957095619525
:1023F0007F4F0895A1E21A2EAA1BBB1BFD010DC041
:10240000AA1FBB1FEE1FFF1FA217B307E407F507A4
:1024100020F0A21BB30BE40BF50B661F771F881F80
:10242000991F1A9469F760957095809590959B0116
:10243000AC01BD01CF0108950E944112A59F900DEE
:10244000B49F900DA49F800D911D11240895AA1B87
:10245000BB1B51E107C0AA1FBB1FA617B70710F08F
:10246000A61BB70B881F991F5A95A9F780959095C1
:10247000BC01CD010895EE0FFF1F0590F491E02DF2
:102480000994A29FB001B39FC001A39F700D811D4D
:102490001124911DB29F700D811D1124911D08956D
:1024A0005058BB27AA270E9468120C9412140E944D
:1024B000D91338F00E94E01320F039F49F3F19F44B
:1024C00026F40C94D6130EF4E095E7FB0C94D0138D
:1024D000E92F0E94371458F3BA176207730784076D
:1024E000950720F079F4A6F50C9459140EF4E095B4
:1024F0000B2EBA2FA02D0B01B90190010C01CA01BE
:10250000A0011124FF27591B99F0593F50F4503E68
:1025100068F11A16F040A22F232F342F4427585F5A
:10252000F3CF469537952795A795F0405395C9F772
:102530007EF41F16BA0B620B730B840BBAF091502A
:10254000A1F0FF0FBB1F661F771F881FC2F70EC0C9
:10255000BA0F621F731F841F48F48795779567959C
:10256000B795F7959E3F08F0B0CF9395880F08F088
:102570009927EE0F9795879508950E94AC1308F45C
:1025800081E008950E94E913E3950C9423140E94BE
:10259000DB120C9412140E94E01358F00E94D9131D
:1025A00040F029F45F3F29F00C94D01351110C94A2
:1025B0005A140C94D6130E94371468F39923B1F37C
:1025C000552391F3951B550BBB27AA276217730759
:1025D000840738F09F5F5F4F220F331F441FAA1FED
:1025E000A9F335D00E2E3AF0E0E832D091505040A9
:1025F000E695001CCAF72BD0FE2F29D0660F771F57
:10260000881FBB1F261737074807AB07B0E809F03C
:10261000BB0B802DBF01FF2793585F4F3AF09E3FC1
:10262000510578F00C94D0130C945A145F3FE4F3E6
:10263000983ED4F3869577956795B795F7959F5F04
:10264000C9F7880F911D9695879597F90895E1E050
:10265000660F771F881FBB1F621773078407BA07AF
:1026600020F0621B730B840BBA0BEE1F88F7E0950A
:1026700008950E9440136894B1110C945A1408955F
:102680000E943F1488F09F5798F0B92F9927B751AF
:10269000B0F0E1F0660F771F881F991F1AF0BA9506
:1026A000C9F714C0B13091F00E945914B1E00895F7
:1026B0000C945914672F782F8827B85F39F0B93FE9
:1026C000CCF3869577956795B395D9F73EF49095B9
:1026D0008095709561957F4F8F4F9F4F0895E89437
:1026E00009C097FB3EF490958095709561957F4F5A
:1026F0008F4F9F4F9923A9F0F92F96E9BB27939508
:10270000F695879577956795B795F111F8CFFAF417
:10271000BB0F11F460FF1BC06F5F7F4F8F4F9F4F48
:1027200016C0882311F096E911C0772321F09EE8A6
:10273000872F762F05C0662371F096E8862F70E00C
:1027400060E02AF09A95660F771F881FDAF7880FE6
:102750009695879597F90895990F0008550FAA0B3C
:10276000E0E8FEEF16161706E807F907C0F01216A4
:102770001306E407F50798F0621B730B840B950BA7
:1027800039F40A2661F0232B242B252B21F40895FC
:102790000A2609F4A140A6958FEF811D811D089599
:1027A00097F99F6780E870E060E008959FEF80EC04
:1027B000089500240A9416161706180609060895A7
:1027C00000240A94121613061406050608950C94A4
:1027D000D6130E943F14D8F3E894E0E0BB279F573C
:1027E000F0F02AED3FE049EC06C0EE0FBB0F661F8C
:1027F000771F881F28F0B23A62077307840728F012
:10280000B25A620B730B840BE3959A9572F780387A
:1028100030F49A95BB0F661F771F881FD2F7904838
:102820000C94D714092E0394000C11F4882352F051
:10283000BB0F40F4BF2B11F460FF04C06F5F7F4FEC
:102840008F4F9F4F0895EF93E0FF07C0A2EA2AED54
:102850003FE049EC5FEB0E9468120E9412140F9057
:10286000039401FC9058E8E6F0E00C94E31457FD63
:102870009058440F551F59F05F3F71F04795880FEE
:1028800097FB991F61F09F3F79F087950895121685
:1028900013061406551FF2CF4695F1DF08C0161631
:1028A00017061806991FF1CF8695710561050894E2
:1028B0000895E894BB2766277727CB0197F90895F9
:1028C0000E9473140C9412140E94D91338F00E94C1
:1028D000E01320F0952311F00C94D0130C94D61330
:1028E00011240C945A140E94371470F3959FC1F36D
:1028F000950F50E0551F629FF001729FBB27F00DAE
:10290000B11D639FAA27F00DB11DAA1F649F662702
:10291000B00DA11D661F829F2227B00DA11D621F51
:10292000739FB00DA11D621F839FA00D611D221F0B
:10293000749F3327A00D611D231F849F600D211DEF
:10294000822F762F6A2F11249F5750409AF0F1F072
:1029500088234AF0EE0FFF1FBB1F661F771F881FDB
:1029600091505040A9F79E3F510580F00C94D01330
:102970000C945A145F3FE4F3983ED4F38695779510
:102980006795B795F795E7959F5FC1F7FE2B880F81
:10299000911D9695879597F908959F930E94E91345
:1029A0000F9007FCEE5F0C9423149F3F31F0915081
:1029B00020F4879577956795B795880F911D969523
:1029C000879597F908959F938F937F936F93FF93C4
:1029D000EF939B01AC010E946014EF91FF910E9464
:1029E000F7142F913F914F915F910C946014DF93F6
:1029F000CF931F930F93FF92EF92DF927B018C0195
:102A0000689406C0DA2EEF010E947314FE01E89468
:102A1000A5912591359145915591A6F3EF010E941D
:102A20006812FE019701A801DA9469F7DF90EF9030
:102A3000FF900F911F91CF91DF910895CF93DF9376
:102A40008230910510F482E090E0E0916F06F09101
:102A5000700620E030E0C0E0D0E0309711F1408116
:102A6000518148175907C0F04817590761F482810E
:102A70009381209719F09B838A832BC090937006D3
:102A800080936F0626C02115310519F042175307B0
:102A900018F49A01BE01DF01EF010280F381E02DFD
:102AA000DCCF2115310509F1281B390B2430310504
:102AB00090F412968D919C9113976115710521F0F8
:102AC000FB019383828304C09093700680936F060A
:102AD000FD01329644C0FD01E20FF31F81939193F3
:102AE000225031092D933C933AC020916D063091CC
:102AF0006E06232B41F42091900230919102309385
:102B00006E0620936D0620918E0230918F02211562
:102B1000310541F42DB73EB7409192025091930296
:102B2000241B350BE0916D06F0916E06E217F3075A
:102B3000A0F42E1B3F0B2817390778F0AC014E5F2D
:102B40005F4F2417350748F04E0F5F1F50936E06F6
:102B500040936D068193919302C0E0E0F0E0CF01D5
:102B6000DF91CF9108950F931F93CF93DF93009739
:102B700009F48CC0FC0132971382128200916F0617
:102B8000109170060115110581F420813181820FA9
:102B9000931F20916D0630916E062817390779F53D
:102BA000F0936E06E0936D0671C0D80140E050E0EE
:102BB000AE17BF0750F412962D913C911397AD01BB
:102BC0002115310509F1D901F3CF9D01DA013383D4
:102BD000228360817181860F971F8217930769F4A2
:102BE000EC0128813981260F371F2E5F3F4F31833B
:102BF00020838A819B8193838283452B29F4F093E0
:102C00007006E0936F0642C01396FC93EE93129702
:102C1000ED01499159919E01240F351FE217F307E9
:102C200071F480819181840F951F029611969C9377
:102C30008E938281938113969C938E931297E0E0FA
:102C4000F0E0D80112968D919C911397009719F09E
:102C5000F8018C01F6CF8D919C9198012E5F3F4F2A
:102C6000820F931F20916D0630916E062817390749
:102C700069F4309729F41092700610926F0602C022
:102C80001382128210936E0600936D06DF91CF912E
:102C90001F910F91089581E090E0F8940C945016E4
:102CA00010E0CCE6D0E004C0FE010E943B12219669
:0A2CB000CD36D107C9F7F894FFCF25
:102CBA000000000088130000790500000000970555
:102CCA000000E8030000B80B000079058B0500003E
:102CDA0000000000A00F0000B80B000067058B057C
:102CEA0000000000000088130000B80B0000670510
:102CFA000000000097050000000000008813000093
:102D0A00B00400001B060000000000000000881349
:102D1A000000990400001B060000000000000000EB
:102D2A0088130000820400001B0600000000000057
:102D3A000000881300006B0400001B06000000005E
:102D4A000000000088130000540400001B06000065
:102D5A000000E8030000FFFFFFFF42040000D30465
:102D6A000000C70400000000FFFFFFFF12053E0538
:102D7A00310524050000D0070000FFFFFFFF000512
:102D8A004B05000000000000D0070000FFFFFFFF16
:102D9A00EE044B0500000000000000000000B80B24
:102DAA00000079058B05000097050000B80B0000AC
:102DBA007017000067058B050000970500000000EA
:102DCA000000FFFFFFFF270600000000BF05BF0548
:102DDA00F4010000E8030000270600000000B20525
:102DEA000000CA080000E8030000270600000000EF
:102DFA00B2050000A00F0000E8030000270600004B
:102E0A000000B205000000000000FFFFFFFFDA0526
:102E1A000000000000001B0600000000FFFFFFFF8B
:102E2A002706000000000000000600000000FFFF67
:102E3A00FFFF27060000000000001B06FE0100003D
:102E4A007106800000000000D3067A06B9009700D8
:102E5A00AB001A07000000005002D7010000000072
:102E6A005002D200000000007501000000002F038C
:102E7A000000000027020000000099022201000061
:102E8A000000D30100000000CF00000000007A0417
:102E9A00000000002501000000006F0411100F0E51
:102EAA000905030D0A00456E746572696E67204F45
:102EBA00666620537461746500456E746572696E46
:102ECA0067204F6E20537461746500456E74657295
:102EDA00696E6720557020537461746500456E747D
:102EEA006572696E67203120537461746500456E9E
:102EFA00746572696E672032205374617465004587
:102F0A006E746572696E672033205374617465004C
:102F1A00456E746572696E672034205374617465F6
:102F2A0000456E746572696E67203520537461744A
:022F3A00650030
:107800000C94343C0C94513C0C94513C0C94513CE1
:107810000C94513C0C94513C0C94513C0C94513CB4
:107820000C94513C0C94513C0C94513C0C94513CA4
:107830000C94513C0C94513C0C94513C0C94513C94
:107840000C94513C0C94513C0C94513C0C94513C84
:107850000C94513C0C94513C0C94513C0C94513C74
:107860000C94513C0C94513C11241FBECFEFD8E036
:10787000DEBFCDBF11E0A0E0B1E0EAE8FFE702C063
:1078800005900D92A230B107D9F712E0A2E0B1E065
:1078900001C01D92AD30B107E1F70E942D3D0C945F
:1078A000C33F0C94003C982F95959595959595958B
:1078B000905D8F708A307CF0282F295A8091C0000B
:1078C00085FFFCCF9093C6008091C00085FFFCCF60
:1078D0002093C6000895282F205DF0CF982F809127
:1078E000C00085FFFCCF9093C6000895EF92FF92F1
:1078F0000F931F93EE24FF2487018091C00087FD22
:1079000017C00894E11CF11C011D111D81E2E8164D
:1079100081EAF80687E0080780E0180770F3E09135
:107920000401F091050109958091C00087FFE9CF1E
:107930008091C6001F910F91FF90EF9008950E94D3
:10794000763C982F8091C00085FFFCCF9093C600B5
:1079500091362CF490330CF09053892F089597555D
:10796000892F08951F930E949F3C182F0E949F3CCF
:107970001295107F810F1F9108951F93182F882350
:1079800021F00E94763C1150E1F71F9108951F935A
:10799000182F0E94763C803249F0809103018F5F5E
:1079A000809303018530C1F01F9108958091C0003C
:1079B00085FFFCCF84E18093C6008091C00085FFE5
:1079C000FCCF1093C6008091C00085FFFCCF80E102
:1079D0008093C6001F910895E0910401F091050184
:1079E00009951F9108950E94763C803241F0809164
:1079F00003018F5F80930301853081F008958091AA
:107A0000C00085FFFCCF84E18093C6008091C00058
:107A100085FFFCCF80E18093C6000895E0910401CA
:107A2000F09105010995089548EC50E08823A1F0F4
:107A30002D9A28EE33E0FA013197F1F721503040CA
:107A4000D1F72D9828EE33E0FA013197F1F7215064
:107A50003040D1F7815061F708953F924F925F9285
:107A60006F927F928F929F92AF92BF92CF92DF924E
:107A7000EF92FF920F931F93CF93DF93000082E06A
:107A80008093C00080E18093C4001092C50088E11B
:107A90008093C10086E08093C2005098589A259A3E
:107AA00081E00E94143D24E1F22E9EE1E92E85E959
:107AB000D82E0FE0C02E10E1B12EAA24A394B1E479
:107AC0009B2EA6E58A2EF2E57F2EE0E26E2E79E46B
:107AD000572E63E5462E50E5352E0E94763C8033C6
:107AE000B1F18133B9F1803409F46FC0813409F404
:107AF00076C0823409F485C0853409F488C08035A5
:107B000031F1823521F1813511F1853509F485C0D6
:107B1000863509F48DC0843609F496C0843709F49B
:107B200003C1853709F472C1863709F466C08091B4
:107B300003018F5F80930301853079F6E0910401A2
:107B4000F091050109950E94763C803351F60E9420
:107B5000F33CC3CF0E94763C803249F78091C0004D
:107B600085FFFCCFF092C6008091C00085FFFCCF5E
:107B70009092C6008091C00085FFFCCF8092C60025
:107B80008091C00085FFFCCF7092C6008091C0003C
:107B900085FFFCCF6092C6008091C00085FFFCCFBE
:107BA0005092C6008091C00085FFFCCF4092C60075
:107BB0008091C00085FFFCCF3092C6008091C0004C
:107BC00085FFFCCFB092C60088CF0E94763C8638F5
:107BD00008F4BDCF0E94763C0E94F33C7ECF0E9409
:107BE000763C803809F49CC0813809F40BC1823896
:107BF00009F430C1883909F48FC080E00E94C73C85
:107C00006CCF84E10E94BD3C0E94F33C66CF85E0CE
:107C10000E94BD3C0E94F33C60CF0E94763C809362
:107C200006010E94763C809307010E94F33C55CFE9
:107C30000E94763C803309F411C183E00E94BD3C70
:107C400080E00E94C73C49CF0E94763C80930902A5
:107C50000E94763C8093080280910C028E7F809374
:107C60000C020E94763C853409F409C18091080217
:107C700090910902892B89F000E010E00E94763C87
:107C8000F801E85FFE4F80830F5F1F4F809108026D
:107C9000909109020817190788F30E94763C8032F8
:107CA00009F045CF80910C0280FFF5C0609106017C
:107CB00070910701660F771F7093070160930601AB
:107CC000A0910802B09109021097C9F0E8E0F1E034
:107CD0009B01AD014E0F5F1FF999FECF32BD21BD53
:107CE000819180BDFA9AF99A2F5F3F4FE417F5070B
:107CF00099F76A0F7B1F70930701609306018091CB
:107D0000C00085FFFCCFF092C6008091C00085FFC7
:107D1000FCCFB092C600E1CE83E00E94C73CDDCE2E
:107D200082E00E94C73CD9CE0E94763C8093090233
:107D30000E94763C80930802809106019091070191
:107D4000880F991F90930701809306010E94763C4B
:107D5000853409F49AC080910C028E7F80930C02C6
:107D60000E94763C803209F0B8CE8091C00085FF39
:107D7000FCCFF092C600A0910802B09109021097C2
:107D8000C1F180910C02082F0170182F1695117007
:107D9000E0910601F0910701AF014F5F5F4FBA011B
:107DA00020E030E00023B1F4112339F49491809164
:107DB000C00085FFFCCF9093C6002F5F3F4FCB01E3
:107DC0000196FA012A173B0780F4BC014F5F5F4F11
:107DD000002351F3F999FECFF2BDE1BDF89A90B5B9
:107DE0008091C00085FFFCCFE6CF709307016093C0
:107DF00006018091C00085FDE5CE8091C00085FF21
:107E0000F8CFE0CE81E00E94C73C67CE0E94763C6E
:107E1000803209F08CCE8091C00085FFFCCFF092BB
:107E2000C6008091C00085FFFCCFE092C600809123
:107E3000C00085FFFCCFD092C6008091C00085FFB6
:107E4000FCCFC092C6008091C00085FFFCCFB092ED
:107E5000C60043CE80E10E94C73C3FCE0E94763CE4
:107E60000E94763C182F0E94763C112309F483C0AF
:107E7000113009F484C08FE00E94C73C2ECE80915F
:107E80000C02816080930C02F1CE80910C02816023
:107E900080930C0265CF809107018823880F880B9F
:107EA0008A2180930B028091060190910701880F2F
:107EB000991F90930701809306018091080280FF2B
:107EC00009C08091080290910902019690930902DD
:107ED00080930802F894F999FECF1127E0910601EA
:107EE000F0910701C8E0D1E0809108029091090269
:107EF000103091F40091570001700130D9F303E084
:107F000000935700E8950091570001700130D9F3B4
:107F100001E100935700E8950990199000915700EE
:107F200001700130D9F301E000935700E8951395F3
:107F3000103498F011270091570001700130D9F3E7
:107F400005E000935700E89500915700017001305B
:107F5000D9F301E100935700E8953296029709F0B2
:107F6000C7CF103011F00296E5CF11248091C000E8
:107F700085FFC5CEC8CE8EE10E94C73CAECD85E957
:0A7F80000E94C73CAACDF894FFCF81
:027F8A00800075
:040000030000780081
:00000001FF