:100000000C9487030C94AF030C94AF030C94AF03D0
:100010000C94AF030C94AF030C94AF030C94AF0398
:100020000C94AF030C94AF030C94AF030C94AF0388
:100030000C94AF030C94AF030C94AF030C94AF0378
:100040000C9469070C94AF030C942A0A0C94040ACC
:100050000C94AF030C94AF030C94AF030C94AF0358
:100060000C94AF030C94AF0305A84CCDB2D44EB999
:100070003836A9020C50B9918688083CA6AAAA2A4B
:10008000BE000000803F01020408102040800102F1
:1000900004081020010204081020000000002500C0
:1000A00028002B00040404040404040402020202D5
:1000B000020203030303030300000000FFFFFFFF2E
:1000C0000F02A3040000000000009A020000FFFFDE
:1000D000FFFF0F020000A304000000003505000030
:1000E000FFFFFFFF0F0200000000A3040000456EA9
:1000F000746572696E6720652053746174650000D1
:10010000000000FFFFFFFF25040000A8050000001D
:100110000000000000FFFFFFFF0E040000A8050024
:1001200000000000000000FFFFFFFFF7030000A831
:10013000050000000000000000FFFFFFFFE00300DB
:1001400000A8050000000000000000FFFFFFFFC93D
:10015000030000A80500000000D0070000FFFFFF1B
:10016000FFB305FF040A05F4040000B80B0000FF0C
:10017000FFFFFF1C02360500002B050000456E74D2
:100180006572696E672064205374617465000000B5
:100190000000FFFFFFFF6A02A30400000000000050
:1001A000EE020000FFFFFFFF5D0200000000A3045D
:1001B0000000DC050000FFFFFFFF50020000A30469
:1001C00000000000456E746572696E6720632053FD
:1001D000746174650000000000FFFFFFFFA50200CE
:1001E00000AE040000000000000000FFFFFFFF8ED3
:1001F00002000000007105000000000000FFFFFF8A
:10020000FF77027105000066050000456E74657297
:10021000696E6720622053746174650000000000FD
:10022000FFFFFFFFBA02000000009804000000007A
:100230000000FFFFFFFFAD02980400000000000077
:10024000456E746572696E672061205374617465D0
:100250000000000000FFFFFFFF25040000A80500CC
:1002600000000000000000FFFFFFFF0E040000A8D8
:10027000050000000000000000FFFFFFFFF7030083
:1002800000A8050000000000000000FFFFFFFFE0E5
:10029000030000A8050000000000000000FFFFFFB1
:1002A000FFC9030000A80500000000E8030000FFEC
:1002B000FFFFFF56043605000000000000B80B00E9
:1002C00000FFFFFFFFC702360500000000000045E9
:1002D0006E746572696E67203920537461746500AD
:1002E00000000000FA000000B3059D050000A8050D
:1002F0000000FA000000FFFFFFFFB3050000A805A3
:1003000000000000FA000000FFFFFFFF630420056B
:100310002B0515050000BE0A0000FFFFFFFF0C03C0
:10032000200587051505C604540B0000FFFFFFFFDD
:100330000403200587051505C604EA0B0000FFFF2E
:10034000FFFFFC02200587051505C604800C000090
:10035000FFFFFFFFF402200587051505C604160DF3
:100360000000FFFFFFFFEC02200587051505C6040E
:10037000AC0D0000FFFFFFFFE40220058705150517
:10038000C604420E0000FFFFFFFFDC0220058705C8
:100390001505C604D80E0000FFFFFFFFD40220059C
:1003A00087051505C604456E746572696E67203948
:1003B0002053746174650000000000FFFFFFFFB36D
:1003C000059D050000A805000000000000FFFFFFDC
:1003D000FF4203150500002B05000090010000FFFF
:1003E000FFFFFF2B03150500002B05000020030075
:1003F00000FFFFFFFF1403150500002B050000455B
:100400006E746572696E672038205374617465007C
:1004100000000000FFFFFFFF800300003605000022
:10042000000000000000FFFFFFFF7303000000005A
:1004300036050000D0070000FFFFFFFF6603000045
:10044000360500000000D0070000FFFFFFFF590342
:100450000000000036050000456E746572696E6725
:1004600020372053746174650000000000FFFFFF17
:10047000FFAF033605000000000000F4010000FF9C
:10048000FFFFFFA2033605000000000000E80300A4
:1004900000FFFFFFFF95033605000000000000CAC3
:1004A000080000E80300008D03D2040000BA040035
:1004B00000A00F0000E80300008D03D2040000BA82
:1004C000040000456E746572696E672036205374AF
:1004D00061746500000000008813000074040000CF
:1004E000000015050000E8030000B80B00007404CC
:1004F0002005000000000000A00F0000B80B000065
:100500006304200500000000000088130000B80B01
:10051000000063040000000015050000456E7465CE
:1005200072696E67203520537461746500000000A5
:10053000008813000025040000A80500000000004A
:10054000000000881300000E040000A80500000051
:10055000000000000088130000F7030000A8050059
:100560000000000000000088130000E0030000A865
:1005700005000000000000000088130000C903000F
:1005800000A80500000000E8030000FFFFFFFFBC1B
:10059000030000DE040000E904456E746572696EB4
:1005A0006720342053746174650000000000FFFF71
:1005B000FFFF560442055A054E050000D007000013
:1005C000FFFFFFFF49043605000000000000D007D0
:1005D0000000FFFFFFFF3C043605000000000000A4
:1005E000456E746572696E6720332053746174655B
:1005F0000000000000B80B00007404200500001586
:10060000050000B80B00007017000063042005000F
:100610000015050000456E746572696E6720322012
:1006200053746174650000000000FFFFFFFFB30515
:10063000000000007C057C05F4010000E8030000D8
:10064000B30500000000BA040000CA080000E80377
:100650000000B30500000000BA040000A00F000075
:10066000E8030000B30500000000BA040000456E76
:10067000746572696E67203120537461746500007F
:10068000000000FFFFFFFF8104000000000000A841
:1006900005456E746572696E6720557020537461EC
:1006A00074650000000000FFFFFFFFB305000000BD
:1006B000000000A805456E746572696E67204F6E74
:1006C0002053746174650000000000FFFFFFFFB35A
:1006D000050000000000009205456E746572696EA9
:1006E00067204F6666205374617465000000000047
:1006F000240027002A000000000800020100000377
:1007000004070000000000000000BC0C9615112436
:100710001FBECFEFD8E0DEBFCDBF11E0A0E0B1E05B
:10072000E8EAFDE302C005900D92A237B107D9F7C0
:1007300026E0A2E7B1E001C01D92A831B207E1F7BF
:1007400013E0C6E8D3E004C02197FE010E94A41A7A
:10075000C538D107C9F70E94A6150C94C71E0C9482
:100760000000CB01BA0108958F929F92AF92BF9281
:10077000CF92DF92EF92FF92CF93DF935C01FC0167
:1007800090858681D281C381992329F0682F70E0FA
:100790006D1B710904C06C2F70E0681B7109072E76
:1007A000000C880B990B0E94DA1B6B017C01F50190
:1007B00061857285838594850E94D81B4B015C01FD
:1007C0008C2F90E001968D1B9109BC01990F880B2D
:1007D000990B0E94DA1B9B01AC01C701B6010E9474
:1007E000301B9B01AC01C501B4010E94CE1C0E94CC
:1007F000A91BDF91CF91FF90EF90DF90CF90BF903A
:10080000AF909F908F900895FC0186810895089580
:100810002F923F924F925F926F927F928F929F9210
:10082000AF92BF92CF92DF92EF92FF920F931F93FE
:10083000CF93DF9300D000D000D0CDB7DEB71C013E
:100840008B01FC01E680F780B7010F2C000C880BB0
:10085000990B4D835E830E94DA1B69837A838B83B5
:100860009C83F101608571856E197F09072E000C4C
:10087000880B990B0E94DA1B2B013C01F101828548
:10088000C280D380E480F5804D815E818823D1F0E1
:1008900046015701880C991CAA1CBB1CBA01C8014F
:1008A000A50194010E94631AC616D706E806F90648
:1008B00090F4A5019401261B370B480B590BCA0174
:1008C000B90109C0BA01C801C616D706E806F9067B
:1008D00010F4C701B6010E94D81B6B017C01F10125
:1008E00062817381848195810E94D81B9B01AC0138
:1008F000C701B6010E94301B9B01AC01C301B201CC
:100900000E94CE1C9B01AC0169817A818B819C8104
:100910000E94BA1A0E94A21BCB0126960FB6F89429
:10092000DEBF0FBECDBFDF91CF911F910F91FF9022
:10093000EF90DF90CF90BF90AF909F908F907F907F
:100940006F905F904F903F902F900895FC018085AD
:10095000918508958F929F92AF92BF92CF92DF922E
:10096000EF92FF92CF93DF935C01FC01908587812A
:10097000D481C581992329F0682F70E06D1B71091E
:1009800004C06C2F70E0681B7109072E000C880BE7
:10099000990B0E94DA1B6B017C01F5016185728560
:1009A000838594850E94D81B4B015C018C2F90E0BD
:1009B00001968D1B9109BC01990F880B990B0E9420
:1009C000DA1B9B01AC01C701B6010E94301B9B01E1
:1009D000AC01C501B4010E94CE1C0E94A91BDF918D
:1009E000CF91FF90EF90DF90CF90BF90AF909F900E
:1009F0008F900895DC01E62F372F822F6AE00E9446
:100A0000431A16968C93169717969C9317971296DF
:100A10002C911297821790F013962C911397281708
:100A200068F014968C911497981740F015968C9155
:100A3000891720F0BA018E2F932F08956FEF7FEF63
:100A40008FEF9FEF08958F929F92AF92BF92CF92B8
:100A5000DF92EF92FF92CF93DF93EC010E94FA04B2
:100A60004B015C018FEF88169806A806B806E9F0DE
:100A7000CD84DE84EF84F88889859A85AB85BC8532
:100A8000C80ED91EEA1EFB1EE881F9810280F3819F
:100A9000E02DCE010995C818D908EA08FB084601DF
:100AA0005701861A970AA80AB90AC501B401DF914D
:100AB000CF91FF90EF90DF90CF90BF90AF909F903D
:100AC0008F900895CF92DF92EF92FF92CF93DF93B2
:100AD000EC010E94FA046B017C018FEFC816D80666
:100AE000E806F80659F0E881F9810280F381E02DEB
:100AF000CE010995C61AD70AE80AF90AC701B60154
:100B0000DF91CF91FF90EF90DF90CF9008958F927B
:100B10009F92AF92BF92CF92DF92EF92FF921F937C
:100B2000CF93DF93EC010E94FA046F3F2FEF72071F
:100B30008207920721F46FEF7FEFCB0172C08F84A1
:100B40009888A988BA88A50194010E94631A6B014C
:100B50007C018E85882341F0D501C4018C199D0943
:100B6000AE09BF096C017D01288539854A855B8501
:100B7000C701B6010E94631AB22E6D8570E0822F04
:100B800090E02C85821B91090196860F971F0E9489
:100B90004F1A182FE881F9810280F381E02DCE01F0
:100BA00009956D850E94431AB11628F0911718F225
:100BB000B91630F4C0CFB91618F4911708F4BBCFAA
:100BC0008F849888A988BA88C80CD91CEA1CFB1C99
:100BD000288539854A855B85A92FB0E00E94851A52
:100BE000A7019601261B370B480B590BCA01B90107
:100BF000A50194010E94631ACB88DC88ED88FE88E9
:100C00006C157D058E059F0560F0CC0CDD1CEE1C7F
:100C1000FF1CA7019601261B370B480B590BCA0175
:100C2000B901DF91CF911F91FF90EF90DF90CF90AE
:100C3000BF90AF909F908F9008956F927F928F9208
:100C40009F92AF92BF92CF92DF92EF92FF920F935B
:100C50001F93CF93DF9300D000D0CDB7DEB73C0118
:100C6000E62F372FDC011A968C911A971296CD90A9
:100C7000DD90ED90FC9015978823D9F0460157013F
:100C8000880C991CAA1CBB1CBA018E2F932FA5019E
:100C900094010E94631AC616D706E806F90698F46E
:100CA000A5019401261B370B480B590BCA01B9014A
:100CB0000AC0BA018E2F932FC616D706E806F9068A
:100CC00010F4C701B601D3011B962C911B9721305C
:100CD00029F518960D911C9119970E94D81B6B014C
:100CE0007C01F30162817381848195810E94D81B0C
:100CF0009B01AC01C701B6010E94301B2BED3FE008
:100D000049EC5FE30E94CE1C0E942B1B9B01AC01AF
:100D1000D30116968D919C91179725C02230A1F58D
:100D2000F301068117810E94D81B6B017C01D3015E
:100D300012966D917D918D919C9115970E94D81B73
:100D40009B01AC01C701B6010E94301B2BED3FE0B7
:100D500049EC5FE30E94CE1C0E943B1D9B01AC014D
:100D6000F30180859185801B910BBC01990F880B45
:100D7000990B29833A834B835C830E94DA1B298178
:100D80003A814B815C8144C0233009F057C0D301C4
:100D900016960D911C9117970E94D81B2BED3FE0E2
:100DA00049E450E40E94CE1C6B017C01F301628196
:100DB0007381848195810E94D81B9B01AC01C7017E
:100DC000B6010E94301B0E942B1B6B017C01D301DA
:100DD00018968D919C911997F801E81BF90BCF019A
:100DE000F7FD019695958795BC01990F880B990B96
:100DF0000E94DA1B4B015C0120E030E040E85FE339
:100E0000C701B6010E94B91A9B01AC01C501B4012A
:100E10000E94CE1C6B017C01B801110F880B990B4D
:100E20000E94DA1B9B01AC01C701B6010E94BA1AED
:100E30000E94A21B262F972F822F00C00F900F9089
:100E40000F900F90DF91CF911F910F91FF90EF9036
:100E5000DF90CF90BF90AF909F908F907F906F90DA
:100E60000895262FFC018281882311F061E001C0E2
:100E700060E0822F0C945C0A2FB7F8946091FD0516
:100E80007091FE058091FF05909100062FBF089597
:100E90000F931F93CF938C01C62F0E943C07F8013C
:100EA00022813381448155810E94631AF8010681B1
:100EB000178120853185061717072807390710F095
:100EC00061E001C060E08C2FCF911F910F910C94D5
:100ED0005C0A1F920F920FB60F9211242F933F932B
:100EE0008F939F93AF93BF938091FD059091FE05E3
:100EF000A091FF05B09100063091FC0526E0230F7C
:100F00002D3720F40296A11DB11D05C029E8230F3D
:100F10000396A11DB11D2093FC058093FD059093C0
:100F2000FE05A093FF05B093000680910106909105
:100F30000206A0910306B09104060196A11DB11D01
:100F40008093010690930206A0930306B0930406D3
:100F5000BF91AF919F918F913F912F910F900FBEB5
:100F60000F901F901895E0910001E73068F58636E4
:100F700009F15CF4823609F037C1F0E0EE0FFF1F93
:100F8000EB5FF94F87ED95E01CC08E3659F0833743
:100F900009F02AC1F0E0EE0FFF1FEB5FF94F8DEC77
:100FA00095E00FC0F0E0EE0FFF1FEB5FF94F84EE0E
:100FB00095E007C0F0E0EE0FFF1FEB5FF94F81EE09
:100FC00095E09183808310C1E73009F00DC188332B
:100FD00009F4CDC07CF5833309F499C0A4F48133BE
:100FE00009F47DC00CF087C0803309F0FDC08FECA0
:100FF00092E00E94BF0B20E030E04AE753E467E054
:1010000081E592E0EFC0853309F499C00CF48BC000
:10101000863309F4A0C0873309F0E6C088E594E080
:101020000E94BF0B20E030E04AE753E464E080E137
:1010300094E0D8C0843609F4BEC02CF5813609F49A
:10104000A2C07CF4893309F0CFC086EA93E00E9405
:10105000BF0B20E030E04AE753E46BE080EE92E023
:10106000C1C0823609F49BC0833609F0BDC084EC50
:1010700091E00E94BF0B20E030E04AE753E463E0D8
:101080008EE891E0AFC0863691F00CF4A0C08E36A9
:10109000D1F0853709F0A8C081E996E00E94BF0B26
:1010A00020E030E0A90161E08FE796E09BC089ED88
:1010B00096E00E94BF0B20E030E046E954E461E096
:1010C00087EC96E08FC085EB96E00E94BF0B20E096
:1010D00030E046E954E461E083EA96E083C08EE6BE
:1010E00096E00E94BF0B20E030E04AE753E464E062
:1010F00086E296E077C085E196E00E94BF0B20E093
:1011000030E04AE753E462E081EF95E06BC080EEA7
:1011100095E00E94BF0B20E030E04AE753E463E033
:101120008AEA95E05FC089E995E00E94BF0B20E064
:1011300030E04AE753E466E08DE295E053C08CE18D
:1011400095E00E94BF0B20E030E04AE753E464E002
:1011500084ED94E047C083EC94E00E94BF0B20E054
:1011600030E04AE753E465E089E694E03BC08FEF66
:1011700093E00E94BF0B20E030E04AE753E464E0D4
:1011800087EB93E02FC080E492E00E94BF0B20E049
:1011900030E04AE753E462E08CE192E023C08BE068
:1011A00092E00E94BF0B20E030E04AE753E463E0A6
:1011B00085ED91E017C08DE791E00E94BF0B20E024
:1011C00030E04AE753E467E08FEF90E00BC08EEE2B
:1011D00090E00E94BF0B20E030E04AE753E463E078
:1011E00088EB90E00E94360B8EEF8093000108950B
:1011F0008F929F92AF92BF92CF92DF92EF92FF9227
:10120000CF93C82F61E00E945C0A0E94E40A4B0160
:101210005C0184E6C82ED12CE12CF12C0E94E40A5A
:10122000DC01CB0188199909AA09BB09883E9340C2
:10123000A105B10558F021E0C21AD108E108F10872
:1012400088EE880E83E0981EA11CB11CC114D10445
:10125000E104F10419F760E08C2FCF91FF90EF903B
:10126000DF90CF90BF90AF909F908F900C945C0ACE
:10127000FC01918D828D981761F0828DDF01A80F9E
:10128000B11D5D968C91928D9F5F9F73928F90E0C0
:1012900008958FEF9FEF0895FC01918D828D98172F
:1012A00031F0828DE80FF11D858D90E008958FEF6C
:1012B0009FEF0895FC01918D228D892F90E0805C35
:1012C0009F4F821B91098F739927089582E791E0C0
:1012D0000E945A0921E0892B09F420E0822F089509
:1012E000FC01848DDF01A80FB11DA35ABF4F2C91C3
:1012F000848D90E001968F739927848FA689B78992
:101300002C93A089B1898C9180648C93938D848D6A
:10131000981306C00288F389E02D80818F7D808339
:101320000895EF92FF920F931F93CF93DF93EC01F9
:1013300081E0888F9B8D8C8D981305C0E889F98991
:10134000808185FD24C0F62E0B8D10E00F5F1F4FAE
:101350000F731127E02E8C8DE8120CC00FB607FC1E
:10136000FACFE889F989808185FFF5CFCE010E9407
:101370007009F1CF8B8DFE01E80FF11DE35AFF4F8D
:10138000F0820B8FEA89FB898081806207C0EE8939
:10139000FF896083E889F98980818064808381E0A6
:1013A00090E0DF91CF911F910F91FF90EF90089502
:1013B000CF93DF93EC01888D8823C9F0EA89FB89FC
:1013C000808185FD05C0A889B9898C9186FD0FC0F3
:1013D0000FB607FCF5CF808185FFF2CFA889B989C8
:1013E0008C9185FFEDCFCE010E947009E7CFDF9190
:1013F000CF91089580E090E0892B29F00E94660942
:1014000081110C94000008951F920F920FB60F9255
:1014100011242F933F934F935F936F937F938F93F9
:101420009F93AF93BF93EF93FF9382E791E00E9466
:101430007009FF91EF91BF91AF919F918F917F9133
:101440006F915F914F913F912F910F900FBE0F9031
:101450001F9018951F920F920FB60F9211242F9381
:101460008F939F93EF93FF93E0918201F09183011B
:101470008081E0918801F091890182FD12C0908104
:1014800080918B018F5F8F7320918C01821751F0B7
:10149000E0918B01F0E0EE58FE4F958F80938B0129
:1014A00001C08081FF91EF919F918F912F910F90BB
:1014B0000FBE0F901F90189590E0FC01EA50F94F75
:1014C0003491FC01EA57FF4F2491FC01EC55FF4F8A
:1014D000E491EE2309F43BC0332339F1333091F02A
:1014E00038F43130A9F0323001F584B58F7D12C067
:1014F000373091F03830A1F03430B9F48091800069
:101500008F7D03C0809180008F77809380000DC015
:1015100084B58F7784BD09C08091B0008F7703C0F8
:101520008091B0008F7D8093B000F0E0EE0FFF1F40
:10153000E656FF4FA591B4918FB7F894EC916111E5
:1015400003C020952E2301C02E2B2C938FBF08950E
:10155000CF93DF9390E0FC01EA57FF4F2491FC0109
:10156000EC55FF4F8491882361F190E0880F991F1B
:10157000FC01E451F94FC591D491FC01E656FF4FAF
:10158000A591B491611109C09FB7F8948881209505
:1015900082238883EC912E230BC0623061F49FB7C5
:1015A000F8943881822F809583238883EC912E2BA9
:1015B0002C939FBF06C08FB7F894E8812E2B288309
:1015C0008FBFDF91CF9108953FB7F89480910106C6
:1015D00090910206A0910306B091040626B5A89B3F
:1015E00005C02F3F19F00196A11DB11D3FBFBA2FB5
:1015F000A92F982F8827820F911DA11DB11DBC0115
:10160000CD0143E0660F771F881F991F4A95D1F7D8
:101610000895CF92DF92EF92FF920F931F93CF9393
:10162000DF936C017A018B01C0E0D0E0CE15DF05BD
:1016300089F0D8016D918D01D601ED91FC91019059
:10164000F081E02DC6010995892B11F47E0102C0BD
:101650002196ECCFC701DF91CF911F910F91FF90A1
:10166000EF90DF90CF9008950E94B91E8F929F92C5
:10167000AF92BF92CF92DF92EF92FF921F93CF93E0
:10168000DF93EC01162F69017A0120E030E0A90117
:10169000C701B6010E94C91C181644F58090BA050E
:1016A0009090BB05A090BC05B090BD0520E030E057
:1016B000A901C501B4010E94C91C18160CF042C052
:1016C0006091C1057091C2058091C3059091C405D8
:1016D0000E94D81BA50194010E94301B20E030E03D
:1016E00040E05FE30E94C91C181664F1D093B8056E
:1016F000C093B7051093B905C092BA05D092BB0547
:10170000E092BC05F092BD051092C1051092C20591
:101710001092C3051092C4050E943C076093C50552
:101720007093C6058093C7059093C805DF91CF914C
:101730001F91FF90EF90DF90CF90BF90AF909F9060
:101740008F9008958091B7059091B8059093BF054B
:101750008093BE058091B9058093C0058091C50531
:101760009091C605A091C705B091C8058093C905A1
:101770009093CA05A093CB05B093CC05B7CF0F9338
:101780001F93CF93DF938C01C0E0D0E0F801EC0F02
:10179000FD1F6491662371F0E0917201F091730175
:1017A0000190F081E02D82E791E00995892B11F0FD
:1017B0002196ECCF42E050E06FE671E082E791E0E5
:1017C0000E94090B8C0F9D1FDF91CF911F910F91EC
:1017D00008952F923F924F925F926F927F928F92D5
:1017E0009F92AF92BF92CF92DF92EF92FF920F93B0
:1017F0001F93CF93DF93CDB7DEB767970FB6F894FB
:10180000DEBF0FBECDBF382E4F8B280139018701B7
:10181000BC8AAB8A9E8A8D8A7B01212C8F892816EF
:1018200009F491C042E150E0B701CE0101960E9457
:10183000BE1E89819A81AB81BC81481659066A0611
:101840007B0608F47BC053014201881A990AAA0A50
:10185000BB0A8D819E81AF81B88588169906AA063C
:10186000BB0608F06BC089859A85009761F0DC01A2
:10187000ED91FC910190F081E02D232DB501A401A3
:1018800009954B015C018114B8E29B06BBE6AB06EF
:10189000BEEEBB0608F052C08B859C85009781F098
:1018A000DC01ED91FC910190F081E02DB501A401E6
:1018B0000995F80120813181820F931F91838083E4
:1018C0008D859E85009789F0DC01ED91FC9101905A
:1018D000F081E02DB501A4010995EB89FC892081F7
:1018E0003181820F931F918380838F859889009720
:1018F00081F0DC01ED91FC910190F081E02DB501CA
:10190000A4010995F60120813181820F931F9183F3
:10191000808389899A89009789F0DC01ED91FC9197
:101920000190F081E02DB501A4010995ED89FE89B2
:1019300020813181820F931F918380832394F2E170
:10194000EF0EF11C6BCF67960FB6F894DEBF0FBE9B
:10195000CDBFDF91CF911F910F91FF90EF90DF905E
:10196000CF90BF90AF909F908F907F906F905F903F
:101970004F903F902F9008952F923F924F925F92F9
:101980006F927F928F929F92AF92BF92CF92DF928F
:10199000EF92FF920F931F93CF93DF9310927501F5
:1019A0001092740188EE93E0A0E0B0E0809376019D
:1019B00090937701A0937801B09379018CE091E046
:1019C000909373018093720185EC90E090937F0176
:1019D00080937E0184EC90E090938101809380015C
:1019E00080EC90E0909383018093820181EC90E001
:1019F000909385018093840182EC90E0909387011D
:101A00008093860186EC90E0909389018093880111
:101A100010928B0110928C0110928D0110928E0108
:101A20001092E8051092EE051092F5051092F60559
:101A30001092F7051092F80583E08093F405109258
:101A4000F10581E08093F20592E09093F305809395
:101A5000E70580EF90E09093EC058093EB050E9402
:101A60008C1D9093F0058093EF05009761F020EFB7
:101A7000FC0111922A95E9F78CE390E09093EA0536
:101A80008093E90508C01092EC051092EB051092C6
:101A9000EA051092E90586E08093ED058091E8055E
:101AA000882341F061E086E00E94A80A60E086E0B9
:101AB0000E945C0AEAEAF0E0E491F0E0EE0FFF1F1A
:101AC000E656FF4F859194919093FA058093F9051E
:101AD000ECE8F0E0E491E093FB052EE531E0309393
:101AE000E5052093E40581E08093E6053093E20567
:101AF0002093E1051092E30522E531E03093D8050B
:101B00002093D70594EF492E55245394612C712CC2
:101B10004092D9055092DA056092DB057092DC059F
:101B20004AEF842E912CA12CB12C8092DD0590924D
:101B3000DE05A092DF05B092E0053093CE0520933C
:101B4000CD0548EC50E060E070E04093CF05509345
:101B5000D0056093D1057093D20554E6A52EB12C23
:101B6000C12CD12CA092D305B092D405C092D5053A
:101B7000D092D60527EE35E03093B6052093B50513
:101B80002CE431E03093B4052093B30546E451E0F2
:101B90005093A9054093A8051092AF051092AE0589
:101BA0006FEF70E07093B1056093B0051092AA05D5
:101BB0001092AB051092AC051092AD051092B205D3
:101BC00050939E0540939D051092A4051092A30585
:101BD000A8E7B0E0B093A605A093A50510929F05D5
:101BE0001092A0051092A1051092A2051092A705CF
:101BF0005093930540939205109299051092980581
:101C000010929B0510929A051092940510929505DA
:101C1000109296051092970510929C055093880596
:101C20004093870521E03FEF30938E0520938D058B
:101C30003093900520938F051092890510928A05A4
:101C400010928B0510928C051092910550937D0592
:101C500040937C0510928305109282050AE010E003
:101C6000109385050093840510927E0510927F05E0
:101C700010928005109281051092860510927805C9
:101C800010927705B0937A05A0937905ECE2CE2EF9
:101C9000DD24D394E12CF12CC0927305D09274050D
:101CA000E0927505F092760510927B0540E451E0D4
:101CB000509372054093710510926D0510926C055A
:101CC00070936F0560936E05C0926805D0926905A8
:101CD000E0926A05F0926B051092700550936705CB
:101CE000409366051092610510926005109263059D
:101CF00010926205FEEECF2EF2E0DF2EE12CF12CE9
:101D0000C0925C05D0925D05E0925E05F0925F05A1
:101D100010926405EAE3F1E0F0935B05E0935A0565
:101D2000809365051092550510925405C2E3D0E0EA
:101D3000D0935705C0935605C0925005D0925105D7
:101D4000E0925205F092530510925805F0934F051A
:101D5000E0934E058093590510924905109248056D
:101D6000B0934B05A0934A05C0924405D092450517
:101D7000E0924605F092470510924C05F09343051A
:101D8000E093420580934D0510923D0510923C056D
:101D900070933F0560933E05C0923805D092390597
:101DA000E0923A05F0923B0510924005F09337051A
:101DB000E09336058093410510923205109231056B
:101DC0003093340520933305C8EE8C2EC3E09C2E4F
:101DD000A12CB12C80922D0590922E05A0922F055A
:101DE000B09230051092350550932C0540932B0589
:101DF0001092270510922605B0932905A093280577
:101E00008092220590922305A0922405B092250588
:101E100010922A05509321054093200510921C052D
:101E200010921B0570931E0560931D058092170587
:101E300090921805A0921905B0921A0510921F05EC
:101E40005093160540931505109211051092100538
:101E50003093130520931205D8EB8D2EDBE09D2ED9
:101E6000A12CB12C80920C0590920D05A0920E052C
:101E7000B0920F051092140550930B0540930A057C
:101E80001092060510920505B0930805A09307056A
:101E90008092010590920205A0920305B09204057C
:101EA00010920905509300054093FF041092FB0423
:101EB0001092FA047093FD046093FC048092F6047F
:101EC0009092F704A092F804B092F9041092FE04E4
:101ED0005093F5044093F4041092F0041092EF0430
:101EE0001093F2040093F10410EA812E1FE0912E6A
:101EF000A12CB12C8092EB049092EC04A092ED0402
:101F0000B092EE041092F3045093EA044093E90473
:101F10001092E5041092E404C8ECD0E0D093E704FA
:101F2000C093E6048092E0049092E104A092E2045F
:101F3000B092E3041092E8045093DF044093DE046F
:101F40001092D9041092D8043093DB042093DA0461
:101F50000AEF10E020E030E00093D4041093D504A1
:101F60002093D6043093D7048093DC04F093D304F9
:101F7000E093D20433E03093DD041092CD0410924C
:101F8000CC04C8E2D0E0D093CF04C093CE040AEFD3
:101F9000802E912CA12CB12C8092C8049092C9045F
:101FA000A092CA04B092CB048093D004F093C704EB
:101FB000E093C6043093D1041092C1041092C0047F
:101FC0007093C3046093C2048092BC049092BD04D9
:101FD000A092BE04B092BF048093C404F093BB04EB
:101FE000E093BA043093C504C4E1D0E0D093B504C3
:101FF000C093B404B093B704A093B6044092B00465
:102000005092B1046092B2047092B3048093B80409
:10201000F093AF04E093AE043093B9041092AA0495
:102020001092A9047093AC046093AB0498EE492E0F
:1020300093E0592E612C712C4092A5045092A60475
:102040006092A7047092A8048093AD045093A404F6
:102050004093A30410929F0410929E047093A104D5
:102060006093A00420ED822E27E0922EA12CB12CAB
:1020700080929A0490929B04A0929C04B0929D043A
:102080008093A2045093990440939804109283047F
:1020900095E0909384041092850429E020938604AF
:1020A00042E3242E41E0342E3092820420928104B7
:1020B0004CE350E060E070E04093890450938A0460
:1020C00060938B0470938C0430938D04E6E0E0936E
:1020D0008E0410928F0448E651E060E070E0409377
:1020E00090045093910460939204709393044AE592
:1020F00050E060E070E04093940450939504609346
:10210000960470939704109276049093770410923B
:1021100078042093790404E211E01093750400938D
:10212000740480937C0480927D0490927E04A0923B
:102130007F04B0928004109265049093660410921C
:1021400067042093680480936B0480926C049092DF
:102150006D04A0926E04B0926F0444E651E0509377
:10216000640440936304409270045092710460923E
:10217000720470927304109258049093590444E0CE
:1021800040935A0440935B04109357040093560401
:1021900080935E0480925F0490926004A092610438
:1021A000B092620410924B0490934C0410924D0430
:1021B00040934E0410925104809252049092530422
:1021C000A0925404B0925504CCE1D1E0D0934A04DB
:1021D000C093490410923E0490933F0440934004FE
:1021E00020934104809344048092450490924604D5
:1021F000A0924704B0924804D0933D04C0933C049D
:1022000010922704909328049093290490932A0411
:10221000309226042092250454E6452E512C612C40
:10222000712C40922D0450922E0460922F047092D3
:1022300030048093310457E0509332048093330488
:102240006CEB462E62E0562E612C712C40923404C9
:1022500050923504609236047092370472E3472E30
:10226000512C612C712C40923804509239046092A8
:102270003A0470923B04109210049093110430932E
:1022800012043093130430920F0420920E04F4E6EB
:102290004F2E512C612C712C409216045092170431
:1022A000609218047092190480931A04ADE0A09310
:1022B0001B0480931C04B4E14B2EB5E05B2E612C13
:1022C000712C40921D0450921E0460921F04709263
:1022D000200462E3462E512C612C712C4092210483
:1022E0005092220460922304709224041092F90305
:1022F0009093FA034093FB034093FC033092F8035E
:102300002092F70374E6472E512C612C712C4092D9
:10231000FF035092000460920104709202048093C3
:10232000030463E16093040480930504FCE64F2EEC
:10233000F7E05F2E612C712C409206045092070446
:102340006092080470920904B2E34B2E512C612C68
:10235000712C40920A0450920B0460920C0470920B
:102360000D041092E2039093E3038093E4038093BF
:10237000E5033092E1032092E00364E6462E512CFF
:10238000612C712C4092E8035092E9036092EA03B9
:102390007092EB038093EC036BE06093ED0380930A
:1023A000EE037CE4472E74E0572E612C712C409292
:1023B000EF035092F0036092F1037092F203F2E3A4
:1023C0004F2E512C612C712C4092F3035092F40348
:1023D0006092F5037092F6031092CB039093CC03B6
:1023E0005093CD035093CE033092CA032092C90379
:1023F000B4E64B2E512C612C712C4092D10350929B
:10240000D2036092D3037092D4038093D50361E129
:102410006093D6038093D70364EA462E66E0562E77
:10242000612C712C4092D8035092D9036092DA0348
:102430007092DB0372E3472E512C612C712C409279
:10244000DC035092DD036092DE037092DF03109292
:10245000BE039093BF031092C0032093C103109357
:10246000BD030093BC038093C403F0EA4F2EFFE04A
:102470005F2E612C712C4092C5035092C60360926E
:10248000C7037092C8031092B1038093B2031092F5
:10249000B3032093B4038093B703C092B803D092E0
:1024A000B903E092BA03F092BB03D093B003C09398
:1024B000AF03F2E0F093A4033093A5031092A603B8
:1024C0002093A7031092AA03C092AB03D092AC034F
:1024D000E092AD03F092AE03D093A303C093A203A6
:1024E00040939703909398031092990320939A0333
:1024F00080939D03C0929E03D0929F03E092A0031D
:10250000F092A103D0939603C09395036CE271E01F
:1025100070938E0360938D0380938F034093900399
:1025200030939103E093920310928203909383037C
:1025300010928403F093850310938103009380032A
:1025400080938803B4EC4B2EB9E05B2E612C712C88
:102550004092890350928A0360928B0370928C039D
:10256000109275039093760350937703209378032A
:10257000109374030093730310927B0340927C03C7
:1025800050927D0360927E0370927F0310926803E5
:1025900090936903F0936A0320936B0380936E0317
:1025A000B8E84B2EB3E15B2E612C712C40926F0387
:1025B000509270036092710370927203D09367031C
:1025C000C093660310925B0390935C0310925D03CB
:1025D00050935E0310926103409262035092630332
:1025E0006092640370926503D0935A03C0935903B9
:1025F0001092440390934503F093460330934703AE
:102600003092430320924203B4E64B2E512C612CAE
:10261000712C40924A0350924B0360924C0370928B
:102620004D03E0934E03A0934F0310925003B4E187
:102630004B2EB5E05B2E612C712C409251035092D1
:1026400052036092530370925403BCE24B2E552404
:102650005394612C712C4092550350925603609212
:1026600057037092580310922D0390932E034093BA
:102670002F039093300330922C0320922B03B4E667
:102680004B2E512C612C712C409233035092340309
:102690006092350370923603E0933703A0933803BA
:1026A00010923903B4E14B2EB5E05B2E612C712CF6
:1026B00040923A0350923B0360923C0370923D0378
:1026C000BCE24B2E55245394612C712C40923E0356
:1026D00050923F03609240037092410310921603A0
:1026E00090931703E0931803509319033092150346
:1026F00020921403B4E64B2E512C612C712C409285
:102700001C0350921D0360921E0370921F03E093FE
:102710002003A093210310922203A4E14A2EA5E0F6
:102720005A2E612C712C4092230350922403609204
:10273000250370922603BCE24B2E55245394612C42
:10274000712C4092270350922803609229037092C3
:102750002A0370930D0360930C03F0930E03F09320
:102760000F0340931003409311037093050360938C
:1027700004033093060330930703E0930803E093C8
:1027800009037093FD026093FC029093FE02909304
:10279000FF0290930003909301037093F5026093FE
:1027A000F402F093F602F093F702A8E0A093F80287
:1027B000A093F9027093ED026093EC029093EE0205
:1027C0009093EF02F093F002F093F1027093E50220
:1027D0006093E4024093E6024093E7024093E802EC
:1027E0004093E9027093DD026093DC024093DE02C5
:1027F0004093DF025093E0025093E1027093D502C0
:102800006093D4023093D6023093D7023093D8022B
:102810003093D9023093C9029093CA021092CB022E
:102820002093CC021093C8020093C7021092CF02EB
:102830008092D0029092D102A092D202B092D302A2
:102840001092BC029093BD021092BE022093BF0270
:102850001093BB020093BA028093C2028092C3021B
:102860009092C402A092C502B092C6021092AF022A
:102870009093B0021092B1022093B2028093B502FD
:102880008092B6029092B702A092B802B092B902BA
:10289000D093AE02C093AD027093A6026093A502DE
:1028A0001092A7021092A8021092A9022093AA02E5
:1028B000809390029093910210929202209393023F
:1028C00030928F0220928E0266E9462E512C612CA6
:1028D000712C4092960250929702609298027092E8
:1028E0009902F0939A0230939B0210929C0272EC30
:1028F000472E55245394612C712C40929D02509286
:102900009E0260929F027092A002A6E94A2E512C6C
:10291000612C712C4092A1025092A2026092A302FB
:102920007092A4028093790230937A0210927B0213
:1029300020937C023092780220927702BAEF4B2EDD
:10294000512C612C712C40927F0250928002609237
:10295000810270928202309383024093840210922B
:10296000850268EE462E63E0562E612C712C409253
:10297000860250928702609288027092890277E7FD
:10298000472E55245394612C712C40928A02509208
:102990008B0260928C0270928D0210926C02809376
:1029A0006D0210926E0220936F0280937202C092A9
:1029B0007302D0927402E0927502F0927602D09384
:1029C0006B02C0936A02F0935F0230936002109230
:1029D00061022093620210926502C0926602D09258
:1029E0006702E0926802F0926902D0935E02C0939F
:1029F0005D0240935202909353021092540220932E
:102A0000550280935802C0925902D0925A02E09225
:102A10005B02F0925C02D0935102C093500210927C
:102A200045029093460210924702F0934802109399
:102A300044020093430280934B02C0924C02D09216
:102A40004D02E0924E02F0924F02109238029093A3
:102A5000390230933A02E0933B021093370200931D
:102A6000360210923E02C0923F02D0924002E092A3
:102A70004102F092420210922B0290932C0250934A
:102A80002D0220932E0210932A0200932902809394
:102A90003102C0923202D0923302E0923402F092BC
:102AA000350210921E0280931F0210922002209382
:102AB000210210931D0200931C0210922402E8EEE2
:102AC000CE2EE3E0DE2EE12CF12CC0922502D09236
:102AD0002602E0922702F0922802109211029093AF
:102AE0001202109213022093140280931702809214
:102AF000180290921902A0921A02B0921B02D0936F
:102B00001002C0930F02DF91CF911F910F91FF90A0
:102B1000EF90DF90CF90BF90AF909F908F907F907D
:102B20006F905F904F903F902F9008958091EF05A8
:102B30009091F005009711F00E94211E8091ED0503
:102B400087FD03C060E00C94A80A0895CF93DF933B
:102B5000CDB7DEB7A5970FB6F894DEBF0FBECDBFD9
:102B6000789484B5826084BD84B5816084BD85B568
:102B7000826085BD85B5816085BD80916E00816074
:102B800080936E001092810080918100826080931A
:102B9000810080918100816080938100809180001C
:102BA0008160809380008091B10084608093B10047
:102BB0008091B00081608093B00080917A00846041
:102BC00080937A0080917A00826080937A0080916D
:102BD0007A008E7F80937A0080917A00806880935B
:102BE0007A001092C100E0918201F091830182E0AD
:102BF0008083E0917E01F0917F011082E09180015D
:102C0000F091810187E6808310928A01E09186012C
:102C1000F091870186E08083E0918401F091850145
:102C2000808180618083E0918401F09185018081C1
:102C300088608083E0918401F091850180818068C3
:102C40008083E0918401F091850180818F7D808374
:102C500008E611E097E0F92EF00E61E0D8018D91C1
:102C60008D010E94A80AF012F8CF8091ED0587FD32
:102C700008C061E00E94A80A60E08091ED050E9412
:102C80005C0A81E08093E80580910101882319F1B5
:102C900081E10E94F80880E10E94F8088FE00E941C
:102CA000F8088EE00E94F80889E00E94F80885E0A4
:102CB0000E94F80883E00E94F80810920101109227
:102CC000000182E60E94B30787E0809300018EE650
:102CD0000E94B307D5C382E791E00E945A09892B6D
:102CE00081F182E791E00E94380980931306909168
:102CF00000019E3F21F58433E1F044F4823399F0E2
:102D0000A4F48133F1F4109200011BC0823699F0D3
:102D100024F48136B1F484E009C0833671F083373E
:102D200081F487E003C081E001C082E0809300016C
:102D300008C083E0FBCF85E0F9CF86E0F7CF0E94A3
:102D4000B30705E016E088E6E82E81E0F82EF801EA
:102D5000819191918F01009749F0DC01ED91FC91F7
:102D60000190F081E02DD7016C910995BFEFEB1A2E
:102D7000FB0AE6E003311E0751F70E943C07009171
:102D8000C5051091C6052091C7053091C8054B01B6
:102D90005C01801A910AA20AB30A8092C10590923E
:102DA000C205A092C305B092C4054090BA055090E8
:102DB000BB056090BC057090BD0520E030E0A90126
:102DC000C301B2010E94C91C18165CF4C501B4010C
:102DD0000E94D81BA30192010E94301B2B013C01D1
:102DE00006C0412C512C00E8602E0FE3702EA30189
:102DF000920160E070E080E89FE30E94B91A6A8F58
:102E00007B8F8C8F9D8F8091BE059091BF05892B04
:102E1000F9F020E030E040E85FE3C301B2010E9436
:102E2000261B87FF15C00E943C070091C905109121
:102E3000CA052091CB053091CC056B017C01C01AED
:102E4000D10AE20AF30ACAA2DBA2ECA2FDA208C0E0
:102E50001092BF051092BE051AA21BA21CA21DA2B1
:102E60001F8E1E8E19A218A2212C312C1A8A198AA3
:102E7000188A1F861E861D861C861B860091C1052A
:102E80001091C2052091C3053091C4056091B7052A
:102E90007091B805CE010B964C01DE011D965D01C7
:102EA000FE013F966F0106967C014091B905822D87
:102EB0000E94E90B20E030E040E85FE3C301B2018B
:102EC0000E94261B87FFBBC01A86198618861F82A0
:102ED0001E821D821C821B826091BE057091BF05FF
:102EE00061157105A1F0DE0113964D01FE013596C5
:102EF0005F01CE0107966C0116967D010AA11BA108
:102F00002CA13DA14091C005822D0E94E90B698949
:102F10007A89072E000C880B990B0E94DA1BA301FB
:102F200092010E94CE1C4B015C0189859A85BC01EF
:102F3000990F880B990B0E94DA1B2A8D3B8D4C8DC3
:102F40005D8D0E94CE1C9B01AC01C501B4010E94A5
:102F5000BA1A0E94A21B7A8B698B6F857889072E1B
:102F6000000C880B990B0E94DA1BA30192010E94AE
:102F7000CE1C4B015C018F819885BC01990F880B99
:102F8000990B0E94DA1B2A8D3B8D4C8D5D8D0E9422
:102F9000CE1C9B01AC01C501B4010E94BA1A0E946B
:102FA000A21B788B6F876D857E85072E000C880BA2
:102FB000990B0E94DA1BA30192010E94CE1C4B01C7
:102FC0005C018D819E81BC01990F880B990B0E9439
:102FD000DA1B2A8D3B8D4C8D5D8D0E94CE1C9B0192
:102FE000AC01C501B4010E94BA1A0E94A21B7E87DF
:102FF0006D876B857C85072E000C880B990B0E94D2
:10300000DA1BA30192010E94CE1C4B015C018B8153
:103010009C81BC01990F880B990B0E94DA1B2A8DA9
:103020003B8D4C8D5D8D0E94CE1C9B01AC01C5017A
:10303000B4010E94BA1A0E94A21B7C876B878B8501
:103040009C8597FD08C08F3F910519F014F08FEF14
:1030500090E0582F01C050E08D859E8597FD07C0F8
:103060008F3F910529F024F08FEF90E001C080E0C0
:103070002F85388937FD08C02F3F310519F014F02E
:103080002FEF30E0422F01C040E029893A8937FD17
:1030900007C02F3F310529F024F02FEF30E001C0A9
:1030A00020E0E091B505F091B605628173812616A6
:1030B000370608F051C090E0A0E0B0E0B52B942BAB
:1030C000A22B8D0122273327D02E892E9A2EAB2EAC
:1030D000BB24E82CF82E4781442361F0049F900123
:1030E0001124D32E849E40011124E92C849F900149
:1030F0001124F32E5585628520853185561305C030
:1031000068A179A1260F371F18C06E8D7F8D260FFD
:10311000371F8B2F9927AA27BB27B901650F711D70
:10312000442349F050E0489F8001499F100D589F6B
:10313000100D1124812FDB018C938285D901A80FFA
:10314000B11DDC928385D901A80FB11DEC92848555
:10315000F901E80FF11DF082BFEF2B1A3B0AE8A13D
:10316000F9A13396F9A3E8A36E8D7F8D6C5F7F4F35
:103170007F8F6E8F603F710509F078CE6090B50546
:103180007090B605D30118968D919C911997892B53
:1031900009F476C10E94E40AF301068517852089A7
:1031A0003189DC01CB01801B910BA20BB30BC297C1
:1031B000A105B10578F3F894848195819A83898378
:1031C000A085B1858D010F5F1F4F8C91898F808104
:1031D000A289B389882309F419C11B8AAB32B105CE
:1031E00009F058C09BB18489982B988F9BB180952A
:1031F00089238F8B8F898C8B898D87FF02C0888D67
:103200008C8B588D6F89498D3C892B8989819A8156
:10321000D8015BB9262F3BB900C046FD252F6BB9FD
:1032200000C05BB9362F2BB900C045FD352F6BB9F7
:1032300000C05BB9262F3BB900C044FD252F6BB9F8
:1032400000C05BB9362F2BB900C043FD352F6BB9D9
:1032500000C05BB9262F3BB900C042FD252F6BB9DA
:1032600000C05BB9362F2BB900C041FD352F6BB9BB
:1032700000C05BB9262F3BB900C040FD252F6BB9BC
:1032800001975BB9362F2BB94D9147FD352F6BB99F
:1032900001F6B8C0A532B10509F059C095B1F301E6
:1032A0008489982B988F95B1809589238F8B8F89EE
:1032B0008C8B898D87FF02C0888D8C8B588D6F8990
:1032C000498D3C892B8989819A81D80155B9262F4E
:1032D00035B900C046FD252F65B900C055B9362F58
:1032E00025B900C045FD352F65B900C055B9262F59
:1032F00035B900C044FD252F65B900C055B9362F3A
:1033000025B900C043FD352F65B900C055B9262F3A
:1033100035B900C042FD252F65B900C055B9362F1B
:1033200025B900C041FD352F65B900C055B9262F1C
:1033300035B900C040FD252F65B9019755B9362F25
:1033400025B94D9147FD352F65B901F65BC09897BA
:1033500009F08CC098B1F3018489982B988F98B1AB
:10336000809589238F8B8F898C8B898D87FF02C0F5
:10337000888D8C8B588D6F89498D3C892B898981EB
:103380009A81D80158B9262F38B900C046FD252F9B
:1033900068B900C058B9362F28B900C045FD352F8F
:1033A00068B900C058B9262F38B900C044FD252F90
:1033B00068B900C058B9362F28B900C043FD352F71
:1033C00068B900C058B9262F38B900C042FD252F72
:1033D00068B900C058B9362F28B900C041FD352F53
:1033E00068B900C058B9262F38B900C040FD252F54
:1033F00068B9019758B9362F28B94D9147FD352F37
:1034000068B901F6498F3C8B2B8B2EC09C91F30140
:103410008489982B988F9C91809589238F8B8F8995
:103420008E8B88E08D8B588D6F89498D3D892E89D3
:1034300089819A81F8015C9347FD252F2C93262FD3
:103440003A9531F0441F6C9300C000C000C0F3CF28
:103450006C93000038E04191019769F7F301B38B59
:10346000A28B498F3D8B2E8B9A83898378940E94FF
:10347000E40AD3011E966D937D938D939C9351978F
:103480000E94FA0901CC991B79E004C0991F961794
:1034900008F0961B881F7A95C9F78095089597FBC9
:1034A000072E16F4009407D077FD09D00E94901AD9
:1034B00007FC05D03EF4909581959F4F0895709537
:1034C00061957F4F0895A1E21A2EAA1BBB1BFD0137
:1034D0000DC0AA1FBB1FEE1FFF1FA217B307E407F3
:1034E000F50720F0A21BB30BE40BF50B661F771F4B
:1034F000881F991F1A9469F760957095809590952B
:103500009B01AC01BD01CF0108950E94AA1AA59F9D
:10351000900DB49F900DA49F800D911D11240895CE
:10352000AA1BBB1B51E107C0AA1FBB1FA617B707E9
:1035300010F0A61BB70B881F991F5A95A9F7809505
:103540009095BC01CD010895EE0FFF1F0590F491F9
:10355000E02D0994A29FB001B39FC001A39F700DFD
:10356000811D1124911DB29F700D811D1124911D8B
:1035700008955058BB27AA270E94D11A0C947B1C8F
:103580000E94421C38F00E94491C20F039F49F3FF1
:1035900019F426F40C943F1C0EF4E095E7FB0C9410
:1035A000391CE92F0E94A01C58F3BA176207730751
:1035B0008407950720F079F4A6F50C94C21C0EF44C
:1035C000E0950B2EBA2FA02D0B01B90190010C0133
:1035D000CA01A0011124FF27591B99F0593F50F44B
:1035E000503E68F11A16F040A22F232F342F4427A3
:1035F000585FF3CF469537952795A795F04053959B
:10360000C9F77EF41F16BA0B620B730B840BBAF06A
:103610009150A1F0FF0FBB1F661F771F881FC2F7D5
:103620000EC0BA0F621F731F841F48F487957795E9
:103630006795B795F7959E3F08F0B0CF9395880FA3
:1036400008F09927EE0F9795879508950E94151C0D
:1036500008F481E008950E94521CE3950C948C1CA0
:103660000E94441B0C947B1C0E94491C58F00E9431
:10367000421C40F029F45F3F29F00C94391C511191
:103680000C94C31C0C943F1C0E94A01C68F399234B
:10369000B1F3552391F3951B550BBB27AA2762174E
:1036A0007307840738F09F5F5F4F220F331F441F5B
:1036B000AA1FA9F335D00E2E3AF0E0E832D091508F
:1036C0005040E695001CCAF72BD0FE2F29D0660F7C
:1036D000771F881FBB1F261737074807AB07B0E8BF
:1036E00009F0BB0B802DBF01FF2793585F4F3AF0C5
:1036F0009E3F510578F00C94391C0C94C31C5F3F1D
:10370000E4F3983ED4F3869577956795B795F7954A
:103710009F5FC9F7880F911D9695879597F9089532
:10372000E1E0660F771F881FBB1F621773078407CE
:10373000BA0720F0621B730B840BBA0BEE1F88F7DD
:10374000E09508950E94A91B6894B1110C94C31CC4
:1037500008950E94A81C88F09F5798F0B92F9927C8
:10376000B751B0F0E1F0660F771F881F991F1AF06C
:10377000BA95C9F714C0B13091F00E94C21CB1E0F3
:1037800008950C94C21C672F782F8827B85F39F0F2
:10379000B93FCCF3869577956795B395D9F73EF405
:1037A00090958095709561957F4F8F4F9F4F0895AD
:1037B000E89409C097FB3EF49095809570956195CB
:1037C0007F4F8F4F9F4F9923A9F0F92F96E9BB2781
:1037D0009395F695879577956795B795F111F8CFFD
:1037E000FAF4BB0F11F460FF1BC06F5F7F4F8F4F68
:1037F0009F4F16C0882311F096E911C0772321F05E
:103800009EE8872F762F05C0662371F096E8862FF5
:1038100070E060E02AF09A95660F771F881FDAF74C
:10382000880F9695879597F90895990F0008550F79
:10383000AA0BE0E8FEEF16161706E807F907C0F036
:1038400012161306E407F50798F0621B730B840B3E
:10385000950B39F40A2661F0232B242B252B21F418
:1038600008950A2609F4A140A6958FEF811D811DB8
:10387000089597F99F6780E870E060E008959FEFF2
:1038800080EC089500240A941616170618060906F7
:10389000089500240A9412161306140605060895C6
:1038A0000C943F1C0E94A81CD8F3E894E0E0BB27CE
:1038B0009F57F0F02AED3FE049EC06C0EE0FBB0F3A
:1038C000661F771F881F28F0B23A620773078407C4
:1038D00028F0B25A620B730B840BE3959A9572F73A
:1038E000803830F49A95BB0F661F771F881FD2F778
:1038F00090480C94451D092E0394000C11F4882364
:1039000052F0BB0F40F4BF2B11F460FF04C06F5F97
:103910007F4F8F4F9F4F0895EF93E0FF07C0A2EABC
:103920002AED3FE049EC5FEB0E94D11A0E947B1C1C
:103930000F90039401FC9058E8E6F0E00C94511DC0
:1039400057FD9058440F551F59F05F3F71F0479550
:10395000880F97FB991F61F09F3F79F08795089535
:10396000121613061406551FF2CF4695F1DF08C054
:10397000161617061806991FF1CF86957105610571
:1039800008940895E894BB2766277727CB0197F919
:1039900008950E94151C08F48FEF08950E94E11C01
:1039A0000C947B1C0E94421C38F00E94491C20F0A1
:1039B000952311F00C94391C0C943F1C11240C9489
:1039C000C31C0E94A01C70F3959FC1F3950F50E09B
:1039D000551F629FF001729FBB27F00DB11D639FC1
:1039E000AA27F00DB11DAA1F649F6627B00DA11D67
:1039F000661F829F2227B00DA11D621F739FB00D0D
:103A0000A11D621F839FA00D611D221F749F33277C
:103A1000A00D611D231F849F600D211D822F762F15
:103A20006A2F11249F5750409AF0F1F088234AF0F2
:103A3000EE0FFF1FBB1F661F771F881F915050405E
:103A4000A9F79E3F510580F00C94391C0C94C31CBF
:103A50005F3FE4F3983ED4F3869577956795B795E5
:103A6000F795E7959F5FC1F7FE2B880F911D9695FF
:103A7000879597F908959F930E94521C0F9007FC19
:103A8000EE5F0C948C1C9F3F31F0915020F4879591
:103A900077956795B795880F911D9695879597F9B6
:103AA00008959F938F937F936F93FF93EF939B0161
:103AB000AC010E94CE1CEF91FF910E94651D2F91D9
:103AC0003F914F915F910C94CE1CDF93CF931F9346
:103AD0000F93FF92EF92DF927B018C01689406C0F6
:103AE000DA2EEF010E94E11CFE01E894A5912591D8
:103AF000359145915591A6F3EF010E94D11AFE012F
:103B00009701A801DA9469F7DF90EF90FF900F9189
:103B10001F91CF91DF910895CF93DF93823091056C
:103B200010F482E090E0E0911606F091170620E094
:103B300030E0C0E0D0E0309711F14081518148176A
:103B40005907C0F04817590761F482819381209783
:103B500019F09B838A832BC09093170680931606D7
:103B600026C02115310519F04217530718F49A01A0
:103B7000BE01DF01EF010280F381E02DDCCF2115D2
:103B8000310509F1281B390B2430310590F41296C8
:103B90008D919C9113976115710521F0FB01938321
:103BA000828304C09093170680931606FD01329617
:103BB00044C0FD01E20FF31F81939193225031091C
:103BC0002D933C933AC02091140630911506232B77
:103BD00041F42091040130910501309315062093A2
:103BE000140620910201309103012115310541F4A1
:103BF0002DB73EB74091060150910701241B350BAC
:103C0000E0911406F0911506E217F307A0F42E1BBD
:103C10003F0B2817390778F0AC014E5F5F4F241730
:103C2000350748F04E0F5F1F50931506409314065A
:103C30008193919302C0E0E0F0E0CF01DF91CF915A
:103C400008950F931F93CF93DF93009709F48CC0CF
:103C5000FC0132971382128200911606109117060A
:103C60000115110581F420813181820F931F20916C
:103C70001406309115062817390779F5F0931506C3
:103C8000E093140671C0D80140E050E0AE17BF07C2
:103C900050F412962D913C911397AD0121153105E9
:103CA00009F1D901F3CF9D01DA01338322836081C9
:103CB0007181860F971F8217930769F4EC012881A1
:103CC0003981260F371F2E5F3F4F318320838A8132
:103CD0009B8193838283452B29F4F0931706E0930D
:103CE000160642C01396FC93EE931297ED0149918C
:103CF00059919E01240F351FE217F30771F480815B
:103D00009181840F951F029611969C938E938281C8
:103D1000938113969C938E931297E0E0F0E0D80184
:103D200012968D919C911397009719F0F8018C01D0
:103D3000F6CF8D919C9198012E5F3F4F820F931F7C
:103D400020911406309115062817390769F4309729
:103D500029F4109217061092160602C013821282DE
:103D60001093150600931406DF91CF911F910F91C8
:103D7000089581E090E0F8940C94C71EFB01DC01EB
:103D800002C005900D9241505040D8F7089513E0BD
:103D9000C6E8D3E004C0FE010E94A41A2196C738E9
:083DA000D107C9F7F894FFCF29
:103DA800FE01000018068000000000009109090BC0
:103DB8005A0938094C09D809000000006205AA040C
:103DC800000000006205B40300000000FA040000CF
:103DD800000087050404000000001D060000000024
:103DE800080400000000A60400000000B103000061
:103DF8000000480700000000070400000000310729
:103E0800000000002305B40311100F0E0905030D6F
:023E18000A009E
:107800000C94343C0C94513C0C94513C0C94513CE1
:107810000C94513C0C94513C0C94513C0C94513CB4
:107820000C94513C0C94513C0C94513C0C94513CA4
:107830000C94513C0C94513C0C94513C0C94513C94
:107840000C94513C0C94513C0C94513C0C94513C84
:107850000C94513C0C94513C0C94513C0C94513C74
:107860000C94513C0C94513C11241FBECFEFD8E036
:10787000DEBFCDBF11E0A0E0B1E0EAE8FFE702C063
:1078800005900D92A230B107D9F712E0A2E0B1E065
:1078900001C01D92AD30B107E1F70E942D3D0C945F
:1078A000C33F0C94003C982F95959595959595958B
:1078B000905D8F708A307CF0282F295A8091C0000B
:1078C00085FFFCCF9093C6008091C00085FFFCCF60
:1078D0002093C6000895282F205DF0CF982F809127
:1078E000C00085FFFCCF9093C6000895EF92FF92F1
:1078F0000F931F93EE24FF2487018091C00087FD22
:1079000017C00894E11CF11C011D111D81E2E8164D
:1079100081EAF80687E0080780E0180770F3E09135
:107920000401F091050109958091C00087FFE9CF1E
:107930008091C6001F910F91FF90EF9008950E94D3
:10794000763C982F8091C00085FFFCCF9093C600B5
:1079500091362CF490330CF09053892F089597555D
:10796000892F08951F930E949F3C182F0E949F3CCF
:107970001295107F810F1F9108951F93182F882350
:1079800021F00E94763C1150E1F71F9108951F935A
:10799000182F0E94763C803249F0809103018F5F5E
:1079A000809303018530C1F01F9108958091C0003C
:1079B00085FFFCCF84E18093C6008091C00085FFE5
:1079C000FCCF1093C6008091C00085FFFCCF80E102
:1079D0008093C6001F910895E0910401F091050184
:1079E00009951F9108950E94763C803241F0809164
:1079F00003018F5F80930301853081F008958091AA
:107A0000C00085FFFCCF84E18093C6008091C00058
:107A100085FFFCCF80E18093C6000895E0910401CA
:107A2000F09105010995089548EC50E08823A1F0F4
:107A30002D9A28EE33E0FA013197F1F721503040CA
:107A4000D1F72D9828EE33E0FA013197F1F7215064
:107A50003040D1F7815061F708953F924F925F9285
:107A60006F927F928F929F92AF92BF92CF92DF924E
:107A7000EF92FF920F931F93CF93DF93000082E06A
:107A80008093C00080E18093C4001092C50088E11B
:107A90008093C10086E08093C2005098589A259A3E
:107AA00081E00E94143D24E1F22E9EE1E92E85E959
:107AB000D82E0FE0C02E10E1B12EAA24A394B1E479
:107AC0009B2EA6E58A2EF2E57F2EE0E26E2E79E46B
:107AD000572E63E5462E50E5352E0E94763C8033C6
:107AE000B1F18133B9F1803409F46FC0813409F404
:107AF00076C0823409F485C0853409F488C08035A5
:107B000031F1823521F1813511F1853509F485C0D6
:107B1000863509F48DC0843609F496C0843709F49B
:107B200003C1853709F472C1863709F466C08091B4
:107B300003018F5F80930301853079F6E0910401A2
:107B4000F091050109950E94763C803351F60E9420
:107B5000F33CC3CF0E94763C803249F78091C0004D
:107B600085FFFCCFF092C6008091C00085FFFCCF5E
:107B70009092C6008091C00085FFFCCF8092C60025
:107B80008091C00085FFFCCF7092C6008091C0003C
:107B900085FFFCCF6092C6008091C00085FFFCCFBE
:107BA0005092C6008091C00085FFFCCF4092C60075
:107BB0008091C00085FFFCCF3092C6008091C0004C
:107BC00085FFFCCFB092C60088CF0E94763C8638F5
:107BD00008F4BDCF0E94763C0E94F33C7ECF0E9409
:107BE000763C803809F49CC0813809F40BC1823896
:107BF00009F430C1883909F48FC080E00E94C73C85
:107C00006CCF84E10E94BD3C0E94F33C66CF85E0CE
:107C10000E94BD3C0E94F33C60CF0E94763C809362
:107C200006010E94763C809307010E94F33C55CFE9
:107C30000E94763C803309F411C183E00E94BD3C70
:107C400080E00E94C73C49CF0E94763C80930902A5
:107C50000E94763C8093080280910C028E7F809374
:107C60000C020E94763C853409F409C18091080217
:107C700090910902892B89F000E010E00E94763C87
:107C8000F801E85FFE4F80830F5F1F4F809108026D
:107C9000909109020817190788F30E94763C8032F8
:107CA00009F045CF80910C0280FFF5C0609106017C
:107CB00070910701660F771F7093070160930601AB
:107CC000A0910802B09109021097C9F0E8E0F1E034
:107CD0009B01AD014E0F5F1FF999FECF32BD21BD53
:107CE000819180BDFA9AF99A2F5F3F4FE417F5070B
:107CF00099F76A0F7B1F70930701609306018091CB
:107D0000C00085FFFCCFF092C6008091C00085FFC7
:107D1000FCCFB092C600E1CE83E00E94C73CDDCE2E
:107D200082E00E94C73CD9CE0E94763C8093090233
:107D30000E94763C80930802809106019091070191
:107D4000880F991F90930701809306010E94763C4B
:107D5000853409F49AC080910C028E7F80930C02C6
:107D60000E94763C803209F0B8CE8091C00085FF39
:107D7000FCCFF092C600A0910802B09109021097C2
:107D8000C1F180910C02082F0170182F1695117007
:107D9000E0910601F0910701AF014F5F5F4FBA011B
:107DA00020E030E00023B1F4112339F49491809164
:107DB000C00085FFFCCF9093C6002F5F3F4FCB01E3
:107DC0000196FA012A173B0780F4BC014F5F5F4F11
:107DD000002351F3F999FECFF2BDE1BDF89A90B5B9
:107DE0008091C00085FFFCCFE6CF709307016093C0
:107DF00006018091C00085FDE5CE8091C00085FF21
:107E0000F8CFE0CE81E00E94C73C67CE0E94763C6E
:107E1000803209F08CCE8091C00085FFFCCFF092BB
:107E2000C6008091C00085FFFCCFE092C600809123
:107E3000C00085FFFCCFD092C6008091C00085FFB6
:107E4000FCCFC092C6008091C00085FFFCCFB092ED
:107E5000C60043CE80E10E94C73C3FCE0E94763CE4
:107E60000E94763C182F0E94763C112309F483C0AF
:107E7000113009F484C08FE00E94C73C2ECE80915F
:107E80000C02816080930C02F1CE80910C02816023
:107E900080930C0265CF809107018823880F880B9F
:107EA0008A2180930B028091060190910701880F2F
:107EB000991F90930701809306018091080280FF2B
:107EC00009C08091080290910902019690930902DD
:107ED00080930802F894F999FECF1127E0910601EA
:107EE000F0910701C8E0D1E0809108029091090269
:107EF000103091F40091570001700130D9F303E084
:107F000000935700E8950091570001700130D9F3B4
:107F100001E100935700E8950990199000915700EE
:107F200001700130D9F301E000935700E8951395F3
:107F3000103498F011270091570001700130D9F3E7
:107F400005E000935700E89500915700017001305B
:107F5000D9F301E100935700E8953296029709F0B2
:107F6000C7CF103011F00296E5CF11248091C000E8
:107F700085FFC5CEC8CE8EE10E94C73CAECD85E957
:0A7F80000E94C73CAACDF894FFCF81
:027F8A00800075
:040000030000780081
:00000001FF