:100000000C9474000C949C000C949C000C949C0028
:100010000C949C000C949C000C949C000C949C00F0
:100020000C949C000C949C000C949C000C949C00E0
:100030000C949C000C949C000C949C000C949C00D0
:100040000C946F050C949C000C9490040C946A041E
:100050000C949C000C949C000C949C000C949C00B0
:100060000C949C000C949C00050A9A0AA60AEE0ABD
:10007000040CF20C720D05A84CCDB2D44EB9383632
:10008000A9020C50B9918688083CA6AAAA2ABE00EB
:100090000000803F00000000240027002A0000002C
:1000A0000008000201000003040700000000000037
:1000B0000000010204081020408001020408102002
:1000C00001020408102000000000250028002B0079
:1000D00004040404040404040202020202020303EE
:1000E000030303030E0EFE0D11241FBECFEFD8E055
:1000F000DEBFCDBF22E0A8E5B1E001C01D92AA3568
:10010000B207E1F711E0A0E0B1E0E4E8F8E202C0F4
:1001100005900D92A835B107D9F710E0C3E7D0E0FC
:1001200004C02197FE010E941C0FC237D107C9F7F6
:100130000E94C0070C9435140C940000CF92DF92FB
:10014000EF92FF920F931F93CF93DF936C017A018D
:100150008B01C0E0D0E0CE15DF0589F0D8016D91AC
:100160008D01D601ED91FC910190F081E02DC60149
:100170000995892B11F47E0102C02196ECCFC701AD
:10018000DF91CF911F910F91FF90EF90DF90CF9073
:100190000895FC01918D828D981761F0828DDF01A9
:1001A000A80FB11D5D968C91928D9F5F9F73928F6A
:1001B00090E008958FEF9FEF0895FC01918D828D5F
:1001C000981731F0828DE80FF11D858D90E008952C
:1001D0008FEF9FEF0895FC01918D228D892F90E084
:1001E000805C9F4F821B91098F739927089588E641
:1001F00091E00E94EB0021E0892B09F420E0822F9E
:100200000895FC01848DDF01A80FB11DA35ABF4FD3
:100210002C91848D90E001968F739927848FA68905
:10022000B7892C93A089B1898C9180648C93938D2C
:10023000848D981306C00288F389E02D80818F7D1C
:1002400080830895EF92FF920F931F93CF93DF93D4
:10025000EC0181E0888F9B8D8C8D981305C0E88917
:10026000F989808185FD24C0F62E0B8D10E00F5F8B
:100270001F4F0F731127E02E8C8DE8120CC00FB6A4
:1002800007FCFACFE889F989808185FFF5CFCE0197
:100290000E940101F1CF8B8DFE01E80FF11DE35AA1
:1002A000FF4FF0820B8FEA89FB898081806207C053
:1002B000EE89FF896083E889F98980818064808381
:1002C00081E090E0DF91CF911F910F91FF90EF902F
:1002D0000895CF93DF93EC01888D8823C9F0EA89D4
:1002E000FB89808185FD05C0A889B9898C9186FD2F
:1002F0000FC00FB607FCF5CF808185FFF2CFA8892C
:10030000B9898C9185FFEDCFCE010E940101E7CF25
:10031000DF91CF91089580E090E0892B29F00E9431
:10032000F70081110C94000008952FB7F8946091A4
:10033000590170915A0180915B0190915C012FBF2E
:1003400008958F929F92AF92BF92CF92DF92EF92D9
:10035000FF92CF93DF93EC016A017B0120E030E054
:1003600040E05FE36E817F81888599850E94371127
:100370009B01AC01C701B6010E94990F6B017C0182
:1003800020E030E040E85FE30E948F0F87FF19C054
:1003900020E030E040E05FE36A817B818C819D81D9
:1003A0000E943711A70196010E943711A7019601FB
:1003B0000E943711A70196010E943711A7019601EB
:1003C00031C020E030E040E050E4C701B6010E94B7
:1003D000220F6B017C018A819B81AC81BD81BC01B4
:1003E000CD01905820E030E040E05FE30E943711FB
:1003F0004B015C01A7019601C701B6010E943711AC
:10040000A70196010E943711A70196010E9437119A
:1004100020E030E040E050E40E94220F9B01AC015C
:10042000C501B4010E943711DF91CF91FF90EF9089
:10043000DF90CF90BF90AF909F908F9008958F9254
:100440009F92AF92BF92CF92DF92EF92FF92CF93A3
:10045000DF93EC01CB01BA012E813F81488559859C
:100460000E94990F20E030E040E85FE30E94220FF5
:100470006B017C018A809B80AC80BD80B7FAB09410
:10048000B7F8B0949B01AC010E943711A701960107
:100490000E943711A70196010E94371120E030E039
:1004A00040E85FE30E94220F9B01AC01C501B4014B
:1004B0000E943711DF91CF91FF90EF90DF90CF90A6
:1004C000BF90AF909F908F900895CF92DF92EF9260
:1004D000FF92CF93DF93EC01CB01BA012E813F81D4
:1004E000488559850E94990F6B017C012A813B81C7
:1004F0004C815D810E943711A70196010E9437113E
:10050000A70196010E943711A70196010E94371199
:10051000DF91CF91FF90EF90DF90CF9008950895F5
:100520008F929F92AF92BF92CF92DF92EF92FF9203
:10053000CF93DF93EC01CB01BA012BED3FE049E40F
:1005400050E40E9437112E813F81488559850E94D1
:10055000990F0E94940F6B017C018A819B81AC8171
:10056000BD81BC01CD01905820E030E040E05FE368
:100570000E9437114B015C0120E030E040E85FE36E
:10058000C701B6010E94220F9B01AC01C501B40155
:100590000E943711DF91CF91FF90EF90DF90CF90C5
:1005A000BF90AF909F908F900895CF92DF92EF927F
:1005B000FF92FC01CB01BA01C280D380E480F580B8
:1005C00026813781408551850E94990F2BED3FE0B0
:1005D00049EC5FE30E9437110E94940F9B01AC012C
:1005E000C701B60190580E943711A70196010E94D9
:1005F000230FFF90EF90DF90CF900895CF93DF937C
:10060000EC01CB01BA012E813F81488559850E94BA
:10061000990F2BED3FE049EC5FE30E9437110E94F8
:10062000A4112A813B814C815D810E943711DF91A9
:10063000CF9108958F929F92AF92BF92CF92DF9207
:10064000EF92FF92CF93DF93EC016A017B0120E0F0
:1006500030E040E05FE36E817F81888599850E946C
:1006600037119B01AC01C701B6010E94990F6B01C4
:100670007C0120E030E040E85FE30E948F0F87FFBD
:100680002EC0A7019601C701B6010E9437119B0138
:10069000AC0160E070E080E89FE30E94220F0E94BE
:1006A000B2116B017C018A819B81AC81BD81BC014F
:1006B000CD01905820E030E040E05FE30E94371128
:1006C0004B015C0120E030E040E85FE3C701B60188
:1006D0000E94220F9B01AC01C501B40130C020E093
:1006E00030E040E050E4C701B6010E94220F9B01B8
:1006F000AC010E9437119B01AC0160E070E080E822
:100700009FE30E94220F0E94B2114B015C0120E086
:1007100030E040E05FE36A817B818C819D810E94B3
:1007200037116B017C0120E030E040E85FE3C50158
:10073000B4010E94230F9B01AC01C701B6010E94C6
:100740003711DF91CF91FF90EF90DF90CF90BF9066
:10075000AF909F908F900895CF93DF93EC01CB01E2
:10076000BA012E813F81488559850E94990F20E06A
:1007700030E040E85FE30E94220F9B01AC010E9441
:1007800037119B01AC0160E070E080E89FE30E94BC
:10079000220F0E94B2112A813B814C815D810E940F
:1007A0003711DF91CF910895CF92DF92EF92FF92B0
:1007B000CF93DF93EC01CB01BA012E813F814885B5
:1007C00059850E94990F9B01AC010E9437119B0132
:1007D000AC0160E070E080E89FE30E94220F0E947D
:1007E000B211CA80DB80EC80FD80F7FAF094F7F854
:1007F000F09420E030E040E85FE30E94220F9B018C
:10080000AC01C701B6010E943711DF91CF91FF9073
:10081000EF90DF90CF900895CF93843381F144F42B
:10082000823339F14CF5813369F583E090E02CC0D7
:100830008E3629F08537D1F08D3621F514C0C0E011
:100840008C2F90E02091430230914402821793074D
:1008500040F440E050E060E07FEF0E94B905CF5FD8
:10086000EFCF0E94240681E090E00EC082E090E08D
:100870000BC084E090E008C085E090E005C086E011
:1008800090E002C080E090E020916101309162012F
:1008900028173907E9F090936201809361010E9463
:1008A0009501609363017093640180936501909357
:1008B0006601409145025091460260E070E08091EF
:1008C000490290914A020E946F13CF910C94240622
:1008D000CF9108951F920F920FB60F9211242F936C
:1008E0003F934F935F936F937F938F939F93AF93B8
:1008F000BF93EF93FF9388E691E00E940101FF917F
:10090000EF91BF91AF919F918F917F916F915F9187
:100910004F913F912F910F900FBE0F901F90189500
:100920001F920F920FB60F9211242F938F939F93C4
:10093000EF93FF93E0917801F09179018081E0914C
:100940007E01F0917F0182FD12C090818091810132
:100950008F5F8F7320918201821751F0E0918101A6
:10096000F0E0E859FE4F958F8093810101C08081AE
:10097000FF91EF919F918F912F910F900FBE0F904C
:100980001F90189590E0FC01E256FF4F3491FC0156
:10099000EE54FF4F2491FC01E053FF4FE491EE230E
:1009A00009F43BC0332339F1333091F038F431305E
:1009B000A9F0323001F584B58F7D12C0373091F047
:1009C0003830A1F03430B9F4809180008F7D03C0BD
:1009D000809180008F77809380000DC084B58F77E1
:1009E00084BD09C08091B0008F7703C08091B000B2
:1009F0008F7D8093B000F0E0EE0FFF1FEA53FF4FB2
:100A0000A591B4918FB7F894EC91611103C0209532
:100A10002E2301C02E2B2C938FBF0895CF93DF93ED
:100A200090E0FC01EE54FF4F2491FC01E053FF4F96
:100A30008491882361F190E0880F991FFC01EC56A6
:100A4000FF4FC591D491FC01EA53FF4FA591B4919A
:100A5000611109C09FB7F89488812095822388830B
:100A6000EC912E230BC0623061F49FB7F89438816B
:100A7000822F809583238883EC912E2B2C939FBF0C
:100A800006C08FB7F894E8812E2B28838FBFDF91A3
:100A9000CF9108953FB7F89480915D0190915E01E8
:100AA000A0915F01B091600126B5A89B05C02F3FC2
:100AB00019F00196A11DB11D3FBFBA2FA92F982F84
:100AC0008827820F911DA11DB11DBC01CD0143E0FE
:100AD000660F771F881F991F4A95D1F708951F92B7
:100AE0000F920FB60F9211242F933F938F939F93E2
:100AF000AF93BF938091590190915A01A0915B01EE
:100B0000B0915C013091580126E0230F2D3720F47D
:100B10000296A11DB11D05C029E8230F0396A11D52
:100B2000B11D209358018093590190935A01A093CD
:100B30005B01B0935C0180915D0190915E01A09199
:100B40005F01B09160010196A11DB11D80935D010F
:100B500090935E01A0935F01B0936001BF91AF914C
:100B60009F918F913F912F910F900FBE0F901F90EB
:100B700018958F929F92AF92BF92CF92DF92EF9291
:100B8000FF9220914302309144028217930708F0AC
:100B900052C04B01AA24BB24E82DC52ED62EE72E29
:100BA000FF24FC2D342F20914802222361F0829EE5
:100BB00040011124E92DC29E60011124FD2D429FA8
:100BC000D00111243B2FF0904E02E0904B02A091F7
:100BD0004902B0914A02FE1008C0AC01440F551FF3
:100BE000840F951F8A0F9B1F14C0880F991F880FB1
:100BF000991F8A0F9B1F472F552766277727DC01F0
:100C0000AF0DB11D222321F0429FA0011124452FD9
:100C10004C9320914B02DC01A20FB11DEC9320916B
:100C20004C02DC01A20FB11DFC9320914D02FC018E
:100C3000E20FF11D3083FF90EF90DF90CF90BF90D7
:100C4000AF909F908F9008950F931F93CF93DF9352
:100C5000CDB7DEB729970FB6F894DEBF0FBECDBF74
:100C60008091490290914A02892B09F47EC10E9429
:100C70004A0500914F02109150022091510230918B
:100C80005202DC01CB01801B910BA20BB30BC2976C
:100C9000A105B10560F3F894809145029091460258
:100CA0009A838983A0914902B0914A02FD0131964D
:100CB0008C91898780914102A0915302B091540296
:100CC000882309F417C11B82AB32B10509F058C063
:100CD0009BB180915502982B98879BB18095892371
:100CE0008F838F818C83898587FF02C088858C8361
:100CF00058856F8149853C812B8189819A815BB9B7
:100D0000262F3BB900C046FD252F6BB900C05BB94B
:100D1000362F2BB900C045FD352F6BB900C05BB92C
:100D2000262F3BB900C044FD252F6BB900C05BB92D
:100D3000362F2BB900C043FD352F6BB900C05BB90E
:100D4000262F3BB900C042FD252F6BB900C05BB90F
:100D5000362F2BB900C041FD352F6BB900C05BB9F0
:100D6000262F3BB900C040FD252F6BB901975BB919
:100D7000362F2BB9419147FD352F6BB901F6B6C01F
:100D8000A532B10509F058C095B180915502982B54
:100D9000988795B1809589238F838F818C838985EE
:100DA00087FF02C088858C8358856F8149853C8187
:100DB0002B8189819A8155B9262F35B900C046FD0E
:100DC000252F65B900C055B9362F25B900C045FD9E
:100DD000352F65B900C055B9262F35B900C044FD7F
:100DE000252F65B900C055B9362F25B900C043FD80
:100DF000352F65B900C055B9262F35B900C042FD61
:100E0000252F65B900C055B9362F25B900C041FD61
:100E1000352F65B900C055B9262F35B900C040FD42
:100E2000252F65B9019755B9362F25B9419147FD51
:100E3000352F65B901F65AC0989709F08BC098B163
:100E400080915502982B988798B1809589238F833C
:100E50008F818C83898587FF02C088858C83588524
:100E60006F8149853C812B8189819A8158B9262FD0
:100E700038B900C046FD252F68B900C058B9362FD3
:100E800028B900C045FD352F68B900C058B9262FD4
:100E900038B900C044FD252F68B900C058B9362FB5
:100EA00028B900C043FD352F68B900C058B9262FB6
:100EB00038B900C042FD252F68B900C058B9362F97
:100EC00028B900C041FD352F68B900C058B9262F98
:100ED00038B900C040FD252F68B9019758B9362FA1
:100EE00028B9419147FD352F68B901F649873C8300
:100EF0002B832EC09C9180915502982B98879C91B2
:100F0000809589238F838F818E8388E08D83588598
:100F10006F8149853D812E8189819A815C9347FD4E
:100F2000252F2C93262F3A9531F0441F6C9300C047
:100F300000C000C0F3CF6C93000038E041910197EE
:100F400069F7B0935402A093530249873D832E83DF
:100F50009A83898378940E944A0560934F02709324
:100F60005002809351029093520229960FB6F89442
:100F7000DEBF0FBECDBFDF91CF911F910F910895BE
:100F8000CF93DF9300D000D000D0CDB7DEB77894F8
:100F900084B5826084BD84B5816084BD85B582607E
:100FA00085BD85B5816085BD80916E00816080932F
:100FB0006E00109281008091810082608093810098
:100FC00080918100816080938100809180008160A8
:100FD000809380008091B10084608093B100809103
:100FE000B00081608093B00080917A00846080932B
:100FF0007A0080917A00826080937A0080917A00F2
:101000008E7F80937A0080917A00806880937A0046
:101010001092C100E0917801F091790182E0808323
:10102000E0917401F09175011082E0917601F091E8
:10103000770187E6808310928001E0917C01F09136
:101040007D0186E08083E0917A01F0917B018081CF
:1010500080618083E0917A01F0917B0180818860DA
:101060008083E0917A01F0917B01808180688083A8
:10107000E0917A01F0917B0180818F7D808300E097
:1010800011E061E0F80180810E940E050C5F1F4FA6
:10109000F1E00C311F07A9F780E090E0AAE7B4E483
:1010A00080933D0290933E02A0933F02B093400292
:1010B00080E090E8ADE9B3E48093390290933A027E
:1010C000A0933B02B0933C0280E090E0AAE7B3E437
:1010D0008093330290933402A0933502B09336028A
:1010E00080E090E0AFE7B3E480932F02909330026A
:1010F000A0933102B093320240E050E86BE374E415
:101100004093290250932A0260932B0270932C0281
:101110008093250290932602A0932702B093280281
:1011200040E050E86BEB74E440931F0250932002C0
:10113000609321027093220280931B0290931C0201
:10114000A0931D02B0931E0240E050E066E973E4F4
:101150004093150250931602609317027093180281
:101160008093110290931202A0931302B093140281
:1011700080E090E0AAEFB4E480930B0290930C021D
:10118000A0930D02B0930E0280E090E8A9EDB3E4C5
:101190008093070290930802A0930902B0930A0279
:1011A0008091470287FD08C061E00E940E0560E063
:1011B000809147020E94C20481E080934202FAE0DB
:1011C0002F2E312C80911E018823E9F100E011E0DF
:1011D00061E0F80180810E94C2040E944A054B012F
:1011E0005C01E4E6CE2ED12CE12CF12C0E944A05C4
:1011F000DC01CB0188199909AA09BB09883E9340F3
:10120000A105B10558F0F1E0CF1AD108E108F108C5
:1012100028EE820E23E0921EA11CB11CC114D10441
:10122000E104F10419F760E0F80180810E94C20432
:101230000C5F1F4FF1E00C311F0751F610921E0199
:101240008DE60E940C0488E691E00E94EB00892B59
:1012500009F48CC088E691E00E94C900182F8093A1
:10126000670120911C0130911D012F3F8FEF38073E
:1012700071F5143319F15CF41233D1F0E4F4113345
:1012800009F06FC010921D0110921C016AC0123645
:10129000C1F034F4113609F064C084E090E05DC020
:1012A000133691F0133709F05CC087E090E055C029
:1012B00081E090E052C082E090E04FC083E090E097
:1012C0004CC085E090E049C086E090E046C0273001
:1012D0003105DCF5163641F164F41236E1F5220FE2
:1012E000331F220F331FF901E050FF4F82E090E0DF
:1012F00029C01E3661F0133771F5220F331F220FFC
:10130000331FF901E050FF4F83E090E01BC0220F34
:10131000331F220F331FF901E050FF4F81E090E0AF
:101320009383828361E00AC0220F331F220F331F91
:10133000F901E050FF4F1382128260E080810E9429
:10134000C20409C09383828306C02730310519F493
:10135000812F0E940C048FEF9FEF90931D018093CB
:101360001C01612F88E691E00E94220100E011E05B
:10137000F801828193818230910519F0039779F009
:1013800022C00E94950124EF31E040E050E00E942D
:1013900004146A3F71058105910580F40DC00E9417
:1013A000950128EC30E040E050E00E9404146436DF
:1013B00071058105910510F461E001C060E0F8015C
:1013C00080810E94C2040C5F1F4FF1E00C311F07A7
:1013D00079F60E94950100916301109164012091BA
:1013E0006501309166016B017C01C01AD10AE20AE5
:1013F000F30AE0916101F0916201E730F10508F034
:10140000FAC3EC5CFF4F0C941C0F28EEC21623E0CD
:10141000D206E104F10408F0EEC310E0612E712C55
:1014200080914302909144026816790608F07FC0CB
:10143000C701B6010E944110AB01BC0187E392E0F5
:101440000E941F024B015C01B301072C000C880BAA
:10145000990B0E9443109B01AC01C501B4010E948D
:10146000220F4B015C0120E030E0A9010E948F0FA8
:1014700087FD16C020E030E04FE753E4C501B4011A
:101480000E943211181674F0A501940160E070E01A
:101490008FE793E40E94220F0E940B10462F03C097
:1014A0004FEF01C040E050E060E070E0742F66272D
:1014B00055274427C3010E94B9051F5FAFCFC7015D
:1014C000B6010E944110AB01BC0187E392E00E948B
:1014D00065024B015C01B301072C000C880B990BD2
:1014E0000E9443109B01AC01C501B4010E94220F70
:1014F0000E940B1077FD28C0AB016F3F710519F0FA
:1015000014F04FEF50E050E060E070E0742F662779
:1015100055274427C3010E94B9051F5F612E712C16
:1015200080914302909144026816790640F20E942D
:10153000240661C338EEC31633E0D306E104F10498
:1015400008F059C310E0EACF40E0DDCF2AE030E0F8
:1015500040E050E00E94041469017A018EE1882E77
:10156000912CA12CB12CCA01B901A50194010E94B2
:101570000414762EC701B601665F7F4F8F4F9F4FD1
:10158000A50194010E940414F62E10E00EE1212F13
:1015900030E080914302909144022817390738F6D1
:1015A000812F602F0E94FC0E7F1428F4791618F406
:1015B000F91638F40BC0F71448F4F91610F479163C
:1015C00028F440E050E060E07FEF03C040E050E0EE
:1015D000BA01C9010E94B9051F5FD9CFC701B60181
:1015E0002CED35E040E050E00E9404146B017C01DA
:1015F000DC01CB010197A109B1098B329140A10512
:10160000B10530F0FCE2CF1AF1E0DF0AE108F108A1
:10161000D701C6010197A109B1098B329140A105FB
:10162000B10570F510E0A12EB12C8091430290918C
:101630004402A816B90608F065C0C701B6010E94A9
:101640004110AB01BC018FE092E00E94D4030E94E4
:101650000B1077FD08C0AB016F3F710529F024F036
:101660004FEF50E001C040E050E060E070E0762FC6
:10167000652F542F4427C5010E94B9051F5FD3CFA2
:101680003CE2C31A31E0D30AE108F1088DE2C81642
:1016900081E0D806E104F104A8F110E0A12EB12CFC
:1016A0008091430290914402A816B90688F5C701BB
:1016B000B6010E944110AB01BC018FE092E00E9494
:1016C000AC039B01AC0160E070E08FE793E40E9403
:1016D000220F0E940B1077FD08C0AB016F3F710510
:1016E00029F024F04FEF50E001C040E050E060E00E
:1016F00070E0762F652F542F4427C5010E94B9054D
:101700001F5FCCCF9CE2C91A91E0D90AE108F10829
:10171000D701C6010197A109B1098B329140A105FA
:10172000B10570F510E0A12EB12C8091430290918B
:101730004402A816B90608F0FACEC701B6010E9405
:101740004110AB01BC018FE092E00E94D4030E94E3
:101750000B1077FD08C0AB016F3F710529F024F035
:101760004FEF50E001C040E050E060E070E0762FC5
:10177000652F542F4427C5010E94B9051F5FD3CFA1
:10178000FCE2CF1AF1E0DF0AE108F1082DE2C2160F
:1017900021E0D206E104F10408F4C9CE10E0A12E44
:1017A000B12C8091430290914402A816B90608F02A
:1017B000BECEC701B6010E944110AB01BC018FE053
:1017C00092E00E94AC039B01AC0160E070E08FE707
:1017D00093E40E94220F0E940B1077FD08C0AB011A
:1017E0006F3F710529F024F04FEF50E001C040E059
:1017F00050E060E070E0762F652F542F4427C5013C
:101800000E94B9051F5FCBCFC701B6010E944110EE
:101810004B015C0120E030E84BE355E40E948F0F60
:1018200087FD0CC020E030E84BE355E4C501B4016E
:101830000E94321118160CF456C079CE10E00AE05E
:10184000812F90E09E838D8380914302909144028A
:10185000ED81FE81E817F90728F7B501A40185E0BD
:1018600092E00E94D5022B013C01812F602F0E9443
:10187000FC0E3EE1839FB0011124072E000C880B63
:10188000990B0E9443109B01AC01C301B2010E945D
:10189000220F0E940B1077FD16C06F3F710519F0E3
:1018A00014F06FEF70E0762E072E000C880B990B6A
:1018B0000E94431020E030E040E05FE30E943711D7
:1018C0000E94121002C0712C60E0462F50E060E0D0
:1018D00070E0BA015527442757298D819E810E94C7
:1018E000B9051F5FADCFF8E8CF16F3E1DF06E104DD
:1018F000F10408F01CCE10E00EE1E12EF12CC090B6
:101900004302D0904402EC14FD0408F010CE20E015
:1019100030E84BE355E4C501B4010E94220FAB014E
:10192000BC0185E092E00E94FE022B013C01C60151
:1019300001978E199F09B1010E94080FCB01089FE2
:10194000B001099F700D1124072E000C880B990B14
:101950000E9443109B01AC01C301B2010E94220FFF
:101960002B013C0120E030E0A9010E948F0F87FD90
:1019700016C020E030E04FE753E4C301B2010E94FB
:101980003211181684F0A301920160E070E08FE735
:1019900093E40E94220F0E940B106B0106C0CC241E
:1019A000CA94D12C02C0C12CD12CB601DD0C880BFD
:1019B000990B0E94431020E030E040E05FE30E947A
:1019C00037110E941210862F4C2D50E060E070E01D
:1019D000762F652F542F4427682BC7010E94B90525
:1019E0001F5F8BCF609143027091440288E893E1BE
:1019F0000E94080FB12C24ECC21629E0D206E104A3
:101A0000F10448F034ECC31A39E0D30AE108F108D4
:101A10004B0199245BC04B0199240B2D10E0809160
:101A2000430290914402969587950817190708F08C
:101A30007ECD089DC001099D900D189D900D11242B
:101A4000092E000CAA0BBB0B8C159D05AE05BF051E
:101A5000A0F440E050E06FEF70E0C8010E94B905CB
:101A60008091430290914402019740E050E06FEF73
:101A700070E0801B910B0E94B905B394CECF21502A
:101A80003109201B310B289DC001299D900D389DE7
:101A9000900D1124092E000CAA0BBB0B8C159D0573
:101AA000AE05BF0590F440E050E0BA01C8010E94C5
:101AB000B9058091430290914402019740E050E0C3
:101AC000BA01801B910B0E94B905B3940B2D10E055
:101AD000209143023091440236952795021713074F
:101AE00070F225CD8AE9C81680E1D806E104F10438
:101AF00088F5C701B6012AE030E040E050E00E94DE
:101B00000414672B682B692B09F011CD2091430237
:101B10003091440240E050E0211531054105510566
:101B200079F029833A834B835C830E94C413298113
:101B30003A814B815C810E94D213DC01CB0103C04E
:101B400080E090E0DC014FEF50E060E070E00E9448
:101B5000B905EDCCD701C6018B599041A109B10956
:101B60008D3E9240A105B10508F0E1CC10E0FAE904
:101B7000CF1AF0E1DF0AE108F108612E712C8091A3
:101B80004302909144026816790608F0D0CCC70150
:101B9000B6010E944110AB01BC0183E292E00E94B9
:101BA000FE024B015C0120E030E0A9010E948F0F92
:101BB00087FD16C020E030E04FE753E4C501B401D3
:101BC0000E943211181674F0A501940160E070E0D3
:101BD0008FE793E40E94220F0E940B10462F03C050
:101BE0004FEF01C040E050E060E070E0C3010E94B0
:101BF000B9051F5FC2CF0E948B01E4CA80914902E0
:101C000090914A02009711F00E94D71280914702EA
:101C100087FD03C060E00C940E05089510926B01DF
:101C200010926A0188EE93E0A0E0B0E080936C012E
:101C300090936D01A0936E01B0936F018DE291E0DE
:101C4000909369018093680185EC90E09093750111
:101C50008093740184EC90E09093770180937601F7
:101C600080EC90E0909379018093780181EC90E092
:101C700090937B0180937A0182EC90E090937D01B8
:101C800080937C0186EC90E090937F0180937E01AD
:101C900010928101109282011092830110928401AE
:101CA000109242021092480210924F02109250027B
:101CB000109251021092520283E080934E021092D1
:101CC0004B0281E080934C0292E090934D0280930E
:101CD000410280EF90E090934602809345020E947B
:101CE000421290934A0280934902009761F020EFDC
:101CF000FC0111922A95E9F78CE390E0909344025D
:101D00008093430208C0109246021092450210923E
:101D100044021092430286E080934702809142027F
:101D2000882341F061E086E00E940E0560E086E0D5
:101D30000E94C204E6EDF0E0E491F0E0EE0FFF1F38
:101D4000EA53FF4F859194919093540280935302EC
:101D5000E8EBF0E0E491E093550210923902109222
:101D60003A0210923B0210923C0281E591E090937E
:101D700038028093370210922F0210923002109294
:101D800031021092320287E491E090932E02809308
:101D90002D02109225021092260210922702109214
:101DA0002802909324028093230210921B02109227
:101DB0001C0210921D0210921E0290931A02809330
:101DC0001902109211021092120210921302109234
:101DD00014022DE331E03093100220930F02109291
:101DE0000702109208021092090210920A029093C0
:101DF0000602809305020895991B79E004C0991F9B
:101E0000961708F0961B881F7A95C9F78095089554
:101E1000AA1BBB1B51E107C0AA1FBB1FA617B70710
:101E200010F0A61BB70B881F991F5A95A9F780952C
:101E30009095BC01CD010895EE0FFF1F0590F49120
:101E4000E02D09945058BB27AA270E943A0F0C9402
:101E5000E4100E94AB1038F00E94B21020F039F468
:101E60009F3F19F426F40C94A8100EF4E095E7FBBC
:101E70000C94A210E92F0E94091158F3BA176207B7
:101E800073078407950720F079F4A6F50C942B11BD
:101E90000EF4E0950B2EBA2FA02D0B01B901900185
:101EA0000C01CA01A0011124FF27591B99F0593FC9
:101EB00050F4503E68F11A16F040A22F232F342F11
:101EC0004427585FF3CF469537952795A795F0405F
:101ED0005395C9F77EF41F16BA0B620B730B840B74
:101EE000BAF09150A1F0FF0FBB1F661F771F881F2C
:101EF000C2F70EC0BA0F621F731F841F48F4879584
:101F000077956795B795F7959E3F08F0B0CF939575
:101F1000880F08F09927EE0F9795879508950E94EE
:101F20007E1008F481E008950E94BB10E3950C94A4
:101F3000F5100E94AD0F0C94E4100E94B21058F0FE
:101F40000E94AB1040F029F45F3F29F00C94A210DE
:101F500051110C942C110C94A8100E94091168F3D3
:101F60009923B1F3552391F3951B550BBB27AA2752
:101F700062177307840738F09F5F5F4F220F331F8C
:101F8000441FAA1FA9F335D00E2E3AF0E0E832D054
:101F900091505040E695001CCAF72BD0FE2F29D057
:101FA000660F771F881FBB1F261737074807AB0729
:101FB000B0E809F0BB0B802DBF01FF2793585F4F9E
:101FC0003AF09E3F510578F00C94A2100C942C111D
:101FD0005F3FE4F3983ED4F3869577956795B79580
:101FE000F7959F5FC9F7880F911D9695879597F98B
:101FF0000895E1E0660F771F881FBB1F6217730704
:102000008407BA0720F0621B730B840BBA0BEE1F18
:1020100088F7E09508950E9412106894B1110C940D
:102020002C1108950E94111188F09F5798F0B92F34
:102030009927B751B0F0E1F0660F771F881F991FFD
:102040001AF0BA95C9F714C0B13091F00E942B1163
:10205000B1E008950C942B11672F782F8827B85F73
:1020600039F0B93FCCF3869577956795B395D9F755
:102070003EF490958095709561957F4F8F4F9F4F5F
:102080000895E89409C097FB3EF49095809570956B
:1020900061957F4F8F4F9F4F9923A9F0F92F96E9B4
:1020A000BB279395F695879577956795B795F11129
:1020B000F8CFFAF4BB0F11F460FF1BC06F5F7F4FC6
:1020C0008F4F9F4F16C0882311F096E911C07723D8
:1020D00021F09EE8872F762F05C0662371F096E8E1
:1020E000862F70E060E02AF09A95660F771F881FB0
:1020F000DAF7880F9695879597F90895990F000854
:10210000550FAA0BE0E8FEEF16161706E807F907C9
:10211000C0F012161306E407F50798F0621B730B64
:10212000840B950B39F40A2661F0232B242B252BE5
:1021300021F408950A2609F4A140A6958FEF811D88
:10214000811D089597F99F6780E870E060E0089529
:102150009FEF80EC089500240A94161617061806BF
:102160000906089500240A9412161306140605069B
:1021700008950C94A8100E941111D8F3E894E0E09F
:10218000BB279F57F0F02AED3FE049EC06C0EE0F69
:10219000BB0F661F771F881F28F0B23A62077307CC
:1021A000840728F0B25A620B730B840BE3959A955F
:1021B00072F7803830F49A95BB0F661F771F881F1F
:1021C000D2F790480C94F411092E0394000C11F4EA
:1021D000882352F0BB0F40F4BF2B11F460FF04C002
:1021E0006F5F7F4F8F4F9F4F0895EF93E0FF07C0C2
:1021F000A2EA2AED3FE049EC5FEB0E943A0F0E9411
:10220000E4100F90039401FC9058E6E7F0E00C9482
:10221000071257FD9058440F551F59F05F3F71F05A
:102220004795880F97FB991F61F09F3F79F087953D
:102230000895121613061406551FF2CF4695F1DFC6
:1022400008C0161617061806991FF1CF8695710556
:10225000610508940895E894BB2766277727CB018A
:1022600097F908950E947E1008F48FEF08950E9458
:102270004A110C94E4100E94AB1038F00E94B21086
:1022800020F0952311F00C94A2100C94A8101124A6
:102290000C942C110E94091170F3959FC1F3950FB6
:1022A00050E0551F629FF001729FBB27F00DB11DDA
:1022B000639FAA27F00DB11DAA1F649F6627B00D6A
:1022C000A11D661F829F2227B00DA11D621F739F53
:1022D000B00DA11D621F839FA00D611D221F749F61
:1022E0003327A00D611D231F849F600D211D822FA8
:1022F000762F6A2F11249F5750409AF0F1F08823CF
:102300004AF0EE0FFF1FBB1F661F771F881F9150FB
:102310005040A9F79E3F510580F00C94A2100C94F8
:102320002C115F3FE4F3983ED4F38695779567953B
:10233000B795F795E7959F5FC1F7FE2B880F911D25
:102340009695879597F908959F930E94BB100F90DB
:1023500007FCEE5F0C94F51019F416F40C94A81019
:102360000C94F2110E941111B8F39923C9F3B6F33A
:102370009F57550B87FF0E9400120024A0E640EAF9
:10238000900180585695979528F4805C660F771FCA
:10239000881F20F026173707480730F4621B730B9D
:1023A000840B202931294A2BA695179407942025C0
:1023B00031254A2758F7660F771F881F20F0261708
:1023C0003707480730F4620B730B840B200D311D67
:1023D000411DA09581F7B901842F9158880F9695DA
:1023E000879508959F3F31F0915020F48795779518
:1023F0006795B795880F911D9695879597F90895DC
:1024000091505040660F771F881FD2F708959F9311
:102410008F937F936F93FF93EF939B01AC010E9487
:102420003711EF91FF910E941B122F913F914F9115
:102430005F910C943711DF93CF931F930F93FF920B
:10244000EF92DF927B018C01689406C0DA2EEF01D7
:102450000E944A11FE01E894A5912591359145917C
:102460005591A6F3EF010E943A0FFE019701A801D2
:10247000DA9469F7DF90EF90FF900F911F91CF9161
:10248000DF910895CF93DF938230910510F482E0BD
:1024900090E0E0915802F091590220E030E0C0E075
:1024A000D0E0309711F14081518148175907C0F0B1
:1024B0004817590761F482819381209719F09B8313
:1024C0008A832BC0909359028093580226C021150D
:1024D000310519F04217530718F49A01BE01DF01C4
:1024E000EF010280F381E02DDCCF2115310509F1E8
:1024F000281B390B2430310590F412968D919C9154
:1025000013976115710521F0FB019383828304C049
:102510009093590280935802FD01329644C0FD0108
:10252000E20FF31F81939193225031092D933C9335
:102530003AC02091560230915702232B41F420914A
:1025400021013091220130935702209356022091AD
:102550001F01309120012115310541F42DB73EB7FF
:102560004091230150912401241B350BE091560228
:10257000F0915702E217F307A0F42E1B3F0B281728
:10258000390778F0AC014E5F5F4F2417350748F0EC
:102590004E0F5F1F509357024093560281939193C1
:1025A00002C0E0E0F0E0CF01DF91CF9108950F93FA
:1025B0001F93CF93DF93009709F48CC0FC013297EF
:1025C00013821282009158021091590201151105CF
:1025D00081F420813181820F931F20915602309126
:1025E00057022817390779F5F0935702E0935602FE
:1025F00071C0D80140E050E0AE17BF0750F412960A
:102600002D913C911397AD012115310509F1D901A7
:10261000F3CF9D01DA013383228360817181860FBC
:10262000971F8217930769F4EC0128813981260FDF
:10263000371F2E5F3F4F318320838A819B81938395
:102640008283452B29F4F0935902E093580242C04B
:102650001396FC93EE931297ED01499159919E01C7
:10266000240F351FE217F30771F480819181840FE5
:10267000951F029611969C938E9382819381139657
:102680009C938E931297E0E0F0E0D80112968D9122
:102690009C911397009719F0F8018C01F6CF8D915A
:1026A0009C9198012E5F3F4F820F931F20915602FD
:1026B000309157022817390769F4309729F410929E
:1026C00059021092580202C01382128210935702CC
:1026D00000935602DF91CF911F910F910895DC0175
:1026E00001C06D9341505040E0F708958F929F9242
:1026F000AF92BF92CF92DF92EF92FF92CF93DF9390
:10270000EC01688179818A819B8161157105810560
:10271000910521F464E279ED8BE597E02DE133EF4B
:1027200041E050E00E94D21349015A019B01AC01E3
:10273000A7EAB1E40E94F1136B017C01ACEEB4EFA7
:10274000A50194010E94FF13DC01CB018C0D9D1D9E
:10275000AE1DBF1DB7FF03C00197A109B048888314
:102760009983AA83BB83BC01CD019F77DF91CF9171
:10277000FF90EF90DF90CF90BF90AF909F908F90A1
:1027800008950E947613089585E291E00E947613E1
:1027900008956093250170932601809327019093FB
:1027A00028010895052E97FB1EF400940E94E9135A
:1027B00057FD07D00E94041407FC03D04EF40C947C
:1027C000E91350954095309521953F4F4F4F5F4FFE
:1027D000089590958095709561957F4F8F4F9F4F8D
:1027E00008950E942614A59F900DB49F900DA49F5C
:1027F000800D911D11240895B7FF0C94F1130E94D0
:10280000F113821B930B0895A1E21A2EAA1BBB1B86
:10281000FD010DC0AA1FBB1FEE1FFF1FA217B307AC
:10282000E407F50720F0A21BB30BE40BF50B661FC2
:10283000771F881F991F1A9469F760957095809586
:1028400090959B01AC01BD01CF010895A29FB001FD
:10285000B39FC001A39F700D811D1124911DB29FD4
:10286000700D811D1124911D089510E0C3E7D0E083
:1028700004C0FE010E941C0F2196C437D107C9F77E
:04288000F894FFCFFA
:1028840011000200100000000F0000000E00000004
:10289400090000000500000003000000FFFF010024
:1028A400005A028000010000000000000022019E86
:1028B40000EB00C900DD00690100000000D403AC96
:1028C400031A0300000000D502FE0290020000007B
:0828D4000065021F02A10100D2
:107800000C94343C0C94513C0C94513C0C94513CE1
:107810000C94513C0C94513C0C94513C0C94513CB4
:107820000C94513C0C94513C0C94513C0C94513CA4
:107830000C94513C0C94513C0C94513C0C94513C94
:107840000C94513C0C94513C0C94513C0C94513C84
:107850000C94513C0C94513C0C94513C0C94513C74
:107860000C94513C0C94513C11241FBECFEFD8E036
:10787000DEBFCDBF11E0A0E0B1E0EAE8FFE702C063
:1078800005900D92A230B107D9F712E0A2E0B1E065
:1078900001C01D92AD30B107E1F70E942D3D0C945F
:1078A000C33F0C94003C982F95959595959595958B
:1078B000905D8F708A307CF0282F295A8091C0000B
:1078C00085FFFCCF9093C6008091C00085FFFCCF60
:1078D0002093C6000895282F205DF0CF982F809127
:1078E000C00085FFFCCF9093C6000895EF92FF92F1
:1078F0000F931F93EE24FF2487018091C00087FD22
:1079000017C00894E11CF11C011D111D81E2E8164D
:1079100081EAF80687E0080780E0180770F3E09135
:107920000401F091050109958091C00087FFE9CF1E
:107930008091C6001F910F91FF90EF9008950E94D3
:10794000763C982F8091C00085FFFCCF9093C600B5
:1079500091362CF490330CF09053892F089597555D
:10796000892F08951F930E949F3C182F0E949F3CCF
:107970001295107F810F1F9108951F93182F882350
:1079800021F00E94763C1150E1F71F9108951F935A
:10799000182F0E94763C803249F0809103018F5F5E
:1079A000809303018530C1F01F9108958091C0003C
:1079B00085FFFCCF84E18093C6008091C00085FFE5
:1079C000FCCF1093C6008091C00085FFFCCF80E102
:1079D0008093C6001F910895E0910401F091050184
:1079E00009951F9108950E94763C803241F0809164
:1079F00003018F5F80930301853081F008958091AA
:107A0000C00085FFFCCF84E18093C6008091C00058
:107A100085FFFCCF80E18093C6000895E0910401CA
:107A2000F09105010995089548EC50E08823A1F0F4
:107A30002D9A28EE33E0FA013197F1F721503040CA
:107A4000D1F72D9828EE33E0FA013197F1F7215064
:107A50003040D1F7815061F708953F924F925F9285
:107A60006F927F928F929F92AF92BF92CF92DF924E
:107A7000EF92FF920F931F93CF93DF93000082E06A
:107A80008093C00080E18093C4001092C50088E11B
:107A90008093C10086E08093C2005098589A259A3E
:107AA00081E00E94143D24E1F22E9EE1E92E85E959
:107AB000D82E0FE0C02E10E1B12EAA24A394B1E479
:107AC0009B2EA6E58A2EF2E57F2EE0E26E2E79E46B
:107AD000572E63E5462E50E5352E0E94763C8033C6
:107AE000B1F18133B9F1803409F46FC0813409F404
:107AF00076C0823409F485C0853409F488C08035A5
:107B000031F1823521F1813511F1853509F485C0D6
:107B1000863509F48DC0843609F496C0843709F49B
:107B200003C1853709F472C1863709F466C08091B4
:107B300003018F5F80930301853079F6E0910401A2
:107B4000F091050109950E94763C803351F60E9420
:107B5000F33CC3CF0E94763C803249F78091C0004D
:107B600085FFFCCFF092C6008091C00085FFFCCF5E
:107B70009092C6008091C00085FFFCCF8092C60025
:107B80008091C00085FFFCCF7092C6008091C0003C
:107B900085FFFCCF6092C6008091C00085FFFCCFBE
:107BA0005092C6008091C00085FFFCCF4092C60075
:107BB0008091C00085FFFCCF3092C6008091C0004C
:107BC00085FFFCCFB092C60088CF0E94763C8638F5
:107BD00008F4BDCF0E94763C0E94F33C7ECF0E9409
:107BE000763C803809F49CC0813809F40BC1823896
:107BF00009F430C1883909F48FC080E00E94C73C85
:107C00006CCF84E10E94BD3C0E94F33C66CF85E0CE
:107C10000E94BD3C0E94F33C60CF0E94763C809362
:107C200006010E94763C809307010E94F33C55CFE9
:107C30000E94763C803309F411C183E00E94BD3C70
:107C400080E00E94C73C49CF0E94763C80930902A5
:107C50000E94763C8093080280910C028E7F809374
:107C60000C020E94763C853409F409C18091080217
:107C700090910902892B89F000E010E00E94763C87
:107C8000F801E85FFE4F80830F5F1F4F809108026D
:107C9000909109020817190788F30E94763C8032F8
:107CA00009F045CF80910C0280FFF5C0609106017C
:107CB00070910701660F771F7093070160930601AB
:107CC000A0910802B09109021097C9F0E8E0F1E034
:107CD0009B01AD014E0F5F1FF999FECF32BD21BD53
:107CE000819180BDFA9AF99A2F5F3F4FE417F5070B
:107CF00099F76A0F7B1F70930701609306018091CB
:107D0000C00085FFFCCFF092C6008091C00085FFC7
:107D1000FCCFB092C600E1CE83E00E94C73CDDCE2E
:107D200082E00E94C73CD9CE0E94763C8093090233
:107D30000E94763C80930802809106019091070191
:107D4000880F991F90930701809306010E94763C4B
:107D5000853409F49AC080910C028E7F80930C02C6
:107D60000E94763C803209F0B8CE8091C00085FF39
:107D7000FCCFF092C600A0910802B09109021097C2
:107D8000C1F180910C02082F0170182F1695117007
:107D9000E0910601F0910701AF014F5F5F4FBA011B
:107DA00020E030E00023B1F4112339F49491809164
:107DB000C00085FFFCCF9093C6002F5F3F4FCB01E3
:107DC0000196FA012A173B0780F4BC014F5F5F4F11
:107DD000002351F3F999FECFF2BDE1BDF89A90B5B9
:107DE0008091C00085FFFCCFE6CF709307016093C0
:107DF00006018091C00085FDE5CE8091C00085FF21
:107E0000F8CFE0CE81E00E94C73C67CE0E94763C6E
:107E1000803209F08CCE8091C00085FFFCCFF092BB
:107E2000C6008091C00085FFFCCFE092C600809123
:107E3000C00085FFFCCFD092C6008091C00085FFB6
:107E4000FCCFC092C6008091C00085FFFCCFB092ED
:107E5000C60043CE80E10E94C73C3FCE0E94763CE4
:107E60000E94763C182F0E94763C112309F483C0AF
:107E7000113009F484C08FE00E94C73C2ECE80915F
:107E80000C02816080930C02F1CE80910C02816023
:107E900080930C0265CF809107018823880F880B9F
:107EA0008A2180930B028091060190910701880F2F
:107EB000991F90930701809306018091080280FF2B
:107EC00009C08091080290910902019690930902DD
:107ED00080930802F894F999FECF1127E0910601EA
:107EE000F0910701C8E0D1E0809108029091090269
:107EF000103091F40091570001700130D9F303E084
:107F000000935700E8950091570001700130D9F3B4
:107F100001E100935700E8950990199000915700EE
:107F200001700130D9F301E000935700E8951395F3
:107F3000103498F011270091570001700130D9F3E7
:107F400005E000935700E89500915700017001305B
:107F5000D9F301E100935700E8953296029709F0B2
:107F6000C7CF103011F00296E5CF11248091C000E8
:107F700085FFC5CEC8CE8EE10E94C73CAECD85E957
:0A7F80000E94C73CAACDF894FFCF81
:027F8A00800075
:040000030000780081
:00000001FF
