:100000000C945E000C9486000C9486000C94860080
:100010000C9486000C9486000C9486000C94860048
:100020000C9486000C9486000C9486000C94860038
:100030000C9486000C9486000C9486000C94860028
:100040000C9487040C9486000C9455040C942F0493
:100050000C9486000C9486000C9486000C94860008
:100060000C9486000C9486000000000024002700F9
:100070002A0000000008000201000003040700003D
:10008000000000000000010204081020408001026E
:1000900004081020010204081020000000002500C0
:1000A00028002B00040404040404040402020202D5
:1000B0000202030303030303D104490711241FBEF3
:1000C000CFEFD8E0DEBFCDBF11E0A0E0B1E0E0E8C7
:1000D000F1E102C005900D92A633B107D9F721E0F6
:1000E000A6E3B1E001C01D92A83FB207E1F710E01E
:1000F000CDE5D0E004C02197FE010E947B07CC35FE
:10010000D107C9F70E9471050C94B3080C94000044
:10011000CF92DF92EF92FF920F931F93CF93DF93D3
:100120006C017A018B01C0E0D0E0CE15DF0589F0CB
:10013000D8016D918D01D601ED91FC910190F08176
:10014000E02DC6010995892B11F47E0102C021968C
:10015000ECCFC701DF91CF911F910F91FF90EF90EE
:10016000DF90CF900895FC01918D828D981761F0FA
:10017000828DDF01A80FB11D5D968C91928D9F5FDE
:100180009F73928F90E008958FEF9FEF0895FC0189
:10019000918D828D981731F0828DE80FF11D858D3C
:1001A00090E008958FEF9FEF0895FC01918D228DCF
:1001B000892F90E0805C9F4F821B91098F73992754
:1001C000089582E491E00E94D50021E0892B09F492
:1001D00020E0822F0895FC01848DDF01A80FB11D5E
:1001E000A35ABF4F2C91848D90E001968F7399276D
:1001F000848FA689B7892C93A089B1898C9180645A
:100200008C93938D848D981306C00288F389E02D1A
:1002100080818F7D80830895EF92FF920F931F93CB
:10022000CF93DF93EC0181E0888F9B8D8C8D9813A9
:1002300005C0E889F989808185FD24C0F62E0B8DE3
:1002400010E00F5F1F4F0F731127E02E8C8DE81207
:100250000CC00FB607FCFACFE889F989808185FFC9
:10026000F5CFCE010E94EB00F1CF8B8DFE01E80FA0
:10027000F11DE35AFF4FF0820B8FEA89FB898081E1
:10028000806207C0EE89FF896083E889F9898081EF
:100290008064808381E090E0DF91CF911F910F9186
:1002A000FF90EF900895CF93DF93EC01888D882322
:1002B000C9F0EA89FB89808185FD05C0A889B989D3
:1002C0008C9186FD0FC00FB607FCF5CF808185FFAE
:1002D000F2CFA889B9898C9185FFEDCFCE010E941C
:1002E000EB00E7CFDF91CF91089580E090E0892B7C
:1002F00029F00E94E10081110C940000089590E023
:10030000FC01EE58FF4F3491FC01EA57FF4F249156
:10031000FC01EC55FF4FE491EE2309F43BC033237D
:1003200039F1333091F038F43130A9F0323001F541
:1003300084B58F7D12C0373091F03830A1F0343061
:10034000B9F4809180008F7D03C0809180008F7709
:10035000809380000DC084B58F7784BD09C08091E3
:10036000B0008F7703C08091B0008F7D8093B00084
:10037000F0E0EE0FFF1FE656FF4FA591B4918FB747
:10038000F894EC91611103C020952E2301C02E2B0F
:100390002C938FBF0895CF93DF9390E0FC01EA5731
:1003A000FF4F2491FC01EC55FF4F8491882361F1AC
:1003B00090E0880F991FFC01E859FF4FC591D49137
:1003C000FC01E656FF4FA591B491611109C09FB79A
:1003D000F8948881209582238883EC912E230BC08A
:1003E000623061F49FB7F8943881822F809583231F
:1003F0008883EC912E2B2C939FBF06C08FB7F89467
:10040000E8812E2B28838FBFDF91CF9108953FB7CE
:10041000F8948091370190913801A0913901B09101
:100420003A0126B5A89B05C02F3F19F00196A11DE2
:10043000B11D3FBFBA2FA92F982F8827820F911D7A
:10044000A11DB11DBC01CD0143E0660F771F881FC0
:10045000991F4A95D1F708954F925F926F927F92BC
:100460008F929F92AF92BF92CF92DF92EF92FF92C4
:100470000F931F93CF93DF93CDB7DEB729970FB6B6
:10048000F894DEBF0FBECDBF082F10E0982EC12C10
:10049000D12CA12CB12CE12CF12C88E0882E80915C
:1004A000E1019091E201E816F90608F0BFC1209140
:1004B000E6013091EC014091E9018091E7019091D2
:1004C000E801341303C08A0D9B1D10C08C0D9D1DC7
:1004D000FC01E30FF11D222339F0209FA001219F91
:1004E000500D1124252F01C0292D20832091E901D1
:1004F000FC01E20FF11D10822091EA01FC01E20FE4
:10050000F11D10822091EB01FC01E20FF11D108220
:100510008091E7019091E801892B09F47DC10E9447
:1005200007024090ED015090EE016090EF01709055
:10053000F001DC01CB0184199509A609B709C2971E
:10054000A105B10560F3F8948091E3019091E40175
:100550009A838983A091E701B091E801FD0131966A
:100560008C9189878091DF01A091F101B091F20116
:10057000882309F417C11B82AB32B10509F058C0BA
:100580009BB18091F301982B98879BB1809589232B
:100590008F838F818C83898587FF02C088858C83B8
:1005A00058856F8149853C812B8189819A815BB90E
:1005B000262F3BB900C046FD252F6BB900C05BB9A3
:1005C000362F2BB900C045FD352F6BB900C05BB984
:1005D000262F3BB900C044FD252F6BB900C05BB985
:1005E000362F2BB900C043FD352F6BB900C05BB966
:1005F000262F3BB900C042FD252F6BB900C05BB967
:10060000362F2BB900C041FD352F6BB900C05BB947
:10061000262F3BB900C040FD252F6BB901975BB970
:10062000362F2BB9419147FD352F6BB901F6B6C076
:10063000A532B10509F058C095B18091F301982B0E
:10064000988795B1809589238F838F818C83898545
:1006500087FF02C088858C8358856F8149853C81DE
:100660002B8189819A8155B9262F35B900C046FD65
:10067000252F65B900C055B9362F25B900C045FDF5
:10068000352F65B900C055B9262F35B900C044FDD6
:10069000252F65B900C055B9362F25B900C043FDD7
:1006A000352F65B900C055B9262F35B900C042FDB8
:1006B000252F65B900C055B9362F25B900C041FDB9
:1006C000352F65B900C055B9262F35B900C040FD9A
:1006D000252F65B9019755B9362F25B9419147FDA9
:1006E000352F65B901F65AC0989709F08AC098B1BC
:1006F0008091F301982B988798B1809589238F83F7
:100700008F818C83898587FF02C088858C8358857B
:100710006F8149853C812B8189819A8158B9262F27
:1007200038B900C046FD252F68B900C058B9362F2A
:1007300028B900C045FD352F68B900C058B9262F2B
:1007400038B900C044FD252F68B900C058B9362F0C
:1007500028B900C043FD352F68B900C058B9262F0D
:1007600038B900C042FD252F68B900C058B9362FEE
:1007700028B900C041FD352F68B900C058B9262FEF
:1007800038B900C040FD252F68B9019758B9362FF8
:1007900028B9419147FD352F68B901F649873C8357
:1007A0002B832DC09C918091F301982B98879C916D
:1007B000809589238F838F818E838D8258856F8169
:1007C00049853D812E8189819A815C9347FD252F42
:1007D0002C93262F3A9531F0441F6C9300C000C033
:1007E00000C0F3CF6C93000038E04191019769F7A6
:1007F000B093F201A093F10149873D832E839A8340
:10080000898378940E9407026093ED017093EE0152
:100810008093EF019093F0018FEFE81AF80A83E0DC
:10082000A80EB11C84E0C80ED11C39CE29960FB693
:10083000F894DEBF0FBECDBFDF91CF911F910F9116
:10084000FF90EF90DF90CF90BF90AF909F908F90F0
:100850007F906F905F904F9008950E94AE081F9216
:100860000F920FB60F9211242F933F934F935F93E4
:100870006F937F938F939F93AF93BF93EF93FF9368
:1008800082E491E00E94EB00FF91EF91BF91AF9164
:100890009F918F917F916F915F914F913F912F9198
:1008A0000F900FBE0F901F9018951F920F920FB6CA
:1008B0000F9211242F938F939F93EF93FF93E091C7
:1008C0005201F09153018081E0915801F09159015A
:1008D00082FD12C0908180915B018F5F8F732091A8
:1008E0005C01821751F0E0915B01F0E0EE5BFE4F9E
:1008F000958F80935B0101C08081FF91EF919F9163
:100900008F912F910F900FBE0F901F9018951F92EF
:100910000F920FB60F9211242F933F938F939F93B3
:10092000AF93BF9380913D0190913E01A0913F0113
:10093000B09140013091360126E0230F2D3720F48D
:100940000296A11DB11D05C029E8230F0396A11D24
:10095000B11D2093360180933D0190933E01A093F9
:100960003F01B09340018091370190913801A091EF
:100970003901B0913A010196A11DB11D8093370153
:1009800090933801A0933901B0933A01BF91AF9190
:100990009F918F913F912F910F900FBE0F901F90BD
:1009A0001895109245011092440188EE93E0A0E062
:1009B000B0E08093460190934701A0934801B09323
:1009C000490189E291E0909343018093420185ECD3
:1009D00090E090934F0180934E0184EC90E09093CF
:1009E00051018093500180EC90E0909353018093EB
:1009F000520181EC90E0909355018093540182EC78
:100A000090E0909357018093560186EC90E090938C
:100A100059018093580110925B0110925C01109271
:100A20005D0110925E011092E0011092E6011092B9
:100A3000ED011092EE011092EF011092F00183E0AF
:100A40008093EC011092E90181E08093EA0192E049
:100A50009093EB018093DF0180EF90E09093E401AD
:100A60008093E3010E9481079093E8018093E7015E
:100A7000009761F020EFFC0111922A95E9F78CE3D1
:100A800090E09093E2018093E10108C01092E401AC
:100A90001092E3011092E2011092E10186E080934E
:100AA000E5018091E001882341F061E086E00E9449
:100AB000CB0160E086E00E947F01EAEAF0E0E49189
:100AC000F0E0EE0FFF1FE656FF4F85919491909353
:100AD000F2018093F101ECE8F0E0E491E093F3019E
:100AE0000895789484B5826084BD84B5816084BDA6
:100AF00085B5826085BD85B5816085BD80916E00BC
:100B0000816080936E0010928100809181008260EC
:100B10008093810080918100816080938100809129
:100B200080008160809380008091B1008460809318
:100B3000B1008091B00081608093B00080917A0014
:100B4000846080937A0080917A00826080937A003A
:100B500080917A008E7F80937A0080917A008068FD
:100B600080937A001092C100E0915201F0915301FC
:100B700082E08083E0914E01F0914F011082E0917C
:100B80005001F091510187E6808310925A01E09163
:100B90005601F091570186E08083E0915401F09175
:100BA0005501808180618083E0915401F09155016D
:100BB000808188608083E0915401F09155018081AB
:100BC00080688083E0915401F091550180818F7D90
:100BD0008083C0E0D1E061E088810E94CB0124964F
:100BE00021E0CC31D207B9F78091E50187FD08C03B
:100BF00061E00E94CB0160E08091E5010E947F01ED
:100C000081E08093E00182E090E090933C0180934A
:100C10003B018BE40E942C0273E0272E312C01E073
:100C200010E0E8EC4E2E512C612C712C80911E01AD
:100C30008823B9F1C0E0D1E061E088810E947F01A2
:100C40000E9407024B015C0164E6C62ED12CE12C08
:100C5000F12C0E940702DC01CB0188199909AA092D
:100C6000BB09883E9340A105B10558F081E0C81A40
:100C7000D108E108F10898EE890E93E0991EA11CB5
:100C8000B11CC114D104E104F10419F760E08881BA
:100C90000E947F01249681E0CC31D80769F610923A
:100CA0001E0182E491E00E94D500892B09F4A4C0C2
:100CB00082E491E00E94B3008093410120911C01E5
:100CC00030911D012F3F9FEF390791F5843329F1B2
:100CD0005CF48233D1F0F4F4813309F08DC01092CA
:100CE0001D0110921C0188C08236E1F034F4813677
:100CF00009F082C084E090E07BC08336B1F0833796
:100D000009F07AC087E090E073C010931D01009352
:100D10001C0172C082E090E06BC030921D012092F5
:100D20001C016AC085E090E063C086E090E060C08E
:100D300027303105ACF5863649F17CF4823609F06E
:100D400055C0220F331F220F331FF901E050FF4F10
:100D500082E090E09383828349C08E3669F08337C6
:100D600009F044C0220F331F220F331FF901E05056
:100D7000FF4F338222823AC0220F331F220F331FCC
:100D8000F901E050FF4F1383028330C0220F331F5D
:100D9000220F331FF901E050FF4F1382128226C049
:100DA0002730310519F5823391F044F48133F1F4A1
:100DB00010933C0100933B018FEF16C0833379F011
:100DC0008636A1F410923C0110923B010FC082E0E4
:100DD00090E090933C0180933B018BE405C03092FE
:100DE0003C0120923B0189E10E942C028FEF9FEF92
:100DF00090931D0180931C01C0E0D1E08A819B810A
:100E000081309105A9F11CF4892BA1F137C0823002
:100E1000910519F00397C1F031C02FB7F894609194
:100E20003D0170913E0180913F01909140012FBFA3
:100E300024EF31E040E050E00E9459076A3F71051D
:100E400081059105B8F414C02FB7F89460913D0165
:100E500070913E0180913F01909140012FBFA3010D
:100E600092010E945907643671058105910510F4BD
:100E700061E001C060E088810E947F01249691E0DA
:100E8000CC31D90709F0BACF10921E010E9475012A
:100E9000CDCE8091E7019091E801009711F00E947A
:100EA00016088091E50187FD03C060E00C94CB013A
:100EB0000895A1E21A2EAA1BBB1BFD010DC0AA1F9B
:100EC000BB1FEE1FFF1FA217B307E407F50720F0B3
:100ED000A21BB30BE40BF50B661F771F881F991F2E
:100EE0001A9469F760957095809590959B01AC0177
:100EF000BD01CF010895EE0FFF1F0590F491E02D85
:100F00000994CF93DF938230910510F482E090E052
:100F1000E091F601F091F70120E030E0C0E0D0E090
:100F2000309711F14081518148175907C0F0481797
:100F3000590761F482819381209719F09B838A83FA
:100F40002BC09093F7018093F60126C0211531053F
:100F500019F04217530718F49A01BE01DF01EF019F
:100F60000280F381E02DDCCF2115310509F1281B2A
:100F7000390B2430310590F412968D919C91139782
:100F80006115710521F0FB019383828304C0909366
:100F9000F7018093F601FD01329644C0FD01E20F96
:100FA000F31F81939193225031092D933C933AC0C2
:100FB0002091F4013091F501232B41F4209121017E
:100FC000309122013093F5012093F40120911F010B
:100FD000309120012115310541F42DB73EB74091E4
:100FE000230150912401241B350BE091F401F09171
:100FF000F501E217F307A0F42E1B3F0B2817390762
:1010000078F0AC014E5F5F4F2417350748F04E0F64
:101010005F1F5093F5014093F4018193919302C0B7
:10102000E0E0F0E0CF01DF91CF9108950F931F939F
:10103000CF93DF93009709F48CC0FC0132971382A1
:1010400012820091F6011091F7010115110581F44A
:1010500020813181820F931F2091F4013091F5019D
:101060002817390779F5F093F501E093F40171C081
:10107000D80140E050E0AE17BF0750F412962D9112
:101080003C911397AD012115310509F1D901F3CF39
:101090009D01DA013383228360817181860F971F5E
:1010A0008217930769F4EC0128813981260F371FD5
:1010B0002E5F3F4F318320838A819B81938382837C
:1010C000452B29F4F093F701E093F60142C0139603
:1010D000FC93EE931297ED01499159919E01240FD3
:1010E000351FE217F30771F480819181840F951FFA
:1010F000029611969C938E938281938113969C9372
:101100008E931297E0E0F0E0D80112968D919C91B9
:101110001397009719F0F8018C01F6CF8D919C91EF
:1011200098012E5F3F4F820F931F2091F401309161
:10113000F5012817390769F4309729F41092F7015F
:101140001092F60102C0138212821093F5010093EF
:10115000F401DF91CF911F910F91089581E090E00C
:10116000F8940C94B30810E0CDE5D0E004C0FE0183
:101170000E947B072196CE35D107C9F7F894FFCF9F
:101180000E0002000F00000010000000110000001F
:10119000090000000500000003000000FFFF01003F
:1011A00000F8018000000000000C018800D500B3A9
:0611B00000C7005301001E
:107800000C94343C0C94513C0C94513C0C94513CE1
:107810000C94513C0C94513C0C94513C0C94513CB4
:107820000C94513C0C94513C0C94513C0C94513CA4
:107830000C94513C0C94513C0C94513C0C94513C94
:107840000C94513C0C94513C0C94513C0C94513C84
:107850000C94513C0C94513C0C94513C0C94513C74
:107860000C94513C0C94513C11241FBECFEFD8E036
:10787000DEBFCDBF11E0A0E0B1E0EAE8FFE702C063
:1078800005900D92A230B107D9F712E0A2E0B1E065
:1078900001C01D92AD30B107E1F70E942D3D0C945F
:1078A000C33F0C94003C982F95959595959595958B
:1078B000905D8F708A307CF0282F295A8091C0000B
:1078C00085FFFCCF9093C6008091C00085FFFCCF60
:1078D0002093C6000895282F205DF0CF982F809127
:1078E000C00085FFFCCF9093C6000895EF92FF92F1
:1078F0000F931F93EE24FF2487018091C00087FD22
:1079000017C00894E11CF11C011D111D81E2E8164D
:1079100081EAF80687E0080780E0180770F3E09135
:107920000401F091050109958091C00087FFE9CF1E
:107930008091C6001F910F91FF90EF9008950E94D3
:10794000763C982F8091C00085FFFCCF9093C600B5
:1079500091362CF490330CF09053892F089597555D
:10796000892F08951F930E949F3C182F0E949F3CCF
:107970001295107F810F1F9108951F93182F882350
:1079800021F00E94763C1150E1F71F9108951F935A
:10799000182F0E94763C803249F0809103018F5F5E
:1079A000809303018530C1F01F9108958091C0003C
:1079B00085FFFCCF84E18093C6008091C00085FFE5
:1079C000FCCF1093C6008091C00085FFFCCF80E102
:1079D0008093C6001F910895E0910401F091050184
:1079E00009951F9108950E94763C803241F0809164
:1079F00003018F5F80930301853081F008958091AA
:107A0000C00085FFFCCF84E18093C6008091C00058
:107A100085FFFCCF80E18093C6000895E0910401CA
:107A2000F09105010995089548EC50E08823A1F0F4
:107A30002D9A28EE33E0FA013197F1F721503040CA
:107A4000D1F72D9828EE33E0FA013197F1F7215064
:107A50003040D1F7815061F708953F924F925F9285
:107A60006F927F928F929F92AF92BF92CF92DF924E
:107A7000EF92FF920F931F93CF93DF93000082E06A
:107A80008093C00080E18093C4001092C50088E11B
:107A90008093C10086E08093C2005098589A259A3E
:107AA00081E00E94143D24E1F22E9EE1E92E85E959
:107AB000D82E0FE0C02E10E1B12EAA24A394B1E479
:107AC0009B2EA6E58A2EF2E57F2EE0E26E2E79E46B
:107AD000572E63E5462E50E5352E0E94763C8033C6
:107AE000B1F18133B9F1803409F46FC0813409F404
:107AF00076C0823409F485C0853409F488C08035A5
:107B000031F1823521F1813511F1853509F485C0D6
:107B1000863509F48DC0843609F496C0843709F49B
:107B200003C1853709F472C1863709F466C08091B4
:107B300003018F5F80930301853079F6E0910401A2
:107B4000F091050109950E94763C803351F60E9420
:107B5000F33CC3CF0E94763C803249F78091C0004D
:107B600085FFFCCFF092C6008091C00085FFFCCF5E
:107B70009092C6008091C00085FFFCCF8092C60025
:107B80008091C00085FFFCCF7092C6008091C0003C
:107B900085FFFCCF6092C6008091C00085FFFCCFBE
:107BA0005092C6008091C00085FFFCCF4092C60075
:107BB0008091C00085FFFCCF3092C6008091C0004C
:107BC00085FFFCCFB092C60088CF0E94763C8638F5
:107BD00008F4BDCF0E94763C0E94F33C7ECF0E9409
:107BE000763C803809F49CC0813809F40BC1823896
:107BF00009F430C1883909F48FC080E00E94C73C85
:107C00006CCF84E10E94BD3C0E94F33C66CF85E0CE
:107C10000E94BD3C0E94F33C60CF0E94763C809362
:107C200006010E94763C809307010E94F33C55CFE9
:107C30000E94763C803309F411C183E00E94BD3C70
:107C400080E00E94C73C49CF0E94763C80930902A5
:107C50000E94763C8093080280910C028E7F809374
:107C60000C020E94763C853409F409C18091080217
:107C700090910902892B89F000E010E00E94763C87
:107C8000F801E85FFE4F80830F5F1F4F809108026D
:107C9000909109020817190788F30E94763C8032F8
:107CA00009F045CF80910C0280FFF5C0609106017C
:107CB00070910701660F771F7093070160930601AB
:107CC000A0910802B09109021097C9F0E8E0F1E034
:107CD0009B01AD014E0F5F1FF999FECF32BD21BD53
:107CE000819180BDFA9AF99A2F5F3F4FE417F5070B
:107CF00099F76A0F7B1F70930701609306018091CB
:107D0000C00085FFFCCFF092C6008091C00085FFC7
:107D1000FCCFB092C600E1CE83E00E94C73CDDCE2E
:107D200082E00E94C73CD9CE0E94763C8093090233
:107D30000E94763C80930802809106019091070191
:107D4000880F991F90930701809306010E94763C4B
:107D5000853409F49AC080910C028E7F80930C02C6
:107D60000E94763C803209F0B8CE8091C00085FF39
:107D7000FCCFF092C600A0910802B09109021097C2
:107D8000C1F180910C02082F0170182F1695117007
:107D9000E0910601F0910701AF014F5F5F4FBA011B
:107DA00020E030E00023B1F4112339F49491809164
:107DB000C00085FFFCCF9093C6002F5F3F4FCB01E3
:107DC0000196FA012A173B0780F4BC014F5F5F4F11
:107DD000002351F3F999FECFF2BDE1BDF89A90B5B9
:107DE0008091C00085FFFCCFE6CF709307016093C0
:107DF00006018091C00085FDE5CE8091C00085FF21
:107E0000F8CFE0CE81E00E94C73C67CE0E94763C6E
:107E1000803209F08CCE8091C00085FFFCCFF092BB
:107E2000C6008091C00085FFFCCFE092C600809123
:107E3000C00085FFFCCFD092C6008091C00085FFB6
:107E4000FCCFC092C6008091C00085FFFCCFB092ED
:107E5000C60043CE80E10E94C73C3FCE0E94763CE4
:107E60000E94763C182F0E94763C112309F483C0AF
:107E7000113009F484C08FE00E94C73C2ECE80915F
:107E80000C02816080930C02F1CE80910C02816023
:107E900080930C0265CF809107018823880F880B9F
:107EA0008A2180930B028091060190910701880F2F
:107EB000991F90930701809306018091080280FF2B
:107EC00009C08091080290910902019690930902DD
:107ED00080930802F894F999FECF1127E0910601EA
:107EE000F0910701C8E0D1E0809108029091090269
:107EF000103091F40091570001700130D9F303E084
:107F000000935700E8950091570001700130D9F3B4
:107F100001E100935700E8950990199000915700EE
:107F200001700130D9F301E000935700E8951395F3
:107F3000103498F011270091570001700130D9F3E7
:107F400005E000935700E89500915700017001305B
:107F5000D9F301E100935700E8953296029709F0B2
:107F6000C7CF103011F00296E5CF11248091C000E8
:107F700085FFC5CEC8CE8EE10E94C73CAECD85E957
:0A7F80000E94C73CAACDF894FFCF81
:027F8A00800075
:040000030000780081
:00000001FF
