:100000000C945A040C9482040C9482040C94820480
:100010000C9482040C9482040C9482040C94820448
:100020000C9482040C9482040C9482040C94820438
:100030000C9482040C9482040C9482040C94820428
:100040000C94F50B0C9482040C9422070C94FC067F
:100050000C9482040C9482040C9482040C94820408
:100060000C9482040C94820405A84CCDB2D44EB9F1
:100070003836A9020C50B9918688083CA6AAAA2A4B
:10008000BE000000803F01020408102040800102F1
:1000900004081020010204081020000000002500C0
:1000A00028002B00040404040404040402020202D5
:1000B0000202030303030303476F742069646C6542
:1000C0002076616C2066726F6D20656570726F6D51
:1000D000200000000000240027002A000000000883
:1000E00000020100000304070000000000000000FF
:1000F00000000000FFFFFFFFDB027A0500000000A8
:1001000000009A020000FFFFFFFFDB0200007A05FB
:100110000000000035050000FFFFFFFFDB020000CC
:1001200000007A050000456E746572696E6720658F
:100130002053746174650000000000FFFFFFFFF1B1
:100140000400007F060000000000000000FFFFFF29
:10015000FFDA0400007F060000000000000000FF3E
:10016000FFFFFFC30400007F060000000000000046
:1001700000FFFFFFFFAC0400007F0600000000004E
:10018000000000FFFFFFFF950400007F0600000055
:1001900000D0070000FFFFFFFF8A06D605E105CB70
:1001A000050000B80B0000FFFFFFFFE8020D06008E
:1001B0000002060000456E746572696E6720642057
:1001C00053746174650000000000FFFFFFFF3603F9
:1001D0007A05000000000000EE020000FFFFFFFFB4
:1001E0002903000000007A050000DC050000FFFF85
:1001F000FFFF1C0300007A0500000000456E7465D7
:1002000072696E672063205374617465000000009A
:1002100000FFFFFFFF7103000085050000000000E4
:10022000000000FFFFFFFF5A030000000048060027
:100230000000000000FFFFFFFF4303480600003DF1
:10024000060000456E746572696E67206220537403
:100250006174650000000000FFFFFFFF86030000DF
:1002600000006F05000000000000FFFFFFFF7903A2
:100270006F05000000000000456E746572696E67CE
:1002800020612053746174650000000000FFFFFFCF
:10029000FFF10400007F060000000000000000FFE6
:1002A000FFFFFFDA0400007F0600000000000000EE
:1002B00000FFFFFFFFC30400007F060000000000F6
:1002C000000000FFFFFFFFAC0400007F06000000FD
:1002D0000000000000FFFFFFFF950400007F060004
:1002E000000000E8030000FFFFFFFF22050D0600ED
:1002F0000000000000B80B0000FFFFFFFF93030D9C
:1003000006000000000000456E746572696E67208B
:10031000392053746174650000000000FA00000089
:100320008A06740600007F060000FA000000FFFF46
:10033000FFFF8A0600007F0600000000FA000000B0
:10034000FFFFFFFF2F05F7050206EC050000BE0AC0
:100350000000FFFFFFFFD803F7055E06EC059D05D3
:10036000540B0000FFFFFFFFD003F7055E06EC050E
:100370009D05EA0B0000FFFFFFFFC803F7055E06BF
:10038000EC059D05800C0000FFFFFFFFC003F70593
:100390005E06EC059D05160D0000FFFFFFFFB8038C
:1003A000F7055E06EC059D05AC0D0000FFFFFFFFA5
:1003B000B003F7055E06EC059D05420E0000FFFF49
:1003C000FFFFA803F7055E06EC059D05D80E0000AB
:1003D000FFFFFFFFA003F7055E06EC059D05456ED8
:1003E000746572696E67203920537461746500000A
:1003F000000000FFFFFFFF8A06740600007F060072
:100400000000000000FFFFFFFF0E04EC05000002EB
:1004100006000090010000FFFFFFFFF703EC05005E
:10042000000206000020030000FFFFFFFFE003ECD6
:1004300005000002060000456E746572696E672053
:10044000382053746174650000000000FFFFFFFF57
:100450004C0400000D060000000000000000FFFF3B
:10046000FFFF3F04000000000D060000D007000061
:10047000FFFFFFFF320400000D0600000000D00760
:100480000000FFFFFFFF2504000000000D06000034
:10049000456E746572696E672037205374617465A8
:1004A0000000000000FFFFFFFF7B040D06000000BE
:1004B000000000F4010000FFFFFFFF6E040D0600C6
:1004C0000000000000E8030000FFFFFFFF61040DD3
:1004D00006000000000000CA080000E80300005900
:1004E00004A905000091050000A00F0000E803002A
:1004F000005904A905000091050000456E7465725D
:10050000696E672036205374617465000000000036
:1005100088130000400500000000EC050000E8031F
:100520000000B80B00004005F705000000000000C7
:10053000A00F0000B80B00002F05F7050000000019
:10054000000088130000B80B00002F050000000019
:10055000EC050000456E746572696E6720352053A6
:1005600074617465000000000088130000F104004D
:10057000007F06000000000000000088130000DA81
:100580000400007F06000000000000000088130047
:1005900000C30400007F0600000000000000008887
:1005A000130000AC0400007F060000000000000003
:1005B0000088130000950400007F0600000000E89A
:1005C000030000FFFFFFFF88040000B5050000C026
:1005D00005456E746572696E6720342053746174CA
:1005E000650000000000FFFFFFFF2205190631062D
:1005F00025060000D0070000FFFFFFFF15050D06D0
:10060000000000000000D0070000FFFFFFFF08050A
:100610000D06000000000000456E746572696E678B
:1006200020332053746174650000000000B80B0093
:10063000004005F7050000EC050000B80B00007055
:100640001700002F05F7050000EC050000456E744B
:100650006572696E67203220537461746500000012
:100660000000FFFFFFFF8A0600000000530653064C
:10067000F4010000E80300008A0600000000910574
:100680000000CA080000E80300008A06000000001D
:1006900091050000A00F0000E80300008A0600009A
:1006A000000091050000456E746572696E67203127
:1006B0002053746174650000000000FFFFFFFF4DD0
:1006C000050000000000007F06456E746572696ECB
:1006D000672055702053746174650000000000FFAE
:1006E000FFFFFF8A060000000000006906456E74E7
:1006F0006572696E67204F66662053746174650089
:1007000053657474696E672049646C6520746F204A
:100710000000000000FFFFFFFF8A0600000000004D
:10072000005306EE020000FFFFFFFF960248064856
:100730000600000000DC050000FFFFFFFF7F023D18
:1007400006000000000000D0070000FFFFFFFF6868
:100750000200003D0600000000CA080000FFFFFF85
:10076000FF5102000000003D060000FA000000FFFB
:10077000FFFFFF3A024806000048060000E80300B9
:1007800000FFFFFFFF2302000048064806000000AC
:10079000000000FFFFFFFF8A06000000000000537A
:1007A0000600000000FFFFFFFF8A060000740674C9
:1007B00006530600000000FFFFFFFF8A0674067460
:1007C000060000530600000000FFFFFFFF8A0674CA
:1007D0000600007406530600000000FFFFFFFF8ABA
:1007E00006000000007406530600000000FFFFFF33
:1007F000FF8A06000074060000530600000000FF98
:10080000FFFFFF8A06740600000000530600000088
:1008100000FFFFFFFF8A06000000000000530600F3
:10082000000000FFFFFFFFC402EC05000000000015
:1008300000EE020000FFFFFFFFAD020000EC05002C
:1008400000000000000000FFFFFFFF8A060000001C
:10085000006405000000000000FFFFFFFF8A0600A3
:100860000000000000530600000000FFFFFFFF8AA9
:10087000066405000000000000D5140000FFFFFF23
:10088000FF8A060000640500000000AA290000FF9E
:10089000FFFFFF8A06000000006405000000000062
:1008A00000FFFFFFFF8A060000000000007F060037
:1008B000900E591911241FBECFEFD8E0DEBFCDBF77
:1008C00011E0A0E0B1E0EAE7F5E402C005900D9286
:1008D000A638B107D9F727E0A6E8B1E001C01D921C
:1008E000A530B207E1F714E0C9E5D4E004C02197D0
:1008F000FE010E94771EC835D107C9F70E94691909
:100900000C94B0220C940000CF92DF92EF92FF92F1
:100910000F931F93CF93DF936C017A018B01C0E09B
:10092000D0E0CE15DF0589F0D8016D918D01D6019B
:10093000ED91FC910190F081E02DC6010995892B84
:1009400011F47E0102C02196ECCFC701DF91CF9157
:100950001F910F91FF90EF90DF90CF900895FC01D1
:10096000918D828D981761F0828DDF01A80FB11DE6
:100970005D968C91928D9F5F9F73928F90E008950A
:100980008FEF9FEF0895FC01918D828D981731F0C4
:10099000828DE80FF11D858D90E008958FEF9FEF18
:1009A0000895FC01918D228D892F90E0805C9F4FEE
:1009B000821B91098F739927089586E891E00E9420
:1009C000D10421E0892B09F420E0822F08952F9291
:1009D0003F924F925F926F927F928F929F92AF92CF
:1009E000BF92CF92DF92EF92FF920F931F93CF931C
:1009F000DF93CDB7DEB767970FB6F894DEBF0FBEB3
:100A0000CDBF382E4F8B280139018701BC8AAB8AB4
:100A10009E8A8D8A7B01212C8F89281609F491C02A
:100A200042E150E0B701CE0101960E9491228981F6
:100A30009A81AB81BC81481659066A067B0608F488
:100A40007BC053014201881A990AAA0ABB0A8D8108
:100A50009E81AF81B88588169906AA06BB0608F064
:100A60006BC089859A85009761F0DC01ED91FC915E
:100A70000190F081E02D232DB501A40109954B01D2
:100A80005C018114B8E29B06BBE6AB06BEEEBB067A
:100A900008F052C08B859C85009781F0DC01ED91B8
:100AA000FC910190F081E02DB501A4010995F801B8
:100AB00020813181820F931F918380838D859E8554
:100AC000009789F0DC01ED91FC910190F081E02D1F
:100AD000B501A4010995EB89FC8920813181820F40
:100AE000931F918380838F859889009781F0DC0123
:100AF000ED91FC910190F081E02DB501A4010995E3
:100B0000F60120813181820F931F9183808389892F
:100B10009A89009789F0DC01ED91FC910190F081B8
:100B2000E02DB501A4010995ED89FE89208131816F
:100B3000820F931F918380832394F2E1EF0EF11CC7
:100B40006BCF67960FB6F894DEBF0FBECDBFDF91B7
:100B5000CF911F910F91FF90EF90DF90CF90BF90BA
:100B6000AF909F908F907F906F905F904F903F904D
:100B70002F9008950E948C22EF92FF920F931F9363
:100B8000CF93DF93EC0181E0888F9B8D8C8D981340
:100B900005C0E889F989808185FD24C0F62E0B8D7A
:100BA00010E00F5F1F4F0F731127E02E8C8DE8129E
:100BB0000CC00FB607FCFACFE889F989808185FF60
:100BC000F5CFCE010E94E10AF1CF8B8DFE01E80F37
:100BD000F11DE35AFF4FF0820B8FEA89FB89808178
:100BE000806207C0EE89FF896083E889F989808186
:100BF0008064808381E090E0DF91CF911F910F911D
:100C0000FF90EF900895CF93DF93EC01888D8823B8
:100C1000C9F0EA89FB89808185FD05C0A889B98969
:100C20008C9186FD0FC00FB607FCF5CF808185FF44
:100C3000F2CFA889B9898C9185FFEDCFCE010E94B2
:100C4000E10AE7CFDF91CF910895CF93DF93E09151
:100C50008601F09187010190F081E02D682F86E8F0
:100C600091E00995EC0142E050E063E871E086E82C
:100C700091E00E9484048C0F9D1FDF91CF91089515
:100C80000F931F93CF93DF938C01C0E0D0E0F80166
:100C9000EC0FFD1F6491662371F0E0918601F091E5
:100CA00087010190F081E02D86E891E00995892B7C
:100CB00011F02196ECCFCE01DF91CF911F910F91D2
:100CC00008958F929F92AF92BF92CF92DF92EF9250
:100CD000FF921F93CF93DF93EC01162F69017A01E6
:100CE00020E030E0A901C701B6010E949C2018163F
:100CF00044F58090910690909206A0909306B09053
:100D0000940620E030E0A901C501B4010E949C20B6
:100D100018160CF042C06091980670919906809167
:100D20009A0690919B060E94AB1FA50194010E9418
:100D3000031F20E030E040E05FE30E949C20181693
:100D400064F1D0938F06C0938E0610939006C092E4
:100D50009106D0929206E0929306F0929406109239
:100D600098061092990610929A0610929B060E947D
:100D7000BA0B60939C0670939D0680939E06909399
:100D80009F06DF91CF911F91FF90EF90DF90CF9062
:100D9000BF90AF909F908F90089580918E06909114
:100DA0008F06909396068093950680919006809387
:100DB000970680919C0690919D06A0919E06B09109
:100DC0009F068093A0069093A106A093A206B093DD
:100DD000A306B7CFCF93DF930E944006EC0142E019
:100DE00050E063E871E086E891E00E9484048C0F93
:100DF0009D1FDF91CF9108951F920F920FB60F9212
:100E000011242F933F934F935F936F937F938F930F
:100E10009F93AF93BF93EF93FF9386E891E00E9477
:100E2000E10AFF91EF91BF91AF919F918F917F91D7
:100E30006F915F914F913F912F910F900FBE0F9047
:100E40001F9018951F920F920FB60F9211242F9397
:100E50008F939F93EF93FF93E0919601F091970109
:100E60008081E0919C01F0919D0182FD12C09081F2
:100E700080919F018F5F8F732091A001821751F0A5
:100E8000E0919F01F0E0EA57FE4F958F80939F011C
:100E900001C08081FF91EF919F918F912F910F90D1
:100EA0000FBE0F901F90189580E090E0892B29F0DD
:100EB0000E94DD0481110C9400000895CB01BA0159
:100EC00008958F929F92AF92BF92CF92DF92EF924E
:100ED000FF92CF93DF935C01FC0190858681D281E4
:100EE000C381992329F0682F70E06D1B710904C03C
:100EF0006C2F70E0681B7109072E000C880B990B92
:100F00000E94AD1F6B017C01F501618572858385AF
:100F100094850E94AB1F4B015C018C2F90E00196E1
:100F20008D1B9109BC01990F880B990B0E94AD1F75
:100F30009B01AC01C701B6010E94031F9B01AC01DC
:100F4000C501B4010E94A1200E947C1FDF91CF91B6
:100F5000FF90EF90DF90CF90BF90AF909F908F90D9
:100F60000895FC018681089508952F923F924F9233
:100F70005F926F927F928F929F92AF92BF92CF9229
:100F8000DF92EF92FF920F931F93CF93DF9300D0E6
:100F900000D000D0CDB7DEB71C018B01FC01E6808C
:100FA000F780B7010F2C000C880B990B4D835E83E3
:100FB0000E94AD1F69837A838B839C83F1016085D6
:100FC00071856E197F09072E000C880B990B0E9402
:100FD000AD1F2B013C01F1018285C280D380E480EA
:100FE000F5804D815E818823D1F046015701880C40
:100FF000991CAA1CBB1CBA01C801A50194010E943E
:10100000361EC616D706E806F90690F4A501940127
:10101000261B370B480B590BCA01B90109C0BA018D
:10102000C801C616D706E806F90610F4C701B601CE
:101030000E94AB1F6B017C01F1016281738184818D
:1010400095810E94AB1F9B01AC01C701B6010E94B4
:10105000031F9B01AC01C301B2010E94A1209B01AF
:10106000AC0169817A818B819C810E948D1E0E94D6
:10107000751FCB0126960FB6F894DEBF0FBECDBF0D
:10108000DF91CF911F910F91FF90EF90DF90CF9064
:10109000BF90AF909F908F907F906F905F904F9098
:1010A0003F902F900895FC018085918508958F923F
:1010B0009F92AF92BF92CF92DF92EF92FF92CF9327
:1010C000DF935C01FC0190858781D481C5819923E0
:1010D00029F0682F70E06D1B710904C06C2F70E05F
:1010E000681B7109072E000C880B990B0E94AD1F1D
:1010F0006B017C01F50161857285838594850E9471
:10110000AB1F4B015C018C2F90E001968D1B910968
:10111000BC01990F880B990B0E94AD1F9B01AC017C
:10112000C701B6010E94031F9B01AC01C501B401B8
:101130000E94A1200E947C1FDF91CF91FF90EF9031
:10114000DF90CF90BF90AF909F908F900895FC015B
:1011500087810895DC01E62F372F822F6AE00E94F5
:10116000161E16968C93169717969C9317971296A1
:101170002C911297821790F013962C9113972817A1
:1011800068F014968C911497981740F015968C91EE
:10119000891720F0BA018E2F932F08956FEF7FEFFC
:1011A0008FEF9FEF08958F929F92AF92BF92CF9251
:1011B000DF92EF92FF92CF93DF93EC010E94AA0897
:1011C0004B015C018FEF88169806A806B806E9F077
:1011D000CD84DE84EF84F88889859A85AB85BC85CB
:1011E000C80ED91EEA1EFB1EE881F9810280F38138
:1011F000E02DCE010995C818D908EA08FB08460178
:101200005701861A970AA80AB90AC501B401DF91E5
:10121000CF91FF90EF90DF90CF90BF90AF909F90D5
:101220008F900895CF92DF92EF92FF92CF93DF934A
:10123000EC010E94AA086B017C018FEFC816D8064A
:10124000E806F80659F0E881F9810280F381E02D83
:10125000CE010995C61AD70AE80AF90AC701B601EC
:10126000DF91CF91FF90EF90DF90CF9008958F9214
:101270009F92AF92BF92CF92DF92EF92FF921F9315
:10128000CF93DF93EC010E94AA086F3F2FEF720704
:101290008207920721F46FEF7FEFCB0172C08F843A
:1012A0009888A988BA88A50194010E94361E6B010E
:1012B0007C018E85882341F0D501C4018C199D09DC
:1012C000AE09BF096C017D01288539854A855B859A
:1012D000C701B6010E94361EB22E6D8570E0822FC6
:1012E00090E02C85821B91090196860F971F0E9422
:1012F000221E182FE881F9810280F381E02DCE01B2
:1013000009956D850E94161EB11628F0911718F2E6
:10131000B91630F4C0CFB91618F4911708F4BBCF42
:101320008F849888A988BA88C80CD91CEA1CFB1C31
:10133000288539854A855B85A92FB0E00E94581E13
:10134000A7019601261B370B480B590BCA01B9019F
:10135000A50194010E94361ECB88DC88ED88FE88AA
:101360006C157D058E059F0560F0CC0CDD1CEE1C18
:10137000FF1CA7019601261B370B480B590BCA010E
:10138000B901DF91CF911F91FF90EF90DF90CF9047
:10139000BF90AF909F908F9008956F927F928F92A1
:1013A0009F92AF92BF92CF92DF92EF92FF920F93F4
:1013B0001F93CF93DF9300D000D0CDB7DEB73C01B1
:1013C000E62F372FDC011A968C911A971296CD9042
:1013D000DD90ED90FC9015978823D9F046015701D8
:1013E000880C991CAA1CBB1CBA018E2F932FA50137
:1013F00094010E94361EC616D706E806F90698F430
:10140000A5019401261B370B480B590BCA01B901E2
:101410000AC0BA018E2F932FC616D706E806F90622
:1014200010F4C701B601D3011B962C911B972130F4
:1014300029F518960D911C9119970E94AB1F6B010D
:101440007C01F30162817381848195810E94AB1FCD
:101450009B01AC01C701B6010E94031F2BED3FE0C9
:1014600049EC5FE30E94A1200E94FE1E9B01AC019B
:10147000D30116968D919C91179725C02230A1F526
:10148000F301068117810E94AB1F6B017C01D30120
:1014900012966D917D918D919C9115970E94AB1F35
:1014A0009B01AC01C701B6010E94031F2BED3FE079
:1014B00049EC5FE30E94A1200E940E219B01AC0138
:1014C000F30180859185801B910BBC01990F880BDE
:1014D000990B29833A834B835C830E94AD1F29813A
:1014E0003A814B815C8144C0233009F057C0D3015D
:1014F00016960D911C9117970E94AB1F2BED3FE0A4
:1015000049E450E40E94A1206B017C01F301628157
:101510007381848195810E94AB1F9B01AC01C7013F
:10152000B6010E94031F0E94FE1E6B017C01D301C5
:1015300018968D919C911997F801E81BF90BCF0132
:10154000F7FD019695958795BC01990F880B990B2E
:101550000E94AD1F4B015C0120E030E040E85FE3FA
:10156000C701B6010E948C1E9B01AC01C501B401EC
:101570000E94A1206B017C01B801110F880B990B0F
:101580000E94AD1F9B01AC01C701B6010E948D1ED8
:101590000E94751F262F972F822F00C00F900F904B
:1015A0000F900F90DF91CF911F910F91FF90EF90CF
:1015B000DF90CF90BF90AF909F908F907F906F9073
:1015C0000895FC01848DDF01A80FB11DA35ABF4F00
:1015D0002C91848D90E001968F739927848FA68932
:1015E000B7892C93A089B1898C9180648C93938D59
:1015F000848D981306C00288F389E02D80818F7D49
:101600008083089590E0FC01E452FF4F3491FC0187
:10161000EA57FF4F2491FC01EC55FF4FE491EE2374
:1016200009F43BC0332339F1333091F038F43130D1
:10163000A9F0323001F584B58F7D12C0373091F0BA
:101640003830A1F03430B9F4809180008F7D03C030
:10165000809180008F77809380000DC084B58F7754
:1016600084BD09C08091B0008F7703C08091B00025
:101670008F7D8093B000F0E0EE0FFF1FE656FF4F26
:10168000A591B4918FB7F894EC91611103C02095A6
:101690002E2301C02E2B2C938FBF0895262FFC01E3
:1016A0008281882311F061E001C060E0822F0C94F8
:1016B000020BCF93DF9390E0FC01EA57FF4F249198
:1016C000FC01EC55FF4F8491882361F190E0880F75
:1016D000991FFC01EE52FF4FC591D491FC01E656D3
:1016E000FF4FA591B491611109C09FB7F89488810B
:1016F000209582238883EC912E230BC0623061F405
:101700009FB7F8943881822F809583238883EC914A
:101710002E2B2C939FBF06C08FB7F894E8812E2BF9
:1017200028838FBFDF91CF9108953FB7F8948091C0
:10173000FD069091FE06A091FF06B091000726B528
:10174000A89B05C02F3F19F00196A11DB11D3FBFF9
:10175000BA2FA92F982F8827820F911DA11DB11D87
:10176000BC01CD0143E0660F771F881F991F4A9582
:10177000D1F708952FB7F8946091F9067091FA06A1
:101780008091FB069091FC062FBF0895CF92DF92C7
:10179000EF92FF921F93CF93DF93EC01162F0E94DD
:1017A000BA0BCA84DB84EC84FD846C0D7D1D8E1D18
:1017B0009F1D2A813B814C815D810E94361ECE8017
:1017C000DF80E884F984C616D706E806F90610F02B
:1017D00061E001C060E0812FDF91CF911F91FF9008
:1017E000EF90DF90CF900C94020B1F920F920FB6E8
:1017F0000F9211242F933F938F939F93AF93BF9397
:101800008091F9069091FA06A091FB06B091FC0632
:101810003091F80626E0230F2D3720F40296A11D03
:10182000B11D05C029E8230F0396A11DB11D20930A
:10183000F8068093F9069093FA06A093FB06B093FE
:10184000FC068091FD069091FE06A091FF06B091E6
:1018500000070196A11DB11D8093FD069093FE0621
:10186000A093FF06B0930007BF91AF919F918F9116
:101870003F912F910F900FBE0F901F9018952091C0
:101880000001BC01990F880B990B253309F44BC05B
:10189000F4F42233C1F174F4203309F464C0213329
:1018A00009F061C00E94AD1F9B01AC0164E085E5B9
:1018B00098E060C0233379F1243309F054C00E94CA
:1018C000AD1F9B01AC0161E089EE97E053C0283366
:1018D000D1F16CF4263379F1273309F044C00E942A
:1018E000AD1F9B01AC0161E083EB97E043C029335E
:1018F00091F12136C1F50E94AD1F9B01AC0167E05B
:1019000081E197E037C00E94AD1F9B01AC0164E00C
:101910008DE098E02FC00E94AD1F9B01AC0161E0FB
:101920008BEF97E027C00E94AD1F9B01AC0161E0E7
:1019300087ED97E01FC00E94AD1F9B01AC0161E0E5
:1019400085EC97E017C00E94AD1F9B01AC0161E0E0
:1019500081EA97E00FC00E94AD1F9B01AC0161E0DE
:101960008FE897E007C00E94AD1F9B01AC0161E0CA
:101970008DE998E00C9461061F93CF93DF931F923B
:10198000CDB7DEB7E0910101E730B8F5863619F141
:101990006CF4823641F1833609F07AC1F0E0EE0F43
:1019A000FF1FE751F94F82EB96E024C08E3659F0C5
:1019B000833709F06DC1F0E0EE0FFF1FE751F94FDB
:1019C00084EA96E017C0F0E0EE0FFF1FE751F94FF1
:1019D00081ED96E00FC0F0E0EE0FFF1FE751F94FE9
:1019E0008EEC96E007C0F0E0EE0FFF1FE751F94FD5
:1019F00080EC96E0918380834BC1182FE73009F08B
:101A000005C1883309F4C4C07CF5833309F490C060
:101A1000A4F4813309F474C00CF07EC0803309F063
:101A200037C187E093E00E94EA0620E030E04AE711
:101A300053E467E089E892E0E6C0853309F490C09A
:101A40000CF482C0863309F497C0873309F020C1B3
:101A500080E994E00E94EA0620E030E04AE753E49F
:101A600064E088E494E0CFC0843609F4B5C02CF576
:101A7000813609F499C07CF4893309F009C18EEDEF
:101A800093E00E94EA0620E030E04AE753E46BE08E
:101A900088E193E0B8C0823609F492C0833609F039
:101AA000F7C08CEF91E00E94EA0620E030E04AE7C0
:101AB00053E463E086EC91E0A6C0863691F00CF426
:101AC00097C08E36D1F0853709F0E2C089EC96E0F8
:101AD0000E94EA0620E030E0A90161E087EB96E091
:101AE00092C08DEE96E00E94EA0620E030E046E9E2
:101AF00054E461E08BED96E086C080EB94E0C6C0D4
:101B000086EA96E00E94EA0620E030E04AE753E4E5
:101B100064E08EE596E077C08DE496E00E94EA06E8
:101B200020E030E04AE753E462E089E296E06BC0EF
:101B300088E196E00E94EA0620E030E04AE753E4BC
:101B400063E082EE95E05FC081ED95E00E94EA06D9
:101B500020E030E04AE753E466E085E695E053C0D4
:101B600084E595E00E94EA0620E030E04AE753E48D
:101B700064E08CE095E047C08BEF94E00E94EA06B9
:101B800020E030E04AE753E465E081EA94E03BC0BE
:101B900087E394E00E94EA0620E030E04AE753E45D
:101BA00064E08FEE93E02FC088E792E00E94EA069F
:101BB00020E030E04AE753E462E084E592E023C0AD
:101BC00083E492E00E94EA0620E030E04AE753E432
:101BD00063E08DE092E017C085EB91E00E94EA0699
:101BE00020E030E04AE753E467E087E391E00BC090
:101BF00086E291E00E94EA0620E030E04AE753E402
:101C000063E080EF90E00E94610642C0E83009F096
:101C10003FC08D3239F420910001E8E7F1E080E027
:101C200090E005C08B32B9F38093000118C0319168
:101C3000321731F001968B309105C9F780E090E0C2
:101C40001D3211F40A9601C00C966BE070E00E9400
:101C5000221EFC01E858FE4F8081809300016091B4
:101C6000000180E090E069830E949A2269816817F0
:101C700021F080E090E00E94A22280E097E00E94A4
:101C80004006812F0E9425068AEF90E00E943F0CBB
:101C90008EEF809301010F90DF91CF911F910895F6
:101CA0008F929F92AF92BF92CF92DF92EF92FF926C
:101CB000CF93C82F61E00E94020B0E94950B4B014D
:101CC0005C0184E6C82ED12CE12CF12C0E94950BEE
:101CD000DC01CB0188199909AA09BB09883E934008
:101CE000A105B10558F021E0C21AD108E108F108B8
:101CF00088EE880E83E0981EA11CB11CC114D1048B
:101D0000E104F10419F760E08C2FCF91FF90EF9080
:101D1000DF90CF90BF90AF909F908F900C94020B6C
:101D20002F923F924F925F926F927F928F929F92EB
:101D3000BF92CF92DF92EF92FF920F931F93CF93B8
:101D4000DF93109289011092880188EE93E0A0E061
:101D5000B0E080938A0190938B01A0938C01B093A3
:101D60008D018DE091E0909387018093860185EC51
:101D700090E0909393018093920184EC90E0909393
:101D800095018093940180EC90E09093970180936B
:101D9000960181EC90E0909399018093980182ECF8
:101DA00090E090939B0180939A0186EC90E0909351
:101DB0009D0180939C0110929F011092A0011092AE
:101DC000A1011092A2011092D5061092DB0610928A
:101DD000E2061092E3061092E4061092E50683E014
:101DE0008093E1061092DE0681E08093DF0692E0A8
:101DF0009093E0068093D40680EF90E09093D9060C
:101E00008093D8060E945F219093DD068093DC06C4
:101E1000009761F020EFDC011D922A95E9F78CE331
:101E200090E09093D7068093D60608C01092D9060A
:101E30001092D8061092D7061092D60686E08093AC
:101E4000DA068091D506882341F061E086E00E94A1
:101E5000590B60E086E00E94020BEAEAF0E0E491B0
:101E6000F0E0EE0FFF1FE656FF4F8591949190939F
:101E7000E7068093E606ECE8F0E0E491E093E806FC
:101E800087E691E09093D2068093D106BB24B39469
:101E9000B092D3069093CF068093CE061092D006D0
:101EA0008BE591E09093C1068093C00624EF422E0B
:101EB00055245394612C712C4092C2065092C30653
:101EC0006092C4067092C5063AEFC32ED12CE12C65
:101ED000F12CC092C606D092C706E092C806F092D6
:101EE000C9061092CA061092CB061092CC06109228
:101EF000CD069093B3068093B2064092B4065092FA
:101F0000B5066092B6067092B706C092B806D09237
:101F1000B906E092BA06F092BB06C092BC06D09217
:101F2000BD06E092BE06F092BF069093A506809390
:101F3000A40618ECE12EF12C00E010E0E092A606D9
:101F4000F092A7060093A8061093A90684E690E0F5
:101F5000A0E0B0E08093AA069093AB06A093AC06F5
:101F6000B093AD061092AE061092AF061092B00676
:101F70001092B10624ED36E030938D0620938C0646
:101F800025E531E030938B0620938A062FE431E07B
:101F90003093800620937F06109286061092850665
:101FA0004FEF50E0509388064093870610928106C9
:101FB000109282061092830610928406109289066F
:101FC000309375062093740610927B0610927A0661
:101FD000E8E7F0E0F0937D06E0937C061092760649
:101FE00010927706109278061092790610927E066B
:101FF00030936A06209369061092700610926F065D
:10200000109272061092710610926B0610926C0676
:1020100010926D0610926E061092730630935F0652
:1020200020935E06C1E0DFEFD0936506C09364069F
:10203000D0936706C0936606109260061092610600
:10204000109262061092630610926806309354064E
:102050002093530610925A06109259066AE0862E73
:10206000912C90925C0680925B061092550610921D
:102070005606109257061092580610925D0610925E
:102080004F0610924E06F0935106E09350060CE274
:1020900011E020E030E000934A0610934B062093B5
:1020A0004C0630934D061092520629E431E03093ED
:1020B0004906209348061092440610924306509316
:1020C0004606409345067CE2472E55245394612CE6
:1020D000712C40923F0650924006609241067092E9
:1020E00042061092470630933E0620933D0610921A
:1020F00038061092370610923A06109239061EEEF4
:10210000412E12E0512E612C712C409233065092D8
:102110003406609235067092360610923B0663E4F0
:1021200071E07093320660933106B0923C061092D3
:102130002C0610922B0602E310E010932E0600935B
:102140002D0640922706509228066092290670922A
:102150002A0610922F067093260660932506B092E9
:1021600030061092200610921F06F0932206E0938C
:10217000210640921B0650921C0660921D0670922A
:102180001E061092230670931A0660931906B092E9
:1021900024061092140610921306509316064093CC
:1021A000150640920F06509210066092110670922A
:1021B00012061092170670930E0660930D06B092E9
:1021C00018061092090610920806D0930B06C093C9
:1021D0000A0608EEC02E03E0D02EE12CF12CC092AE
:1021E0000406D0920506E0920606F09207061092C9
:1021F0000C0630930306209302061092FE051092FF
:10220000FD05F0930006E093FF05C092F905D0921A
:10221000FA05E092FB05F092FC051092010630935E
:10222000F8052093F7051092F3051092F2055093EC
:10223000F5054093F405C092EE05D092EF05E092CB
:10224000F005F092F1051092F6053093ED0520931C
:10225000EC051092E8051092E705D093EA05C093CB
:10226000E90518EBE12E1BE0F12E00E010E0E09212
:10227000E305F092E4050093E5051093E60510925E
:10228000EB053093E2052093E1051092DD051092F5
:10229000DC05F093DF05E093DE05E092D805F092CF
:1022A000D9050093DA051093DB051092E005309311
:1022B000D7052093D6051092D2051092D1055093E0
:1022C000D4054093D305E092CD05F092CE0500935E
:1022D000CF051093D0051092D5053093CC052093EF
:1022E000CB051092C7051092C6059092C905809241
:1022F000C80510EAC12E1FE0D12EE12CF12CC092AE
:10230000C205D092C305E092C405F092C5051092B3
:10231000CA053093C1052093C0051092BC051092E8
:10232000BB0508EC10E01093BE050093BD05C092FC
:10233000B705D092B805E092B905F092BA051092AF
:10234000BF053093B6052093B5051092B0051092E5
:10235000AF05D093B205C093B1051AEFE12EF12C71
:1023600000E010E0E092AB05F092AC050093AD0503
:102370001093AE05B092B3057093AA056093A905BA
:1023800013E01093B4051092A4051092A305C8E2BF
:10239000D0E0D093A605C093A505DAEFCD2ED12CC1
:1023A000E12CF12CC0929F05D092A005E092A105EE
:1023B000F092A205B092A70570939E0560939D05CB
:1023C0001093A805109298051092970550939A05BE
:1023D00040939905C0929305D0929405E09295059B
:1023E000F0929605B0929B057093920560939105CB
:1023F00010939C05C4E1D0E0D0938C05C0938B056D
:10240000F0938E05E0938D0504EFC02EDD24D39468
:10241000E12CF12CC0928705D0928805E0928905C5
:10242000F0928A05B0928F057093860560938505BA
:1024300010939005109281051092800550938305AA
:102440004093820568EEC62E63E0D62EE12CF12C77
:10245000C0927C05D0927D05E0927E05F0927F05CA
:10246000B092840530937B0520937A05109276050F
:1024700010927505509378054093770570EDC72E3F
:1024800077E0D72EE12CF12CC0927105D092720525
:10249000E0927305F0927405B0927905309370055F
:1024A00020936F0510926B0510926A0550936D058D
:1024B00040936C0540E45FE160E070E040936605A6
:1024C000509367056093680570936905B0926E0537
:1024D000309365052093640510924F0525E0209305
:1024E00050051092510539E030935205EBE32E2E42
:1024F000E1E03E2E30924E0520924D054CE350E037
:1025000060E070E040935505509356056093570581
:10251000709358051093590566E060935A05109220
:102520005B05F8E6CF2EDD24D394E12CF12CC0928C
:102530005C05D0925D05E0925E05F0925F05CAE50C
:10254000CC2ED12CE12CF12CC0926005D0926105EB
:10255000E0926205F09263051092420520934305D4
:102560001092440530934505CDE2D1E0D09341056A
:10257000C0934005B092480500EDC02E07E0D02E74
:10258000E12CF12CC0924905D0924A05E0924B050E
:10259000F0924C05109231052093320510923305CC
:1025A00030933405B0923705C0923805D092390582
:1025B000E0923A05F0923B054DE651E0509330052C
:1025C00040932F0548EEC42E43E0D42EE12CF12C8D
:1025D000C0923C05D0923D05E0923E05F0923F0549
:1025E000109224052093250544E04093260540934E
:1025F0002705D0932305C0932205B0922A0550EDFC
:10260000C52E57E0D52EE12CF12CC0922B05D0928F
:102610002C05E0922D05F0922E05109217052093BF
:1026200018051092190540931A0510921D05C092C5
:102630001E05D0921F05E0922005F092210575E25B
:10264000872E71E0972E90921605809215051092B4
:102650000A0520930B0540930C0530930D05B092AD
:102660001005C0921105D0921205E0921305F09268
:10267000140590920905809208051092F3042093A6
:10268000F4042093F5042093F6043092F20420928F
:10269000F1048093F9049093FA04A093FB04B0939F
:1026A000FC04B092FD0477E07093FE04B092FF0446
:1026B000ECEBCE2EE2E0DE2EE12CF12CC0920005F8
:1026C000D0920105E0920205F0920305F2E3CF2ECD
:1026D000D12CE12CF12CC0920405D0920505E0929A
:1026E0000605F09207051092DC042093DD04109398
:1026F000DE041093DF043092DB042092DA0480932E
:10270000E2049093E304A093E404B093E504B09250
:10271000E6040DE00093E704B092E80454E1C52E0E
:1027200055E0D52EE12CF12CC092E904D092EA04B8
:10273000E092EB04F092EC04E2E3CE2ED12CE12CFB
:10274000F12CC092ED04D092EE04E092EF04F092EE
:10275000F0041092C5042093C6044093C70440932C
:10276000C8043092C4042092C3048093CB04909395
:10277000CC04A093CD04B093CE04B092CF0453E127
:102780005093D004B092D104FCE6CF2EF7E0DF2EB8
:10279000E12CF12CC092D204D092D304E092D40464
:1027A000F092D50452E3C52ED12CE12CF12CC0922D
:1027B000D604D092D704E092D804F092D9041092B3
:1027C000AE042093AF04B092B004B092B104309242
:1027D000AD042092AC048093B4049093B504A0930C
:1027E000B604B093B704B092B8045BE05093B90458
:1027F000B092BA04ECE4CE2EE4E0DE2EE12CF12C13
:10280000C092BB04D092BC04E092BD04F092BE041E
:10281000F2E3CF2ED12CE12CF12CC092BF04D09248
:10282000C004E092C104F092C20410929704209375
:1028300098047093990470939A04309296042092AD
:10284000950480939D0490939E04A0939F04B0935D
:10285000A004B092A10451E15093A204B092A30449
:1028600054EAC52E56E0D52EE12CF12CC092A404DA
:10287000D092A504E092A604F092A704E2E3CE2E43
:10288000D12CE12CF12CC092A804D092A904E092A2
:10289000AA04F092AB0410928A0420938B04109245
:1028A0008C0430938D04D0938904C0938804B09233
:1028B0009004F0EACF2EFFE0DF2EE12CF12CC09245
:1028C0009104D0929204E0929304F09294041092B6
:1028D0007D04B0927E0410927F0430938004B09205
:1028E000830440928404509285046092860470921E
:1028F000870490927C0480927B0452E05093700491
:102900001093710410927204309373041092760441
:1029100040927704509278046092790470927A041D
:1029200090926F0480926E04409363042093640439
:102930001092650430936604B092690440926A0470
:1029400050926B0460926C0470926D0490926204D9
:1029500080926104E5E3F1E0F0935A04E0935904B6
:10296000B0925B0440935C0410935D0460935E043A
:1029700010924E0420934F0410925004509351042F
:10298000D0934D04C0934C04B09254040F2EF4EC39
:10299000CF2EF9E0DF2EE12CF12CF02DC092550462
:1029A000D0925604E0925704F092580410924104D9
:1029B000209342047093430430934404D093400422
:1029C000C0933F0410924704C0924804D092490437
:1029D000E0924A04F0924B041092340420933504A0
:1029E0005093360430933704B0923A040F2EF8E82F
:1029F000CF2EF3E1DF2EE12CF12CF02DC0923B0421
:102A0000D0923C04E0923D04F0923E049092330454
:102A100080923204109227042093280410922904F3
:102A200070932A0410922D04C0922E04D0922F0489
:102A3000E0923004F09231049092260480922504B2
:102A40001092100420931104509312041093130455
:102A500030920F0420920E04809316049093170472
:102A6000A0931804B093190460931A0400931B04F4
:102A700010921C040F2EF4E1CF2EF5E0DF2EE12C96
:102A8000F12CF02DC0921D04D0921E04E0921F0480
:102A9000F09220040F2EFCE2CF2EDD24D394E12C03
:102AA000F12CF02DC0922104D0922204E092230454
:102AB000F09224041092F9032093FA034093FB034D
:102AC0002093FC033092F8032092F7038093FF03D6
:102AD00090930004A0930104B09302046093030454
:102AE00000930404109205040F2EF4E1CF2EF5E0BC
:102AF000DF2EE12CF12CF02DC0920604D0920704B9
:102B0000E0920804F09209040F2EFCE2CF2EDD249F
:102B1000D394E12CF12CF02DC0920A04D0920B0436
:102B2000E0920C04F0920D041092E2032093E30370
:102B30006093E4037093E5033092E1032092E00395
:102B40008093E8039093E903A093EA03B093EB0327
:102B50006093EC030093ED031092EE0304E1C02EAA
:102B600005E0D02EE12CF12CC092EF03D092F003BF
:102B7000E092F103F092F2030CE2C02EDD24D39434
:102B8000E12CF12CC092F303D092F403E092F50310
:102B9000F092F603F093D903E093D8035093DA034D
:102BA0005093DB034093DC034093DD03F093D103A8
:102BB000E093D0031093D2031093D3036093D40314
:102BC0006093D503F093C903E093C8032093CA032D
:102BD0002093CB032093CC032093CD03F093C10328
:102BE000E093C0035093C2035093C30308E00093E3
:102BF000C4030093C503F093B903E093B803209393
:102C0000BA032093BB035093BC035093BD03F093CE
:102C1000B103E093B0034093B2034093B3034093F6
:102C2000B4034093B503F093A903E093A803409342
:102C3000AA034093AB037093AC037093AD03F0937E
:102C4000A103E093A0031093A2031093A303109396
:102C5000A4031093A5031093950320939603109259
:102C6000970330939803D0939403C09393031092E7
:102C70009B0300EDC02E07E0D02EE12CF12CC0927A
:102C80009C03D0929D03E0929E03F0929F031092CA
:102C900088032093890310928A0330938B03D09387
:102CA0008703C0938603B0928E03C0928F03D092A5
:102CB0009003E0929103F092920310927B03209391
:102CC0007C0310927D0330937E03B0928103C09207
:102CD0008203D0928303E0928403F0928503909262
:102CE0007A0380927903F0937203E0937103109258
:102CF0007303109274031092750330937603B092AD
:102D00005C0320935D0310925E0330935F03309267
:102D10005B0320925A03E6E9CE2ED12CE12CF12C54
:102D2000C0926203D0926303E0926403F092650361
:102D3000509366031093670310926803F2ECCF2E52
:102D4000DD24D394E12CF12CC0926903D0926A0364
:102D5000E0926B03F0926C0306E9C02ED12CE12CBB
:102D6000F12CC0926D03D0926E03E0926F03F0924B
:102D70007003B092450310934603109247033093BB
:102D800048033092440320924303EAEFCE2ED12C25
:102D9000E12CF12CC0924B03D0924C03E0924D03F6
:102DA000F0924E0310934F0340935003109251033F
:102DB000F8EECF2EF3E0DF2EE12CF12CC09252037F
:102DC000D0925303E0925403F092550307E7C02ECC
:102DD000DD24D394E12CF12CC0925603D0925703FA
:102DE000E0925803F092590310923803B0923903DD
:102DF00010923A0330933B03B0923E0340923F035C
:102E000050924003609241037092420390923703C4
:102E10008092360350932B0310932C0310922D03B2
:102E200030932E03109231034092320350923303B9
:102E3000609234037092350390922A0380922903A2
:102E400040931E0320931F0310922003309321030D
:102E5000B0922403409225035092260360922703E8
:102E60007092280390921D0380921C03109211030C
:102E7000209312031092130350931403D093100362
:102E8000C0930F03B0921703409218035092190396
:102E900060921A0370921B0310920403209305039F
:102EA0001093060360930703D0930303C0930203B8
:102EB00010920A0340920B0350920C0360920D0390
:102EC00070920E031092F7022093F8027093F902A9
:102ED0003093FA02D093F602C093F502B092FD024D
:102EE0004092FE025092FF02609200037092010332
:102EF0001092EA02B092EB021092EC023093ED02D3
:102F0000D093E902C093E8021092F00278EE472EC7
:102F100073E0572E612C712C4092F1025092F20214
:102F20006092F3027092F4021092DD022093DE02AE
:102F30001092DF023093E002B092E302E0EDCE2E79
:102F4000E7E0DE2EE12CF12CC092E402D092E50203
:102F5000E092E602F092E7029092DC028092DB02BD
:102F60001092C6022093C7021092C8023093C90281
:102F70004092CC025092CD026092CE027092CF026B
:102F80001093D0026093D1021092D202F0E74F2E3C
:102F9000F7E15F2E612C712C4092D3025092D40243
:102FA0006092D5027092D602CCEDCC2EC5E0DC2E1C
:102FB000E12CF12CC092D702D092D802E092D90233
:102FC000F092DA02EDE1F1E0F093C502E093C40281
:102FD0001092AF022093B0021092B1023093B2026D
:102FE0003092AE022092AD02D8EECD2ED3E0DD2E8F
:102FF000E12CF12CC092B502D092B602E092B70259
:10300000F092B8021093B9026093BA021092BB0218
:103010004092BC025092BD026092BE027092BF020A
:103020000CED402E05E0502E612C712C4092C00218
:103030005092C1026092C2027092C30250939802F1
:103040005093990210929A0230939B0280939E02B1
:1030500090939F02A093A002B093A1024093A2027A
:103060005EE15093A3021092A40258EBC52E5BE0E0
:10307000D52EE12CF12CC092A502D092A602E092AE
:10308000A702F092A80268EC462E512C612C712CFC
:103090004092A9025092AA026092AB027092AC02D6
:1030A000F0939702E09396021093810210938202AC
:1030B0001092830230938402809387029093880257
:1030C000A0938902B0938A0240938B025FE15093F0
:1030D0008C0210928D027CE1C72E7CE0D72EE12C71
:1030E000F12CC0928E02D0928F02E0929002F09268
:1030F00091024092920250929302609294027092D6
:103100009502F0938002E0937F0240936A0240931D
:103110006B0210926C0230936D0280937002909358
:103120007102A0937202B09373024093740250E252
:103130005093750210927602C0E8CC2ECCE0DC2EC3
:10314000E12CF12CC0927702D0927802E0927902C1
:10315000F0927A0240927B0250927C0260927D0251
:1031600070927E02F0936902E0936802B09253027B
:10317000B092540210925502309356028093590235
:1031800090935A02A0935B02B0935C0240935D025D
:1031900051E250935E0210925F02D4EECD2EDCE03D
:1031A000DD2EE12CF12CC0926002D0926102E092FF
:1031B0006202F09263024092640250926502609251
:1031C000660270926702F0935202E09351021092ED
:1031D0003C0210923D0210923E0230933F028093D7
:1031E000420290934302A0934402B093450240935D
:1031F000460252E2509347021092480218E4C12E50
:103200001DE0D12EE12CF12CC0924902D0924A024D
:10321000E0924B02F0924C0240924D0250924E02CC
:1032200060924F0270925002F0933B02E0933A0298
:103230002093250220932602109227023093280221
:1032400080932B0290932C02A0932D02B0932E0218
:1032500040932F0283E280933002109231028CEA75
:103260009DE0A0E0B0E08093320290933302A093FF
:103270003402B09335024092360250923702609287
:10328000380270923902F0932402E0932302DF9116
:10329000CF911F910F91FF90EF90DF90CF90BF9053
:1032A0009F908F907F906F905F904F903F902F9066
:1032B00008958091DC069091DD06009711F00E9440
:1032C000F4218091DA0687FD03C060E00C94590B6D
:1032D0000895CF93DF93CDB7DEB7A5970FB6F894D7
:1032E000DEBF0FBECDBF789484B5826084BD84B547
:1032F000816084BD85B5826085BD85B5816085BDF1
:1033000080916E00816080936E00109281008091A8
:103310008100826080938100809181008160809330
:103320008100809180008160809380008091B10055
:1033300084608093B1008091B00081608093B00080
:1033400080917A00846080937A0080917A00826014
:1033500080937A0080917A008E7F80937A008091AA
:103360007A00806880937A001092C100E091960103
:10337000F091970182E08083E0919201F0919301B6
:103380001082E0919401F091950187E6808310927C
:103390009E01E0919A01F0919B0186E08083E0918B
:1033A0009801F0919901808180618083E09198017A
:1033B000F0919901808188608083E0919801F0917B
:1033C0009901808180688083E0919801F091990152
:1033D00080818F7D808301E711E097E0F92EF00E68
:1033E00061E0D8018D918D010E94590BF012F8CF48
:1033F00080E090E00E949A228093000188EB90E0A8
:103400000E944006809100010E9425068091DA0604
:1034100087FD08C061E00E94590B60E08091DA06E8
:103420000E94020B81E08093D506809102018823DF
:1034300009F181E10E94500E80E10E94500E8FE060
:103440000E94500E8EE00E94500E89E00E94500EA5
:1034500085E00E94500E83E00E94500E10920201FF
:103460001092010182E60E94BC0C80EB94E00E9465
:103470003F0CD9C386E891E00E94D104892BA1F1C9
:1034800086E891E00E94AF048093F70690910101D5
:103490009E3F41F58136F1F074F48233A9F02CF4AB
:1034A000813311F5109201011FC0833379F0843309
:1034B000D9F483E00CC0833689F074F0833781F04F
:1034C0008A3791F488E003C081E001C082E08093F4
:1034D00001010AC084E0FBCF85E0F9CF86E0F7CF99
:1034E00087E0F5CF0E94BC0C09EE16E081E7E82EDC
:1034F00081E0F82EF801819191918F01009749F0B8
:10350000DC01ED91FC910190F081E02DD7016C91EF
:103510000995BFEFEB1AFB0AE6E0073F1E0751F7DC
:103520000E94BA0B00919C0610919D0620919E0668
:1035300030919F064B015C01801A910AA20AB30ADE
:103540008092980690929906A0929A06B0929B0655
:103550004090910650909206609093067090940669
:1035600020E030E0A901C301B2010E949C2018169E
:103570005CF4C501B4010E94AB1FA30192010E943B
:10358000031F2B013C0106C0412C512C00E8602E8A
:103590000FE3702EA301920160E070E080E89FE3EA
:1035A0000E948C1E6A8F7B8F8C8F9D8F80919506D9
:1035B00090919606892BF9F020E030E040E85FE337
:1035C000C301B2010E94F91E87FF15C00E94BA0B09
:1035D0000091A0061091A1062091A2063091A306A9
:1035E0006B017C01C01AD10AE20AF30ACAA2DBA26B
:1035F000ECA2FDA208C010929606109295061AA29F
:103600001BA21CA21DA21F8E1E8E19A218A2212C65
:10361000312C1A8A198A188A1F861E861D861C86D6
:103620001B86009198061091990620919A06309178
:103630009B0660918E0670918F06CE010B964C0111
:10364000DE011D965D01FE013F966F0106967C012D
:1036500040919006822D0E94E70420E030E040E88F
:103660005FE3C301B2010E94F91E87FFBBC01A8647
:10367000198618861F821E821D821C821B82609101
:1036800095067091960661157105A1F0DE011396FD
:103690004D01FE0135965F01CE0107966C0116962D
:1036A0007D010AA11BA12CA13DA140919706822D6D
:1036B0000E94E70469897A89072E000C880B990B10
:1036C0000E94AD1FA30192010E94A1204B015C0149
:1036D00089859A85BC01990F880B990B0E94AD1FB3
:1036E0002A8D3B8D4C8D5D8D0E94A1209B01AC01EC
:1036F000C501B4010E948D1E0E94751F7A8B698BD3
:103700006F857889072E000C880B990B0E94AD1FDE
:10371000A30192010E94A1204B015C018F81988539
:10372000BC01990F880B990B0E94AD1F2A8D3B8D10
:103730004C8D5D8D0E94A1209B01AC01C501B4019F
:103740000E948D1E0E94751F788B6F876D857E8508
:10375000072E000C880B990B0E94AD1FA30192014C
:103760000E94A1204B015C018D819E81BC01990FBB
:10377000880B990B0E94AD1F2A8D3B8D4C8D5D8D62
:103780000E94A1209B01AC01C501B4010E948D1EC5
:103790000E94751F7E876D876B857C85072E000CC8
:1037A000880B990B0E94AD1FA30192010E94A120DA
:1037B0004B015C018B819C81BC01990F880B990B9B
:1037C0000E94AD1F2A8D3B8D4C8D5D8D0E94A120E6
:1037D0009B01AC01C501B4010E948D1E0E94751FA2
:1037E0007C876B878B859C8597FD08C08F3F9105F3
:1037F00019F014F08FEF90E0582F01C050E08D8544
:103800009E8597FD07C08F3F910529F024F08FEF2B
:1038100090E001C080E02F85388937FD08C02F3F38
:10382000310519F014F02FEF30E0422F01C040E0D5
:1038300029893A8937FD07C02F3F310529F024F047
:103840002FEF30E001C020E0E0918C06F0918D0672
:10385000628173812616370608F051C090E0A0E01F
:10386000B0E0B52B942BA22B8D0122273327D02E2D
:10387000892E9A2EAB2EBB24E82CF82E47814423A8
:1038800061F0049F90011124D32E849E40011124E5
:10389000E92C849F90011124F32E558562852085A3
:1038A0003185561305C068A179A1260F371F18C0AE
:1038B0006E8D7F8D260F371F8B2F9927AA27BB2749
:1038C000B901650F711D442349F050E0489F800104
:1038D000499F100D589F100D1124812FDB018C93EF
:1038E0008285D901A80FB11DDC928385D901A80F6B
:1038F000B11DEC928485F901E80FF11DF082BFEF54
:103900002B1A3B0AE8A1F9A13396F9A3E8A36E8D1F
:103910007F8D6C5F7F4F7F8F6E8F603F710509F0E9
:1039200078CE60908C0670908D06D30118968D919C
:103930009C911997892B09F476C10E94950BF3018C
:103940000685178520893189DC01CB01801B910B0D
:10395000A20BB30BC297A105B10578F3F89484814B
:1039600095819A838983A085B1858D010F5F1F4F53
:103970008C91898F8081A289B389882309F419C128
:103980001B8AAB32B10509F058C09BB18489982BD2
:10399000988F9BB1809589238F8B8F898C8B898D94
:1039A00087FF02C0888D8C8B588D6F89498D3C892B
:1039B0002B8989819A81D8015BB9262F3BB900C038
:1039C00046FD252F6BB900C05BB9362F2BB900C05F
:1039D00045FD352F6BB900C05BB9262F3BB900C040
:1039E00044FD252F6BB900C05BB9362F2BB900C041
:1039F00043FD352F6BB900C05BB9262F3BB900C022
:103A000042FD252F6BB900C05BB9362F2BB900C022
:103A100041FD352F6BB900C05BB9262F3BB900C003
:103A200040FD252F6BB901975BB9362F2BB94D910E
:103A300047FD352F6BB901F6B8C0A532B10509F0C5
:103A400059C095B1F3018489982B988F95B18095D1
:103A500089238F8B8F898C8B898D87FF02C0888DFE
:103A60008C8B588D6F89498D3C892B8989819A81EE
:103A7000D80155B9262F35B900C046FD252F65B9A7
:103A800000C055B9362F25B900C045FD352F65B9A1
:103A900000C055B9262F35B900C044FD252F65B9A2
:103AA00000C055B9362F25B900C043FD352F65B983
:103AB00000C055B9262F35B900C042FD252F65B984
:103AC00000C055B9362F25B900C041FD352F65B965
:103AD00000C055B9262F35B900C040FD252F65B966
:103AE000019755B9362F25B94D9147FD352F65B949
:103AF00001F65BC0989709F08CC098B1F3018489F6
:103B0000982B988F98B1809589238F8B8F898C8B78
:103B1000898D87FF02C0888D8C8B588D6F89498D68
:103B20003C892B8989819A81D80158B9262F38B9C7
:103B300000C046FD252F68B900C058B9362F28B9F6
:103B400000C045FD352F68B900C058B9262F38B9D7
:103B500000C044FD252F68B900C058B9362F28B9D8
:103B600000C043FD352F68B900C058B9262F38B9B9
:103B700000C042FD252F68B900C058B9362F28B9BA
:103B800000C041FD352F68B900C058B9262F38B99B
:103B900000C040FD252F68B9019758B9362F28B9C4
:103BA0004D9147FD352F68B901F6498F3C8B2B8B22
:103BB0002EC09C91F3018489982B988F9C918095BD
:103BC00089238F8B8F898E8B88E08D8B588D6F89A1
:103BD000498D3D892E8989819A81F8015C9347FD41
:103BE000252F2C93262F3A9531F0441F6C9300C05B
:103BF00000C000C0F3CF6C93000038E04191019702
:103C000069F7F301B38BA28B498F3D8B2E8B9A837F
:103C1000898378940E94950BD3011E966D937D93B2
:103C20008D939C9351970E945407FFCB991B79E089
:103C300004C0991F961708F0961B881F7A95C9F73C
:103C40008095089597FB072E16F4009407D077FD12
:103C500009D00E94631E07FC05D03EF49095819523
:103C60009F4F0895709561957F4F0895A1E21A2E98
:103C7000AA1BBB1BFD010DC0AA1FBB1FEE1FFF1F10
:103C8000A217B307E407F50720F0A21BB30BE40B60
:103C9000F50B661F771F881F991F1A9469F76095A7
:103CA0007095809590959B01AC01BD01CF01089561
:103CB0000E947D1EA59F900DB49F900DA49F800D26
:103CC000911D11240895AA1BBB1B51E107C0AA1F17
:103CD000BB1FA617B70710F0A61BB70B881F991FAD
:103CE0005A95A9F780959095BC01CD010895EE0FE6
:103CF000FF1F0590F491E02D0994A29FB001B39F9E
:103D0000C001A39F700D811D1124911DB29F700DE4
:103D1000811D1124911D08955058BB27AA270E9488
:103D2000A41E0C944E200E94152038F00E941C20E6
:103D300020F039F49F3F19F426F40C9412200EF46D
:103D4000E095E7FB0C940C20E92F0E94732058F3B8
:103D5000BA17620773078407950720F079F4A6F570
:103D60000C9495200EF4E0950B2EBA2FA02D0B018C
:103D7000B90190010C01CA01A0011124FF27591BB0
:103D800099F0593F50F4503E68F11A16F040A22FB6
:103D9000232F342F4427585FF3CF46953795279527
:103DA000A795F0405395C9F77EF41F16BA0B620B26
:103DB000730B840BBAF09150A1F0FF0FBB1F661F6D
:103DC000771F881FC2F70EC0BA0F621F731F841FB0
:103DD00048F4879577956795B795F7959E3F08F0D6
:103DE000B0CF9395880F08F09927EE0F9795879598
:103DF00008950E94E81F08F481E008950E9425209C
:103E0000E3950C945F200E94171F0C944E200E9493
:103E10001C2058F00E94152040F029F45F3F29F043
:103E20000C940C2051110C9496200C9412200E949A
:103E3000732068F39923B1F3552391F3951B550B28
:103E4000BB27AA2762177307840738F09F5F5F4F6D
:103E5000220F331F441FAA1FA9F335D00E2E3AF0AC
:103E6000E0E832D091505040E695001CCAF72BD0C4
:103E7000FE2F29D0660F771F881FBB1F2617370715
:103E80004807AB07B0E809F0BB0B802DBF01FF2747
:103E900093585F4F3AF09E3F510578F00C940C20F8
:103EA0000C9496205F3FE4F3983ED4F38695779583
:103EB0006795B795F7959F5FC9F7880F911D969500
:103EC000879597F90895E1E0660F771F881FBB1F5C
:103ED000621773078407BA0720F0621B730B840B09
:103EE000BA0BEE1F88F7E09508950E947C1F689436
:103EF000B1110C94962008950E947B2088F09F5762
:103F000098F0B92F9927B751B0F0E1F0660F771FFD
:103F1000881F991F1AF0BA95C9F714C0B13091F0F3
:103F20000E949520B1E008950C949520672F782F7A
:103F30008827B85F39F0B93FCCF3869577956795B8
:103F4000B395D9F73EF490958095709561957F4F24
:103F50008F4F9F4F0895E89409C097FB3EF49095CA
:103F60008095709561957F4F8F4F9F4F9923A9F052
:103F7000F92F96E9BB279395F695879577956795E1
:103F8000B795F111F8CFFAF4BB0F11F460FF1BC025
:103F90006F5F7F4F8F4F9F4F16C0882311F096E9B8
:103FA00011C0772321F09EE8872F762F05C0662366
:103FB00071F096E8862F70E060E02AF09A95660F1F
:103FC000771F881FDAF7880F9695879597F90895D8
:103FD000990F0008550FAA0BE0E8FEEF161617061A
:103FE000E807F907C0F012161306E407F50798F082
:103FF000621B730B840B950B39F40A2661F0232B9B
:10400000242B252B21F408950A2609F4A140A69516
:104010008FEF811D811D089597F99F6780E870E0FB
:1040200060E008959FEF80EC089500240A9416162E
:10403000170618060906089500240A941216130696
:104040001406050608950C9412200E947B20D8F3D4
:10405000E894E0E0BB279F57F0F02AED3FE049EC01
:1040600006C0EE0FBB0F661F771F881F28F0B23AFD
:1040700062077307840728F0B25A620B730B840B34
:10408000E3959A9572F7803830F49A95BB0F661FC6
:10409000771F881FD2F790480C941821092E03949B
:1040A000000C11F4882352F0BB0F40F4BF2B11F425
:1040B00060FF04C06F5F7F4F8F4F9F4F0895EF9356
:1040C000E0FF07C0A2EA2AED3FE049EC5FEB0E9467
:1040D000A41E0E944E200F90039401FC9058E8E625
:1040E000F0E00C94242157FD9058440F551F59F0CF
:1040F0005F3F71F04795880F97FB991F61F09F3FD5
:1041000079F087950895121613061406551FF2CFFD
:104110004695F1DF08C0161617061806991FF1CF4D
:1041200086957105610508940895E894BB27662774
:104130007727CB0197F908950E94E81F08F48FEFC5
:1041400008950E94B4200C944E200E94152038F04F
:104150000E941C2020F0952311F00C940C200C944C
:10416000122011240C9496200E94732070F3959FC6
:10417000C1F3950F50E0551F629FF001729FBB275E
:10418000F00DB11D639FAA27F00DB11DAA1F649FFA
:104190006627B00DA11D661F829F2227B00DA11DAD
:1041A000621F739FB00DA11D621F839FA00D611D33
:1041B000221F749F3327A00D611D231F849F600D54
:1041C000211D822F762F6A2F11249F5750409AF07D
:1041D000F1F088234AF0EE0FFF1FBB1F661F771F09
:1041E000881F91505040A9F79E3F510580F00C94D4
:1041F0000C200C9496205F3FE4F3983ED4F3869510
:1042000077956795B795F795E7959F5FC1F7FE2B73
:10421000880F911D9695879597F908959F930E9411
:1042200025200F9007FCEE5F0C945F209F3F31F03C
:10423000915020F4879577956795B795880F911DD4
:104240009695879597F908959F938F937F936F9392
:10425000FF93EF939B01AC010E94A120EF91FF918E
:104260000E9438212F913F914F915F910C94A12092
:10427000DF93CF931F930F93FF92EF92DF927B0117
:104280008C01689406C0DA2EEF010E94B420FE0172
:10429000E894A5912591359145915591A6F3EF01AB
:1042A0000E94A41EFE019701A801DA9469F7DF902D
:1042B000EF90FF900F911F91CF91DF910895CF93D1
:1042C000DF938230910510F482E090E0E0910307E3
:1042D000F091040720E030E0C0E0D0E0309711F129
:1042E0004081518148175907C0F04817590761F4B8
:1042F00082819381209719F09B838A832BC09093AE
:1043000004078093030726C02115310519F04217D1
:10431000530718F49A01BE01DF01EF010280F38117
:10432000E02DDCCF2115310509F1281B390B243094
:10433000310590F412968D919C911397611571053A
:1043400021F0FB019383828304C090930407809340
:104350000307FD01329644C0FD01E20FF31F819374
:104360009193225031092D933C933AC0209101073B
:1043700030910207232B41F4209105013091060171
:10438000309302072093010720910301309104012B
:104390002115310541F42DB73EB7409107015091E9
:1043A0000801241B350BE0910107F0910207E21789
:1043B000F307A0F42E1B3F0B2817390778F0AC0148
:1043C0004E5F5F4F2417350748F04E0F5F1F509325
:1043D0000207409301078193919302C0E0E0F0E06F
:1043E000CF01DF91CF9108950F931F93CF93DF9368
:1043F000009709F48CC0FC0132971382128200915D
:104400000307109104070115110581F42081318102
:10441000820F931F20910107309102072817390757
:1044200079F5F0930207E093010771C0D80140E0ED
:1044300050E0AE17BF0750F412962D913C911397A0
:10444000AD012115310509F1D901F3CF9D01DA0143
:104450003383228360817181860F971F82179307B0
:1044600069F4EC0128813981260F371F2E5F3F4FF9
:10447000318320838A819B8193838283452B29F416
:10448000F0930407E093030742C01396FC93EE9366
:104490001297ED01499159919E01240F351FE217A2
:1044A000F30771F480819181840F951F0296119614
:1044B0009C938E938281938113969C938E931297F3
:1044C000E0E0F0E0D80112968D919C91139700974F
:1044D00019F0F8018C01F6CF8D919C9198012E5F17
:1044E0003F4F820F931F2091010730910207281739
:1044F000390769F4309729F41092040710920307E2
:1045000002C0138212821093020700930107DF9109
:10451000CF911F910F91089581E090E0F8940C9451
:10452000B022FB01DC0102C005900D9241505040C9
:10453000D8F70895F999FECF92BD81BDF89A9927D1
:1045400080B50895262FF999FECF1FBA92BD81BD7F
:1045500020BD0FB6F894FA9AF99A0FBE0196089505
:1045600014E0C9E5D4E004C0FE010E94771E219644
:0A457000CA35D107C9F7F894FFCF50
:10457A0030FE0100000507800000000000BC058431
:10458A0004D104AF04C3040306000000003709A7DE
:10459A000800000000120957080000000012096113
:1045AA000700000000AA08000000003709B1070050
:1045BA00000000CD0900000000B50700000000530C
:1045CA0008000000005E0700000000C60B000000A3
:1045DA0000B407000000004E0B00000000D3086181
:1045EA000711100F0E0905033039333435363738C1
:0645FA003132610D0A00E0
:107800000C94343C0C94513C0C94513C0C94513CE1
:107810000C94513C0C94513C0C94513C0C94513CB4
:107820000C94513C0C94513C0C94513C0C94513CA4
:107830000C94513C0C94513C0C94513C0C94513C94
:107840000C94513C0C94513C0C94513C0C94513C84
:107850000C94513C0C94513C0C94513C0C94513C74
:107860000C94513C0C94513C11241FBECFEFD8E036
:10787000DEBFCDBF11E0A0E0B1E0EAE8FFE702C063
:1078800005900D92A230B107D9F712E0A2E0B1E065
:1078900001C01D92AD30B107E1F70E942D3D0C945F
:1078A000C33F0C94003C982F95959595959595958B
:1078B000905D8F708A307CF0282F295A8091C0000B
:1078C00085FFFCCF9093C6008091C00085FFFCCF60
:1078D0002093C6000895282F205DF0CF982F809127
:1078E000C00085FFFCCF9093C6000895EF92FF92F1
:1078F0000F931F93EE24FF2487018091C00087FD22
:1079000017C00894E11CF11C011D111D81E2E8164D
:1079100081EAF80687E0080780E0180770F3E09135
:107920000401F091050109958091C00087FFE9CF1E
:107930008091C6001F910F91FF90EF9008950E94D3
:10794000763C982F8091C00085FFFCCF9093C600B5
:1079500091362CF490330CF09053892F089597555D
:10796000892F08951F930E949F3C182F0E949F3CCF
:107970001295107F810F1F9108951F93182F882350
:1079800021F00E94763C1150E1F71F9108951F935A
:10799000182F0E94763C803249F0809103018F5F5E
:1079A000809303018530C1F01F9108958091C0003C
:1079B00085FFFCCF84E18093C6008091C00085FFE5
:1079C000FCCF1093C6008091C00085FFFCCF80E102
:1079D0008093C6001F910895E0910401F091050184
:1079E00009951F9108950E94763C803241F0809164
:1079F00003018F5F80930301853081F008958091AA
:107A0000C00085FFFCCF84E18093C6008091C00058
:107A100085FFFCCF80E18093C6000895E0910401CA
:107A2000F09105010995089548EC50E08823A1F0F4
:107A30002D9A28EE33E0FA013197F1F721503040CA
:107A4000D1F72D9828EE33E0FA013197F1F7215064
:107A50003040D1F7815061F708953F924F925F9285
:107A60006F927F928F929F92AF92BF92CF92DF924E
:107A7000EF92FF920F931F93CF93DF93000082E06A
:107A80008093C00080E18093C4001092C50088E11B
:107A90008093C10086E08093C2005098589A259A3E
:107AA00081E00E94143D24E1F22E9EE1E92E85E959
:107AB000D82E0FE0C02E10E1B12EAA24A394B1E479
:107AC0009B2EA6E58A2EF2E57F2EE0E26E2E79E46B
:107AD000572E63E5462E50E5352E0E94763C8033C6
:107AE000B1F18133B9F1803409F46FC0813409F404
:107AF00076C0823409F485C0853409F488C08035A5
:107B000031F1823521F1813511F1853509F485C0D6
:107B1000863509F48DC0843609F496C0843709F49B
:107B200003C1853709F472C1863709F466C08091B4
:107B300003018F5F80930301853079F6E0910401A2
:107B4000F091050109950E94763C803351F60E9420
:107B5000F33CC3CF0E94763C803249F78091C0004D
:107B600085FFFCCFF092C6008091C00085FFFCCF5E
:107B70009092C6008091C00085FFFCCF8092C60025
:107B80008091C00085FFFCCF7092C6008091C0003C
:107B900085FFFCCF6092C6008091C00085FFFCCFBE
:107BA0005092C6008091C00085FFFCCF4092C60075
:107BB0008091C00085FFFCCF3092C6008091C0004C
:107BC00085FFFCCFB092C60088CF0E94763C8638F5
:107BD00008F4BDCF0E94763C0E94F33C7ECF0E9409
:107BE000763C803809F49CC0813809F40BC1823896
:107BF00009F430C1883909F48FC080E00E94C73C85
:107C00006CCF84E10E94BD3C0E94F33C66CF85E0CE
:107C10000E94BD3C0E94F33C60CF0E94763C809362
:107C200006010E94763C809307010E94F33C55CFE9
:107C30000E94763C803309F411C183E00E94BD3C70
:107C400080E00E94C73C49CF0E94763C80930902A5
:107C50000E94763C8093080280910C028E7F809374
:107C60000C020E94763C853409F409C18091080217
:107C700090910902892B89F000E010E00E94763C87
:107C8000F801E85FFE4F80830F5F1F4F809108026D
:107C9000909109020817190788F30E94763C8032F8
:107CA00009F045CF80910C0280FFF5C0609106017C
:107CB00070910701660F771F7093070160930601AB
:107CC000A0910802B09109021097C9F0E8E0F1E034
:107CD0009B01AD014E0F5F1FF999FECF32BD21BD53
:107CE000819180BDFA9AF99A2F5F3F4FE417F5070B
:107CF00099F76A0F7B1F70930701609306018091CB
:107D0000C00085FFFCCFF092C6008091C00085FFC7
:107D1000FCCFB092C600E1CE83E00E94C73CDDCE2E
:107D200082E00E94C73CD9CE0E94763C8093090233
:107D30000E94763C80930802809106019091070191
:107D4000880F991F90930701809306010E94763C4B
:107D5000853409F49AC080910C028E7F80930C02C6
:107D60000E94763C803209F0B8CE8091C00085FF39
:107D7000FCCFF092C600A0910802B09109021097C2
:107D8000C1F180910C02082F0170182F1695117007
:107D9000E0910601F0910701AF014F5F5F4FBA011B
:107DA00020E030E00023B1F4112339F49491809164
:107DB000C00085FFFCCF9093C6002F5F3F4FCB01E3
:107DC0000196FA012A173B0780F4BC014F5F5F4F11
:107DD000002351F3F999FECFF2BDE1BDF89A90B5B9
:107DE0008091C00085FFFCCFE6CF709307016093C0
:107DF00006018091C00085FDE5CE8091C00085FF21
:107E0000F8CFE0CE81E00E94C73C67CE0E94763C6E
:107E1000803209F08CCE8091C00085FFFCCFF092BB
:107E2000C6008091C00085FFFCCFE092C600809123
:107E3000C00085FFFCCFD092C6008091C00085FFB6
:107E4000FCCFC092C6008091C00085FFFCCFB092ED
:107E5000C60043CE80E10E94C73C3FCE0E94763CE4
:107E60000E94763C182F0E94763C112309F483C0AF
:107E7000113009F484C08FE00E94C73C2ECE80915F
:107E80000C02816080930C02F1CE80910C02816023
:107E900080930C0265CF809107018823880F880B9F
:107EA0008A2180930B028091060190910701880F2F
:107EB000991F90930701809306018091080280FF2B
:107EC00009C08091080290910902019690930902DD
:107ED00080930802F894F999FECF1127E0910601EA
:107EE000F0910701C8E0D1E0809108029091090269
:107EF000103091F40091570001700130D9F303E084
:107F000000935700E8950091570001700130D9F3B4
:107F100001E100935700E8950990199000915700EE
:107F200001700130D9F301E000935700E8951395F3
:107F3000103498F011270091570001700130D9F3E7
:107F400005E000935700E89500915700017001305B
:107F5000D9F301E100935700E8953296029709F0B2
:107F6000C7CF103011F00296E5CF11248091C000E8
:107F700085FFC5CEC8CE8EE10E94C73CAECD85E957
:0A7F80000E94C73CAACDF894FFCF81
:027F8A00800075
:040000030000780081
:00000001FF